0314713950999992020010100004+44883-063500FM-12+014599999V0201201N012919999999N002400199+00131+00131099981ADDAA106006031AA224006231AJ100033100030099AL19900331AY171021AY221021GA1081+001501071GE19MSL   +99999+99999GF108991081999001501999999IA1279KA1120M+00131KA2120N-00431MA1099905098201MD1610551+9999MW1611REMSYN10671395 11224 81225 10013 20013 39820 49998 56055 60061 76172 887// 333 10013 21043 43003 70062 90962 93103=
0204713950999992020010100004+44881-063509FM-15+014599999V0201301N012410012219N002414199+00101+00101099981ADDGD14991+0012219GE19MSL   +99999+99999GF199999999999001221999999MA1099901098215MW1101MW2611OC101801REMMET094METAR CYHZ 010000Z 13024G35KT 1 1/2SM -RA BR OVC004 01/01 A2950 RMK ST8 CIG RAG PRESFR SLP998=
0204713950999992020010100214+44881-063509FM-16+014599999V0201201N012910015219N002414199+00201+00201099911ADDGD14991+0015219GE19MSL   +99999+99999GF199999999999001521999999MA1099831098155MW1101MW2611OC101851REMMET094SPECI CYHZ 010021Z 12025G36KT 1 1/2SM -RA BR OVC005 02/02 A2948 RMK ST8 CIG RAG PRESFR SLP991=
0197713950999992020010100374+44881-063509FM-16+014599999V0201201N010310012219N002414199+00201+00201099891ADDGD14991+0012219GE19MSL   +99999+99999GF199999999999001221999999MA1099801098135MW1101MW2611OC101651REMMET087SPECI CYHZ 010037Z 12020G32KT 1 1/2SM -RA BR OVC004 02/02 A2947 RMK ST8 CIG RAG SLP989=
0197713950999992020010101004+44881-063509FM-15+014599999V0201201N010810012219N002414199+00201+00201099871ADDGD14991+0012219GE19MSL   +99999+99999GF199999999999001221999999MA1099801098115MW1101MW2611OC101391REMMET087METAR CYHZ 010100Z 12021G27KT 1 1/2SM -RA BR OVC004 02/02 A2947 RMK ST8 CIG RAG SLP987=
0196713950999992020010101304+44881-063509FM-16+014599999V0201401N007710009119N002414199+00301+00301099831ADDGD14991+0009119GE19MSL   +99999+99999GF199999999999000911999999MA1099761098085MW1101MW2611OC101241REMMET086SPECI CYHZ 010130Z 14015G24KT 1 1/2SM -RA BR OVC003 03/03 A2946 RMK ST8 PRESFR SLP983=
0189713950999992020010102004+44881-063509FM-15+014599999V0201201N008810009119N002414199+00401+00401099791ADDGD14991+0009119GE19MSL   +99999+99999GF199999999999000911999999MA1099731098045MW1101MW2611OC101241REMMET079METAR CYHZ 010200Z 12017G24KT 1 1/2SM -RA BR OVC003 04/04 A2945 RMK ST8 SLP979=
0189713950999992020010102254+44881-063509FM-16+014599999V0201201N007210006119N002414199+00401+00401099731ADDGD14991+0006119GE19MSL   +99999+99999GF199999999999000611999999MA1099661097985MW1101MW2511OC101031REMMET079SPECI CYHZ 010225Z 12014G20KT 1 1/2SM -DZ BR OVC002 04/04 A2943 RMK ST8 SLP973=
0209713950999992020010102354+44881-063509FM-16+014599999V0201201N00771000611WN001609199+00401+00401099691ADDGA1999+000611101GE19MSL   +99999+99999GF109991999999000611999999MA1099631097955MW1101MW2511REMMET106SPECI CYHZ 010235Z 12015KT 1SM R23/P6000FT/N R14/P6000FT/N -DZ BR VV002 04/04 A2942 RMK FG8 PRESFR SLP969=
0215713950999992020010102494+44881-063509FM-16+014599999V0201201N00721000611WN001207199+00401+00401099661ADDGA1999+000611101GE19MSL   +99999+99999GF109991999999000611999999MA1099591097925MW1101MW2511OC101081REMMET104SPECI CYHZ 010249Z 12014G21KT 3/4SM R23/P6000FT/N R14/P6000FT/N -DZ BR VV002 04/04 A2941 RMK FG8 SLP966=
0110713950999992020010103004+44883-063500FM-12+014599999V0201201N007719999999N001200199+00371+00371099631ADDAA103999999MA1099565097871MD1810341+9999REMSYN05871395 42/12 /1215 10037 20037 39787 49963 58034 333 6///7=
0209713950999992020010103004+44881-063509FM-15+014599999V0201201N00771000611WN001207199+00401+00401099621ADDGA1999+000611101GE19MSL   +99999+99999GF109991999999000611999999MA1099561097885MW1101MW2511REMMET106METAR CYHZ 010300Z 12015KT 3/4SM R23/5000VP6000FT/D R14/P6000FT/D -DZ BR VV002 04/04 A2940 RMK FG8 SLP962=
0202713950999992020010103134+44881-063509FM-16+014599999V0201201N00721000301WN000805199+00401+00401099601ADDGA1999+000301101GE19MSL   +99999+99999GF109991999999000301999999MA1099531097865MW1441MW2511REMMET099SPECI CYHZ 010313Z 12014KT 1/2SM R23/4000FT/N R14/5500FT/N -DZ FG VV001 04/04 A2939 RMK FG8 SLP960=
0202713950999992020010103534+44881-063509FM-16+014599999V0201201N00771000301WN000402199+00401+00401099481ADDGA1999+000301101GE19MSL   +99999+99999GF109991999999000301999999MA1099421097745MW1101MW2511REMMET099SPECI CYHZ 010353Z 12015KT 1/4SM R23/3000FT/N R14/3000FT/D -DZ BR VV001 04/04 A2936 RMK FG8 SLP948=
0202713950999992020010104004+44881-063509FM-15+014599999V0201301N00671000301WN000201199+00401+00401099481ADDGA1999+000301101GE19MSL   +99999+99999GF109991999999000301999999MA1099421097745MW1441MW2511REMMET099METAR CYHZ 010400Z 13013KT 1/8SM R23/3000FT/N R14/2600FT/N -DZ FG VV001 04/04 A2936 RMK FG8 SLP948=
0202713950999992020010105004+44881-063509FM-15+014599999V0201301N00511000301WN000402199+00401+00401099381ADDGA1999+000301101GE19MSL   +99999+99999GF109991999999000301999999MA1099321097645MW1441MW2511REMMET099METAR CYHZ 010500Z 13010KT 1/4SM R23/3000FT/N R14/2200FT/N -DZ FG VV001 04/04 A2933 RMK FG8 SLP938=
0192713950999992020010105234+44881-063509FM-16+014599999V0201501N00461000301WN000604199+00401+00401099381ADDGA1999+000301101GE19MSL   +99999+99999GF109991999999000301999999MA1099321097645MW1441REMMET095SPECI CYHZ 010523Z 15009KT 3/8SM R23/3000FT/N R14/2400FT/N FG VV001 04/04 A2933 RMK FG8 SLP938=
0256713950999992020010106004+44883-063500FM-12+014599999V0201301N003119999999N000600199+00411+00411099321ADDAA106005031AA224011431AJ100013100010099AY161021AY251021IA1269KA1240M+00431KA2240N-00431MA1099265097571MD1610301+9999MW1441REMSYN12271395 11/06 /1306 10041 20041 39757 49932 56030 60051 74465 333 10043 21043 42001 70114 9091/ 555 10030 20028 31239 40232=
0192713950999992020010106004+44881-063509FM-15+014599999V0201301N00361000301WN000604199+00401+00401099321ADDGA1999+000301101GE19MSL   +99999+99999GF109991999999000301999999MA1099251097585MW1441REMMET095METAR CYHZ 010600Z 13007KT 3/8SM R23/2600FT/N R14/2200FT/N FG VV001 04/04 A2931 RMK FG8 SLP932=
0203713950999992020010107004+44881-063509FM-15+014599999V0201701N00361000301WN000604199+00401+00401099331ADDGA1999+000301101GE19MSL   +99999+99999GF109991999999000301999999MA1099251097595MW1441REMMET106METAR CYHZ 010700Z 17007KT 3/8SM R23/2600V5000FT/U R14/2800VP6000FT/D FG VV001 04/04 A2931 RMK FG8 SLP933=
0192713950999992020010108004+44881-063509FM-15+014599999V0202201N00461000301WN000402199+00401+00401099301ADDGA1999+000301101GE19MSL   +99999+99999GF109991999999000301999999MA1099221097565MW1441REMMET095METAR CYHZ 010800Z 22009KT 1/4SM R23/2600FT/N R14/3500FT/D FG VV001 04/04 A2930 RMK FG8 SLP930=
0110713950999992020010109004+44883-063500FM-12+014599999V0202301N005719999999N000800199+00341+00341099251ADDAA103999999MA1099195097501MD1810071+9999REMSYN05871395 42/08 /2311 10034 20034 39750 49925 58007 333 6///7=
0198713950999992020010109004+44881-063509FM-15+014599999V0202301N00621000301WN000805199+00301+00301099251ADDGA1999+000301101GE19MSL   +99999+99999GF109991999999000301999999MA1099191097515MW1441REMMET101METAR CYHZ 010900Z 23012KT 1/2SM R23/3500V5500FT/D R14/P6000FT/N FG VV001 03/03 A2929 RMK FG8 SLP925=
0197713950999992020010109084+44881-063509FM-16+014599999V0202401N00571000301WN001609199+00301+00301099251ADDGA1999+000301101GE19MSL   +99999+99999GF109991999999000301999999MA1099191097515MW1101REMMET100SPECI CYHZ 010908Z 24011KT 1SM R23/4000VP6000FT/U R14/P6000FT/U BR VV001 03/03 A2929 RMK FG8 SLP925=
0156713950999992020010109274+44881-063509FM-16+014599999V0202501N005110012219N016093199+00301+00301099251ADDGD14991+0012219GE19MSL   +99999+99999GF199999999999001221999999MA1099191097515REMMET066SPECI CYHZ 010927Z 25010KT 10SM OVC004 03/03 A2929 RMK SF8 SLP925=
0175713950999992020010109464+44881-063509FM-16+014599999V0202401N005110009119N004828199+00301+00301099251ADDGD14991+0009119GE19MSL   +99999+99999GF199999999999000911999999MA1099191097515MW1101OC100881REMMET071SPECI CYHZ 010946Z 24010G17KT 3SM BR OVC003 03/03 A2929 RMK SF8 SLP925=
0164713950999992020010110004+44881-063509FM-15+014599999V0202401N006210006119N003219199+00301+00301099261ADDGD14991+0006119GE19MSL   +99999+99999GF199999999999000611999999MA1099191097525MW1101REMMET068METAR CYHZ 011000Z 24012KT 2SM BR OVC002 03/03 A2929 RMK SF8 SLP926=
0156713950999992020010110084+44881-063509FM-16+014599999V0202501N005110018319N016093199+00301+00301099271ADDGD14991+0018319GE19MSL   +99999+99999GF199999999999001831999999MA1099191097535REMMET066SPECI CYHZ 011008Z 25010KT 10SM OVC006 03/03 A2929 RMK SF8 SLP927=
0192713950999992020010110344+44881-063509FM-16+014599999V0202601N007210018319N016093199+00201+00201099301ADDGD13991+0018319GD24991+0249919GE19MSL   +99999+99999GF199999999999001831999999MA1099221097555OC101031REMMET079SPECI CYHZ 011034Z 26014G20KT 10SM BKN006 OVC082 02/02 A2930 RMK ST6AC2 SLP930=
0181713950999992020010111004+44881-063509FM-15+014599999V0202501N007710021319N019312199+00201+00201099331ADDGD13991+0021319GD24991+0249919GE19MSL   +99999+99999GF199999999999002131999999MA1099251097585REMMET076METAR CYHZ 011100Z 25015KT 12SM BKN007 OVC082 02/02 A2931 RMK ST7AC1 SLP933=
0167713950999992020010111224+44881-063509FM-16+014599999V0202501N005110009119N019312199+00201+00201099351ADDGD14991+0009119GE19MSL   +99999+99999GF199999999999000911999999MA1099291097605OC100821REMMET069SPECI CYHZ 011122Z 25010G16KT 12SM OVC003 02/02 A2932 RMK ST8 SLP935=
0167713950999992020010111394+44881-063509FM-16+014599999V0202601N006210024419N024140199+00101+00101099371ADDGD14991+0024419GE19MSL   +99999+99999GF199999999999002441999999MA1099321097615OC100931REMMET069SPECI CYHZ 011139Z 26012G18KT 15SM OVC008 01/01 A2933 RMK ST8 SLP937=
0308713950999992020010112004+44883-063500FM-12+014599999V0202501N007219999999N024000199+00111+00101099381ADDAA106000091AA224011431AJ100013100010099AY141021AY221021GA1071+002501071GA2999+999999031GE19MSL   +99999+99999GF108991071999002501999999IA1259KA1240M+00431KA2240N+00111MA1099315097621MD1310121+9999MW1021REMSYN09471395 11374 82514 10011 20010 39762 49938 53012 60001 70242 8767/ 333 10043 20011 41001 70114=
0181713950999992020010112004+44881-063509FM-15+014599999V0202501N007710024419N024140199+00101+00101099371ADDGD13991+0024419GD24991+0243819GE19MSL   +99999+99999GF199999999999002441999999MA1099321097615REMMET076METAR CYHZ 011200Z 25015KT 15SM BKN008 OVC080 01/01 A2933 RMK ST7AC1 SLP937=
0167713950999992020010112184+44881-063509FM-16+014599999V0202501N006710021319N024140199+00101+00101099391ADDGD14991+0021319GE19MSL   +99999+99999GF199999999999002131999999MA1099321097635OC101131REMMET069SPECI CYHZ 011218Z 25013G22KT 15SM OVC007 01/01 A2933 RMK ST8 SLP939=
0167713950999992020010113004+44881-063509FM-15+014599999V0202601N005710030519N024140199+00101+00101099451ADDGD14991+0030519GE19MSL   +99999+99999GF199999999999003051999999MA1099391097695OC101031REMMET069METAR CYHZ 011300Z 26011G20KT 15SM OVC010 01/01 A2935 RMK SC8 SLP945=
0156713950999992020010114004+44881-063509FM-15+014599999V0202601N007710030519N024140199+00101+00101099491ADDGD13991+0030519GE19MSL   +99999+99999GF199999999999003051999999MA1099421097735REMMET066METAR CYHZ 011400Z 26015KT 15SM BKN010 01/01 A2936 RMK SC7 SLP949=
0174713950999992020010115004+44883-063500FM-12+014599999V0202401N006219999999N024000199+00121+00051099501ADDAA103999999GA1999+004501999GE19MSL   +99999+99999GF107991999999004501999999MA1099445097751MD1110131+9999REMSYN05871395 42474 72412 10012 20005 39775 49950 51013 333 6///7=
0187713950999992020010115004+44881-063509FM-15+014599999V0202401N007210030519N024140199+00101+00101099501ADDGD13991+0030519GD23991+0304819GE19MSL   +99999+99999GF199999999999003051999999MA1099421097745REMMET082METAR CYHZ 011500Z 24014KT 15SM BKN010 BKN100 01/01 A2936 RMK SC7AC1 AC TR SLP950=
0214713950999992020010115244+44881-063509FM-16+014599999V0202401N005710039619N024140199+00201+00101099481ADDGD13991+0039619GD23991+0304819GE19MSL   +99999+99999GF199999999999003961999999MA1099421097735MW1851OC100881REMMET095SPECI CYHZ 011524Z 24011G17KT 15SM -SHSN BKN013 BKN100 02/01 A2936 RMK SC6AC1 CU ASOCTD SLP948=
0193713950999992020010115474+44881-063509FM-16+014599999V0202401N006210304819N024140199+00101+00101099441ADDGD12991+0045719GD23991+0304819GE19MSL   +99999+99999GF199999999999004571999999MA1099391097685MW1851REMMET082SPECI CYHZ 011547Z 24012KT 15SM -SHSN SCT015 BKN100 01/01 A2935 RMK CU4AC3 SLP944=
0181713950999992020010116004+44881-063509FM-15+014599999V0202401N005110304819N024140199+00201+00101099421ADDGD11991+0045719GD23991+0304819GE19MSL   +99999+99999GF199999999999004571999999MA1099361097675REMMET076METAR CYHZ 011600Z 24010KT 15SM FEW015 BKN100 02/01 A2934 RMK CU2AC5 SLP942=
0181713950999992020010117004+44881-063509FM-15+014599999V0202401N007710045719N024140199+00201+00101099361ADDGD13991+0045719GD24991+0304819GE19MSL   +99999+99999GF199999999999004571999999MA1099321097615REMMET076METAR CYHZ 011700Z 24015KT 15SM BKN015 OVC100 02/01 A2933 RMK SC6AC1 SLP936=
0314713950999992020010118004+44883-063500FM-12+014599999V0202401N005719999999N024000199+00221+00081099341ADDAA106000021AA224011431AJ100013100010099AY181021AY221021GA1021+004501081GA2999+999999031GE19MSL   +99999+99999GF107991021999004501999999IA1259KA1120M+00441KA2120N-00041MA1099285097591MD1610161+9999MW1011REMSYN10071395 11474 72411 10022 20008 39759 49934 56016 69901 70182 82170 333 10044 21004 41001 70114 90930=
0181713950999992020010118004+44881-063509FM-15+014599999V0202301N005710289619N024140199+00201+00101099331ADDGD11991+0045719GD23991+0289619GE19MSL   +99999+99999GF199999999999004571999999MA1099291097585REMMET076METAR CYHZ 011800Z 23011KT 15SM FEW015 BKN095 02/01 A2932 RMK CU2AC5 SLP933=
0195713950999992020010118284+44881-063509FM-16+014599999V0202301N007710045719N024140199+00201+00101099331ADDGD13991+0045719GD23991+0274319GE19MSL   +99999+99999GF199999999999004571999999MA1099291097585MW1831REMMET084SPECI CYHZ 011828Z 23015KT 15SM -SHRASN BKN015 BKN090 02/01 A2932 RMK CU5AC2 SLP933=
0220713950999992020010119004+44881-063509FM-15+014599999V0202601N006210762019N024140199+00201+00101099331ADDGD11991+0045719GD22991+0106719GD33991+0762019GE19MSL   +99999+99999GF199999999999004571999999MA1099291097585MW1831REMMET094METAR CYHZ 011900Z 26012KT 15SM -SHRASN FEW015 SCT035 BKN250 02/01 A2932 RMK CU2SC2CI2 SLP933=
0195713950999992020010119164+44881-063509FM-16+014599999V0202601N005110039619N024140199+00201+00101099381ADDGD13991+0039619GD24991+0106719GE19MSL   +99999+99999GF199999999999003961999999MA1099321097635MW1831REMMET084SPECI CYHZ 011916Z 26010KT 15SM -SHRASN BKN013 OVC035 02/01 A2933 RMK SF7CU1 SLP938=
0214713950999992020010119264+44881-063509FM-16+014599999V0202401N005110082319N024140199+00101+00101099381ADDGD11991+0039619GD24991+0082319GE19MSL   +99999+99999GF199999999999003961999999MA1099321097625MW1831REMMET103SPECI CYHZ 011926Z CCA 24010KT 15SM -SHRASN FEW013 OVC027 01/01 A2933 RMK SF2SC6 CVCTV CLD EMBD SLP938=
0226713950999992020010120004+44881-063509FM-15+014599999V0202601N005710125019N024140199+00101+00001099401ADDGD11991+0039619GD23991+0125019GD33991+0762019GE19MSL   +99999+99999GF199999999999003961999999MA1099321097645MW1831REMMET100METAR CYHZ 012000Z 26011KT 15SM -SHRASN FEW013 BKN041 BKN250 01/00 A2933 RMK SF1SC6CI1 CI TR SLP940=
0206713950999992020010120394+44881-063509FM-16+014599999V0202801N005110167619N024140199+00101+00001099411ADDGD11991+0036619GD23991+0167619GD33991+0231619GE19MSL   +99999+99999GF199999999999003661999999MA1099361097655REMMET086SPECI CYHZ 012039Z 28010KT 15SM FEW012 BKN055 BKN076 01/00 A2934 RMK SF2SC3AC2 SLP941=
0174713950999992020010121004+44883-063500FM-12+014599999V0202701N005719999999N024000199+00081-00041099441ADDAA103999999GA1999+004501999GE19MSL   +99999+99999GF108991999999004501999999MA1099385097691MD1310101+9999REMSYN05871395 42474 82711 10008 21004 39769 49944 53010 333 6///7=
0242713950999992020010121004+44881-063509FM-15+014599999V0202701N006210170719N024140199+00101+00001099441ADDGD11991+0033519GD22991+0061019GD33991+0170719GD43991+0228619GE19MSL   +99999+99999GF199999999999003351999999MA1099391097685REMMET107METAR CYHZ 012100Z 27012KT 15SM FEW011 SCT020 BKN056 BKN075 OVC250 01/M00 A2935 RMK SF1SC2SC3AC1CI1 SLP944=
0182713950999992020010122004+44881-063509FM-15+014599999V0202501N005110213419N024140199+00001-00101099461ADDGD12991+0076219GD23991+0213419GE19MSL   +99999+99999GF199999999999007621999999MA1099391097695REMMET077METAR CYHZ 012200Z 25010KT 15SM SCT025 BKN070 00/M01 A2935 RMK SC3AC3 SLP946=
0158713950999992020010123004+44881-063509FM-15+014599999V0202601N005710128019N024140199+00001-00201099481ADDGD13991+0128019GE19MSL   +99999+99999GF199999999999012801999999MA1099421097715REMMET068METAR CYHZ 012300Z 26011KT 15SM BKN042 M00/M02 A2936 RMK SC6 SLP948=
0298713950999992020010200004+44883-063500FM-12+014599999V0202301N004119999999N024000199-00061-00141099551ADDAA106000431AA224005631AJ100013100010099AY181021AY221021GA1071+017501061GE19MSL   +99999+99999GF107991071999017501999999IA1259KA1120M+00301KA2120N-00081MA1099475097781MD1310101+9999MW1021REMSYN10071395 11774 72308 11006 21014 39778 49955 53010 69941 70282 875// 333 10030 21008 41001 70056 90941=
0158713950999992020010200004+44881-063509FM-15+014599999V0202301N004610161519N024140199-00101-00101099551ADDGD13991+0161519GE19MSL   +99999+99999GF199999999999016151999999MA1099491097785REMMET068METAR CYHZ 020000Z 23009KT 15SM BKN053 M01/M01 A2938 RMK SC7 SLP955=
0185713950999992020010200214+44881-063509FM-16+014599999V0202201N005110128019N024140199-00101-00101099581ADDGD14991+0128019GE19MSL   +99999+99999GF199999999999012801999999MA1099491097815MW1851REMMET089SPECI CYHZ 020021Z 22010KT 15SM -SHSN OVC042 M01/M01 A2938 RMK SC8 CVCTV CLD EMBD SLP958=
0185713950999992020010201004+44881-063509FM-15+014599999V0202301N006210091419N024140199-00101-00101099591ADDGD14991+0091419GE19MSL   +99999+99999GF199999999999009141999999MA1099531097825MW1851REMMET089METAR CYHZ 020100Z 23012KT 15SM -SHSN OVC030 M01/M01 A2939 RMK SC8 CVCTV CLD EMBD SLP959=
0185713950999992020010202004+44881-063509FM-15+014599999V0202401N005710085319N024140199-00101-00101099611ADDGD14991+0085319GE19MSL   +99999+99999GF199999999999008531999999MA1099531097845MW1851REMMET089METAR CYHZ 020200Z 24011KT 15SM -SHSN OVC028 M01/M01 A2939 RMK SC8 CVCTV CLD EMBD SLP961=
0184713950999992020010202374+44881-063509FM-16+014599999V0202501N005110045719N003219199+00001-00101099631ADDGD14991+0045719GE19MSL   +99999+99999GF199999999999004571999999MA1099561097865MW1851REMMET088SPECI CYHZ 020237Z 25010KT 2SM -SHSN OVC015 M00/M01 A2940 RMK SC8 CVCTV CLD EMBD SLP963=
0210713950999992020010202464+44881-063509FM-16+014599999V0202601N005110045719N024140199-00101-00101099641ADDGD13991+0045719GD24991+0103619GE19MSL   +99999+99999GF199999999999004571999999MA1099561097865MW1851REMMET099SPECI CYHZ 020246Z 26010KT 15SM -SHSN BKN015 OVC034 M01/M01 A2940 RMK SC5SC3 CVCTV CLD EMBD SLP964=
0174713950999992020010203004+44883-063500FM-12+014599999V0202501N005119999999N024000199-00061-00071099651ADDAA103999999GA1999+004501999GE19MSL   +99999+99999GF108991999999004501999999MA1099575097881MD1210101+9999REMSYN05871395 42474 82510 11006 21007 39788 49965 52010 333 6///7=
0210713950999992020010203004+44881-063509FM-15+014599999V0202501N005110045719N024140199-00101-00101099651ADDGD13991+0045719GD24991+0085319GE19MSL   +99999+99999GF199999999999004571999999MA1099591097875MW1851REMMET099METAR CYHZ 020300Z 25010KT 15SM -SHSN BKN015 OVC028 M01/M01 A2941 RMK SC5SC3 CVCTV CLD EMBD SLP965=
0183713950999992020010204004+44881-063509FM-15+014599999V0202701N005710115819N024140199+00001-00201099661ADDGD11991+0070119GD24991+0115819GE19MSL   +99999+99999GF199999999999007011999999MA1099591097895REMMET078METAR CYHZ 020400Z 27011KT 15SM FEW023 OVC038 M00/M02 A2941 RMK SC2SC6 SLP966=
0158713950999992020010205004+44881-063509FM-15+014599999V0202701N005110076219N024140199+00001-00201099721ADDGD14991+0076219GE19MSL   +99999+99999GF199999999999007621999999MA1099661097955REMMET068METAR CYHZ 020500Z 27010KT 15SM OVC025 M00/M02 A2943 RMK SC8 SLP972=
0326713950999992020010206004+44883-063500FM-12+014599999V0202901N007219999999N024000199-00021-00381099811ADDAA106000021AA224000431AJ100013100010099AY181021AY221021GA1081+008001061GE19MSL   +99999+99999GF108991081999008001999999IA1259KA1240M+00441KA2240N-00081MA1099745098041MD1310161+9999MW1021REMSYN12871395 11574 82914 11002 21038 39804 49981 53016 69901 70282 885// 333 10044 21008 41001 70004 90932 555 10002 20002 32925 40061=
0169713950999992020010206004+44881-063509FM-15+014599999V0202801N006710073219N024140199+00001-00401099811ADDGD14991+0073219GE19MSL   +99999+99999GF199999999999007321999999MA1099731098045OC101181REMMET071METAR CYHZ 020600Z 28013G23KT 15SM OVC024 M00/M04 A2945 RMK SC8 SLP981=
0169713950999992020010207004+44881-063509FM-15+014599999V0202901N007210079219N024140199+00001-00401099881ADDGD14991+0079219GE19MSL   +99999+99999GF199999999999007921999999MA1099801098115OC101081REMMET071METAR CYHZ 020700Z 29014G21KT 15SM OVC026 M00/M04 A2947 RMK SC8 SLP988=
0166713950999992020010208004+44881-063509FM-15+014599999V0202901V008810088419N024140199+00001-00401099921ADDGD14991+0088419GE19MSL   +99999+99999GF199999999999008841999999MA1099861098155REMMET076METAR CYHZ 020800Z 29017KT 260V320 15SM OVC029 M00/M04 A2949 RMK SC8 SLP992=
0174713950999992020010209004+44883-063500FM-12+014599999V0202901N008219999999N024000199-00021-00471099991ADDAA103999999GA1999+008001999GE19MSL   +99999+99999GF108991999999008001999999MA1099915098211MD1210171+9999REMSYN05871395 42574 82916 11002 21047 39821 49999 52017 333 6///7=
0169713950999992020010209004+44881-063509FM-15+014599999V0202901N008810088419N024140199+00001-00501099981ADDGD14991+0088419GE19MSL   +99999+99999GF199999999999008841999999MA1099901098215OC101291REMMET071METAR CYHZ 020900Z 29017G25KT 15SM OVC029 M00/M05 A2950 RMK SC8 SLP998=
0169713950999992020010210004+44881-063509FM-15+014599999V0202801N007710097519N024140199+00001-00401100051ADDGD14991+0097519GE19MSL   +99999+99999GF199999999999009751999999MA1099971098275OC101241REMMET071METAR CYHZ 021000Z 28015G24KT 15SM OVC032 M00/M04 A2952 RMK SC8 SLP005=
0169713950999992020010211004+44881-063509FM-15+014599999V0202901N006710106719N024140199+00001-00401100151ADDGD13991+0106719GE19MSL   +99999+99999GF199999999999010671999999MA1100071098375OC101081REMMET071METAR CYHZ 021100Z 29013G21KT 15SM BKN035 M00/M04 A2955 RMK SC7 SLP015=
0251713950999992020010212004+44883-063500FM-12+014599999V0202801N006719999999N024000199-00011-00451100241ADDAA106000091AA224000431GA1021+012501061GA2999+999999031GE19MSL   +99999+99999GF106991021999012501999999KA1240M+00441KA2240N-00081MA1100155098451MD1210241+9999REMSYN08271395 12674 62813 11001 21045 39845 40024 52024 60001 82550 333 10044 21008 70004=
0194713950999992020010212004+44881-063509FM-15+014599999V0202801N006210225619N024140199+00001-00401100231ADDGD11991+0125019GD23991+0225619GE19MSL   +99999+99999GF199999999999012501999999MA1100171098455OC100931REMMET081METAR CYHZ 021200Z 28012G18KT 15SM FEW041 BKN074 M00/M04 A2958 RMK SC2AC4 SLP023=
0183713950999992020010213004+44881-063509FM-15+014599999V0202601N005110137219N024140199+00001-00401100311ADDGD13991+0137219GD23991+0246919GE19MSL   +99999+99999GF199999999999013721999999MA1100241098535REMMET078METAR CYHZ 021300Z 26010KT 15SM BKN045 BKN081 M00/M04 A2960 RMK SC5AC2 SLP031=
0192713950999992020010214004+44881-063509FM-15+014599999V0202701N005710137219N024140199+00101-00301100381ADDGD11991+0061019GD23991+0137219GE19MSL   +99999+99999GF199999999999006101999999MA1100301098605REMMET087METAR CYHZ 021400Z 27011KT 15SM FEW020 BKN045 01/M03 A2962 RMK CF1SC5 CU ASOCTD SLP038=
0174713950999992020010215004+44883-063500FM-12+014599999V0202901N008219999999N024000199+00131-00321100401ADDAA103999999GA1999+012501999GE19MSL   +99999+99999GF107991999999012501999999MA1100315098611MD1110161+9999REMSYN05871395 42674 72916 10013 21032 39861 40040 51016 333 6///7=
0168713950999992020010215004+44881-063509FM-15+014599999V0202901N009310103619N024140199+00101-00301100391ADDGD13991+0103619GE19MSL   +99999+99999GF199999999999010361999999MA1100301098615OC101341REMMET070METAR CYHZ 021500Z 29018G26KT 15SM BKN034 01/M03 A2962 RMK SC7 SLP039=
0168713950999992020010216004+44881-063509FM-15+014599999V0202901N009310115819N024140199+00201-00301100351ADDGD13991+0115819GE19MSL   +99999+99999GF199999999999011581999999MA1100271098585OC101181REMMET070METAR CYHZ 021600Z 29018G23KT 15SM BKN038 02/M03 A2961 RMK SC7 SLP035=
0176713950999992020010217004+44881-063509FM-15+014599999V0202801V009810125019N024140199+00201-00401100331ADDGD13991+0125019GE19MSL   +99999+99999GF199999999999012501999999MA1100271098565OC101241REMMET078METAR CYHZ 021700Z 28019G24KT 240V310 15SM BKN041 02/M04 A2961 RMK SC7 SLP033=
0235713950999992020010218004+44883-063500FM-12+014599999V0202801N008819999999N024000199+00171-00461100341ADDAA106000091AA224000431GA1071+012501061GE19MSL   +99999+99999GF107991071999012501999999KA1120M+00191KA2120N-00081MA1100265098561MD1510051+9999REMSYN08271395 12674 72817 10017 21046 39856 40034 55005 60001 87500 333 10019 21008 70004=
0168713950999992020010218004+44881-063509FM-15+014599999V0202801N006710106719N024140199+00201-00501100341ADDGD13991+0106719GE19MSL   +99999+99999GF199999999999010671999999MA1100271098575OC101441REMMET070METAR CYHZ 021800Z 28013G28KT 15SM BKN035 02/M05 A2961 RMK SC7 SLP034=
0168713950999992020010219004+44881-063509FM-15+014599999V0202901N006710109719N024140199+00201-00401100421ADDGD13991+0109719GE19MSL   +99999+99999GF199999999999010971999999MA1100341098655OC101131REMMET070METAR CYHZ 021900Z 29013G22KT 15SM BKN036 02/M04 A2963 RMK SC7 SLP042=
0168713950999992020010220004+44881-063509FM-15+014599999V0202901N006210106719N024140199+00101-00401100521ADDGD13991+0106719GE19MSL   +99999+99999GF199999999999010671999999MA1100441098745OC101291REMMET070METAR CYHZ 022000Z 29012G25KT 15SM BKN035 01/M04 A2966 RMK SC5 SLP052=
0174713950999992020010221004+44883-063500FM-12+014599999V0202901N005119999999N024000199+00071-00401100601ADDAA103999999GA1999+012501999GE19MSL   +99999+99999GF107991999999012501999999MA1100525098811MD1210251+9999REMSYN05871395 42674 72910 10007 21040 39881 40060 52025 333 6///7=
0157713950999992020010221004+44881-063509FM-15+014599999V0202901N006210103619N024140199+00101-00401100601ADDGD13991+0103619GE19MSL   +99999+99999GF199999999999010361999999MA1100511098825REMMET067METAR CYHZ 022100Z 29012KT 15SM BKN034 01/M04 A2968 RMK SC7 SLP060=
0168713950999992020010222004+44881-063509FM-15+014599999V0202901N006210088419N024140199+00101-00401100681ADDGD14991+0088419GE19MSL   +99999+99999GF199999999999008841999999MA1100611098905OC100931REMMET070METAR CYHZ 022200Z 29012G18KT 15SM OVC029 01/M04 A2971 RMK SC8 SLP068=
0168713950999992020010223004+44881-063509FM-15+014599999V0203001N005110079219N024140199+00101-00401100731ADDGD14991+0079219GE19MSL   +99999+99999GF199999999999007921999999MA1100641098955OC100771REMMET070METAR CYHZ 022300Z 30010G15KT 15SM OVC026 01/M04 A2972 RMK SC8 SLP073=
0235713950999992020010300004+44883-063500FM-12+014599999V0202901N005719999999N024000199+00051-00401100801ADDAA106000091AA224000021GA1081+008001061GE19MSL   +99999+99999GF108991081999008001999999KA1120M+00191KA2120N-00041MA1100725099011MD1310201+9999REMSYN08271395 12574 82911 10005 21040 39901 40080 53020 60001 885// 333 10019 21004 79999=
0168713950999992020010300004+44881-063509FM-15+014599999V0202901N006210085319N024140199+00101-00401100801ADDGD14991+0085319GE19MSL   +99999+99999GF199999999999008531999999MA1100711099025OC100931REMMET070METAR CYHZ 030000Z 29012G18KT 15SM OVC028 01/M04 A2974 RMK SC8 SLP080=
0168713950999992020010301004+44881-063509FM-15+014599999V0203001N005110079219N024140199+00001-00401100821ADDGD14991+0079219GE19MSL   +99999+99999GF199999999999007921999999MA1100741099035OC100881REMMET070METAR CYHZ 030100Z 30010G17KT 15SM OVC026 00/M04 A2975 RMK SC8 SLP082=
0183713950999992020010302004+44881-063509FM-15+014599999V0202801N003610670619N024140199-00101-00401100811ADDGD11991+0079219GD23991+0670619GE19MSL   +99999+99999GF199999999999007921999999MA1100741099015REMMET078METAR CYHZ 030200Z 28007KT 15SM FEW026 BKN220 M01/M04 A2975 RMK SC2CI4 SLP081=
0174713950999992020010303004+44883-063500FM-12+014599999V0202501N003119999999N024000199-00141-00401100831ADDAA103999999GA1999+008001999GE19MSL   +99999+99999GF105991999999008001999999MA1100745099031MD1990021+9999REMSYN05871395 42574 52506 11014 21040 39903 40083 50002 333 6///7=
0183713950999992020010303004+44881-063509FM-15+014599999V0202601N003610701019N024140199-00101-00401100821ADDGD11991+0079219GD23991+0701019GE19MSL   +99999+99999GF199999999999007921999999MA1100741099025REMMET078METAR CYHZ 030300Z 26007KT 15SM FEW026 BKN230 M01/M04 A2975 RMK SC1CI4 SLP082=
0208713950999992020010304004+44881-063509FM-15+014599999V0202101N002110457219N024140199-00201-00401100861ADDGD11991+0091419GD23991+0457219GD34991+0731519GE19MSL   +99999+99999GF199999999999009141999999MA1100781099065REMMET088METAR CYHZ 030400Z 21004KT 15SM FEW030 BKN150 OVC240 M02/M04 A2976 RMK SC1AC5CI1 SLP086=
0158713950999992020010305004+44881-063509FM-15+014599999V0202301N003110457219N024140199-00201-00301100751ADDGD13991+0457219GE19MSL   +99999+99999GF199999999999045721999999MA1100681098955REMMET068METAR CYHZ 030500Z 23006KT 15SM BKN150 M02/M03 A2973 RMK AC6 SLP075=
0263713950999992020010306004+44883-063500FM-12+014599999V0202301N004619999999N024000199-00171-00311100751ADDAA106000091AA224000091GA1051+999999031GE19MSL   +99999+99999GF105991051999999999999999KA1240M+00191KA2240N-00211MA1100675098961MD1810071+9999REMSYN11071395 12974 52309 11017 21031 39896 40075 58007 60001 85030 333 10019 21021 70000 555 10000 20000 32930 40111=
0158713950999992020010306004+44881-063509FM-15+014599999V0202301N005110457219N024140199-00201-00301100751ADDGD13991+0457219GE19MSL   +99999+99999GF199999999999045721999999MA1100681098955REMMET068METAR CYHZ 030600Z 23010KT 15SM BKN150 M02/M03 A2973 RMK AC5 SLP075=
0158713950999992020010307004+44881-063509FM-15+014599999V0202201N003110518219N024140199-00101-00301100721ADDGD13991+0518219GE19MSL   +99999+99999GF199999999999051821999999MA1100641098935REMMET068METAR CYHZ 030700Z 22006KT 15SM BKN170 M01/M03 A2972 RMK AC6 SLP072=
0183713950999992020010308004+44881-063509FM-15+014599999V0202201N003110213419N024140199-00101-00301100741ADDGD13991+0213419GD24991+0579119GE19MSL   +99999+99999GF199999999999021341999999MA1100681098955REMMET078METAR CYHZ 030800Z 22006KT 15SM BKN070 OVC190 M01/M03 A2973 RMK AC5AC3 SLP074=
0174713950999992020010309004+44883-063500FM-12+014599999V0202201N002119999999N024000199-00081-00251100751ADDAA103999999GA1999+004501999GE19MSL   +99999+99999GF108991999999004501999999MA1100675098961MD1510001+9999REMSYN05871395 42474 82204 11008 21025 39896 40075 55000 333 6///7=
0183713950999992020010309004+44881-063509FM-15+014599999V0202201N002610051819N024140199-00101-00201100751ADDGD13991+0051819GD24991+0457219GE19MSL   +99999+99999GF199999999999005181999999MA1100681098955REMMET078METAR CYHZ 030900Z 22005KT 15SM BKN017 OVC150 M01/M02 A2973 RMK SC7AC1 SLP075=
0183713950999992020010310004+44881-063509FM-15+014599999V0201901N002610061019N024140199-00101-00201100701ADDGD13991+0061019GD24991+0426719GE19MSL   +99999+99999GF199999999999006101999999MA1100611098915REMMET078METAR CYHZ 031000Z 19005KT 15SM BKN020 OVC140 M01/M02 A2971 RMK SC6AC2 SLP070=
0183713950999992020010311004+44881-063509FM-15+014599999V0202001N003610216419N024140199+00001-00201100731ADDGD11991+0061019GD24991+0216419GE19MSL   +99999+99999GF199999999999006101999999MA1100641098945REMMET078METAR CYHZ 031100Z 20007KT 15SM FEW020 OVC071 M00/M02 A2972 RMK SC2AC6 SLP073=
0280713950999992020010312004+44883-063500FM-12+014599999V0201401N002619999999N024000199-00071-00171100691ADDAA106000091AA224000091AJ100013100010099GA1011+008001061GA2999+999999031GE19MSL   +99999+99999GF108991011999008001999999IA1259KA1240M+00191KA2240N-00211MA1100615098901MD1510061+9999REMSYN08871395 12574 81405 11007 21017 39890 40069 55006 60001 8157/ 333 10019 21021 41001 70000=
0189713950999992020010312004+44881-063509FM-15+014599999V0201401N002110204219N024140199-00101-00201100691ADDGD11991+0061019GD24991+0204219GE19MSL   +99999+99999GF199999999999006101999999MA1100611098905REMMET084METAR CYHZ 031200Z 14004KT 15SM FEW020 OVC067 M01/M02 A2971 RMK SC1AC8 SC TR SLP069=
0158713950999992020010313004+44881-063509FM-15+014599999V0201601N003110204219N024140199+00001-00101100701ADDGD14991+0204219GE19MSL   +99999+99999GF199999999999020421999999MA1100611098915REMMET068METAR CYHZ 031300Z 16006KT 15SM OVC067 M00/M01 A2971 RMK AC8 SLP070=
0212713950999992020010314004+44881-063509FM-15+014599999V0202101N002610228619N024140199+00101+00001100731ADDGD11991+0030519GD21991+0167619GD33991+0228619GE19MSL   +99999+99999GF199999999999003051999999MA1100641098955REMMET092METAR CYHZ 031400Z 21005KT 15SM FEW010 FEW055 BKN075 01/00 A2972 RMK CF1SC1AC6 CF TR SLP073=
0174713950999992020010315004+44883-063500FM-12+014599999V0202201N002619999999N024000199+00261+00141100641ADDAA103999999GA1999+017501999GE19MSL   +99999+99999GF107991999999017501999999MA1100565098851MD1810051+9999REMSYN05871395 42774 72205 10026 20014 39885 40064 58005 333 6///7=
0181713950999992020010315004+44881-063509FM-15+014599999V0202101N003110548619N024140199+00301+00101100631ADDGD11991+0167619GD23991+0548619GE19MSL   +99999+99999GF199999999999016761999999MA1100581098865REMMET076METAR CYHZ 031500Z 21006KT 15SM FEW055 BKN180 03/01 A2970 RMK SC1AC6 SLP063=
0212713950999992020010316004+44881-063509FM-15+014599999V0202301N003610548619N024140199+00401+00201100541ADDGD11991+0167619GD23991+0548619GD33991+0640119GE19MSL   +99999+99999GF199999999999016761999999MA1100471098785REMMET092METAR CYHZ 031600Z 23007KT 15SM FEW055 BKN180 BKN210 04/02 A2967 RMK SC1AC6CI1 SC TR SLP054=
0187713950999992020010317004+44881-063509FM-15+014599999V0202401N002610548619N024140199+00401+00201100501ADDGD11991+0274319GD23991+0548619GE19MSL   +99999+99999GF199999999999027431999999MA1100441098745REMMET082METAR CYHZ 031700Z 24005KT 15SM FEW090 BKN180 04/02 A2966 RMK AC1AC7 AC TR SLP050=
0251713950999992020010318004+44883-063500FM-12+014599999V0202601N003119999999N024000199+00471+00191100491ADDAA106000091AA224000091GA1051+999999031GA2999+999999001GE19MSL   +99999+99999GF106991051999999999999999KA1120M+00521KA2120N-00211MA1100425098711MD1610141+9999REMSYN08271395 12974 62606 10047 20019 39871 40049 56014 60001 85071 333 10052 21021 70000=
0212713950999992020010318004+44881-063509FM-15+014599999V0202701N003110518219N024140199+00501+00201100491ADDGD11991+0274319GD23991+0518219GD33991+0640119GE19MSL   +99999+99999GF199999999999027431999999MA1100411098745REMMET092METAR CYHZ 031800Z 27006KT 15SM FEW090 BKN170 BKN210 05/02 A2965 RMK AC1AC5CI1 AC TR SLP049=
0187713950999992020010319004+44881-063509FM-15+014599999V0202301N002610579119N024140199+00501+00201100551ADDGD11991+0274319GD23991+0579119GE19MSL   +99999+99999GF199999999999027431999999MA1100471098805REMMET082METAR CYHZ 031900Z 23005KT 15SM FEW090 BKN190 05/02 A2967 RMK AC1AC7 AC TR SLP055=
0181713950999992020010320004+44881-063509FM-15+014599999V0202301N002610609619N024140199+00401+00201100561ADDGD12991+0487719GD23991+0609619GE19MSL   +99999+99999GF199999999999048771999999MA1100511098805REMMET076METAR CYHZ 032000Z 23005KT 15SM SCT160 BKN200 04/02 A2968 RMK AC4CI3 SLP056=
0174713950999992020010321004+44883-063500FM-12+014599999V0202101N002619999999N024000199+00291+00171100571ADDAA103999999GA1999+022501999GE19MSL   +99999+99999GF108991999999022501999999MA1100495098781MD1110071+9999REMSYN05871395 42874 82105 10029 20017 39878 40057 51007 333 6///7=
0206713950999992020010321004+44881-063509FM-15+014599999V0202001N002610213419N024140199+00301+00201100561ADDGD13991+0213419GD23991+0579119GD34991+0670619GE19MSL   +99999+99999GF199999999999021341999999MA1100511098795REMMET086METAR CYHZ 032100Z 20005KT 15SM BKN070 BKN190 OVC220 03/02 A2968 RMK AC5AC2CI1 SLP056=
0181713950999992020010322004+44881-063509FM-15+014599999V0202501N002610213419N024140199+00301+00201100571ADDGD13991+0213419GD24991+0579119GE19MSL   +99999+99999GF199999999999021341999999MA1100511098805REMMET076METAR CYHZ 032200Z 25005KT 15SM BKN070 OVC190 03/02 A2968 RMK AC5AC3 SLP057=
0181713950999992020010323004+44881-063509FM-15+014599999V0202401N002610579119N024140199+00301+00201100601ADDGD12991+0198119GD23991+0579119GE19MSL   +99999+99999GF199999999999019811999999MA1100541098835REMMET076METAR CYHZ 032300Z 24005KT 15SM SCT065 BKN190 03/02 A2969 RMK SC3AC4 SLP060=
0251713950999992020010400004+44883-063500FM-12+014599999V0202301N002119999999N024000199+00241+00151100621ADDAA106000091AA224000091GA1021+017501061GA2999+999999031GE19MSL   +99999+99999GF108991021999017501999999KA1120M+00521KA2120N-00191MA1100545098831MD1310051+9999REMSYN08271395 12774 82304 10024 20015 39883 40062 53005 60001 8257/ 333 10052 21019 70000=
0181713950999992020010400004+44881-063509FM-15+014599999V0202301N002610579119N024140199+00201+00201100611ADDGD11991+0198119GD24991+0579119GE19MSL   +99999+99999GF199999999999019811999999MA1100541098845REMMET076METAR CYHZ 040000Z 23005KT 15SM FEW065 OVC190 02/02 A2969 RMK SC2AC6 SLP061=
0156713950999992020010401004+44881-063509FM-15+014599999V0202601N002110548619N024140199+00301+00101100611ADDGD14991+0548619GE19MSL   +99999+99999GF199999999999054861999999MA1100541098845REMMET066METAR CYHZ 040100Z 26004KT 15SM OVC180 03/01 A2969 RMK AC8 SLP061=
0156713950999992020010402004+44881-063509FM-15+014599999V0202501N003110548619N024140199+00301+00101100611ADDGD14991+0548619GE19MSL   +99999+99999GF199999999999054861999999MA1100541098845REMMET066METAR CYHZ 040200Z 25006KT 15SM OVC180 03/01 A2969 RMK AC8 SLP061=
0174713950999992020010403004+44883-063500FM-12+014599999V0202401N002619999999N024000199+00251+00041100611ADDAA103999999GA1999+017501999GE19MSL   +99999+99999GF106991999999017501999999MA1100545098831MD1410001+9999REMSYN05871395 42774 62405 10025 20004 39883 40061 54000 333 6///7=
0181713950999992020010403004+44881-063509FM-15+014599999V0202401N003110518219N024140199+00301+00001100611ADDGD12991+0182919GD23991+0518219GE19MSL   +99999+99999GF199999999999018291999999MA1100541098845REMMET076METAR CYHZ 040300Z 24006KT 15SM SCT060 BKN170 03/00 A2969 RMK SC4AC2 SLP061=
0156713950999992020010404004+44881-063509FM-15+014599999V0202301N003110195119N024140199+00301+00101100611ADDGD13991+0195119GE19MSL   +99999+99999GF199999999999019511999999MA1100541098845REMMET066METAR CYHZ 040400Z 23006KT 15SM BKN064 03/01 A2969 RMK SC6 SLP061=
0163713950999992020010405004+44881-063509FM-15+014599999V0202101N002610182919N024140199+00201+00101100581ADDGD13991+0182919GE19MSL   +99999+99999GF199999999999018291999999MA1100511098815REMMET073METAR CYHZ 040500Z 21005KT 15SM BKN060 02/01 A2968 RMK SC6 PRESRR SLP058=
0251713950999992020010406004+44883-063500FM-12+014599999V0202001N003119999999N024000199+00211+00091100501ADDAA106000091AA224000091GA1061+017501061GE19MSL   +99999+99999GF106991061999017501999999KA1240M+00521KA2240N-00191MA1100435098721MD1810111+9999REMSYN09871395 12774 62006 10021 20009 39872 40050 58011 60001 86500 333 10052 21019 70000 555 10000 20000=
0163713950999992020010406004+44881-063509FM-15+014599999V0202001N003110179819N024140199+00201+00101100491ADDGD13991+0179819GE19MSL   +99999+99999GF199999999999017981999999MA1100441098725REMMET073METAR CYHZ 040600Z 20006KT 15SM BKN059 02/01 A2966 RMK SC6 PRESFR SLP049=
0156713950999992020010407004+44881-063509FM-15+014599999V0202101N003610164619N024140199+00201+00101100531ADDGD13991+0164619GE19MSL   +99999+99999GF199999999999016461999999MA1100471098765REMMET066METAR CYHZ 040700Z 21007KT 15SM BKN054 02/01 A2967 RMK SC6 SLP053=
0163713950999992020010408004+44881-063509FM-15+014599999V0202401N004110158519N024140199+00201+00201100591ADDGD14991+0158519GE19MSL   +99999+99999GF199999999999015851999999MA1100511098825REMMET073METAR CYHZ 040800Z 24008KT 15SM OVC052 02/02 A2968 RMK SC8 PRESRR SLP059=
0174713950999992020010409004+44883-063500FM-12+014599999V0202601N004119999999N024000199+00281+00151100571ADDAA103999999GA1999+012501999GE19MSL   +99999+99999GF108991999999012501999999MA1100505098791MD1110071+9999REMSYN05871395 42674 82608 10028 20015 39879 40057 51007 333 6///7=
0156713950999992020010409004+44881-063509FM-15+014599999V0202601N004110106719N024140199+00301+00201100571ADDGD14991+0106719GE19MSL   +99999+99999GF199999999999010671999999MA1100511098805REMMET066METAR CYHZ 040900Z 26008KT 15SM OVC035 03/02 A2968 RMK SC8 SLP057=
0156713950999992020010410004+44881-063509FM-15+014599999V0202601N003610131119N024140199+00301+00101100561ADDGD14991+0131119GE19MSL   +99999+99999GF199999999999013111999999MA1100511098795REMMET066METAR CYHZ 041000Z 26007KT 15SM OVC043 03/01 A2968 RMK SC8 SLP056=
0181713950999992020010411004+44881-063509FM-15+014599999V0202701N004110731519N024140199+00301+00101100601ADDGD12991+0140219GD23991+0731519GE19MSL   +99999+99999GF199999999999014021999999MA1100541098835REMMET076METAR CYHZ 041100Z 27008KT 15SM SCT046 BKN240 03/01 A2969 RMK SC4CI2 SLP060=
0280713950999992020010412004+44883-063500FM-12+014599999V0202701N004119999999N024000199+00211+00101100651ADDAA106000091AA224000091AJ100013100010099GA1021+017501061GA2999+999999021GE19MSL   +99999+99999GF105991021999017501999999IA1259KA1240M+00521KA2240N+00161MA1100585098871MD1310081+9999REMSYN08871395 12774 52708 10021 20010 39887 40065 53008 60001 82506 333 10052 20016 41001 70000=
0181713950999992020010412004+44881-063509FM-15+014599999V0202701N004110701019N024140199+00201+00101100651ADDGD11991+0158519GD23991+0701019GE19MSL   +99999+99999GF199999999999015851999999MA1100581098885REMMET076METAR CYHZ 041200Z 27008KT 15SM FEW052 BKN230 02/01 A2970 RMK SC2CS3 SLP065=
0181713950999992020010413004+44881-063509FM-15+014599999V0203101N003110823019N024140199+00201+00101100641ADDGD12991+0762019GD23991+0823019GE19MSL   +99999+99999GF199999999999076201999999MA1100581098875REMMET076METAR CYHZ 041300Z 31006KT 15SM SCT250 BKN270 02/01 A2970 RMK CS4CI2 SLP064=
0181713950999992020010414004+44881-063509FM-15+014599999V0203001N004110823019N024140199+00301+00101100651ADDGD12991+0640119GD23991+0823019GE19MSL   +99999+99999GF199999999999064011999999MA1100581098885REMMET076METAR CYHZ 041400Z 30008KT 15SM SCT210 BKN270 03/01 A2970 RMK CS3CI3 SLP065=
0158713950999992020010415004+44883-063500FM-12+014599999V0203201N004119999999N024000199+00391+00091100621ADDAA103999999GE19MSL   +99999+99999GF107991999999999999999999MA1100555098841MD1810031+9999REMSYN05871395 42974 73208 10039 20009 39884 40062 58003 333 6///7=
0181713950999992020010415004+44881-063509FM-15+014599999V0203201N004110579119N024140199+00401+00101100621ADDGD13991+0579119GD23991+0823019GE19MSL   +99999+99999GF199999999999057911999999MA1100541098865REMMET076METAR CYHZ 041500Z 32008KT 15SM BKN190 BKN270 04/01 A2969 RMK AC6CI1 SLP062=
0181713950999992020010416004+44881-063509FM-15+014599999V0203201N002610579119N024140199+00401+00101100541ADDGD13991+0579119GD24991+0823019GE19MSL   +99999+99999GF199999999999057911999999MA1100471098785REMMET076METAR CYHZ 041600Z 32005KT 15SM BKN190 OVC270 04/01 A2967 RMK AC6CI2 SLP054=
0181713950999992020010417004+44881-063509FM-15+014599999V0203001N002110426719N024140199+00401+00001100531ADDGD13991+0426719GD24991+0823019GE19MSL   +99999+99999GF199999999999042671999999MA1100471098775REMMET076METAR CYHZ 041700Z 30004KT 15SM BKN140 OVC270 04/00 A2967 RMK AC6CI2 SLP053=
0235713950999992020010418004+44883-063500FM-12+014599999V0203201N001519999999N024000199+00381+00021100521ADDAA106000091AA224000091GA1071+999999031GE19MSL   +99999+99999GF107991071999999999999999KA1120M+00431KA2120N+00161MA1100455098741MD1810101+9999REMSYN08271395 12974 73203 10038 20002 39874 40052 58010 60001 87030 333 10043 20016 70000=
0156713950999992020010418004+44881-063509FM-15+014599999V0203101N001510426719N024140199+00401+00001100511ADDGD13991+0426719GE19MSL   +99999+99999GF199999999999042671999999MA1100441098755REMMET066METAR CYHZ 041800Z 31003KT 15SM BKN140 04/00 A2966 RMK AC7 SLP051=
0156713950999992020010419004+44881-063509FM-15+014599999V0202301N002110365819N024140199+00401+00001100531ADDGD14991+0365819GE19MSL   +99999+99999GF199999999999036581999999MA1100471098775REMMET066METAR CYHZ 041900Z 23004KT 15SM OVC120 04/00 A2967 RMK AC8 SLP053=
0181713950999992020010420004+44881-063509FM-15+014599999V0209999C000010335319N024140199+00401+00001100521ADDGD11991+0121919GD24991+0335319GE19MSL   +99999+99999GF199999999999012191999999MA1100441098765REMMET076METAR CYHZ 042000Z 00000KT 15SM FEW040 OVC110 04/00 A2966 RMK SC1AC7 SLP052=
0174713950999992020010421004+44883-063500FM-12+014599999V0200701N001519999999N024000199+00281+00001100371ADDAA103999999GA1999+012501999GE19MSL   +99999+99999GF108991999999012501999999MA1100295098591MD1810151+9999REMSYN05871395 42674 80703 10028 20000 39859 40037 58015 333 6///7=
0188713950999992020010421004+44881-063509FM-15+014599999V0200801N002110304819N024140199+00301+00001100361ADDGD11991+0121919GD24991+0304819GE19MSL   +99999+99999GF199999999999012191999999MA1100301098605REMMET083METAR CYHZ 042100Z 08004KT 15SM FEW040 OVC100 03/00 A2962 RMK SC1AC7 PRESFR SLP036=
0181713950999992020010422004+44881-063509FM-15+014599999V0200901N001510274319N024140199+00301+00001100391ADDGD11991+0121919GD24991+0274319GE19MSL   +99999+99999GF199999999999012191999999MA1100341098635REMMET076METAR CYHZ 042200Z 09003KT 15SM FEW040 OVC090 03/00 A2963 RMK SC1AC7 SLP039=
0157713950999992020010423004+44881-063509FM-15+014599999V0201101N002110243819N024140199+00201+00001100351ADDGD14991+0243819GE19MSL   +99999+99999GF199999999999024381999999MA1100301098585REMMET067METAR CYHZ 042300Z 11004KT 15SM OVC080 02/M00 A2962 RMK AC8 SLP035=
0235713950999992020010500004+44883-063500FM-12+014599999V0201201N002619999999N024000199+00171-00021100321ADDAA106000091AA224000091GA1081+022501031GE19MSL   +99999+99999GF108991081999022501999999KA1120M+00431KA2120N+00161MA1100245098541MD1810051+9999REMSYN08271395 12874 81205 10017 21002 39854 40032 58005 60001 8807/ 333 10043 20016 70000=
0164713950999992020010500004+44881-063509FM-15+014599999V0201201N002610213419N024140199+00201+00001100321ADDGD14991+0213419GE19MSL   +99999+99999GF199999999999021341999999MA1100241098555REMMET074METAR CYHZ 050000Z 12005KT 15SM OVC070 02/M00 A2960 RMK AC8 PRESFR SLP032=
0182713950999992020010501004+44881-063509FM-15+014599999V0200601N002110213419N024140199+00201+00001100301ADDGD13991+0213419GD24991+0426719GE19MSL   +99999+99999GF199999999999021341999999MA1100241098535REMMET077METAR CYHZ 050100Z 06004KT 15SM BKN070 OVC140 02/M00 A2960 RMK AC6AC2 SLP030=
0166713950999992020010501514+44881-063509FM-16+014599999V0201001N002610140219N024140199+00201+00001100241ADDGD14991+0140219GE19MSL   +99999+99999GF199999999999014021999999MA1100171098475MW1711REMMET070SPECI CYHZ 050151Z 10005KT 15SM -SN OVC046 02/00 A2958 RMK SC8 SLP024=
0166713950999992020010502004+44881-063509FM-15+014599999V0201001N003110134119N024140199+00201+00001100261ADDGD14991+0134119GE19MSL   +99999+99999GF199999999999013411999999MA1100201098495MW1711REMMET070METAR CYHZ 050200Z 10006KT 15SM -SN OVC044 02/00 A2959 RMK SC8 SLP026=
0174713950999992020010503004+44883-063500FM-12+014599999V0200901N003619999999N019000199+00111+00051100231ADDAA103999999GA1999+004501999GE19MSL   +99999+99999GF108991999999004501999999MA1100155098451MD1610091+9999REMSYN05871395 42469 80907 10011 20005 39845 40023 56009 333 6///7=
0191713950999992020010503004+44881-063509FM-15+014599999V0201001N003610152419N019312199+00101+00101100221ADDGD12991+0045719GD24991+0152419GE19MSL   +99999+99999GF199999999999004571999999MA1100171098455MW1711REMMET080METAR CYHZ 050300Z 10007KT 12SM -SN SCT015 OVC050 01/01 A2958 RMK SC4SC4 SLP022=
0190713950999992020010503414+44881-063509FM-16+014599999V0201001N003610033519N012875199+00001+00001100131ADDGD13991+0033519GD24991+0061019GE19MSL   +99999+99999GF199999999999003351999999MA1100071098355MW1711REMMET079SPECI CYHZ 050341Z 10007KT 8SM -SN BKN011 OVC020 00/00 A2955 RMK SC5SC3 SLP013=
0190713950999992020010504004+44881-063509FM-15+014599999V0201001N003110033519N012875199+00001+00001100141ADDGD13991+0033519GD24991+0067119GE19MSL   +99999+99999GF199999999999003351999999MA1100071098365MW1711REMMET079METAR CYHZ 050400Z 10006KT 8SM -SN BKN011 OVC022 00/00 A2955 RMK SC6SC2 SLP014=
0190713950999992020010504354+44881-063509FM-16+014599999V0200901N003110012219N011265199+00001+00001100061ADDGD13991+0012219GD24991+0027419GE19MSL   +99999+99999GF199999999999001221999999MA1100001098285MW1711REMMET079SPECI CYHZ 050435Z 09006KT 7SM -SN BKN004 OVC009 00/00 A2953 RMK SF5SC3 SLP006=
0190713950999992020010505004+44881-063509FM-15+014599999V0200901N003110012219N012875199+00001+00001100031ADDGD13991+0012219GD24991+0030519GE19MSL   +99999+99999GF199999999999001221999999MA1099971098255MW1711REMMET079METAR CYHZ 050500Z 09006KT 8SM -SN BKN004 OVC010 00/00 A2952 RMK SF6SC2 SLP003=
0165713950999992020010505294+44881-063509FM-16+014599999V0200801N004110006119N011265199+00001+00001099951ADDGD14991+0006119GE19MSL   +99999+99999GF199999999999000611999999MA1099901098185MW1711REMMET069SPECI CYHZ 050529Z 08008KT 7SM -SN OVC002 00/00 A2950 RMK ST8 SLP995=
0314713950999992020010506004+44883-063500FM-12+014599999V0200801N003619999999N016000199+00021+00021099891ADDAA106000231AA224000231AJ100013100005099AY171021AY271021GA1081+000751071GE19MSL   +99999+99999GF108991081999000751999999IA1259KA1240M+00431KA2240N+00021MA1099825098121MD1610331+9999MW1711REMSYN11671395 11166 80807 10002 20002 39812 49989 56033 69921 77177 88700 333 10043 20002 41997 70002 90942 555 10004 20002=
0166713950999992020010506004+44881-063509FM-15+014599999V0200801N003610009119N016093199+00001+00001099891ADDGD14991+0009119GE19MSL   +99999+99999GF199999999999000911999999MA1099831098125MW1711REMMET070METAR CYHZ 050600Z 08007KT 10SM -SN OVC003 00/00 A2948 RMK ST8 SLP989=
0164713950999992020010506314+44881-063509FM-16+014599999V0200801N004610006119N009656199+00001+00001099841ADDGD14991+0006119GE19MSL   +99999+99999GF199999999999000611999999MA1099761098075MW1101REMMET068SPECI CYHZ 050631Z 08009KT 6SM BR OVC002 00/00 A2946 RMK ST8 SLP984=
0164713950999992020010507004+44881-063509FM-15+014599999V0200701N004110006119N004828199+00001+00001099801ADDGD14991+0006119GE19MSL   +99999+99999GF199999999999000611999999MA1099731098035MW1101REMMET068METAR CYHZ 050700Z 07008KT 3SM BR OVC002 00/00 A2945 RMK ST8 SLP980=
0164713950999992020010507044+44881-063509FM-16+014599999V0200701N00411000611WN003219199+00001+00001099781ADDGA1999+000611101GE19MSL   +99999+99999GF109991999999000611999999MA1099731098015MW1101REMMET067SPECI CYHZ 050704Z 07008KT 2SM BR VV002 00/00 A2945 RMK FG8 SLP978=
0168713950999992020010508004+44881-063509FM-15+014599999V0200801N005710006119N004023199+00001+00001099621ADDGD14991+0006119GE19MSL   +99999+99999GF199999999999000611999999MA1099561097855MW1101REMMET072METAR CYHZ 050800Z 08011KT 2 1/2SM BR OVC002 00/00 A2940 RMK ST8 SLP962=
0174713950999992020010509004+44883-063500FM-12+014599999V0200701N003619999999N004000199+00011+00011099441ADDAA103999999GA1999+000751999GE19MSL   +99999+99999GF108991999999000751999999MA1099375097681MD1810451+9999REMSYN05871395 42140 80707 10001 20001 39768 49944 58045 333 6///7=
0168713950999992020010509004+44881-063509FM-15+014599999V0200801N003610006119N004023199+00001+00001099431ADDGD14991+0006119GE19MSL   +99999+99999GF199999999999000611999999MA1099361097665MW1101REMMET072METAR CYHZ 050900Z 08007KT 2 1/2SM BR OVC002 00/00 A2934 RMK ST8 SLP943=
0171713950999992020010509224+44881-063509FM-16+014599999V0200701N005110006119N006437199+00001+00001099351ADDGD14991+0006119GE19MSL   +99999+99999GF199999999999000611999999MA1099291097595MW1101REMMET075SPECI CYHZ 050922Z 07010KT 4SM BR OVC002 00/00 A2932 RMK ST8 PRESFR SLP935=
0174713950999992020010510004+44881-063509FM-15+014599999V0200601N005110006119N006437199+00001+00001099321ADDGD14991+0006119GE19MSL   +99999+99999GF199999999999000611999999MA1099251097565MW1101MW2711REMMET072METAR CYHZ 051000Z 06010KT 4SM -SN BR OVC002 00/00 A2931 RMK ST8 SLP932=
0165713950999992020010511004+44881-063509FM-15+014599999V0200401N005710006119N012875199+00001+00001099191ADDGD14991+0006119GE19MSL   +99999+99999GF199999999999000611999999MA1099121097435MW1711REMMET069METAR CYHZ 051100Z 04011KT 8SM -SN OVC002 00/00 A2927 RMK ST8 SLP919=
0176713950999992020010511384+44881-063509FM-16+014599999V0200301N006210009119N003621199+00001+00001099131ADDGD14991+0009119GE19MSL   +99999+99999GF199999999999000911999999MA1099051097375MW1711REMMET080SPECI CYHZ 051138Z 03012KT 2 1/4SM -SN OVC003 00/00 A2925 RMK ST8 PRESFR SLP913=
0176713950999992020010511444+44881-063509FM-16+014599999V0200301N006210006119N002012199+00001+00001099091ADDGD14991+0006119GE19MSL   +99999+99999GF199999999999000611999999MA1099021097335MW1711REMMET080SPECI CYHZ 051144Z 03012KT 1 1/4SM -SN OVC002 00/00 A2924 RMK ST8 PRESFR SLP909=
0298713950999992020010512004+44883-063500FM-12+014599999V0200301N005119999999N001600199-00011-00011099131ADDAA106000021AA224000231AJ199991999999999AY171021AY221021GA1081+000751071GE19MSL   +99999+99999GF108991081999000751999999IA1239KA1240M+00431KA2240N-00011MA1099075097381MD1610301+9999MW1711REMSYN10071395 11116 80310 11001 21001 39738 49913 56030 69901 77172 887// 333 10043 21001 47/// 70002 90931=
0199713950999992020010512004+44881-063509FM-15+014599999V0200201N004610006119N001609199+00001+00001099131ADDGD14991+0006119GE19MSL   +99999+99999GF199999999999000611999999MA1099051097375MW1711OC100821REMMET095METAR CYHZ 051200Z 02009G16KT 1SM R14/P6000FT/N -SN OVC002 M00/M00 A2925 RMK ST8 PRESRR SLP913=
0190713950999992020010512184+44881-063509FM-16+014599999V0200201N005110009119N001207199+00001+00001099241ADDGD14991+0009119GE19MSL   +99999+99999GF199999999999000911999999MA1099191097485MW1711REMMET094SPECI CYHZ 051218Z 02010KT 3/4SM R14/P6000FT/D -SN OVC003 M00/M00 A2929 RMK ST8 PRESRR SLP924=
0189713950999992020010513004+44881-063509FM-15+014599999V0200201N006210009119N001006199+00001+00001099131ADDGD14991+0009119GE19MSL   +99999+99999GF199999999999000911999999MA1099051097375MW1711REMMET093METAR CYHZ 051300Z 02012KT 5/8SM R14/P6000FT/N -SN OVC003 M00/M00 A2925 RMK ST8 /S01/ SLP913=
0206713950999992020010514004+44881-063509FM-15+014599999V0200201N007710009119N001207199+00001+00001098931ADDGD14991+0009119GE19MSL   +99999+99999GF199999999999000911999999MA1098851097175MW1711OC101081REMMET102METAR CYHZ 051400Z 02015G21KT 3/4SM R14/6000FT/U -SN OVC003 M00/M00 A2919 RMK ST8 /S04/ PRESFR SLP893=
0198713950999992020010514024+44881-063509FM-16+014599999V0200201N008810006119N001609199+00001+00001098931ADDGD14991+0006119GE19MSL   +99999+99999GF199999999999000611999999MA1098851097175MW1711OC101181REMMET094SPECI CYHZ 051402Z 02017G23KT 1SM R14/6000FT/U -SN OVC002 M00/M00 A2919 RMK ST8 PRESFR SLP893=
0182713950999992020010514174+44881-063509FM-16+014599999V0200101N009310012219N002414199+00001+00001098891ADDGD14991+0012219GE19MSL   +99999+99999GF199999999999001221999999MA1098811097135MW1711OC101181REMMET078SPECI CYHZ 051417Z 01018G23KT 1 1/2SM -SN OVC004 M00/M00 A2918 RMK ST8 SLP889=
0174713950999992020010515004+44883-063500FM-12+014599999V0200101N008219999999N002000199-00031-00031098801ADDAA103999999GA1999+000751999GE19MSL   +99999+99999GF108991999999000751999999MA1098735097051MD1810331+9999REMSYN05871395 42120 80116 11003 21003 39705 49880 58033 333 6///7=
0182713950999992020010515004+44881-063509FM-15+014599999V0200101N008210009119N002012199+00001+00001098791ADDGD14991+0009119GE19MSL   +99999+99999GF199999999999000911999999MA1098711097045MW1711OC101241REMMET078METAR CYHZ 051500Z 01016G24KT 1 1/4SM -SN OVC003 M00/M00 A2915 RMK ST8 SLP879=
0200713950999992020010515304+44881-063509FM-16+014599999V0200101N008210006119N001006199+00001+00001098741ADDGD14991+0006119GE19MSL   +99999+99999GF199999999999000611999999MA1098681096995MW1711OC101181REMMET096SPECI CYHZ 051530Z 01016G23KT 5/8SM R14/P6000FT/D -SN OVC002 M00/M00 A2914 RMK ST8 /S05/ SLP874=
0192713950999992020010515494+44881-063509FM-16+014599999V0200101N008210006119N000805199+00001+00001098691ADDGD14991+0006119GE19MSL   +99999+99999GF199999999999000611999999MA1098611096945MW1731OC101391REMMET088SPECI CYHZ 051549Z 01016G27KT 1/2SM R14/5000FT/N SN OVC002 M00/M00 A2912 RMK ST8 SLP869=
0203713950999992020010516004+44881-063509FM-15+014599999V0203601N007710006119N000805199+00001+00001098691ADDGD14991+0006119GE19MSL   +99999+99999GF199999999999000611999999MA1098611096945MW1731OC101181REMMET099METAR CYHZ 051600Z 36015G23KT 1/2SM R14/4000V5500FT/D SN OVC002 M00/M00 A2912 RMK ST8 /S07/ SLP869=
0192713950999992020010516184+44881-063509FM-16+014599999V0203601N009310009119N000805199-00101-00101098691ADDGD14991+0009119GE19MSL   +99999+99999GF199999999999000911999999MA1098611096935MW1731OC101291REMMET088SPECI CYHZ 051618Z 36018G25KT 1/2SM R14/4000FT/N SN OVC003 M01/M01 A2912 RMK ST8 SLP869=
0216713950999992020010517004+44881-063509FM-15+014599999V0203601N010310006119N001207199-00101-00101098641ADDGD14991+0006119GE19MSL   +99999+99999GF199999999999000611999999MA1098581096885MW1361MW2711OC101491REMMET106METAR CYHZ 051700Z 36020G29KT 3/4SM R14/5500VP6000FT/N -SN DRSN OVC002 M01/M01 A2911 RMK ST8 /S09/ SLP864=
0216713950999992020010517354+44881-063509FM-16+014599999V0203601N011310012219N001207199-00101-00101098601ADDGD14991+0012219GE19MSL   +99999+99999GF199999999999001221999999MA1098541096845MW1361MW2711OC101701REMMET106SPECI CYHZ 051735Z 36022G33KT 3/4SM R14/5000VP6000FT/U -SN DRSN OVC004 M01/M01 A2910 RMK ST8 /S10/ SLP860=
0314713950999992020010518004+44883-063500FM-12+014599999V0203501N010319999999N001200199-00141-00141098631ADDAA106009031AA224009331AJ100113100110099AL19901231AY171021AY271021GA1081+000751071GE19MSL   +99999+99999GF108991081999000751999999IA1239KA1120M+00021KA2120N-00141MA1098565096881MD1610171+9999MW1711REMSYN10671395 11112 83520 11014 21014 39688 49863 56017 60091 77177 887// 333 10002 21014 47011 70093 90973 93112=
0204713950999992020010518004+44881-063509FM-15+014599999V0203501N009310009119N001207199-00101-00101098621ADDGD14991+0009119GE19MSL   +99999+99999GF199999999999000911999999MA1098541096865MW1361MW2711OC101441REMMET094METAR CYHZ 051800Z 35018G28KT 3/4SM R14/6000FT/U -SN DRSN OVC003 M01/M01 A2910 RMK ST8 SLP862=
0193713950999992020010518364+44881-063509FM-16+014599999V0203501N009310009119N002012199-00101-00101098651ADDGD14991+0009119GE19MSL   +99999+99999GF199999999999000911999999MA1098581096895MW1361MW2711OC101391REMMET083SPECI CYHZ 051836Z 35018G27KT 1 1/4SM -SN DRSN OVC003 M01/M01 A2911 RMK ST8 SLP865=
0206713950999992020010519004+44881-063509FM-15+014599999V0203401N010810012219N001609199-00201-00201098651ADDGD14991+0012219GE19MSL   +99999+99999GF199999999999001221999999MA1098581096895MW1361MW2711OC101541REMMET096METAR CYHZ 051900Z 34021G30KT 1SM R14/P6000FT/U -SN DRSN OVC004 M02/M02 A2911 RMK SN4ST4 SLP865=
0241713950999992020010519264+44881-063509FM-16+014599999V0203401N010310018319N001609199-00201-00201098691ADDGD13991+0018319GD24991+0036619GE19MSL   +99999+99999GF199999999999001831999999MA1098611096935MW1361MW2711OC101651REMMET116SPECI CYHZ 051926Z 34020G32KT 1SM R14/P6000FT/D -SN DRSN BKN006 OVC012 M02/M02 A2912 RMK SN3SF3SC2 OCNL BLSN SLP869=
0238713950999992020010520004+44881-063509FM-15+014599999V0203401N012410024419N001609199-00201-00201098761ADDGD13991+0024419GD24991+0045719GE19MSL   +99999+99999GF199999999999002441999999MA1098681096995MW1361MW2711OC101601REMMET113METAR CYHZ 052000Z 34024G31KT 1SM R14/P6000FT/U -SN DRSN BKN008 OVC015 M02/M02 A2914 RMK SF5SC3 OCNL BLSN SLP876=
0240713950999992020010520374+44881-063509FM-16+014599999V0203301N009810024419N001609199-00301-00301098851ADDGD13991+0024419GD24991+0045719GE19MSL   +99999+99999GF199999999999002441999999MA1098781097085MW1381MW2711OC101491REMMET115SPECI CYHZ 052037Z 33019G29KT 1SM R14/P6000FT/U -SN BLSN BKN008 OVC015 M03/M03 A2917 RMK BLSN2SF3SC3 PRESRR SLP885=
0174713950999992020010521004+44883-063500FM-12+014599999V0203301N011819999999N002400199-00271-00301098901ADDAA103999999GA1999+002501999GE19MSL   +99999+99999GF108991999999002501999999MA1098825097141MD1310261+9999REMSYN05871395 42324 83323 11027 21030 39714 49890 53026 333 6///7=
0218713950999992020010521004+44881-063509FM-15+014599999V0203301N012410045719N002414199-00301-00301098891ADDGD12991+0024419GD24991+0045719GE19MSL   +99999+99999GF199999999999002441999999MA1098811097125MW1381MW2711OC101701REMMET093METAR CYHZ 052100Z 33024G33KT 1 1/2SM -SN BLSN SCT008 OVC015 M03/M03 A2918 RMK SF4SC4 SLP889=
0214713950999992020010522004+44881-063509FM-15+014599999V0203301N012410030519N004828199-00301-00401099061ADDGD13991+0030519GD24991+0048819GE19MSL   +99999+99999GF199999999999003051999999MA1098981097285MW1381MW2711OC101961REMMET089METAR CYHZ 052200Z 33024G38KT 3SM -SN BLSN BKN010 OVC016 M03/M04 A2923 RMK SC6SC2 SLP906=
0196713950999992020010523004+44881-063509FM-15+014599999V0203301N011810030519N004828199-00401-00401099241ADDGD14991+0030519GE19MSL   +99999+99999GF199999999999003051999999MA1099151097455MW1381MW2711OC101701REMMET086METAR CYHZ 052300Z 33023G33KT 3SM -SN BLSN OVC010 M04/M04 A2928 RMK SC8 PRESRR SLP924=
0189713950999992020010523534+44881-063509FM-16+014599999V0203201N011310033519N009656199-00401-00401099391ADDGD14991+0033519GE19MSL   +99999+99999GF199999999999003351999999MA1099321097605MW1361MW2711OC101601REMMET079SPECI CYHZ 052353Z 32022G31KT 6SM -SN DRSN OVC011 M04/M04 A2933 RMK SC8 SLP939=
0314713950999992020010600004+44883-063500FM-12+014599999V0203301N012419999999N009000199-00401-00451099421ADDAA106002031AA224011131AJ100133100130099AL19900231AY171021AY271021GA1081+004501061GE19MSL   +99999+99999GF108991081999004501999999IA1289KA1120M-00011KA2120N-00401MA1099335097641MD1210511+9999MW1711REMSYN10671395 11459 83324 11040 21045 39764 49942 52051 60021 77177 885// 333 11001 21040 48013 70111 90973 93102=
0195713950999992020010600004+44881-063509FM-15+014599999V0203201N012910033519N009656199-00401-00401099411ADDGD14991+0033519GE19MSL   +99999+99999GF199999999999003351999999MA1099321097625MW1361MW2711OC101701REMMET085METAR CYHZ 060000Z 32025G33KT 6SM -SN DRSN OVC011 M04/M04 A2933 RMK SC8 /SO2/ SLP941=
0189713950999992020010601004+44881-063509FM-15+014599999V0203301N013410039619N009656199-00401-00401099571ADDGD14991+0039619GE19MSL   +99999+99999GF199999999999003961999999MA1099491097785MW1361MW2711OC101751REMMET079METAR CYHZ 060100Z 33026G34KT 6SM -SN DRSN OVC013 M04/M04 A2938 RMK SC8 SLP957=
0196713950999992020010601464+44881-063509FM-16+014599999V0203301N011810054919N012875199-00401-00501099691ADDGD14991+0054919GE19MSL   +99999+99999GF199999999999005491999999MA1099591097895MW1361MW2711OC101751REMMET086SPECI CYHZ 060146Z 33023G34KT 8SM -SN DRSN OVC018 M04/M05 A2941 RMK SC8 PRESRR SLP969=
0189713950999992020010602004+44881-063509FM-15+014599999V0203301N012410061019N012875199-00401-00501099741ADDGD14991+0061019GE19MSL   +99999+99999GF199999999999006101999999MA1099661097945MW1361MW2711OC101701REMMET079METAR CYHZ 060200Z 33024G33KT 8SM -SN DRSN OVC020 M04/M05 A2943 RMK SC8 SLP974=
0174713950999992020010603004+44883-063500FM-12+014599999V0203301N010319999999N012000199-00421-00531099951ADDAA103999999GA1999+008001999GE19MSL   +99999+99999GF108991999999008001999999MA1099865098161MD1210521+9999REMSYN05871395 42562 83320 11042 21053 39816 49995 52052 333 6///7=
0196713950999992020010603004+44881-063509FM-15+014599999V0203201N011310061019N012875199-00401-00501099941ADDGD14991+0061019GE19MSL   +99999+99999GF199999999999006101999999MA1099861098145MW1361MW2711OC101601REMMET086METAR CYHZ 060300Z 32022G31KT 8SM -SN DRSN OVC020 M04/M05 A2949 RMK SC8 PRESRR SLP994=
0215713950999992020010604004+44881-063509FM-15+014599999V0203301N009310061019N016093199-00401-00601100101ADDGD13991+0061019GD24991+0121919GE19MSL   +99999+99999GF199999999999006101999999MA1100001098305MW1361MW2711OC101341REMMET090METAR CYHZ 060400Z 33018G26KT 10SM -SN DRSN BKN020 OVC040 M04/M06 A2953 RMK SC5SC3 SLP010=
0190713950999992020010605004+44881-063509FM-15+014599999V0203401N006210094519N016093199-00501-00601100191ADDGD14991+0094519GE19MSL   +99999+99999GF199999999999009451999999MA1100101098385MW1361MW2711OC101181REMMET080METAR CYHZ 060500Z 34012G23KT 10SM -SN DRSN OVC031 M05/M06 A2956 RMK SC8 SLP019=
0345713950999992020010606004+44883-063500FM-12+014599999V0203301N007219999999N016000199-00501-00651100351ADDAA106999999AA224010931AJ100133100130099AY171021AY271021GA1081+008001061GE19MSL   +99999+99999GF108991081999008001999999IA1289KA1240M+00021KA2240N-00501MA1100255098551MD1210391+9999MW1711REMSYN12871395 11566 83314 11050 21065 39855 40035 52039 60001 77177 885// 333 10002 21050 48013 70109 90973 555 10135 20109 33340 40222=EQDQ01  00002PRCP06
0186713950999992020010606004+44881-063509FM-15+014599999V0203301N007710088419N016093199-00501-00601100341ADDGD14991+0088419GE19MSL   +99999+99999GF199999999999008841999999MA1100271098535MW1361MW2711REMMET084METAR CYHZ 060600Z 33015KT 10SM -SN DRSN OVC029 M05/M06 A2961 RMK SC8 PRESRR SLP034=
0179713950999992020010607004+44881-063509FM-15+014599999V0203201N008210085319N016093199-00501-00701100461ADDGD14991+0085319GE19MSL   +99999+99999GF199999999999008531999999MA1100371098645MW1711OC101131REMMET075METAR CYHZ 060700Z 32016G22KT 10SM -SN OVC028 M05/M07 A2964 RMK SC8 SLP046=
0179713950999992020010608004+44881-063509FM-15+014599999V0203201N008810094519N016093199-00601-00701100571ADDGD14991+0094519GE19MSL   +99999+99999GF199999999999009451999999MA1100471098745MW1711OC101181REMMET075METAR CYHZ 060800Z 32017G23KT 10SM -SN OVC031 M06/M07 A2967 RMK SC8 SLP057=
0174713950999992020010609004+44883-063500FM-12+014599999V0203201N008219999999N016000199-00651-00821100681ADDAA103999999GA1999+008001999GE19MSL   +99999+99999GF108991999999008001999999MA1100585098871MD1210321+9999REMSYN05871395 42566 83216 11065 21082 39887 40068 52032 333 6///7=
0179713950999992020010609004+44881-063509FM-15+014599999V0203301N007710088419N016093199-00601-00801100681ADDGD14991+0088419GE19MSL   +99999+99999GF199999999999008841999999MA1100581098855MW1711OC101081REMMET075METAR CYHZ 060900Z 33015G21KT 10SM -SN OVC029 M06/M08 A2970 RMK SC8 SLP068=
0186713950999992020010610004+44881-063509FM-15+014599999V0203101N006210097519N019312199-00701-00901100861ADDGD14991+0097519GE19MSL   +99999+99999GF199999999999009751999999MA1100781099025MW1711OC100981REMMET082METAR CYHZ 061000Z 31012G19KT 12SM -SN OVC032 M07/M09 A2976 RMK SC8 PRESRR SLP086=
0168713950999992020010611004+44881-063509FM-15+014599999V0203201N005710091419N019312199-00701-00901100961ADDGD14991+0091419GE19MSL   +99999+99999GF199999999999009141999999MA1100881099125MW1711REMMET072METAR CYHZ 061100Z 32011KT 12SM -SN OVC030 M07/M09 A2979 RMK SC8 SLP096=
0158713950999992020010611454+44881-063509FM-16+014599999V0203201N005110094519N024140199-00701-01001101011ADDGD14991+0094519GE19MSL   +99999+99999GF199999999999009451999999MA1100911099175REMMET068SPECI CYHZ 061145Z 32010KT 15SM OVC031 M07/M10 A2980 RMK SC8 SLP101=
0298713950999992020010612004+44883-063500FM-12+014599999V0203301N004619999999N024000199-00731-00941101051ADDAA106000231AA224011131AJ100133100130099AY171021AY271021GA1071+008001061GE19MSL   +99999+99999GF107991071999008001999999IA1289KA1240M+00021KA2240N-00741MA1100945099231MD1110361+9999MW1221REMSYN10071395 11574 73309 11073 21094 39923 40105 51036 69921 72277 87500 333 10002 21074 48013 70111 9093/=
0158713950999992020010612004+44881-063509FM-15+014599999V0203301N004610091419N024140199-00701-00901101051ADDGD13991+0091419GE19MSL   +99999+99999GF199999999999009141999999MA1100951099215REMMET068METAR CYHZ 061200Z 33009KT 15SM BKN030 M07/M09 A2981 RMK SC7 SLP105=
0158713950999992020010613004+44881-063509FM-15+014599999V0203201N004110091419N024140199-00701-00901101161ADDGD13991+0091419GE19MSL   +99999+99999GF199999999999009141999999MA1101051099325REMMET068METAR CYHZ 061300Z 32008KT 15SM BKN030 M07/M09 A2984 RMK SC7 SLP116=
0179713950999992020010613354+44881-063509FM-16+014599999V0203301N004610091419N024140199-00701-00901101201ADDGD13991+0091419GE19MSL   +99999+99999GF199999999999009141999999MA1101081099365MW1851REMMET083SPECI CYHZ 061335Z 33009KT 15SM -SHSN BKN030 M07/M09 A2985 RMK SC7 CU ASSOC SLP120=
0210713950999992020010614004+44881-063509FM-15+014599999V0203201N004110091419N024140199-00701-01001101251ADDGD11991+0045719GD23991+0091419GE19MSL   +99999+99999GF199999999999004571999999MA1101151099415MW1851REMMET099METAR CYHZ 061400Z 32008KT 15SM -SHSN FEW015 BKN030 M07/M10 A2987 RMK CF1SC7 CF TR CU ASSOC SLP125=
0174713950999992020010615004+44883-063500FM-12+014599999V0203101N004119999999N024000199-00611-00921101301ADDAA103999999GA1999+004501999GE19MSL   +99999+99999GF107991999999004501999999MA1101205099481MD1210251+9999REMSYN05871395 42474 73108 11061 21092 39948 40130 52025 333 6///7=
0195713950999992020010615004+44881-063509FM-15+014599999V0203201N003610094519N024140199-00601-00901101301ADDGD12991+0045719GD23991+0094519GE19MSL   +99999+99999GF199999999999004571999999MA1101181099465MW1851REMMET084METAR CYHZ 061500Z 32007KT 15SM -SHSN SCT015 BKN031 M06/M09 A2988 RMK CU3SC4 SLP130=
0195713950999992020010616004+44881-063509FM-15+014599999V0203401N004110073219N024140199-00601-01001101311ADDGD11991+0045719GD23991+0073219GE19MSL   +99999+99999GF199999999999004571999999MA1101221099475MW1851REMMET084METAR CYHZ 061600Z 34008KT 15SM -SHSN FEW015 BKN024 M06/M10 A2989 RMK CU2SC5 SLP131=
0185713950999992020010617004+44881-063509FM-15+014599999V0203301N003110073219N024140199-00601-01001101281ADDGD13991+0073219GE19MSL   +99999+99999GF199999999999007321999999MA1101181099445MW1851REMMET089METAR CYHZ 061700Z 33006KT 15SM -SHSN BKN024 M06/M10 A2988 RMK SC7 CVCTV CLD EMBD SLP128=
0298713950999992020010618004+44883-063500FM-12+014599999V0203601N002119999999N024000199-00571-00951101281ADDAA106000021AA224002031AJ100133100130099AY181021AY221021GA1071+008001061GE19MSL   +99999+99999GF107991071999008001999999IA1239KA1120M-00501KA2120N-00741MA1101185099461MD1810021+9999MW1851REMSYN10071395 11574 73604 11057 21095 39946 40128 58002 69901 78582 87400 333 11050 21074 47013 70020 90962=
0158713950999992020010618004+44881-063509FM-15+014599999V0203601N001510073219N024140199-00601-00901101281ADDGD13991+0073219GE19MSL   +99999+99999GF199999999999007321999999MA1101181099445REMMET068METAR CYHZ 061800Z 36003KT 15SM BKN024 M06/M09 A2988 RMK SC7 SLP128=
0185713950999992020010619004+44881-063509FM-15+014599999V0209999C000010073219N024140199-00601-01001101341ADDGD14991+0073219GE19MSL   +99999+99999GF199999999999007321999999MA1101251099505MW1851REMMET089METAR CYHZ 061900Z 00000KT 15SM -SHSN OVC024 M06/M10 A2990 RMK SC8 CVCTV CLD EMBD SLP134=
0193713950999992020010620004+44881-063509FM-15+014599999V0203201V001510073219N024140199-00601-01001101381ADDGD13991+0073219GE19MSL   +99999+99999GF199999999999007321999999MA1101291099545MW1851REMMET097METAR CYHZ 062000Z 32003KT 250V030 15SM -SHSN BKN024 M06/M10 A2991 RMK SC7 CVCTV CLD EMBD SLP138=
0174713950999992020010621004+44883-063500FM-12+014599999V0203601N000519999999N024000199-00621-00941101461ADDAA103999999GA1999+008001999GE19MSL   +99999+99999GF108991999999008001999999MA1101355099631MD1210171+9999REMSYN05871395 42574 83601 11062 21094 39963 40146 52017 333 6///7=
0185713950999992020010621004+44881-063509FM-15+014599999V0209999V001010076219N024140199-00601-00901101461ADDGD14991+0076219GE19MSL   +99999+99999GF199999999999007621999999MA1101351099625MW1851REMMET089METAR CYHZ 062100Z VRB02KT 15SM -SHSN OVC025 M06/M09 A2993 RMK SC8 CVCTC CLD EMBD SLP146=
0185713950999992020010622004+44881-063509FM-15+014599999V0200801N002610067119N024140199-00601-00901101471ADDGD14991+0067119GE19MSL   +99999+99999GF199999999999006711999999MA1101351099635MW1851REMMET089METAR CYHZ 062200Z 08005KT 15SM -SHSN OVC022 M06/M09 A2993 RMK SC8 CVCTV CLD EMBD SLP147=
0158713950999992020010622194+44881-063509FM-16+014599999V0200601N002110067119N024140199-00601-00901101471ADDGD14991+0067119GE19MSL   +99999+99999GF199999999999006711999999MA1101351099635REMMET068SPECI CYHZ 062219Z 06004KT 15SM OVC022 M06/M09 A2993 RMK SC8 SLP147=
0158713950999992020010623004+44881-063509FM-15+014599999V0201001N001510067119N024140199-00601-00901101521ADDGD14991+0067119GE19MSL   +99999+99999GF199999999999006711999999MA1101421099685REMMET068METAR CYHZ 062300Z 10003KT 15SM OVC022 M06/M09 A2995 RMK SC8 SLP152=
0298713950999992020010700004+44883-063500FM-12+014599999V0201201N001519999999N024000199-00641-00841101531ADDAA106000021AA224000231AJ100133100130099AY171021AY271021GA1081+008001061GE19MSL   +99999+99999GF108991081999008001999999IA1289KA1120M-00561KA2120N-00741MA1101425099701MD1310071+9999MW1021REMSYN10071395 11574 81203 11064 21084 39970 40153 53007 69901 70277 885// 333 11056 21074 48013 70002 90973=
0158713950999992020010700004+44881-063509FM-15+014599999V0201301N002110061019N024140199-00601-00801101531ADDGD14991+0061019GE19MSL   +99999+99999GF199999999999006101999999MA1101421099695REMMET068METAR CYHZ 070000Z 13004KT 15SM OVC020 M06/M08 A2995 RMK SC8 SLP153=
0173713950999992020010700364+44881-063509FM-16+014599999V0200801N001510067119N024140199-00701-00801101521ADDGD14991+0067119GE19MSL   +99999+99999GF199999999999006711999999MA1101421099675REMMET083SPECI CYHZ 070036Z 08003KT 15SM OVC022 M07/M08 A2995 RMK SC8 CVCTV CLD EMBD SLP152=
0185713950999992020010701004+44881-063509FM-15+014599999V0201401N001010070119N024140199-00601-00901101521ADDGD14991+0070119GE19MSL   +99999+99999GF199999999999007011999999MA1101421099685MW1851REMMET089METAR CYHZ 070100Z 14002KT 15SM -SHSN OVC023 M06/M09 A2995 RMK SC8 CVCTV CLD EMBD SLP152=
0158713950999992020010701334+44881-063509FM-16+014599999V0209999C000010067119N024140199-00601-00901101511ADDGD14991+0067119GE19MSL   +99999+99999GF199999999999006711999999MA1101391099675REMMET068SPECI CYHZ 070133Z 00000KT 15SM OVC022 M06/M09 A2994 RMK SC8 SLP151=
0158713950999992020010702004+44881-063509FM-15+014599999V0201801N001510061019N024140199-00701-00801101511ADDGD14991+0061019GE19MSL   +99999+99999GF199999999999006101999999MA1101391099665REMMET068METAR CYHZ 070200Z 18003KT 15SM OVC020 M07/M08 A2994 RMK SC8 SLP151=
0174713950999992020010703004+44883-063500FM-12+014599999V0201001N002119999999N024000199-00661-00841101441ADDAA103999999GA1999+008001999GE19MSL   +99999+99999GF108991999999008001999999MA1101335099611MD1810091+9999REMSYN05871395 42574 81004 11066 21084 39961 40144 58009 333 6///7=
0158713950999992020010703004+44881-063509FM-15+014599999V0201001N002110061019N024140199-00701-00801101431ADDGD14991+0061019GE19MSL   +99999+99999GF199999999999006101999999MA1101321099585REMMET068METAR CYHZ 070300Z 10004KT 15SM OVC020 M07/M08 A2992 RMK SC8 SLP143=
0158713950999992020010704004+44881-063509FM-15+014599999V0201001N002110057919N024140199-00601-00801101391ADDGD14991+0057919GE19MSL   +99999+99999GF199999999999005791999999MA1101291099555REMMET068METAR CYHZ 070400Z 10004KT 15SM OVC019 M06/M08 A2991 RMK SC8 SLP139=
0158713950999992020010705004+44881-063509FM-15+014599999V0201201N002610048819N024140199-00601-00801101381ADDGD14991+0048819GE19MSL   +99999+99999GF199999999999004881999999MA1101291099545REMMET068METAR CYHZ 070500Z 12005KT 15SM OVC016 M06/M08 A2991 RMK SC8 SLP138=
0326713950999992020010706004+44883-063500FM-12+014599999V0201101N002619999999N024000199-00651-00771101361ADDAA106000021AA224000231AJ100133100130099AY181021AY221021GA1081+008001061GE19MSL   +99999+99999GF108991081999008001999999IA1289KA1240M-00501KA2240N-00741MA1101255099531MD1610081+9999MW1021REMSYN12871395 11574 81105 11065 21077 39953 40136 56008 69901 70282 885// 333 11050 21074 48013 70002 90950 555 10004 20002 33127 40081=
0158713950999992020010706004+44881-063509FM-15+014599999V0201101N002610067119N024140199-00601-00801101351ADDGD14991+0067119GE19MSL   +99999+99999GF199999999999006711999999MA1101251099515REMMET068METAR CYHZ 070600Z 11005KT 15SM OVC022 M06/M08 A2990 RMK SC8 SLP135=
0183713950999992020010707004+44881-063509FM-15+014599999V0201301N003110304819N024140199-00701-00801101371ADDGD11991+0061019GD23991+0304819GE19MSL   +99999+99999GF199999999999006101999999MA1101291099525REMMET078METAR CYHZ 070700Z 13006KT 15SM FEW020 BKN100 M07/M08 A2991 RMK SC2AC3 SLP137=
0210713950999992020010707494+44881-063509FM-16+014599999V0201501N002610161519N024140199-00701-00801101371ADDGD13991+0161519GD23991+0304819GE19MSL   +99999+99999GF199999999999016151999999MA1101291099525MW1851REMMET099SPECI CYHZ 070749Z 15005KT 15SM -SHSN BKN053 BKN100 M07/M08 A2991 RMK SC5AC2 CVCTV CLD EMBD SLP137=
0210713950999992020010708004+44881-063509FM-15+014599999V0201401N002610149419N024140199-00701-00801101341ADDGD13991+0149419GD23991+0304819GE19MSL   +99999+99999GF199999999999014941999999MA1101251099495MW1851REMMET099METAR CYHZ 070800Z 14005KT 15SM -SHSN BKN049 BKN100 M07/M08 A2990 RMK SC5AC2 CVCTV CLD EMBD SLP134=
0183713950999992020010708274+44881-063509FM-16+014599999V0201301N002610792519N024140199-00701-00801101321ADDGD11991+0365819GD23991+0792519GE19MSL   +99999+99999GF199999999999036581999999MA1101221099475REMMET078SPECI CYHZ 070827Z 13005KT 15SM FEW120 BKN260 M07/M08 A2989 RMK AC2CI4 SLP132=
0158713950999992020010709004+44883-063500FM-12+014599999V0201501N002612200019N024000199-00721-00771101311ADDAA103999999GE19MSL   +99999+99999GF104991999999999999999999MA1101205099481MD1810051+9999REMSYN05871395 42974 41505 11072 21077 39948 40131 58005 333 6///7=
0177713950999992020010709004+44881-063509FM-15+014599999V0201501N002612200059N024140199-00701-00801101301ADDGD12991+0365819GE19AGL   +99999+99999GF104995999999036581999999MA1101181099455REMMET068METAR CYHZ 070900Z 15005KT 15SM SCT120 M07/M08 A2988 RMK AC4 SLP130=EQDD01      0ADE726
0210713950999992020010709174+44881-063509FM-16+014599999V0201401N003110182919N024140199-00801-00801101301ADDGD13991+0182919GD23991+0365819GE19MSL   +99999+99999GF199999999999018291999999MA1101181099455MW1851REMMET099SPECI CYHZ 070917Z 14006KT 15SM -SHSN BKN060 BKN120 M08/M08 A2988 RMK SC5AC2 CVCTV CLD EMBD SLP130=
0158713950999992020010710004+44881-063509FM-15+014599999V0201701N003610118919N024140199-00701-00701101291ADDGD13991+0118919GE19MSL   +99999+99999GF199999999999011891999999MA1101181099445REMMET068METAR CYHZ 071000Z 17007KT 15SM BKN039 M07/M07 A2988 RMK SC7 SLP129=
0189713950999992020010711004+44881-063509FM-15+014599999V0201501N003610179819N024140199-00701-00801101251ADDGD13991+0179819GE19MSL   +99999+99999GF199999999999017981999999MA1101151099415MW1851REMMET093METAR CYHZ 071100Z CCA 15007KT 15SM -SHSN BKN059 M07/M08 A2987 RMK SC5 CVCTV CLD EMBD SLP125=
0184713950999992020010711484+44881-063509FM-16+014599999V0201301N004110131119N004828199-00701-00701101231ADDGD14991+0131119GE19MSL   +99999+99999GF199999999999013111999999MA1101121099395MW1851REMMET088SPECI CYHZ 071148Z 13008KT 3SM -SHSN OVC043 M07/M07 A2986 RMK SC8 CVCTV CLD EMBD SLP123=
0298713950999992020010712004+44883-063500FM-12+014599999V0201301N004619999999N003200199-00671-00701101241ADDAA106000021AA224000021AJ100123100120099AY181021AY221021GA1081+012501061GE19MSL   +99999+99999GF108991081999012501999999IA1289KA1240M-00501KA2240N-00781MA1101135099411MD1710071+9999MW1851REMSYN10071395 11632 81309 11067 21070 39941 40124 57007 69901 78582 885// 333 11050 21078 48012 79999 90956=
0184713950999992020010712004+44881-063509FM-15+014599999V0201301N004110115819N003219199-00701-00701101231ADDGD14991+0115819GE19MSL   +99999+99999GF199999999999011581999999MA1101121099395MW1851REMMET088METAR CYHZ 071200Z 13008KT 2SM -SHSN OVC038 M07/M07 A2986 RMK SC8 CVCTV CLD EMBD SLP123=
0209713950999992020010712324+44881-063509FM-16+014599999V0201501N003610054919N003219199-00601-00701101261ADDGD11991+0015219GD24991+0054919GE19MSL   +99999+99999GF199999999999001521999999MA1101151099425MW1851REMMET098SPECI CYHZ 071232Z 15007KT 2SM -SHSN FEW005 OVC018 M06/M07 A2987 RMK SF2SC6 CVCTV CLD EMBD SLP126=
0209713950999992020010712434+44881-063509FM-16+014599999V0201601N003610012219N004828199-00601-00601101281ADDGD13991+0012219GD24991+0054919GE19MSL   +99999+99999GF199999999999001221999999MA1101181099445MW1851REMMET098SPECI CYHZ 071243Z 16007KT 3SM -SHSN BKN004 OVC018 M06/M06 A2988 RMK SF6SC2 CVCTV CLD EMBD SLP128=
0213713950999992020010712534+44881-063509FM-16+014599999V0201501N004110009119N004023199-00501-00501101281ADDGD13991+0009119GD24991+0054919GE19MSL   +99999+99999GF199999999999000911999999MA1101181099455MW1851REMMET102SPECI CYHZ 071253Z 15008KT 2 1/2SM -SHSN BKN003 OVC018 M05/M05 A2988 RMK SF7SC1 CVCTV CLD EMBD SLP128=
0184713950999992020010713004+44881-063509FM-15+014599999V0201501N004110006119N003219199-00501-00501101281ADDGD14991+0006119GE19MSL   +99999+99999GF199999999999000611999999MA1101181099455MW1851REMMET088METAR CYHZ 071300Z 15008KT 2SM -SHSN OVC002 M05/M05 A2988 RMK SF8 CVCTV CLD EMBD SLP128=
0188713950999992020010713034+44881-063509FM-16+014599999V0201501N004610006119N002414199-00501-00501101281ADDGD14991+0006119GE19MSL   +99999+99999GF199999999999000611999999MA1101181099455MW1851REMMET092SPECI CYHZ 071303Z 15009KT 1 1/2SM -SHSN OVC002 M05/M05 A2988 RMK SF8 CVCTV CLD EMBD SLP128=
0212713950999992020010713134+44881-063509FM-16+014599999V0201401N004610009119N001609199-00501-00501101281ADDGD14991+0009119GE19MSL   +99999+99999GF199999999999000911999999MA1101181099455MW1851REMMET116SPECI CYHZ 071313Z 14009KT 1SM R23/P6000FT/N R14/P6000FT/N -SHSN OVC003 M05/M05 A2988 RMK SF8 CVCTV CLD EMBD SLP128=
0224713950999992020010713164+44881-063509FM-16+014599999V0201501N004110006119N001006199-00501-00501101291ADDGD14991+0006119GE19MSL   +99999+99999GF199999999999000611999999MA1101181099465MW1851REMMET128SPECI CYHZ 071316Z 15008KT 5/8SM R23/4500VP6000FT/D R14/4000VP6000FT/D -SHSN OVC002 M05/M05 A2988 RMK SF8 CVCTV CLD EMBD SLP129=
0223713950999992020010713234+44881-063509FM-16+014599999V0201501N00361000911WN000805199-00501-00501101301ADDGA1999+000911999GE19MSL   +99999+99999GF109991999999000911999999MA1101181099475MW1861REMMET126SPECI CYHZ 071323Z 15007KT 1/2SM R23/4500VP6000FT/N R14/4000VP6000FT/N SHSN VV003 M05/M05 A2988 RMK SN8 CVCTV CLD EMBD SLP130=
0222713950999992020010713334+44881-063509FM-16+014599999V0201601N006210012219N002414199-00401-00401101291ADDGD13991+0012219GE19MSL   +99999+99999GF199999999999001221999999MA1101181099475MW1851OC100931REMMET118SPECI CYHZ 071333Z 16012G18KT 1 1/2SM R23/2600VP6000FT/U R14/2800VP6000FT/N -SHSN BKN004 M04/M04 A2988 RMK SF7 SLP129=
0243713950999992020010713364+44881-063509FM-16+014599999V0201801V00461001221WN001207199-00401-00401101291ADDGA1999+001221999GE19MSL   +99999+99999GF109991999999001221999999MA1101181099475MW1851OC100931REMMET138SPECI CYHZ 071336Z 18009G18KT 130V200 3/4SM R23/3000VP6000FT/U R14/2800VP6000FT/U -SHSN VV004 M04/M04 A2988 RMK SN8 CVCTV CLD EMBD SLP129=
0242713950999992020010713424+44881-063509FM-16+014599999V0202101V00411000911WN000805199-00301-00301101291ADDGA1999+000911999GE19MSL   +99999+99999GF109991999999000911999999MA1101181099475MW1861OC100881REMMET137SPECI CYHZ 071342Z 21008G17KT 150V230 1/2SM R23/4500VP6000FT/D R14/3500VP6000FT/D SHSN VV003 M03/M03 A2988 RMK SN8 CVCTV CLD EMBD SLP129=
0240713950999992020010714004+44881-063509FM-15+014599999V0202201V005110009119N002414199-00201-00201101331ADDGD14991+0009119GE19MSL   +99999+99999GF199999999999000911999999MA1101221099525MW1851REMMET144METAR CYHZ 071400Z 22010KT 170V240 1 1/2SM R23/3500VP6000FT/U R14/4000VP6000FT/U -SHSN OVC003 M02/M02 A2989 RMK SF8 /S01/ CVCTV CLD EMBD SLP133=
0220713950999992020010714074+44881-063509FM-16+014599999V0202001N004610048819N019312199-00101-00101101311ADDGD11991+0015219GD23991+0048819GD33991+0792519GE19MSL   +99999+99999GF199999999999001521999999MA1101221099505REMMET100SPECI CYHZ 071407Z 20009KT 12SM FEW005 BKN016 BKN260 M01/M01 A2989 RMK SF2SC3CI1 VIS LWR N-E SLP131=
0177713950999992020010714284+44881-063509FM-16+014599999V0202501N006710015219N024140199-00101-00101101321ADDGD13991+0015219GE19MSL   +99999+99999GF199999999999001521999999MA1101221099515REMMET087SPECI CYHZ 071428Z 25013KT 15SM BKN005 M01/M01 A2989 RMK SC7 WSHFT 1412 CIG RAG SLP132=
0158713950999992020010714454+44881-063509FM-16+014599999V0202501N005710012219N024140199-00101-00201101321ADDGD13991+0012219GE19MSL   +99999+99999GF199999999999001221999999MA1101221099515REMMET068SPECI CYHZ 071445Z 25011KT 15SM BKN004 M01/M02 A2989 RMK SF7 SLP132=
0174713950999992020010715004+44883-063500FM-12+014599999V0202501N006219999999N024000199-00161-00191101331ADDAA103999999GA1999+001501999GE19MSL   +99999+99999GF107991999999001501999999MA1101235099511MD1110101+9999REMSYN05871395 42274 72512 11016 21019 39951 40133 51010 333 6///7=
0166713950999992020010715004+44881-063509FM-15+014599999V0202501N005710012219N024140199-00201-00201101321ADDGD13991+0012219GE19MSL   +99999+99999GF199999999999001221999999MA1101221099515REMMET076METAR CYHZ 071500Z 25011KT 15SM BKN004 M02/M02 A2989 RMK SF7 CIG RAG SLP132=
0202713950999992020010715174+44881-063509FM-16+014599999V0202601N004112200059N024140199-00101-00201101281ADDGD11991+0015219GD22991+0792519GE19AGL   +99999+99999GF104995999999001521999999MA1101181099485REMMET078SPECI CYHZ 071517Z 26008KT 15SM FEW005 SCT260 M01/M02 A2988 RMK SF2CI1 SLP128=EQDD01      0ADE726
0239713950999992020010716004+44881-063509FM-15+014599999V0202401N004110335319N024140199+00001-00201101261ADDGD11991+0015219GD21991+0030519GD33991+0335319GD43991+0792519GE19MSL   +99999+99999GF199999999999001521999999MA1101181099465REMMET104METAR CYHZ 071600Z 24008KT 15SM FEW005 FEW010 BKN110 BKN260 M00/M02 A2988 RMK SF1CU1AC5CI1 CU TR SLP126=
0182713950999992020010717004+44881-063509FM-15+014599999V0202501N004110274319N024140199+00001-00201101261ADDGD11991+0030519GD23991+0274319GE19MSL   +99999+99999GF199999999999003051999999MA1101181099465REMMET077METAR CYHZ 071700Z 25008KT 15SM FEW010 BKN090 00/M02 A2988 RMK CU1AC6 SLP126=
0330713950999992020010718004+44883-063500FM-12+014599999V0202401N003119999999N024000199+00021-00221101301ADDAA106001031AA224001031AJ100133100130099AL19900131AY181021AY281021GA1011+004501081GA2999+999999031GE19MSL   +99999+99999GF107991011999004501999999IA1289KA1120M+00031KA2120N-00781MA1101205099481MD1510031+9999MW1021REMSYN10671395 11474 72406 10002 21022 39948 40130 55003 60011 70288 81170 333 10003 21078 48013 70010 90943 93101=
0207713950999992020010718004+44881-063509FM-15+014599999V0202401N003110259119N024140199+00001-00201101291ADDGD11991+0030519GD21991+0213419GD33991+0259119GE19MSL   +99999+99999GF199999999999003051999999MA1101181099495REMMET087METAR CYHZ 071800Z 24006KT 15SM FEW010 FEW070 BKN085 00/M02 A2988 RMK CU1AC2AC4 SLP129=
0182713950999992020010719004+44881-063509FM-15+014599999V0202501N004110231619N024140199+00001-00301101361ADDGD11991+0045719GD23991+0231619GE19MSL   +99999+99999GF199999999999004571999999MA1101291099565REMMET077METAR CYHZ 071900Z 25008KT 15SM FEW015 BKN076 00/M03 A2991 RMK CU1AC6 SLP136=
0202713950999992020010720004+44881-063509FM-15+014599999V0202301N002612200059N024140199-00101-00301101451ADDGD11991+0061019GD22991+0182919GE19AGL   +99999+99999GF104995999999006101999999MA1101351099645REMMET078METAR CYHZ 072000Z 23005KT 15SM FEW020 SCT060 M01/M03 A2993 RMK CU2SC2 SLP145=EQDD01      0ADE726
0174713950999992020010721004+44883-063500FM-12+014599999V0202201N003112200019N024000199-00211-00241101581ADDAA103999999GA1999+008001999GE19MSL   +99999+99999GF103991999999008001999999MA1101475099751MD1210271+9999REMSYN05871395 42574 32206 11021 21024 39975 40158 52027 333 6///7=
0202713950999992020010721004+44881-063509FM-15+014599999V0202301N003112200059N024140199-00201-00201101571ADDGD11991+0061019GD22991+0182919GE19AGL   +99999+99999GF104995999999006101999999MA1101491099755REMMET078METAR CYHZ 072100Z 23006KT 15SM FEW020 SCT060 M02/M02 A2997 RMK CU1SC2 SLP157=EQDD01      0ADE726
0177713950999992020010722004+44881-063509FM-15+014599999V0202401N003112200059N024140199-00201-00301101621ADDGD11991+0152419GE19AGL   +99999+99999GF102995999999015241999999MA1101521099805REMMET068METAR CYHZ 072200Z 24006KT 15SM FEW050 M02/M03 A2998 RMK SC1 SLP162=EQDD01      0ADE726
0158713950999992020010723004+44881-063509FM-15+014599999V0202501N002110152419N024140199-00201-00201101711ADDGD13991+0152419GE19MSL   +99999+99999GF199999999999015241999999MA1101631099895REMMET068METAR CYHZ 072300Z 25004KT 15SM BKN050 M02/M02 A3001 RMK SC5 SLP171=
0235713950999992020010800004+44883-063500FM-12+014599999V0202601N002119999999N024000199-00201-00321101781ADDAA106000091AA224001031GA1071+012501061GE19MSL   +99999+99999GF107991071999012501999999KA1120M+00061KA2120N-00781MA1101675099951MD1210201+9999REMSYN08271395 12674 72604 11020 21032 39995 40178 52020 60001 87500 333 10006 21078 70010=
0158713950999992020010800004+44881-063509FM-15+014599999V0202601N002110140219N024140199-00201-00301101771ADDGD13991+0140219GE19MSL   +99999+99999GF199999999999014021999999MA1101691099955REMMET068METAR CYHZ 080000Z 26004KT 15SM BKN046 M02/M03 A3003 RMK SC7 SLP177=
0202713950999992020010801004+44881-063509FM-15+014599999V0202401N001512200059N024140199-00301-00501101771ADDGD11991+0137219GD22991+0670619GE19AGL   +99999+99999GF104995999999013721999999MA1101691099945REMMET078METAR CYHZ 080100Z 24003KT 15SM FEW045 SCT220 M03/M05 A3003 RMK SC1CI3 SLP177=EQDD01      0ADE726
0183713950999992020010802004+44881-063509FM-15+014599999V0202101N002610640119N024140199-00401-00401101791ADDGD11991+0137219GD23991+0640119GE19MSL   +99999+99999GF199999999999013721999999MA1101691099965REMMET078METAR CYHZ 080200Z 21005KT 15SM FEW045 BKN210 M04/M04 A3003 RMK SC1CI6 SLP179=
0158713950999992020010803004+44883-063500FM-12+014599999V0202801N002119999999N024000199-00301-00391101721ADDAA103999999GE19MSL   +99999+99999GF106991999999999999999999MA1101625099901MD1810051+9999REMSYN05871395 42974 62804 11030 21039 39990 40172 58005 333 6///7=
0183713950999992020010803004+44881-063509FM-15+014599999V0202901N001510670619N024140199-00301-00401101711ADDGD12991+0548619GD23991+0670619GE19MSL   +99999+99999GF199999999999054861999999MA1101631099885REMMET078METAR CYHZ 080300Z 29003KT 15SM SCT180 BKN220 M03/M04 A3001 RMK AC3CI3 SLP171=
0183713950999992020010804004+44881-063509FM-15+014599999V0209999C000010548619N024140199-00301-00401101601ADDGD11991+0091419GD24991+0548619GE19MSL   +99999+99999GF199999999999009141999999MA1101521099785REMMET078METAR CYHZ 080400Z 00000KT 15SM FEW030 OVC180 M03/M04 A2998 RMK SC1AS7 SLP160=
0214713950999992020010804224+44881-063509FM-16+014599999V0201201N003110487719N024140199-00401-00401101571ADDGD11991+0003019GD21991+0091419GD34991+0487719GE19MSL   +99999+99999GF199999999999000301999999MA1101491099745REMMET094SPECI CYHZ 080422Z 12006KT 15SM FEW001 FEW030 OVC160 M04/M04 A2997 RMK ST1SC1AS7 ST TR SLP157=
0165713950999992020010805004+44881-063509FM-15+014599999V0200801N003110097519N024140199-00401-00401101461ADDGD14991+0097519GE19MSL   +99999+99999GF199999999999009751999999MA1101391099635REMMET075METAR CYHZ 080500Z 08006KT 15SM OVC032 M04/M04 A2994 RMK SC8 PRESFR SLP146=
0279713950999992020010806004+44883-063500FM-12+014599999V0200901N002619999999N024000199-00421-00491101451ADDAA106000091AA224001031GA1031+008001061GA2999+999999041GE19MSL   +99999+99999GF108991031999008001999999KA1240M+00061KA2240N-00781MA1101365099641MD1610261+9999REMSYN11071395 12574 80905 11042 21049 39964 40145 56026 60001 8351/ 333 10006 21078 70010 555 10012 20010 31518 4014/=
0183713950999992020010806004+44881-063509FM-15+014599999V0200901N003110426719N024140199-00401-00501101451ADDGD12991+0091419GD24991+0426719GE19MSL   +99999+99999GF199999999999009141999999MA1101351099625REMMET078METAR CYHZ 080600Z 09006KT 15SM SCT030 OVC140 M04/M05 A2993 RMK SC3AS5 SLP145=
0190713950999992020010807004+44881-063509FM-15+014599999V0200701N004610064019N024140199-00301-00501101261ADDGD13991+0064019GD24991+0396219GE19MSL   +99999+99999GF199999999999006401999999MA1101181099445REMMET085METAR CYHZ 080700Z 07009KT 15SM BKN021 OVC130 M03/M05 A2988 RMK SC7AS1 PRESFR SLP126=
0183713950999992020010808004+44881-063509FM-15+014599999V0200901N005110064019N024140199-00301-00501101181ADDGD13991+0064019GD24991+0304819GE19MSL   +99999+99999GF199999999999006401999999MA1101081099365REMMET078METAR CYHZ 080800Z 09010KT 15SM BKN021 OVC100 M03/M05 A2985 RMK SC5AS3 SLP118=
0174713950999992020010809004+44883-063500FM-12+014599999V0200901N004619999999N024000199-00361-00431101041ADDAA103999999GA1999+002501999GE19MSL   +99999+99999GF108991999999002501999999MA1100945099231MD1810411+9999REMSYN05871395 42374 80909 11036 21043 39923 40104 58041 333 6///7=
0200713950999992020010809004+44881-063509FM-15+014599999V0200701N003610021319N024140199-00401-00401101031ADDGD13991+0021319GD24991+0076219GE19MSL   +99999+99999GF199999999999002131999999MA1100951099215MW1711REMMET089METAR CYHZ 080900Z 07007KT 15SM -SN BKN007 OVC025 M04/M04 A2981 RMK ST5SC3 PRESFR SLP103=
0168713950999992020010809284+44881-063509FM-16+014599999V0200801N004110015219N024140199-00301-00301100971ADDGD14991+0015219GE19MSL   +99999+99999GF199999999999001521999999MA1100881099165MW1711REMMET072SPECI CYHZ 080928Z 08008KT 15SM -SN OVC005 M03/M03 A2979 RMK ST8 SLP097=
0175713950999992020010809504+44881-063509FM-16+014599999V0200801N004610012219N019312199-00301-00301100891ADDGD14991+0012219GE19MSL   +99999+99999GF199999999999001221999999MA1100811099085MW1711REMMET079SPECI CYHZ 080950Z 08009KT 12SM -SN OVC004 M03/M03 A2977 RMK ST8 PRESFR SLP089=
0178713950999992020010810004+44881-063509FM-15+014599999V0200801N005110012219N002816199-00301-00301100861ADDGD14991+0012219GE19MSL   +99999+99999GF199999999999001221999999MA1100781099055MW1711REMMET082METAR CYHZ 081000Z 08010KT 1 3/4SM -SN OVC004 M03/M03 A2976 RMK ST8 PRESFR SLP086=
0188713950999992020010810104+44881-063509FM-16+014599999V0200701N004610009119N001609199-00301-00301100791ADDGD14991+0009119GE19MSL   +99999+99999GF199999999999000911999999MA1100711098985MW1711REMMET092SPECI CYHZ 081010Z 07009KT 1SM R14/P6000FT/D -SN OVC003 M03/M03 A2974 RMK ST8 PRESFR SLP079=
0178713950999992020010810224+44881-063509FM-16+014599999V0200701N004610018319N002414199-00301-00301100731ADDGD14991+0018319GE19MSL   +99999+99999GF199999999999001831999999MA1100641098925MW1711REMMET082SPECI CYHZ 081022Z 07009KT 1 1/2SM -SN OVC006 M03/M03 A2972 RMK ST8 PRESFR SLP073=
0178713950999992020010811004+44881-063509FM-15+014599999V0200701N006710018319N002012199-00201-00201100611ADDGD14991+0018319GE19MSL   +99999+99999GF199999999999001831999999MA1100511098815MW1711REMMET082METAR CYHZ 081100Z 07013KT 1 1/4SM -SN OVC006 M02/M02 A2968 RMK ST8 PRESFR SLP061=
0192713950999992020010811214+44881-063509FM-16+014599999V0200701N00511001221WN001609199-00201-00201100551ADDGA1999+001221999GE19MSL   +99999+99999GF109991999999001221999999MA1100471098755MW1711OC100821REMMET087SPECI CYHZ 081121Z 07010G16KT 1SM R14/P6000FT/D -SN VV004 M02/M02 A2967 RMK SN8 SLP055=
0189713950999992020010811474+44881-063509FM-16+014599999V0200701N00621001831WN002012199-00201-00201100461ADDGA1999+001831999GE19MSL   +99999+99999GF109991999999001831999999MA1100371098665MW1711OC100881REMMET084SPECI CYHZ 081147Z 07012G17KT 1 1/4SM -SN VV006 M02/M02 A2964 RMK SN8 PRESFR SLP046=
0317713950999992020010812004+44883-063500FM-12+014599999V0200701N006212200019N001600199-00221-00221100381ADDAA106999999AA224001031AJ100133100130099AY121021AY221021GA1021+001501071GE19MSL   +99999+99999GF102991021999001501999999IA1289KA1240M+00061KA2240N-00501MA1100285098581MD1810651+9999MW1711REMSYN10071395 11216 20712 11022 21022 39858 40038 58065 60001 77122 827// 333 10006 21050 48013 70010 90942=EQDQ01  00002PRCP06
0244713950999992020010812004+44881-063509FM-15+014599999V0200701N006212200059N001609199-00205-00205100371ADDED114U99999GD11991+0012219GE19AGL   +99999+99999GF102995999999001221999999MA1100305999999MW1711OC100931REMMET110METAR CYHZ 081200Z 07012G18KT 1SM R14/P6000FT/D -SN FEW004 VV005 M02/M02 A2962 RMK SF2SN6 /S03/ PRESFR SLP037=EQDD01      0ADE693
0193713950999992020010812194+44881-063509FM-16+014599999V0200701N00571000911WN001006199-00201-00201100321ADDGA1999+000911999GE19MSL   +99999+99999GF109991999999000911999999MA1100241098535MW1711OC100881REMMET088SPECI CYHZ 081219Z 07011G17KT 5/8SM R14/6000FT/U -SN VV003 M02/M02 A2960 RMK SN8 SLP032=
0206713950999992020010813004+44881-063509FM-15+014599999V0200701N00671001221WN000805199-00201-00201100251ADDGA1999+001221999GE19MSL   +99999+99999GF109991999999001221999999MA1100171098465MW1731REMMET109METAR CYHZ 081300Z 07013KT 1/2SM R14/4500FT/U SN VV004 M02/M02 A2958 RMK SN8 CIG VRB 3-5 /S02/ PRESFR SLP025=
0209713950999992020010813134+44881-063509FM-16+014599999V0200801N00571001221WN001609199-00201-00201100281ADDGA1999+001221999GE19MSL   +99999+99999GF109991999999001221999999MA1100201098495MW1711OC100821REMMET104SPECI CYHZ 081313Z 08011G16KT 1SM R14/4000VP6000FT/U -SN VV004 M02/M02 A2959 RMK SN8 CIG VRB 3-5 SLP028=
0210713950999992020010813334+44881-063509FM-16+014599999V0200801N00671000911WN000805199-00201-00201100191ADDGA1999+000911999GE19MSL   +99999+99999GF109991999999000911999999MA1100101098405MW1731OC100981REMMET105SPECI CYHZ 081333Z 08013G19KT 1/2SM R14/3000VP6000FT/D SN VV003 M02/M02 A2956 RMK SN8 CIG VRB 2-4 SLP019=
0193713950999992020010813494+44881-063509FM-16+014599999V0200601N004610024419N001207199-00201-00201100171ADDGD14991+0024419GE19MSL   +99999+99999GF199999999999002441999999MA1100101098385MW1711OC100771REMMET089SPECI CYHZ 081349Z 06009G15KT 3/4SM R14/4000FT/U -SN OVC008 M02/M02 A2956 RMK NS8 SLP017=
0210713950999992020010814004+44881-063509FM-15+014599999V0200401N004610021319N002012199-00201-00201100171ADDGD14991+0021319GE19MSL   +99999+99999GF199999999999002131999999MA1100101098385MW1711OC100771REMMET106METAR CYHZ 081400Z 04009G15KT 1 1/4SM R14/4500VP6000FT/U -SN OVC007 M02/M02 A2956 RMK SN2NS6 /S04/ SLP017=
0186713950999992020010814274+44881-063509FM-16+014599999V0200101N004110021319N000805199-00201-00201100131ADDGD14991+0021319GE19MSL   +99999+99999GF199999999999002131999999MA1100031098345MW1731REMMET090SPECI CYHZ 081427Z 01008KT 1/2SM R14/4000V5000FT/D SN OVC007 M02/M02 A2954 RMK NS8 SLP013=
0189713950999992020010814374+44881-063509FM-16+014599999V0203601N00461001221WN001006199-00301-00301100091ADDGA1999+001221999GE19MSL   +99999+99999GF109991999999001221999999MA1100001098295MW1711REMMET092SPECI CYHZ 081437Z 36009KT 5/8SM R14/3500FT/D -SN VV004 M03/M03 A2953 RMK SN8 PRESFR SLP009=
0110713950999992020010815004+44883-063500FM-12+014599999V0200101N005719999999N000600199-00311-00311100021ADDAA103999999MA1099935098231MD1810351+9999REMSYN05871395 42/06 /0111 11031 21031 39823 40002 58035 333 6///7=
0194713950999992020010815004+44881-063509FM-15+014599999V0200101N00511000911WN000604199-00301-00301100021ADDGA1999+000911999GE19MSL   +99999+99999GF109991999999000911999999MA1099931098225MW1731REMMET097METAR CYHZ 081500Z 01010KT 3/8SM R14/3000FT/N SN VV003 M03/M03 A2951 RMK SN8 /S07/ PRESFR SLP002=
0188713950999992020010815184+44881-063509FM-16+014599999V0200101N00571001221WN000805199-00301-00301099951ADDGA1999+001221999GE19MSL   +99999+99999GF109991999999001221999999MA1099861098165MW1731REMMET091SPECI CYHZ 081518Z 01011KT 1/2SM R14/3000FT/N SN VV004 M03/M03 A2949 RMK SN8 PRESFR SLP995=
0189713950999992020010815304+44881-063509FM-16+014599999V0200101N00721000911WN000402199-00301-00301099911ADDGA1999+000911999GE19MSL   +99999+99999GF109991999999000911999999MA1099831098125MW1751REMMET092SPECI CYHZ 081530Z 01014KT 1/4SM R14/3000FT/N +SN VV003 M03/M03 A2948 RMK SN8 PRESFR SLP991=
0200713950999992020010815444+44881-063509FM-16+014599999V0200101N00881001521WN000604199-00301-00301099831ADDGA1999+001521999GE19MSL   +99999+99999GF109991999999001521999999MA1099731098045MW1731REMMET103SPECI CYHZ 081544Z 01017KT 3/8SM R14/3000FT/U SN VV005 M03/M03 A2945 RMK SN8 CIG VRB 3-7 PRESFR SLP983=
0218713950999992020010816004+44881-063509FM-15+014599999V0200101N00771001521WN001207199-00301-00401099751ADDGA1999+001521999GE19MSL   +99999+99999GF109991999999001521999999MA1099661097965MW1711OC101131REMMET113METAR CYHZ 081600Z 01015G22KT 3/4SM R14/3000FT/N -SN VV005 M03/M04 A2943 RMK SN8 CIG VRB 3-7 /S09/ PRESFR SLP975=
