0068994027999992019010100004+32713-117173FM-13+000299999V0209999C000019999999N999999999+99999+99999101001ADDMD1310041+9999REMSYN042SDBC1 46/// ///// 1//// 40100 53004 90000=
0068994027999992019010101004+32713-117173FM-13+000299999V0209999C000019999999N999999999+99999+99999101041ADDMD1210111+9999REMSYN042SDBC1 46/// ///// 1//// 40104 52011 90100=
0068994027999992019010102004+32713-117173FM-13+000299999V0209999C000019999999N999999999+99999+99999101111ADDMD1310141+9999REMSYN042SDBC1 46/// ///// 1//// 40111 53014 90200=
0068994027999992019010103004+32713-117173FM-13+000299999V0209999C000019999999N999999999+99999+99999101161ADDMD1310161+9999REMSYN042SDBC1 46/// ///// 1//// 40116 53016 90300=
0068994027999992019010104004+32713-117173FM-13+000299999V0209999C000019999999N999999999+99999+99999101281ADDMD1310241+9999REMSYN042SDBC1 46/// ///// 1//// 40128 53024 90400=
0068994027999992019010105004+32713-117173FM-13+000299999V0209999C000019999999N999999999+99999+99999101241ADDMD1990131+9999REMSYN042SDBC1 46/// ///// 1//// 40124 50013 90500=
0068994027999992019010106004+32713-117173FM-13+000299999V0209999C000019999999N999999999+99999+99999101311ADDMD1110151+9999REMSYN042SDBC1 46/// ///// 1//// 40131 51015 90600=
0068994027999992019010107004+32713-117173FM-13+000299999V0209999C000019999999N999999999+99999+99999101381ADDMD1310101+9999REMSYN042SDBC1 46/// ///// 1//// 40138 53010 90700=
0068994027999992019010108004+32713-117173FM-13+000299999V0209999C000019999999N999999999+99999+99999101411ADDMD1110171+9999REMSYN042SDBC1 46/// ///// 1//// 40141 51017 90800=
0068994027999992019010109004+32713-117173FM-13+000299999V0209999C000019999999N999999999+99999+99999101421ADDMD1110111+9999REMSYN042SDBC1 46/// ///// 1//// 40142 51011 90900=
0068994027999992019010110004+32713-117173FM-13+000299999V0209999C000019999999N999999999+99999+99999101451ADDMD1210071+9999REMSYN042SDBC1 46/// ///// 1//// 40145 52007 91000=
0068994027999992019010111004+32713-117173FM-13+000299999V0209999C000019999999N999999999+99999+99999101451ADDMD1210041+9999REMSYN042SDBC1 46/// ///// 1//// 40145 52004 91100=
0068994027999992019010112004+32713-117173FM-13+000299999V0209999C000019999999N999999999+99999+99999101461ADDMD1110041+9999REMSYN042SDBC1 46/// ///// 1//// 40146 51004 91200=
0068994027999992019010113004+32713-117173FM-13+000299999V0209999C000019999999N999999999+99999+99999101551ADDMD1310101+9999REMSYN042SDBC1 46/// ///// 1//// 40155 53010 91300=
0068994027999992019010114004+32713-117173FM-13+000299999V0209999C000019999999N999999999+99999+99999101641ADDMD1310191+9999REMSYN042SDBC1 46/// ///// 1//// 40164 53019 91400=
0068994027999992019010115004+32713-117173FM-13+000299999V0209999C000019999999N999999999+99999+99999101801ADDMD1310341+9999REMSYN042SDBC1 46/// ///// 1//// 40180 53034 91500=
0068994027999992019010116004+32713-117173FM-13+000299999V0209999C000019999999N999999999+99999+99999101941ADDMD1310391+9999REMSYN042SDBC1 46/// ///// 1//// 40194 53039 91600=
0068994027999992019010117004+32713-117173FM-13+000299999V0209999C000019999999N999999999+99999+99999101991ADDMD1110351+9999REMSYN042SDBC1 46/// ///// 1//// 40199 51035 91700=
0068994027999992019010118004+32713-117173FM-13+000299999V0209999C000019999999N999999999+99999+99999102011ADDMD1110211+9999REMSYN042SDBC1 46/// ///// 1//// 40201 51021 91800=
0068994027999992019010119004+32713-117173FM-13+000299999V0209999C000019999999N999999999+99999+99999101921ADDMD1990001+9999REMSYN042SDBC1 46/// ///// 1//// 40192 50000 91900=
0068994027999992019010120004+32713-117173FM-13+000299999V0209999C000019999999N999999999+99999+99999101801ADDMD1810191+9999REMSYN042SDBC1 46/// ///// 1//// 40180 58019 92000=
0068994027999992019010121004+32713-117173FM-13+000299999V0209999C000019999999N999999999+99999+99999101761ADDMD1610251+9999REMSYN042SDBC1 46/// ///// 1//// 40176 56025 92100=
0068994027999992019010122004+32713-117173FM-13+000299999V0209999C000019999999N999999999+99999+99999101771ADDMD1610151+9999REMSYN042SDBC1 46/// ///// 1//// 40177 56015 92200=
0068994027999992019010123004+32713-117173FM-13+000299999V0209999C000019999999N999999999+99999+99999101821ADDMD1510001+9999REMSYN042SDBC1 46/// ///// 1//// 40182 55000 92300=
0068994027999992019010200004+32713-117173FM-13+000299999V0209999C000019999999N999999999+99999+99999101881ADDMD1310121+9999REMSYN042SDBC1 46/// ///// 1//// 40188 53012 90000=
0068994027999992019010201004+32713-117173FM-13+000299999V0209999C000019999999N999999999+99999+99999101951ADDMD1310181+9999REMSYN042SDBC1 46/// ///// 1//// 40195 53018 90100=
0068994027999992019010202004+32713-117173FM-13+000299999V0209999C000019999999N999999999+99999+99999102001ADDMD1110181+9999REMSYN042SDBC1 46/// ///// 1//// 40200 51018 90200=
0068994027999992019010203004+32713-117173FM-13+000299999V0209999C000019999999N999999999+99999+99999102031ADDMD1110151+9999REMSYN042SDBC1 46/// ///// 1//// 40203 51015 90300=
0068994027999992019010204004+32713-117173FM-13+000299999V0209999C000019999999N999999999+99999+99999102031ADDMD1110081+9999REMSYN042SDBC1 46/// ///// 1//// 40203 51008 90400=
0068994027999992019010205004+32713-117173FM-13+000299999V0209999C000019999999N999999999+99999+99999102071ADDMD1310071+9999REMSYN042SDBC1 46/// ///// 1//// 40207 53007 90500=
0045994027999992019010206004+32713-117173FM-13+000299999V0209999C000019999999N999999999+99999+99999102091REMSYN036SDBC1 46/// ///// 1//// 40209 90542=
0045994027999992019010207004+32713-117173FM-13+000299999V0209999C000019999999N999999999+99999+99999102081REMSYN036SDBC1 46/// ///// 1//// 40208 90642=
0045994027999992019010208004+32713-117173FM-13+000299999V0209999C000019999999N999999999+99999+99999102061REMSYN036SDBC1 46/// ///// 1//// 40206 90742=
0045994027999992019010209004+32713-117173FM-13+000299999V0209999C000019999999N999999999+99999+99999102031REMSYN036SDBC1 46/// ///// 1//// 40203 90836=
0068994027999992019010210004+32713-117173FM-13+000299999V0209999C000019999999N999999999+99999+99999102061ADDMD1710031+9999REMSYN042SDBC1 46/// ///// 1//// 40206 57003 91000=
0045994027999992019010211004+32713-117173FM-13+000299999V0209999C000019999999N999999999+99999+99999102061REMSYN036SDBC1 46/// ///// 1//// 40206 91036=
0068994027999992019010212004+32713-117173FM-13+000299999V0209999C000019999999N999999999+99999+99999101981ADDMD1710071+9999REMSYN042SDBC1 46/// ///// 1//// 40198 57007 91200=
0068994027999992019010213004+32713-117173FM-13+000299999V0209999C000019999999N999999999+99999+99999102031ADDMD1510031+9999REMSYN042SDBC1 46/// ///// 1//// 40203 55003 91300=
0068994027999992019010214004+32713-117173FM-13+000299999V0209999C000019999999N999999999+99999+99999102131ADDMD1310131+9999REMSYN042SDBC1 46/// ///// 1//// 40213 53013 91400=
0068994027999992019010215004+32713-117173FM-13+000299999V0209999C000019999999N999999999+99999+99999102261ADDMD1310281+9999REMSYN042SDBC1 46/// ///// 1//// 40226 53028 91500=
0068994027999992019010216004+32713-117173FM-13+000299999V0209999C000019999999N999999999+99999+99999102341ADDMD1110311+9999REMSYN042SDBC1 46/// ///// 1//// 40234 51031 91600=
0068994027999992019010217004+32713-117173FM-13+000299999V0209999C000019999999N999999999+99999+99999102361ADDMD1110231+9999REMSYN042SDBC1 46/// ///// 1//// 40236 51023 91700=
0068994027999992019010218004+32713-117173FM-13+000299999V0209999C000019999999N999999999+99999+99999102331ADDMD1990071+9999REMSYN042SDBC1 46/// ///// 1//// 40233 50007 91800=
0068994027999992019010219004+32713-117173FM-13+000299999V0209999C000019999999N999999999+99999+99999102261ADDMD1810081+9999REMSYN042SDBC1 46/// ///// 1//// 40226 58008 91900=
0068994027999992019010220004+32713-117173FM-13+000299999V0209999C000019999999N999999999+99999+99999102171ADDMD1810191+9999REMSYN042SDBC1 46/// ///// 1//// 40217 58019 92000=
0068994027999992019010221004+32713-117173FM-13+000299999V0209999C000019999999N999999999+99999+99999102121ADDMD1610211+9999REMSYN042SDBC1 46/// ///// 1//// 40212 56021 92100=
0068994027999992019010222004+32713-117173FM-13+000299999V0209999C000019999999N999999999+99999+99999102121ADDMD1610141+9999REMSYN042SDBC1 46/// ///// 1//// 40212 56014 92200=
0068994027999992019010223004+32713-117173FM-13+000299999V0209999C000019999999N999999999+99999+99999102151ADDMD1510001+9999REMSYN042SDBC1 46/// ///// 1//// 40215 55000 92300=
0068994027999992019010300004+32713-117173FM-13+000299999V0209999C000019999999N999999999+99999+99999102151ADDMD1210031+9999REMSYN042SDBC1 46/// ///// 1//// 40215 52003 90000=
0045994027999992019010301004+32713-117173FM-13+000299999V0209999C000019999999N999999999+99999+99999102191REMSYN036SDBC1 46/// ///// 1//// 40219 90042=
0068994027999992019010302004+32713-117173FM-13+000299999V0209999C000019999999N999999999+99999+99999102271ADDMD1310121+9999REMSYN042SDBC1 46/// ///// 1//// 40227 53012 90200=
0068994027999992019010303004+32713-117173FM-13+000299999V0209999C000019999999N999999999+99999+99999102341ADDMD1310191+9999REMSYN042SDBC1 46/// ///// 1//// 40234 53019 90300=
0068994027999992019010304004+32713-117173FM-13+000299999V0209999C000019999999N999999999+99999+99999102351ADDMD1110141+9999REMSYN042SDBC1 46/// ///// 1//// 40235 51014 90400=
0068994027999992019010305004+32713-117173FM-13+000299999V0209999C000019999999N999999999+99999+99999102331ADDMD1110061+9999REMSYN042SDBC1 46/// ///// 1//// 40233 51006 90500=
0068994027999992019010306004+32713-117173FM-13+000299999V0209999C000019999999N999999999+99999+99999102351ADDMD1410001+9999REMSYN042SDBC1 46/// ///// 1//// 40235 54000 90600=
0045994027999992019010307004+32713-117173FM-13+000299999V0209999C000019999999N999999999+99999+99999102341REMSYN036SDBC1 46/// ///// 1//// 40234 90636=
0068994027999992019010308004+32713-117173FM-13+000299999V0209999C000019999999N999999999+99999+99999102311ADDMD1990001+9999REMSYN042SDBC1 46/// ///// 1//// 40231 50000 90800=
0068994027999992019010309004+32713-117173FM-13+000299999V0209999C000019999999N999999999+99999+99999102301ADDMD1710051+9999REMSYN042SDBC1 46/// ///// 1//// 40230 57005 90900=
0068994027999992019010310004+32713-117173FM-13+000299999V0209999C000019999999N999999999+99999+99999102291ADDMD1610071+9999REMSYN042SDBC1 46/// ///// 1//// 40229 56007 91000=
0068994027999992019010311004+32713-117173FM-13+000299999V0209999C000019999999N999999999+99999+99999102231ADDMD1810081+9999REMSYN042SDBC1 46/// ///// 1//// 40223 58008 91100=
0045994027999992019010312004+32713-117173FM-13+000299999V0209999C000019999999N999999999+99999+99999102181REMSYN036SDBC1 46/// ///// 1//// 40218 91142=
0045994027999992019010313004+32713-117173FM-13+000299999V0209999C000019999999N999999999+99999+99999102171REMSYN036SDBC1 46/// ///// 1//// 40217 91242=
0068994027999992019010314004+32713-117173FM-13+000299999V0209999C000019999999N999999999+99999+99999102191ADDMD1610041+9999REMSYN042SDBC1 46/// ///// 1//// 40219 56004 91400=
0068994027999992019010315004+32713-117173FM-13+000299999V0209999C000019999999N999999999+99999+99999102201ADDMD1410001+9999REMSYN042SDBC1 46/// ///// 1//// 40220 54000 91500=
0068994027999992019010316004+32713-117173FM-13+000299999V0209999C000019999999N999999999+99999+99999102271ADDMD1310081+9999REMSYN042SDBC1 46/// ///// 1//// 40227 53008 91600=
0068994027999992019010317004+32713-117173FM-13+000299999V0209999C000019999999N999999999+99999+99999102341ADDMD1310151+9999REMSYN042SDBC1 46/// ///// 1//// 40234 53015 91700=
0068994027999992019010318004+32713-117173FM-13+000299999V0209999C000019999999N999999999+99999+99999102321ADDMD1110121+9999REMSYN042SDBC1 46/// ///// 1//// 40232 51012 91800=
0068994027999992019010319004+32713-117173FM-13+000299999V0209999C000019999999N999999999+99999+99999102221ADDMD1810051+9999REMSYN042SDBC1 46/// ///// 1//// 40222 58005 91900=
0068994027999992019010320004+32713-117173FM-13+000299999V0209999C000019999999N999999999+99999+99999102101ADDMD1810241+9999REMSYN042SDBC1 46/// ///// 1//// 40210 58024 92000=
0068994027999992019010321004+32713-117173FM-13+000299999V0209999C000019999999N999999999+99999+99999102011ADDMD1610311+9999REMSYN042SDBC1 46/// ///// 1//// 40201 56031 92100=
0068994027999992019010322004+32713-117173FM-13+000299999V0209999C000019999999N999999999+99999+99999101941ADDMD1610281+9999REMSYN042SDBC1 46/// ///// 1//// 40194 56028 92200=
0068994027999992019010323004+32713-117173FM-13+000299999V0209999C000019999999N999999999+99999+99999101901ADDMD1610201+9999REMSYN042SDBC1 46/// ///// 1//// 40190 56020 92300=
0068994027999992019010400004+32713-117173FM-13+000299999V0209999C000019999999N999999999+99999+99999101851ADDMD1610161+9999REMSYN042SDBC1 46/// ///// 1//// 40185 56016 90000=
0068994027999992019010401004+32713-117173FM-13+000299999V0209999C000019999999N999999999+99999+99999101871ADDMD1610071+9999REMSYN042SDBC1 46/// ///// 1//// 40187 56007 90100=
0068994027999992019010402004+32713-117173FM-13+000299999V0209999C000019999999N999999999+99999+99999101961ADDMD1310061+9999REMSYN042SDBC1 46/// ///// 1//// 40196 53006 90200=
0068994027999992019010403004+32713-117173FM-13+000299999V0209999C000019999999N999999999+99999+99999102021ADDMD1310171+9999REMSYN042SDBC1 46/// ///// 1//// 40202 53017 90300=
0068994027999992019010404004+32713-117173FM-13+000299999V0209999C000019999999N999999999+99999+99999102051ADDMD1110181+9999REMSYN042SDBC1 46/// ///// 1//// 40205 51018 90400=
0068994027999992019010405004+32713-117173FM-13+000299999V0209999C000019999999N999999999+99999+99999102041ADDMD1110081+9999REMSYN042SDBC1 46/// ///// 1//// 40204 51008 90500=
0068994027999992019010406004+32713-117173FM-13+000299999V0209999C000019999999N999999999+99999+99999101991ADDMD1810031+9999REMSYN042SDBC1 46/// ///// 1//// 40199 58003 90600=
0068994027999992019010407004+32713-117173FM-13+000299999V0209999C000019999999N999999999+99999+99999101931ADDMD1810121+9999REMSYN042SDBC1 46/// ///// 1//// 40193 58012 90700=
0068994027999992019010408004+32713-117173FM-13+000299999V0209999C000019999999N999999999+99999+99999101901ADDMD1610141+9999REMSYN042SDBC1 46/// ///// 1//// 40190 56014 90800=
0068994027999992019010409004+32713-117173FM-13+000299999V0209999C000019999999N999999999+99999+99999101881ADDMD1610111+9999REMSYN042SDBC1 46/// ///// 1//// 40188 56011 90900=
0068994027999992019010410004+32713-117173FM-13+000299999V0209999C000019999999N999999999+99999+99999101831ADDMD1810101+9999REMSYN042SDBC1 46/// ///// 1//// 40183 58010 91000=
0068994027999992019010411004+32713-117173FM-13+000299999V0209999C000019999999N999999999+99999+99999101731ADDMD1810171+9999REMSYN042SDBC1 46/// ///// 1//// 40173 58017 91100=
0068994027999992019010412004+32713-117173FM-13+000299999V0209999C000019999999N999999999+99999+99999101651ADDMD1810231+9999REMSYN042SDBC1 46/// ///// 1//// 40165 58023 91200=
0068994027999992019010413004+32713-117173FM-13+000299999V0209999C000019999999N999999999+99999+99999101661ADDMD1610171+9999REMSYN042SDBC1 46/// ///// 1//// 40166 56017 91300=
0068994027999992019010414004+32713-117173FM-13+000299999V0209999C000019999999N999999999+99999+99999101701ADDMD1510031+9999REMSYN042SDBC1 46/// ///// 1//// 40170 55003 91400=
0068994027999992019010415004+32713-117173FM-13+000299999V0209999C000019999999N999999999+99999+99999101761ADDMD1310111+9999REMSYN042SDBC1 46/// ///// 1//// 40176 53011 91500=
0068994027999992019010416004+32713-117173FM-13+000299999V0209999C000019999999N999999999+99999+99999101811ADDMD1310151+9999REMSYN042SDBC1 46/// ///// 1//// 40181 53015 91600=
0068994027999992019010417004+32713-117173FM-13+000299999V0209999C000019999999N999999999+99999+99999101861ADDMD1110161+9999REMSYN042SDBC1 46/// ///// 1//// 40186 51016 91700=
0068994027999992019010418004+32713-117173FM-13+000299999V0209999C000019999999N999999999+99999+99999101871ADDMD1110111+9999REMSYN042SDBC1 46/// ///// 1//// 40187 51011 91800=
0068994027999992019010419004+32713-117173FM-13+000299999V0209999C000019999999N999999999+99999+99999101761ADDMD1810051+9999REMSYN042SDBC1 46/// ///// 1//// 40176 58005 91900=
0068994027999992019010420004+32713-117173FM-13+000299999V0209999C000019999999N999999999+99999+99999101631ADDMD1810231+9999REMSYN042SDBC1 46/// ///// 1//// 40163 58023 92000=
0068994027999992019010421004+32713-117173FM-13+000299999V0209999C000019999999N999999999+99999+99999101561ADDMD1610311+9999REMSYN042SDBC1 46/// ///// 1//// 40156 56031 92100=
0068994027999992019010422004+32713-117173FM-13+000299999V0209999C000019999999N999999999+99999+99999101581ADDMD1610181+9999REMSYN042SDBC1 46/// ///// 1//// 40158 56018 92200=
0068994027999992019010423004+32713-117173FM-13+000299999V0209999C000019999999N999999999+99999+99999101551ADDMD1610081+9999REMSYN042SDBC1 46/// ///// 1//// 40155 56008 92300=
0068994027999992019010500004+32713-117173FM-13+000299999V0209999C000019999999N999999999+99999+99999101471ADDMD1810091+9999REMSYN042SDBC1 46/// ///// 1//// 40147 58009 90000=
0068994027999992019010501004+32713-117173FM-13+000299999V0209999C000019999999N999999999+99999+99999101481ADDMD1610101+9999REMSYN042SDBC1 46/// ///// 1//// 40148 56010 90100=
0068994027999992019010502004+32713-117173FM-13+000299999V0209999C000019999999N999999999+99999+99999101501ADDMD1610051+9999REMSYN042SDBC1 46/// ///// 1//// 40150 56005 90200=
0068994027999992019010503004+32713-117173FM-13+000299999V0209999C000019999999N999999999+99999+99999101551ADDMD1310081+9999REMSYN042SDBC1 46/// ///// 1//// 40155 53008 90300=
0068994027999992019010504004+32713-117173FM-13+000299999V0209999C000019999999N999999999+99999+99999101551ADDMD1210071+9999REMSYN042SDBC1 46/// ///// 1//// 40155 52007 90400=
0068994027999992019010505004+32713-117173FM-13+000299999V0209999C000019999999N999999999+99999+99999101551ADDMD1110051+9999REMSYN042SDBC1 46/// ///// 1//// 40155 51005 90500=
0068994027999992019010506004+32713-117173FM-13+000299999V0209999C000019999999N999999999+99999+99999101511ADDMD1810041+9999REMSYN042SDBC1 46/// ///// 1//// 40151 58004 90600=
0068994027999992019010507004+32713-117173FM-13+000299999V0209999C000019999999N999999999+99999+99999101521ADDMD1710031+9999REMSYN042SDBC1 46/// ///// 1//// 40152 57003 90700=
0068994027999992019010508004+32713-117173FM-13+000299999V0209999C000019999999N999999999+99999+99999101531ADDMD1510001+9999REMSYN042SDBC1 46/// ///// 1//// 40153 55000 90800=
0068994027999992019010509004+32713-117173FM-13+000299999V0209999C000019999999N999999999+99999+99999101521ADDMD1410001+9999REMSYN042SDBC1 46/// ///// 1//// 40152 54000 90900=
0068994027999992019010510004+32713-117173FM-13+000299999V0209999C000019999999N999999999+99999+99999101411ADDMD1810111+9999REMSYN042SDBC1 46/// ///// 1//// 40141 58011 91000=
0068994027999992019010511004+32713-117173FM-13+000299999V0209999C000019999999N999999999+99999+99999101401ADDMD1710131+9999REMSYN042SDBC1 46/// ///// 1//// 40140 57013 91100=
0068994027999992019010512004+32713-117173FM-13+000299999V0209999C000019999999N999999999+99999+99999101361ADDMD1610161+9999REMSYN042SDBC1 46/// ///// 1//// 40136 56016 91200=
0068994027999992019010513004+32713-117173FM-13+000299999V0209999C000019999999N999999999+99999+99999101311ADDMD1810101+9999REMSYN042SDBC1 46/// ///// 1//// 40131 58010 91300=
0068994027999992019010514004+32713-117173FM-13+000299999V0209999C000019999999N999999999+99999+99999101331ADDMD1610071+9999REMSYN042SDBC1 46/// ///// 1//// 40133 56007 91400=
0068994027999992019010515004+32713-117173FM-13+000299999V0209999C000019999999N999999999+99999+99999101421ADDMD1310061+9999REMSYN042SDBC1 46/// ///// 1//// 40142 53006 91500=
0068994027999992019010516004+32713-117173FM-13+000299999V0209999C000019999999N999999999+99999+99999101591ADDMD1310281+9999REMSYN042SDBC1 46/// ///// 1//// 40159 53028 91600=
0068994027999992019010517004+32713-117173FM-13+000299999V0209999C000019999999N999999999+99999+99999101691ADDMD1310361+9999REMSYN042SDBC1 46/// ///// 1//// 40169 53036 91700=
0068994027999992019010518004+32713-117173FM-13+000299999V0209999C000019999999N999999999+99999+99999101731ADDMD1110311+9999REMSYN042SDBC1 46/// ///// 1//// 40173 51031 91800=
0068994027999992019010519004+32713-117173FM-13+000299999V0209999C000019999999N999999999+99999+99999101681ADDMD1990091+9999REMSYN042SDBC1 46/// ///// 1//// 40168 50009 91900=
0068994027999992019010520004+32713-117173FM-13+000299999V0209999C000019999999N999999999+99999+99999101591ADDMD1810101+9999REMSYN042SDBC1 46/// ///// 1//// 40159 58010 92000=
0068994027999992019010521004+32713-117173FM-13+000299999V0209999C000019999999N999999999+99999+99999101551ADDMD1610181+9999REMSYN042SDBC1 46/// ///// 1//// 40155 56018 92100=
0068994027999992019010522004+32713-117173FM-13+000299999V0209999C000019999999N999999999+99999+99999101451ADDMD1810231+9999REMSYN042SDBC1 46/// ///// 1//// 40145 58023 92200=
0068994027999992019010523004+32713-117173FM-13+000299999V0209999C000019999999N999999999+99999+99999101401ADDMD1810191+9999REMSYN042SDBC1 46/// ///// 1//// 40140 58019 92300=
0068994027999992019010600004+32713-117173FM-13+000299999V0209999C000019999999N999999999+99999+99999101421ADDMD1610131+9999REMSYN042SDBC1 46/// ///// 1//// 40142 56013 90000=
0068994027999992019010601004+32713-117173FM-13+000299999V0209999C000019999999N999999999+99999+99999101521ADDMD1310071+9999REMSYN042SDBC1 46/// ///// 1//// 40152 53007 90100=
0068994027999992019010602004+32713-117173FM-13+000299999V0209999C000019999999N999999999+99999+99999101511ADDMD1210111+9999REMSYN042SDBC1 46/// ///// 1//// 40151 52011 90200=
0068994027999992019010603004+32713-117173FM-13+000299999V0209999C000019999999N999999999+99999+99999101481ADDMD1990061+9999REMSYN042SDBC1 46/// ///// 1//// 40148 50006 90300=
0068994027999992019010604004+32713-117173FM-13+000299999V0209999C000019999999N999999999+99999+99999101581ADDMD1310061+9999REMSYN042SDBC1 46/// ///// 1//// 40158 53006 90400=
0068994027999992019010605004+32713-117173FM-13+000299999V0209999C000019999999N999999999+99999+99999101591ADDMD1310081+9999REMSYN042SDBC1 46/// ///// 1//// 40159 53008 90500=
0068994027999992019010606004+32713-117173FM-13+000299999V0209999C000019999999N999999999+99999+99999101551ADDMD1990071+9999REMSYN042SDBC1 46/// ///// 1//// 40155 50007 90600=
0068994027999992019010607004+32713-117173FM-13+000299999V0209999C000019999999N999999999+99999+99999101541ADDMD1710041+9999REMSYN042SDBC1 46/// ///// 1//// 40154 57004 90700=
0068994027999992019010608004+32713-117173FM-13+000299999V0209999C000019999999N999999999+99999+99999101571ADDMD1510001+9999REMSYN042SDBC1 46/// ///// 1//// 40157 55000 90800=
0068994027999992019010609004+32713-117173FM-13+000299999V0209999C000019999999N999999999+99999+99999101501ADDMD1810051+9999REMSYN042SDBC1 46/// ///// 1//// 40150 58005 90900=
0068994027999992019010610004+32713-117173FM-13+000299999V0209999C000019999999N999999999+99999+99999101611ADDMD1310071+9999REMSYN042SDBC1 46/// ///// 1//// 40161 53007 91000=
0068994027999992019010611004+32713-117173FM-13+000299999V0209999C000019999999N999999999+99999+99999101591ADDMD1510001+9999REMSYN042SDBC1 46/// ///// 1//// 40159 55000 91100=
0068994027999992019010612004+32713-117173FM-13+000299999V0209999C000019999999N999999999+99999+99999101591ADDMD1110091+9999REMSYN042SDBC1 46/// ///// 1//// 40159 51009 91200=
0068994027999992019010613004+32713-117173FM-13+000299999V0209999C000019999999N999999999+99999+99999101651ADDMD1310041+9999REMSYN042SDBC1 46/// ///// 1//// 40165 53004 91300=
0045994027999992019010614004+32713-117173FM-13+000299999V0209999C000019999999N999999999+99999+99999101651REMSYN036SDBC1 46/// ///// 1//// 40165 91336=
0068994027999992019010615004+32713-117173FM-13+000299999V0209999C000019999999N999999999+99999+99999101781ADDMD1310191+9999REMSYN042SDBC1 46/// ///// 1//// 40178 53019 91500=
0068994027999992019010616004+32713-117173FM-13+000299999V0209999C000019999999N999999999+99999+99999101881ADDMD1310231+9999REMSYN042SDBC1 46/// ///// 1//// 40188 53023 91600=
0068994027999992019010617004+32713-117173FM-13+000299999V0209999C000019999999N999999999+99999+99999101981ADDMD1210301+9999REMSYN042SDBC1 46/// ///// 1//// 40198 52030 91700=
0068994027999992019010618004+32713-117173FM-13+000299999V0209999C000019999999N999999999+99999+99999102011ADDMD1110231+9999REMSYN042SDBC1 46/// ///// 1//// 40201 51023 91800=
0068994027999992019010619004+32713-117173FM-13+000299999V0209999C000019999999N999999999+99999+99999101981ADDMD1990101+9999REMSYN042SDBC1 46/// ///// 1//// 40198 50010 91900=
0068994027999992019010620004+32713-117173FM-13+000299999V0209999C000019999999N999999999+99999+99999101941ADDMD1810041+9999REMSYN042SDBC1 46/// ///// 1//// 40194 58004 92000=
0068994027999992019010621004+32713-117173FM-13+000299999V0209999C000019999999N999999999+99999+99999101941ADDMD1610071+9999REMSYN042SDBC1 46/// ///// 1//// 40194 56007 92100=
0068994027999992019010622004+32713-117173FM-13+000299999V0209999C000019999999N999999999+99999+99999101971ADDMD1510001+9999REMSYN042SDBC1 46/// ///// 1//// 40197 55000 92200=
0068994027999992019010623004+32713-117173FM-13+000299999V0209999C000019999999N999999999+99999+99999101991ADDMD1210051+9999REMSYN042SDBC1 46/// ///// 1//// 40199 52005 92300=
0068994027999992019010700004+32713-117173FM-13+000299999V0209999C000019999999N999999999+99999+99999102031ADDMD1310091+9999REMSYN042SDBC1 46/// ///// 1//// 40203 53009 90000=
0068994027999992019010701004+32713-117173FM-13+000299999V0209999C000019999999N999999999+99999+99999102091ADDMD1310121+9999REMSYN042SDBC1 46/// ///// 1//// 40209 53012 90100=
0068994027999992019010702004+32713-117173FM-13+000299999V0209999C000019999999N999999999+99999+99999102161ADDMD1310171+9999REMSYN042SDBC1 46/// ///// 1//// 40216 53017 90200=
0068994027999992019010703004+32713-117173FM-13+000299999V0209999C000019999999N999999999+99999+99999102241ADDMD1310211+9999REMSYN042SDBC1 46/// ///// 1//// 40224 53021 90300=
0068994027999992019010704004+32713-117173FM-13+000299999V0209999C000019999999N999999999+99999+99999102331ADDMD1310241+9999REMSYN042SDBC1 46/// ///// 1//// 40233 53024 90400=
0068994027999992019010705004+32713-117173FM-13+000299999V0209999C000019999999N999999999+99999+99999102421ADDMD1310261+9999REMSYN042SDBC1 46/// ///// 1//// 40242 53026 90500=
0068994027999992019010706004+32713-117173FM-13+000299999V0209999C000019999999N999999999+99999+99999102421ADDMD1110181+9999REMSYN042SDBC1 46/// ///// 1//// 40242 51018 90600=
0068994027999992019010707004+32713-117173FM-13+000299999V0209999C000019999999N999999999+99999+99999102391ADDMD1990061+9999REMSYN042SDBC1 46/// ///// 1//// 40239 50006 90700=
0068994027999992019010708004+32713-117173FM-13+000299999V0209999C000019999999N999999999+99999+99999102371ADDMD1710051+9999REMSYN042SDBC1 46/// ///// 1//// 40237 57005 90800=
0068994027999992019010709004+32713-117173FM-13+000299999V0209999C000019999999N999999999+99999+99999102401ADDMD1510001+9999REMSYN042SDBC1 46/// ///// 1//// 40240 55000 90900=
0068994027999992019010710004+32713-117173FM-13+000299999V0209999C000019999999N999999999+99999+99999102451ADDMD1310061+9999REMSYN042SDBC1 46/// ///// 1//// 40245 53006 91000=
0068994027999992019010711004+32713-117173FM-13+000299999V0209999C000019999999N999999999+99999+99999102331ADDMD1810041+9999REMSYN042SDBC1 46/// ///// 1//// 40233 58004 91100=
0068994027999992019010712004+32713-117173FM-13+000299999V0209999C000019999999N999999999+99999+99999102321ADDMD1810081+9999REMSYN042SDBC1 46/// ///// 1//// 40232 58008 91200=
0068994027999992019010713004+32713-117173FM-13+000299999V0209999C000019999999N999999999+99999+99999102341ADDMD1610111+9999REMSYN042SDBC1 46/// ///// 1//// 40234 56011 91300=
0068994027999992019010714004+32713-117173FM-13+000299999V0209999C000019999999N999999999+99999+99999102361ADDMD1210031+9999REMSYN042SDBC1 46/// ///// 1//// 40236 52003 91400=
0068994027999992019010715004+32713-117173FM-13+000299999V0209999C000019999999N999999999+99999+99999102381ADDMD1210061+9999REMSYN042SDBC1 46/// ///// 1//// 40238 52006 91500=
0068994027999992019010716004+32713-117173FM-13+000299999V0209999C000019999999N999999999+99999+99999102461ADDMD1310121+9999REMSYN042SDBC1 46/// ///// 1//// 40246 53012 91600=
0068994027999992019010717004+32713-117173FM-13+000299999V0209999C000019999999N999999999+99999+99999102521ADDMD1310161+9999REMSYN042SDBC1 46/// ///// 1//// 40252 53016 91700=
0068994027999992019010718004+32713-117173FM-13+000299999V0209999C000019999999N999999999+99999+99999102531ADDMD1110151+9999REMSYN042SDBC1 46/// ///// 1//// 40253 51015 91800=
0068994027999992019010719004+32713-117173FM-13+000299999V0209999C000019999999N999999999+99999+99999102401ADDMD1810061+9999REMSYN042SDBC1 46/// ///// 1//// 40240 58006 91900=
0068994027999992019010720004+32713-117173FM-13+000299999V0209999C000019999999N999999999+99999+99999102251ADDMD1810271+9999REMSYN042SDBC1 46/// ///// 1//// 40225 58027 92000=
0068994027999992019010721004+32713-117173FM-13+000299999V0209999C000019999999N999999999+99999+99999102181ADDMD1610351+9999REMSYN042SDBC1 46/// ///// 1//// 40218 56035 92100=
0068994027999992019010722004+32713-117173FM-13+000299999V0209999C000019999999N999999999+99999+99999102171ADDMD1610231+9999REMSYN042SDBC1 46/// ///// 1//// 40217 56023 92200=
0068994027999992019010723004+32713-117173FM-13+000299999V0209999C000019999999N999999999+99999+99999102191ADDMD1610061+9999REMSYN042SDBC1 46/// ///// 1//// 40219 56006 92300=
0068994027999992019010800004+32713-117173FM-13+000299999V0209999C000019999999N999999999+99999+99999102171ADDMD1410001+9999REMSYN042SDBC1 46/// ///// 1//// 40217 54000 90000=
0068994027999992019010801004+32713-117173FM-13+000299999V0209999C000019999999N999999999+99999+99999102161ADDMD1410001+9999REMSYN042SDBC1 46/// ///// 1//// 40216 54000 90100=
0068994027999992019010802004+32713-117173FM-13+000299999V0209999C000019999999N999999999+99999+99999102171ADDMD1410001+9999REMSYN042SDBC1 46/// ///// 1//// 40217 54000 90200=
0068994027999992019010803004+32713-117173FM-13+000299999V0209999C000019999999N999999999+99999+99999102191ADDMD1410001+9999REMSYN042SDBC1 46/// ///// 1//// 40219 54000 90300=
0068994027999992019010804004+32713-117173FM-13+000299999V0209999C000019999999N999999999+99999+99999102161ADDMD1990001+9999REMSYN042SDBC1 46/// ///// 1//// 40216 50000 90400=
0068994027999992019010805004+32713-117173FM-13+000299999V0209999C000019999999N999999999+99999+99999102201ADDMD1310031+9999REMSYN042SDBC1 46/// ///// 1//// 40220 53003 90500=
0068994027999992019010806004+32713-117173FM-13+000299999V0209999C000019999999N999999999+99999+99999102211ADDMD1510001+9999REMSYN042SDBC1 46/// ///// 1//// 40221 55000 90600=
0068994027999992019010807004+32713-117173FM-13+000299999V0209999C000019999999N999999999+99999+99999102141ADDMD1990001+9999REMSYN042SDBC1 46/// ///// 1//// 40214 50000 90700=
0068994027999992019010808004+32713-117173FM-13+000299999V0209999C000019999999N999999999+99999+99999102081ADDMD1810121+9999REMSYN042SDBC1 46/// ///// 1//// 40208 58012 90800=
0068994027999992019010809004+32713-117173FM-13+000299999V0209999C000019999999N999999999+99999+99999102051ADDMD1610161+9999REMSYN042SDBC1 46/// ///// 1//// 40205 56016 90900=
0068994027999992019010810004+32713-117173FM-13+000299999V0209999C000019999999N999999999+99999+99999102021ADDMD1610121+9999REMSYN042SDBC1 46/// ///// 1//// 40202 56012 91000=
0068994027999992019010811004+32713-117173FM-13+000299999V0209999C000019999999N999999999+99999+99999101971ADDMD1810111+9999REMSYN042SDBC1 46/// ///// 1//// 40197 58011 91100=
0068994027999992019010812004+32713-117173FM-13+000299999V0209999C000019999999N999999999+99999+99999101931ADDMD1810121+9999REMSYN042SDBC1 46/// ///// 1//// 40193 58012 91200=
0068994027999992019010813004+32713-117173FM-13+000299999V0209999C000019999999N999999999+99999+99999101891ADDMD1610131+9999REMSYN042SDBC1 46/// ///// 1//// 40189 56013 91300=
0068994027999992019010814004+32713-117173FM-13+000299999V0209999C000019999999N999999999+99999+99999101871ADDMD1610101+9999REMSYN042SDBC1 46/// ///// 1//// 40187 56010 91400=
0068994027999992019010815004+32713-117173FM-13+000299999V0209999C000019999999N999999999+99999+99999101871ADDMD1610061+9999REMSYN042SDBC1 46/// ///// 1//// 40187 56006 91500=
0068994027999992019010816004+32713-117173FM-13+000299999V0209999C000019999999N999999999+99999+99999101901ADDMD1510001+9999REMSYN042SDBC1 46/// ///// 1//// 40190 55000 91600=
0068994027999992019010817004+32713-117173FM-13+000299999V0209999C000019999999N999999999+99999+99999101971ADDMD1310101+9999REMSYN042SDBC1 46/// ///// 1//// 40197 53010 91700=
0045994027999992019010818004+32713-117173FM-13+000299999V0209999C000019999999N999999999+99999+99999102011REMSYN036SDBC1 46/// ///// 1//// 40201 91736=
0045994027999992019010819004+32713-117173FM-13+000299999V0209999C000019999999N999999999+99999+99999101951REMSYN036SDBC1 46/// ///// 1//// 40195 91836=
0068994027999992019010820004+32713-117173FM-13+000299999V0209999C000019999999N999999999+99999+99999101831ADDMD1810141+9999REMSYN042SDBC1 46/// ///// 1//// 40183 58014 92000=
0068994027999992019010821004+32713-117173FM-13+000299999V0209999C000019999999N999999999+99999+99999101771ADDMD1610241+9999REMSYN042SDBC1 46/// ///// 1//// 40177 56024 92100=
0068994027999992019010822004+32713-117173FM-13+000299999V0209999C000019999999N999999999+99999+99999101781ADDMD1610141+9999REMSYN042SDBC1 46/// ///// 1//// 40178 56014 92200=
0068994027999992019010823004+32713-117173FM-13+000299999V0209999C000019999999N999999999+99999+99999101811ADDMD1510001+9999REMSYN042SDBC1 46/// ///// 1//// 40181 55000 92300=
0068994027999992019010900004+32713-117173FM-13+000299999V0209999C000019999999N999999999+99999+99999101831ADDMD1210061+9999REMSYN042SDBC1 46/// ///// 1//// 40183 52006 90000=
0068994027999992019010901004+32713-117173FM-13+000299999V0209999C000019999999N999999999+99999+99999101871ADDMD1310091+9999REMSYN042SDBC1 46/// ///// 1//// 40187 53009 90100=
0068994027999992019010902004+32713-117173FM-13+000299999V0209999C000019999999N999999999+99999+99999101891ADDMD1210081+9999REMSYN042SDBC1 46/// ///// 1//// 40189 52008 90200=
0068994027999992019010903004+32713-117173FM-13+000299999V0209999C000019999999N999999999+99999+99999101891ADDMD1110061+9999REMSYN042SDBC1 46/// ///// 1//// 40189 51006 90300=
0068994027999992019010904004+32713-117173FM-13+000299999V0209999C000019999999N999999999+99999+99999101901ADDMD1210031+9999REMSYN042SDBC1 46/// ///// 1//// 40190 52003 90400=
0068994027999992019010905004+32713-117173FM-13+000299999V0209999C000019999999N999999999+99999+99999101971ADDMD1310081+9999REMSYN042SDBC1 46/// ///// 1//// 40197 53008 90500=
0068994027999992019010906004+32713-117173FM-13+000299999V0209999C000019999999N999999999+99999+99999102011ADDMD1310121+9999REMSYN042SDBC1 46/// ///// 1//// 40201 53012 90600=
0068994027999992019010907004+32713-117173FM-13+000299999V0209999C000019999999N999999999+99999+99999101991ADDMD1110091+9999REMSYN042SDBC1 46/// ///// 1//// 40199 51009 90700=
0068994027999992019010908004+32713-117173FM-13+000299999V0209999C000019999999N999999999+99999+99999102001ADDMD1110031+9999REMSYN042SDBC1 46/// ///// 1//// 40200 51003 90800=
0068994027999992019010909004+32713-117173FM-13+000299999V0209999C000019999999N999999999+99999+99999102041ADDMD1310031+9999REMSYN042SDBC1 46/// ///// 1//// 40204 53003 90900=
0068994027999992019010910004+32713-117173FM-13+000299999V0209999C000019999999N999999999+99999+99999102071ADDMD1310081+9999REMSYN042SDBC1 46/// ///// 1//// 40207 53008 91000=
0068994027999992019010911004+32713-117173FM-13+000299999V0209999C000019999999N999999999+99999+99999102041ADDMD1990041+9999REMSYN042SDBC1 46/// ///// 1//// 40204 50004 91100=
0068994027999992019010912004+32713-117173FM-13+000299999V0209999C000019999999N999999999+99999+99999102001ADDMD1810041+9999REMSYN042SDBC1 46/// ///// 1//// 40200 58004 91200=
0068994027999992019010913004+32713-117173FM-13+000299999V0209999C000019999999N999999999+99999+99999101991ADDMD1610081+9999REMSYN042SDBC1 46/// ///// 1//// 40199 56008 91300=
0068994027999992019010914004+32713-117173FM-13+000299999V0209999C000019999999N999999999+99999+99999102021ADDMD1510001+9999REMSYN042SDBC1 46/// ///// 1//// 40202 55000 91400=
0068994027999992019010915004+32713-117173FM-13+000299999V0209999C000019999999N999999999+99999+99999102081ADDMD1310081+9999REMSYN042SDBC1 46/// ///// 1//// 40208 53008 91500=
0068994027999992019010916004+32713-117173FM-13+000299999V0209999C000019999999N999999999+99999+99999102121ADDMD1310131+9999REMSYN042SDBC1 46/// ///// 1//// 40212 53013 91600=
0068994027999992019010917004+32713-117173FM-13+000299999V0209999C000019999999N999999999+99999+99999102161ADDMD1110141+9999REMSYN042SDBC1 46/// ///// 1//// 40216 51014 91700=
0068994027999992019010918004+32713-117173FM-13+000299999V0209999C000019999999N999999999+99999+99999102131ADDMD1990051+9999REMSYN042SDBC1 46/// ///// 1//// 40213 50005 91800=
0068994027999992019010919004+32713-117173FM-13+000299999V0209999C000019999999N999999999+99999+99999102001ADDMD1810121+9999REMSYN042SDBC1 46/// ///// 1//// 40200 58012 91900=
0068994027999992019010920004+32713-117173FM-13+000299999V0209999C000019999999N999999999+99999+99999101851ADDMD1810311+9999REMSYN042SDBC1 46/// ///// 1//// 40185 58031 92000=
0068994027999992019010921004+32713-117173FM-13+000299999V0209999C000019999999N999999999+99999+99999101861ADDMD1610271+9999REMSYN042SDBC1 46/// ///// 1//// 40186 56027 92100=
0068994027999992019010922004+32713-117173FM-13+000299999V0209999C000019999999N999999999+99999+99999101791ADDMD1610211+9999REMSYN042SDBC1 46/// ///// 1//// 40179 56021 92200=
0068994027999992019010923004+32713-117173FM-13+000299999V0209999C000019999999N999999999+99999+99999101851ADDMD1510001+9999REMSYN042SDBC1 46/// ///// 1//// 40185 55000 92300=
0068994027999992019011000004+32713-117173FM-13+000299999V0209999C000019999999N999999999+99999+99999101871ADDMD1510001+9999REMSYN042SDBC1 46/// ///// 1//// 40187 55000 90000=
0068994027999992019011001004+32713-117173FM-13+000299999V0209999C000019999999N999999999+99999+99999101911ADDMD1110121+9999REMSYN042SDBC1 46/// ///// 1//// 40191 51012 90100=
0068994027999992019011002004+32713-117173FM-13+000299999V0209999C000019999999N999999999+99999+99999101951ADDMD1310101+9999REMSYN042SDBC1 46/// ///// 1//// 40195 53010 90200=
0068994027999992019011003004+32713-117173FM-13+000299999V0209999C000019999999N999999999+99999+99999102001ADDMD1310131+9999REMSYN042SDBC1 46/// ///// 1//// 40200 53013 90300=
0068994027999992019011004004+32713-117173FM-13+000299999V0209999C000019999999N999999999+99999+99999102021ADDMD1110111+9999REMSYN042SDBC1 46/// ///// 1//// 40202 51011 90400=
0068994027999992019011005004+32713-117173FM-13+000299999V0209999C000019999999N999999999+99999+99999102001ADDMD1110051+9999REMSYN042SDBC1 46/// ///// 1//// 40200 51005 90500=
0068994027999992019011006004+32713-117173FM-13+000299999V0209999C000019999999N999999999+99999+99999101951ADDMD1810051+9999REMSYN042SDBC1 46/// ///// 1//// 40195 58005 90600=
0068994027999992019011007004+32713-117173FM-13+000299999V0209999C000019999999N999999999+99999+99999101921ADDMD1810101+9999REMSYN042SDBC1 46/// ///// 1//// 40192 58010 90700=
0068994027999992019011008004+32713-117173FM-13+000299999V0209999C000019999999N999999999+99999+99999101941ADDMD1610061+9999REMSYN042SDBC1 46/// ///// 1//// 40194 56006 90800=
0068994027999992019011009004+32713-117173FM-13+000299999V0209999C000019999999N999999999+99999+99999101961ADDMD1510001+9999REMSYN042SDBC1 46/// ///// 1//// 40196 55000 90900=
0068994027999992019011010004+32713-117173FM-13+000299999V0209999C000019999999N999999999+99999+99999101991ADDMD1310071+9999REMSYN042SDBC1 46/// ///// 1//// 40199 53007 91000=
0068994027999992019011011004+32713-117173FM-13+000299999V0209999C000019999999N999999999+99999+99999102001ADDMD1210061+9999REMSYN042SDBC1 46/// ///// 1//// 40200 52006 91100=
0068994027999992019011012004+32713-117173FM-13+000299999V0209999C000019999999N999999999+99999+99999101981ADDMD1990001+9999REMSYN042SDBC1 46/// ///// 1//// 40198 50000 91200=
0068994027999992019011013004+32713-117173FM-13+000299999V0209999C000019999999N999999999+99999+99999101931ADDMD1810061+9999REMSYN042SDBC1 46/// ///// 1//// 40193 58006 91300=
0068994027999992019011014004+32713-117173FM-13+000299999V0209999C000019999999N999999999+99999+99999101971ADDMD1510031+9999REMSYN042SDBC1 46/// ///// 1//// 40197 55003 91400=
0068994027999992019011015004+32713-117173FM-13+000299999V0209999C000019999999N999999999+99999+99999102051ADDMD1310071+9999REMSYN042SDBC1 46/// ///// 1//// 40205 53007 91500=
0068994027999992019011016004+32713-117173FM-13+000299999V0209999C000019999999N999999999+99999+99999102101ADDMD1310171+9999REMSYN042SDBC1 46/// ///// 1//// 40210 53017 91600=
0068994027999992019011017004+32713-117173FM-13+000299999V0209999C000019999999N999999999+99999+99999102151ADDMD1110181+9999REMSYN042SDBC1 46/// ///// 1//// 40215 51018 91700=
0068994027999992019011018004+32713-117173FM-13+000299999V0209999C000019999999N999999999+99999+99999102151ADDMD1110101+9999REMSYN042SDBC1 46/// ///// 1//// 40215 51010 91800=
0068994027999992019011019004+32713-117173FM-13+000299999V0209999C000019999999N999999999+99999+99999102041ADDMD1810061+9999REMSYN042SDBC1 46/// ///// 1//// 40204 58006 91900=
0068994027999992019011020004+32713-117173FM-13+000299999V0209999C000019999999N999999999+99999+99999101931ADDMD1810221+9999REMSYN042SDBC1 46/// ///// 1//// 40193 58022 92000=
0068994027999992019011021004+32713-117173FM-13+000299999V0209999C000019999999N999999999+99999+99999101891ADDMD1610261+9999REMSYN042SDBC1 46/// ///// 1//// 40189 56026 92100=
0068994027999992019011022004+32713-117173FM-13+000299999V0209999C000019999999N999999999+99999+99999101881ADDMD1610161+9999REMSYN042SDBC1 46/// ///// 1//// 40188 56016 92200=
0068994027999992019011023004+32713-117173FM-13+000299999V0209999C000019999999N999999999+99999+99999101851ADDMD1610081+9999REMSYN042SDBC1 46/// ///// 1//// 40185 56008 92300=
0068994027999992019011100004+32713-117173FM-13+000299999V0209999C000019999999N999999999+99999+99999101881ADDMD1510001+9999REMSYN042SDBC1 46/// ///// 1//// 40188 55000 90000=
0068994027999992019011101004+32713-117173FM-13+000299999V0209999C000019999999N999999999+99999+99999101921ADDMD1310041+9999REMSYN042SDBC1 46/// ///// 1//// 40192 53004 90100=
0068994027999992019011102004+32713-117173FM-13+000299999V0209999C000019999999N999999999+99999+99999101941ADDMD1110091+9999REMSYN042SDBC1 46/// ///// 1//// 40194 51009 90200=
0068994027999992019011103004+32713-117173FM-13+000299999V0209999C000019999999N999999999+99999+99999101961ADDMD1110081+9999REMSYN042SDBC1 46/// ///// 1//// 40196 51008 90300=
0068994027999992019011104004+32713-117173FM-13+000299999V0209999C000019999999N999999999+99999+99999101981ADDMD1210061+9999REMSYN042SDBC1 46/// ///// 1//// 40198 52006 90400=
0068994027999992019011105004+32713-117173FM-13+000299999V0209999C000019999999N999999999+99999+99999102031ADDMD1310091+9999REMSYN042SDBC1 46/// ///// 1//// 40203 53009 90500=
0068994027999992019011106004+32713-117173FM-13+000299999V0209999C000019999999N999999999+99999+99999102031ADDMD1210071+9999REMSYN042SDBC1 46/// ///// 1//// 40203 52007 90600=
0068994027999992019011107004+32713-117173FM-13+000299999V0209999C000019999999N999999999+99999+99999101981ADDMD1990001+9999REMSYN042SDBC1 46/// ///// 1//// 40198 50000 90700=
0068994027999992019011108004+32713-117173FM-13+000299999V0209999C000019999999N999999999+99999+99999101931ADDMD1810101+9999REMSYN042SDBC1 46/// ///// 1//// 40193 58010 90800=
0045994027999992019011109004+32713-117173FM-13+000299999V0209999C000019999999N999999999+99999+99999101921REMSYN036SDBC1 46/// ///// 1//// 40192 90836=
0068994027999992019011110004+32713-117173FM-13+000299999V0209999C000019999999N999999999+99999+99999101921ADDMD1610061+9999REMSYN042SDBC1 46/// ///// 1//// 40192 56006 91000=
0068994027999992019011111004+32713-117173FM-13+000299999V0209999C000019999999N999999999+99999+99999101831ADDMD1810101+9999REMSYN042SDBC1 46/// ///// 1//// 40183 58010 91100=
0068994027999992019011112004+32713-117173FM-13+000299999V0209999C000019999999N999999999+99999+99999101801ADDMD1810131+9999REMSYN042SDBC1 46/// ///// 1//// 40180 58013 91200=
0045994027999992019011113004+32713-117173FM-13+000299999V0209999C000019999999N999999999+99999+99999101791REMSYN036SDBC1 46/// ///// 1//// 40179 91236=
0045994027999992019011114004+32713-117173FM-13+000299999V0209999C000019999999N999999999+99999+99999101831REMSYN036SDBC1 46/// ///// 1//// 40183 91342=
0045994027999992019011115004+32713-117173FM-13+000299999V0209999C000019999999N999999999+99999+99999101841REMSYN036SDBC1 46/// ///// 1//// 40184 91436=
0068994027999992019011116004+32713-117173FM-13+000299999V0209999C000019999999N999999999+99999+99999101911ADDMD1310091+9999REMSYN042SDBC1 46/// ///// 1//// 40191 53009 91600=
0068994027999992019011117004+32713-117173FM-13+000299999V0209999C000019999999N999999999+99999+99999102021ADDMD1310191+9999REMSYN042SDBC1 46/// ///// 1//// 40202 53019 91700=
0068994027999992019011118004+32713-117173FM-13+000299999V0209999C000019999999N999999999+99999+99999102031ADDMD1110191+9999REMSYN042SDBC1 46/// ///// 1//// 40203 51019 91800=
0068994027999992019011119004+32713-117173FM-13+000299999V0209999C000019999999N999999999+99999+99999101951ADDMD1990041+9999REMSYN042SDBC1 46/// ///// 1//// 40195 50004 91900=
0068994027999992019011120004+32713-117173FM-13+000299999V0209999C000019999999N999999999+99999+99999101851ADDMD1810171+9999REMSYN042SDBC1 46/// ///// 1//// 40185 58017 92000=
0068994027999992019011121004+32713-117173FM-13+000299999V0209999C000019999999N999999999+99999+99999101771ADDMD1710261+9999REMSYN042SDBC1 46/// ///// 1//// 40177 57026 92100=
0068994027999992019011122004+32713-117173FM-13+000299999V0209999C000019999999N999999999+99999+99999101681ADDMD1610271+9999REMSYN042SDBC1 46/// ///// 1//// 40168 56027 92200=
0068994027999992019011123004+32713-117173FM-13+000299999V0209999C000019999999N999999999+99999+99999101631ADDMD1610221+9999REMSYN042SDBC1 46/// ///// 1//// 40163 56022 92300=
0068994027999992019011200004+32713-117173FM-13+000299999V0209999C000019999999N999999999+99999+99999101641ADDMD1610131+9999REMSYN042SDBC1 46/// ///// 1//// 40164 56013 90000=
0068994027999992019011201004+32713-117173FM-13+000299999V0209999C000019999999N999999999+99999+99999101641ADDMD1610041+9999REMSYN042SDBC1 46/// ///// 1//// 40164 56004 90100=
0068994027999992019011202004+32713-117173FM-13+000299999V0209999C000019999999N999999999+99999+99999101631ADDMD1410001+9999REMSYN042SDBC1 46/// ///// 1//// 40163 54000 90200=
0068994027999992019011203004+32713-117173FM-13+000299999V0209999C000019999999N999999999+99999+99999101651ADDMD1410001+9999REMSYN042SDBC1 46/// ///// 1//// 40165 54000 90300=
0068994027999992019011204004+32713-117173FM-13+000299999V0209999C000019999999N999999999+99999+99999101581ADDMD1810061+9999REMSYN042SDBC1 46/// ///// 1//// 40158 58006 90400=
0068994027999992019011205004+32713-117173FM-13+000299999V0209999C000019999999N999999999+99999+99999101571ADDMD1710061+9999REMSYN042SDBC1 46/// ///// 1//// 40157 57006 90500=
0068994027999992019011206004+32713-117173FM-13+000299999V0209999C000019999999N999999999+99999+99999101571ADDMD1610081+9999REMSYN042SDBC1 46/// ///// 1//// 40157 56008 90600=
0068994027999992019011207004+32713-117173FM-13+000299999V0209999C000019999999N999999999+99999+99999101621ADDMD1310041+9999REMSYN042SDBC1 46/// ///// 1//// 40162 53004 90700=
0068994027999992019011208004+32713-117173FM-13+000299999V0209999C000019999999N999999999+99999+99999101571ADDMD1990001+9999REMSYN042SDBC1 46/// ///// 1//// 40157 50000 90800=
0068994027999992019011209004+32713-117173FM-13+000299999V0209999C000019999999N999999999+99999+99999101611ADDMD1110041+9999REMSYN042SDBC1 46/// ///// 1//// 40161 51004 90900=
0068994027999992019011210004+32713-117173FM-13+000299999V0209999C000019999999N999999999+99999+99999101661ADDMD1310041+9999REMSYN042SDBC1 46/// ///// 1//// 40166 53004 91000=
0068994027999992019011211004+32713-117173FM-13+000299999V0209999C000019999999N999999999+99999+99999101631ADDMD1990061+9999REMSYN042SDBC1 46/// ///// 1//// 40163 50006 91100=
0068994027999992019011212004+32713-117173FM-13+000299999V0209999C000019999999N999999999+99999+99999101641ADDMD1110031+9999REMSYN042SDBC1 46/// ///// 1//// 40164 51003 91200=
0068994027999992019011213004+32713-117173FM-13+000299999V0209999C000019999999N999999999+99999+99999101601ADDMD1810061+9999REMSYN042SDBC1 46/// ///// 1//// 40160 58006 91300=
0068994027999992019011214004+32713-117173FM-13+000299999V0209999C000019999999N999999999+99999+99999101641ADDMD1510001+9999REMSYN042SDBC1 46/// ///// 1//// 40164 55000 91400=
0068994027999992019011215004+32713-117173FM-13+000299999V0209999C000019999999N999999999+99999+99999101631ADDMD1510001+9999REMSYN042SDBC1 46/// ///// 1//// 40163 55000 91500=
0068994027999992019011216004+32713-117173FM-13+000299999V0209999C000019999999N999999999+99999+99999101651ADDMD1110051+9999REMSYN042SDBC1 46/// ///// 1//// 40165 51005 91600=
0068994027999992019011217004+32713-117173FM-13+000299999V0209999C000019999999N999999999+99999+99999101731ADDMD1310091+9999REMSYN042SDBC1 46/// ///// 1//// 40173 53009 91700=
0068994027999992019011218004+32713-117173FM-13+000299999V0209999C000019999999N999999999+99999+99999101791ADDMD1310161+9999REMSYN042SDBC1 46/// ///// 1//// 40179 53016 91800=
0068994027999992019011219004+32713-117173FM-13+000299999V0209999C000019999999N999999999+99999+99999101731ADDMD1990081+9999REMSYN042SDBC1 46/// ///// 1//// 40173 50008 91900=
0068994027999992019011220004+32713-117173FM-13+000299999V0209999C000019999999N999999999+99999+99999101611ADDMD1810121+9999REMSYN042SDBC1 46/// ///// 1//// 40161 58012 92000=
0068994027999992019011221004+32713-117173FM-13+000299999V0209999C000019999999N999999999+99999+99999101561ADDMD1610231+9999REMSYN042SDBC1 46/// ///// 1//// 40156 56023 92100=
0068994027999992019011222004+32713-117173FM-13+000299999V0209999C000019999999N999999999+99999+99999101561ADDMD1610171+9999REMSYN042SDBC1 46/// ///// 1//// 40156 56017 92200=
0068994027999992019011223004+32713-117173FM-13+000299999V0209999C000019999999N999999999+99999+99999101601ADDMD1510001+9999REMSYN042SDBC1 46/// ///// 1//// 40160 55000 92300=
0068994027999992019011300004+32713-117173FM-13+000299999V0209999C000019999999N999999999+99999+99999101641ADDMD1310081+9999REMSYN042SDBC1 46/// ///// 1//// 40164 53008 90000=
0068994027999992019011301004+32713-117173FM-13+000299999V0209999C000019999999N999999999+99999+99999101691ADDMD1310131+9999REMSYN042SDBC1 46/// ///// 1//// 40169 53013 90100=
0068994027999992019011302004+32713-117173FM-13+000299999V0209999C000019999999N999999999+99999+99999101741ADDMD1310141+9999REMSYN042SDBC1 46/// ///// 1//// 40174 53014 90200=
0068994027999992019011303004+32713-117173FM-13+000299999V0209999C000019999999N999999999+99999+99999101761ADDMD1110121+9999REMSYN042SDBC1 46/// ///// 1//// 40176 51012 90300=
0068994027999992019011304004+32713-117173FM-13+000299999V0209999C000019999999N999999999+99999+99999101771ADDMD1110081+9999REMSYN042SDBC1 46/// ///// 1//// 40177 51008 90400=
0068994027999992019011305004+32713-117173FM-13+000299999V0209999C000019999999N999999999+99999+99999101801ADDMD1310061+9999REMSYN042SDBC1 46/// ///// 1//// 40180 53006 90500=
0068994027999992019011306004+32713-117173FM-13+000299999V0209999C000019999999N999999999+99999+99999101791ADDMD1210031+9999REMSYN042SDBC1 46/// ///// 1//// 40179 52003 90600=
0068994027999992019011307004+32713-117173FM-13+000299999V0209999C000019999999N999999999+99999+99999101801ADDMD1110031+9999REMSYN042SDBC1 46/// ///// 1//// 40180 51003 90700=
0068994027999992019011308004+32713-117173FM-13+000299999V0209999C000019999999N999999999+99999+99999101771ADDMD1810031+9999REMSYN042SDBC1 46/// ///// 1//// 40177 58003 90800=
0068994027999992019011309004+32713-117173FM-13+000299999V0209999C000019999999N999999999+99999+99999101801ADDMD1510001+9999REMSYN042SDBC1 46/// ///// 1//// 40180 55000 90900=
0068994027999992019011310004+32713-117173FM-13+000299999V0209999C000019999999N999999999+99999+99999101801ADDMD1510001+9999REMSYN042SDBC1 46/// ///// 1//// 40180 55000 91000=
0068994027999992019011311004+32713-117173FM-13+000299999V0209999C000019999999N999999999+99999+99999101821ADDMD1110051+9999REMSYN042SDBC1 46/// ///// 1//// 40182 51005 91100=
0068994027999992019011312004+32713-117173FM-13+000299999V0209999C000019999999N999999999+99999+99999101761ADDMD1810041+9999REMSYN042SDBC1 46/// ///// 1//// 40176 58004 91200=
0068994027999992019011313004+32713-117173FM-13+000299999V0209999C000019999999N999999999+99999+99999101761ADDMD1710041+9999REMSYN042SDBC1 46/// ///// 1//// 40176 57004 91300=
0068994027999992019011314004+32713-117173FM-13+000299999V0209999C000019999999N999999999+99999+99999101781ADDMD1610041+9999REMSYN042SDBC1 46/// ///// 1//// 40178 56004 91400=
0068994027999992019011315004+32713-117173FM-13+000299999V0209999C000019999999N999999999+99999+99999101771ADDMD1410001+9999REMSYN042SDBC1 46/// ///// 1//// 40177 54000 91500=
0068994027999992019011316004+32713-117173FM-13+000299999V0209999C000019999999N999999999+99999+99999101751ADDMD1410001+9999REMSYN042SDBC1 46/// ///// 1//// 40175 54000 91600=
0068994027999992019011317004+32713-117173FM-13+000299999V0209999C000019999999N999999999+99999+99999101831ADDMD1310051+9999REMSYN042SDBC1 46/// ///// 1//// 40183 53005 91700=
0068994027999992019011318004+32713-117173FM-13+000299999V0209999C000019999999N999999999+99999+99999101921ADDMD1310151+9999REMSYN042SDBC1 46/// ///// 1//// 40192 53015 91800=
0068994027999992019011319004+32713-117173FM-13+000299999V0209999C000019999999N999999999+99999+99999101911ADDMD1110161+9999REMSYN042SDBC1 46/// ///// 1//// 40191 51016 91900=
0068994027999992019011320004+32713-117173FM-13+000299999V0209999C000019999999N999999999+99999+99999101771ADDMD1810061+9999REMSYN042SDBC1 46/// ///// 1//// 40177 58006 92000=
0068994027999992019011321004+32713-117173FM-13+000299999V0209999C000019999999N999999999+99999+99999101691ADDMD1810231+9999REMSYN042SDBC1 46/// ///// 1//// 40169 58023 92100=
0068994027999992019011322004+32713-117173FM-13+000299999V0209999C000019999999N999999999+99999+99999101651ADDMD1610261+9999REMSYN042SDBC1 46/// ///// 1//// 40165 56026 92200=
0068994027999992019011323004+32713-117173FM-13+000299999V0209999C000019999999N999999999+99999+99999101631ADDMD1610141+9999REMSYN042SDBC1 46/// ///// 1//// 40163 56014 92300=
0068994027999992019011400004+32713-117173FM-13+000299999V0209999C000019999999N999999999+99999+99999101671ADDMD1510001+9999REMSYN042SDBC1 46/// ///// 1//// 40167 55000 90000=
0068994027999992019011401004+32713-117173FM-13+000299999V0209999C000019999999N999999999+99999+99999101631ADDMD1990001+9999REMSYN042SDBC1 46/// ///// 1//// 40163 50000 90100=
0068994027999992019011402004+32713-117173FM-13+000299999V0209999C000019999999N999999999+99999+99999101661ADDMD1110031+9999REMSYN042SDBC1 46/// ///// 1//// 40166 51003 90200=
0068994027999992019011403004+32713-117173FM-13+000299999V0209999C000019999999N999999999+99999+99999101681ADDMD1510001+9999REMSYN042SDBC1 46/// ///// 1//// 40168 55000 90300=
0068994027999992019011404004+32713-117173FM-13+000299999V0209999C000019999999N999999999+99999+99999101691ADDMD1110061+9999REMSYN042SDBC1 46/// ///// 1//// 40169 51006 90400=
0068994027999992019011405004+32713-117173FM-13+000299999V0209999C000019999999N999999999+99999+99999101721ADDMD1310061+9999REMSYN042SDBC1 46/// ///// 1//// 40172 53006 90500=
0068994027999992019011406004+32713-117173FM-13+000299999V0209999C000019999999N999999999+99999+99999101731ADDMD1210051+9999REMSYN042SDBC1 46/// ///// 1//// 40173 52005 90600=
0068994027999992019011407004+32713-117173FM-13+000299999V0209999C000019999999N999999999+99999+99999101731ADDMD1110041+9999REMSYN042SDBC1 46/// ///// 1//// 40173 51004 90700=
0068994027999992019011408004+32713-117173FM-13+000299999V0209999C000019999999N999999999+99999+99999101651ADDMD1810071+9999REMSYN042SDBC1 46/// ///// 1//// 40165 58007 90800=
0068994027999992019011409004+32713-117173FM-13+000299999V0209999C000019999999N999999999+99999+99999101631ADDMD1710101+9999REMSYN042SDBC1 46/// ///// 1//// 40163 57010 90900=
0068994027999992019011410004+32713-117173FM-13+000299999V0209999C000019999999N999999999+99999+99999101651ADDMD1610081+9999REMSYN042SDBC1 46/// ///// 1//// 40165 56008 91000=
0068994027999992019011411004+32713-117173FM-13+000299999V0209999C000019999999N999999999+99999+99999101601ADDMD1810051+9999REMSYN042SDBC1 46/// ///// 1//// 40160 58005 91100=
0068994027999992019011412004+32713-117173FM-13+000299999V0209999C000019999999N999999999+99999+99999101541ADDMD1810091+9999REMSYN042SDBC1 46/// ///// 1//// 40154 58009 91200=
0068994027999992019011413004+32713-117173FM-13+000299999V0209999C000019999999N999999999+99999+99999101491ADDMD1710161+9999REMSYN042SDBC1 46/// ///// 1//// 40149 57016 91300=
0068994027999992019011414004+32713-117173FM-13+000299999V0209999C000019999999N999999999+99999+99999101481ADDMD1610121+9999REMSYN042SDBC1 46/// ///// 1//// 40148 56012 91400=
0068994027999992019011415004+32713-117173FM-13+000299999V0209999C000019999999N999999999+99999+99999101531ADDMD1510001+9999REMSYN042SDBC1 46/// ///// 1//// 40153 55000 91500=
0068994027999992019011416004+32713-117173FM-13+000299999V0209999C000019999999N999999999+99999+99999101541ADDMD1210051+9999REMSYN042SDBC1 46/// ///// 1//// 40154 52005 91600=
0068994027999992019011417004+32713-117173FM-13+000299999V0209999C000019999999N999999999+99999+99999101611ADDMD1310131+9999REMSYN042SDBC1 46/// ///// 1//// 40161 53013 91700=
0068994027999992019011418004+32713-117173FM-13+000299999V0209999C000019999999N999999999+99999+99999101751ADDMD1310221+9999REMSYN042SDBC1 46/// ///// 1//// 40175 53022 91800=
0068994027999992019011419004+32713-117173FM-13+000299999V0209999C000019999999N999999999+99999+99999101651ADDMD1990111+9999REMSYN042SDBC1 46/// ///// 1//// 40165 50011 91900=
0068994027999992019011420004+32713-117173FM-13+000299999V0209999C000019999999N999999999+99999+99999101491ADDMD1810121+9999REMSYN042SDBC1 46/// ///// 1//// 40149 58012 92000=
0068994027999992019011421004+32713-117173FM-13+000299999V0209999C000019999999N999999999+99999+99999101441ADDMD1610311+9999REMSYN042SDBC1 46/// ///// 1//// 40144 56031 92100=
0068994027999992019011422004+32713-117173FM-13+000299999V0209999C000019999999N999999999+99999+99999101431ADDMD1610221+9999REMSYN042SDBC1 46/// ///// 1//// 40143 56022 92200=
0068994027999992019011423004+32713-117173FM-13+000299999V0209999C000019999999N999999999+99999+99999101451ADDMD1610041+9999REMSYN042SDBC1 46/// ///// 1//// 40145 56004 92300=
0068994027999992019011500004+32713-117173FM-13+000299999V0209999C000019999999N999999999+99999+99999101461ADDMD1410001+9999REMSYN042SDBC1 46/// ///// 1//// 40146 54000 90000=
0068994027999992019011501004+32713-117173FM-13+000299999V0209999C000019999999N999999999+99999+99999101481ADDMD1210051+9999REMSYN042SDBC1 46/// ///// 1//// 40148 52005 90100=
0068994027999992019011502004+32713-117173FM-13+000299999V0209999C000019999999N999999999+99999+99999101481ADDMD1210031+9999REMSYN042SDBC1 46/// ///// 1//// 40148 52003 90200=
0068994027999992019011503004+32713-117173FM-13+000299999V0209999C000019999999N999999999+99999+99999101521ADDMD1310061+9999REMSYN042SDBC1 46/// ///// 1//// 40152 53006 90300=
0068994027999992019011504004+32713-117173FM-13+000299999V0209999C000019999999N999999999+99999+99999101551ADDMD1310071+9999REMSYN042SDBC1 46/// ///// 1//// 40155 53007 90400=
0068994027999992019011505004+32713-117173FM-13+000299999V0209999C000019999999N999999999+99999+99999101581ADDMD1110101+9999REMSYN042SDBC1 46/// ///// 1//// 40158 51010 90500=
0068994027999992019011506004+32713-117173FM-13+000299999V0209999C000019999999N999999999+99999+99999101651ADDMD1310131+9999REMSYN042SDBC1 46/// ///// 1//// 40165 53013 90600=
0068994027999992019011507004+32713-117173FM-13+000299999V0209999C000019999999N999999999+99999+99999101681ADDMD1210131+9999REMSYN042SDBC1 46/// ///// 1//// 40168 52013 90700=
0068994027999992019011508004+32713-117173FM-13+000299999V0209999C000019999999N999999999+99999+99999101661ADDMD1110081+9999REMSYN042SDBC1 46/// ///// 1//// 40166 51008 90800=
0068994027999992019011509004+32713-117173FM-13+000299999V0209999C000019999999N999999999+99999+99999101611ADDMD1810041+9999REMSYN042SDBC1 46/// ///// 1//// 40161 58004 90900=
0068994027999992019011510004+32713-117173FM-13+000299999V0209999C000019999999N999999999+99999+99999101661ADDMD1510001+9999REMSYN042SDBC1 46/// ///// 1//// 40166 55000 91000=
0068994027999992019011511004+32713-117173FM-13+000299999V0209999C000019999999N999999999+99999+99999101661ADDMD1510001+9999REMSYN042SDBC1 46/// ///// 1//// 40166 55000 91100=
0068994027999992019011512004+32713-117173FM-13+000299999V0209999C000019999999N999999999+99999+99999101631ADDMD1990001+9999REMSYN042SDBC1 46/// ///// 1//// 40163 50000 91200=
0068994027999992019011513004+32713-117173FM-13+000299999V0209999C000019999999N999999999+99999+99999101641ADDMD1410001+9999REMSYN042SDBC1 46/// ///// 1//// 40164 54000 91300=
0068994027999992019011514004+32713-117173FM-13+000299999V0209999C000019999999N999999999+99999+99999101671ADDMD1510001+9999REMSYN042SDBC1 46/// ///// 1//// 40167 55000 91400=
0068994027999992019011515004+32713-117173FM-13+000299999V0209999C000019999999N999999999+99999+99999101711ADDMD1310081+9999REMSYN042SDBC1 46/// ///// 1//// 40171 53008 91500=
0045994027999992019011516004+32713-117173FM-13+000299999V0209999C000019999999N999999999+99999+99999101711REMSYN036SDBC1 46/// ///// 1//// 40171 91536=
0068994027999992019011517004+32713-117173FM-13+000299999V0209999C000019999999N999999999+99999+99999101781ADDMD1310111+9999REMSYN042SDBC1 46/// ///// 1//// 40178 53011 91700=
0068994027999992019011518004+32713-117173FM-13+000299999V0209999C000019999999N999999999+99999+99999101851ADDMD1310141+9999REMSYN042SDBC1 46/// ///// 1//// 40185 53014 91800=
0068994027999992019011519004+32713-117173FM-13+000299999V0209999C000019999999N999999999+99999+99999101831ADDMD1110111+9999REMSYN042SDBC1 46/// ///// 1//// 40183 51011 91900=
0068994027999992019011520004+32713-117173FM-13+000299999V0209999C000019999999N999999999+99999+99999101741ADDMD1810041+9999REMSYN042SDBC1 46/// ///// 1//// 40174 58004 92000=
0068994027999992019011521004+32713-117173FM-13+000299999V0209999C000019999999N999999999+99999+99999101701ADDMD1810151+9999REMSYN042SDBC1 46/// ///// 1//// 40170 58015 92100=
0068994027999992019011522004+32713-117173FM-13+000299999V0209999C000019999999N999999999+99999+99999101701ADDMD1610131+9999REMSYN042SDBC1 46/// ///// 1//// 40170 56013 92200=
0068994027999992019011523004+32713-117173FM-13+000299999V0209999C000019999999N999999999+99999+99999101691ADDMD1610051+9999REMSYN042SDBC1 46/// ///// 1//// 40169 56005 92300=
0068994027999992019011600004+32713-117173FM-13+000299999V0209999C000019999999N999999999+99999+99999101701ADDMD1410001+9999REMSYN042SDBC1 46/// ///// 1//// 40170 54000 90000=
0068994027999992019011601004+32713-117173FM-13+000299999V0209999C000019999999N999999999+99999+99999101691ADDMD1410001+9999REMSYN042SDBC1 46/// ///// 1//// 40169 54000 90100=
0068994027999992019011602004+32713-117173FM-13+000299999V0209999C000019999999N999999999+99999+99999101751ADDMD1310061+9999REMSYN042SDBC1 46/// ///// 1//// 40175 53006 90200=
0068994027999992019011603004+32713-117173FM-13+000299999V0209999C000019999999N999999999+99999+99999101831ADDMD1310131+9999REMSYN042SDBC1 46/// ///// 1//// 40183 53013 90300=
0068994027999992019011604004+32713-117173FM-13+000299999V0209999C000019999999N999999999+99999+99999101891ADDMD1210201+9999REMSYN042SDBC1 46/// ///// 1//// 40189 52020 90400=
0068994027999992019011605004+32713-117173FM-13+000299999V0209999C000019999999N999999999+99999+99999101921ADDMD1110171+9999REMSYN042SDBC1 46/// ///// 1//// 40192 51017 90500=
0068994027999992019011606004+32713-117173FM-13+000299999V0209999C000019999999N999999999+99999+99999102021ADDMD1310191+9999REMSYN042SDBC1 46/// ///// 1//// 40202 53019 90600=
0068994027999992019011607004+32713-117173FM-13+000299999V0209999C000019999999N999999999+99999+99999102051ADDMD1210161+9999REMSYN042SDBC1 46/// ///// 1//// 40205 52016 90700=
0068994027999992019011608004+32713-117173FM-13+000299999V0209999C000019999999N999999999+99999+99999102021ADDMD1990101+9999REMSYN042SDBC1 46/// ///// 1//// 40202 50010 90800=
0068994027999992019011609004+32713-117173FM-13+000299999V0209999C000019999999N999999999+99999+99999102001ADDMD1990001+9999REMSYN042SDBC1 46/// ///// 1//// 40200 50000 90900=
0068994027999992019011610004+32713-117173FM-13+000299999V0209999C000019999999N999999999+99999+99999102071ADDMD1510001+9999REMSYN042SDBC1 46/// ///// 1//// 40207 55000 91000=
0068994027999992019011611004+32713-117173FM-13+000299999V0209999C000019999999N999999999+99999+99999102051ADDMD1210031+9999REMSYN042SDBC1 46/// ///// 1//// 40205 52003 91100=
0068994027999992019011612004+32713-117173FM-13+000299999V0209999C000019999999N999999999+99999+99999102011ADDMD1990001+9999REMSYN042SDBC1 46/// ///// 1//// 40201 50000 91200=
0068994027999992019011613004+32713-117173FM-13+000299999V0209999C000019999999N999999999+99999+99999102001ADDMD1710071+9999REMSYN042SDBC1 46/// ///// 1//// 40200 57007 91300=
0068994027999992019011614004+32713-117173FM-13+000299999V0209999C000019999999N999999999+99999+99999102081ADDMD1310031+9999REMSYN042SDBC1 46/// ///// 1//// 40208 53003 91400=
0068994027999992019011615004+32713-117173FM-13+000299999V0209999C000019999999N999999999+99999+99999102111ADDMD1310101+9999REMSYN042SDBC1 46/// ///// 1//// 40211 53010 91500=
0068994027999992019011616004+32713-117173FM-13+000299999V0209999C000019999999N999999999+99999+99999102171ADDMD1110171+9999REMSYN042SDBC1 46/// ///// 1//// 40217 51017 91600=
0068994027999992019011617004+32713-117173FM-13+000299999V0209999C000019999999N999999999+99999+99999102251ADDMD1310171+9999REMSYN042SDBC1 46/// ///// 1//// 40225 53017 91700=
0068994027999992019011618004+32713-117173FM-13+000299999V0209999C000019999999N999999999+99999+99999102331ADDMD1310221+9999REMSYN042SDBC1 46/// ///// 1//// 40233 53022 91800=
0068994027999992019011619004+32713-117173FM-13+000299999V0209999C000019999999N999999999+99999+99999102311ADDMD1110141+9999REMSYN042SDBC1 46/// ///// 1//// 40231 51014 91900=
0068994027999992019011620004+32713-117173FM-13+000299999V0209999C000019999999N999999999+99999+99999102181ADDMD1810071+9999REMSYN042SDBC1 46/// ///// 1//// 40218 58007 92000=
0068994027999992019011621004+32713-117173FM-13+000299999V0209999C000019999999N999999999+99999+99999102111ADDMD1810221+9999REMSYN042SDBC1 46/// ///// 1//// 40211 58022 92100=
0068994027999992019011622004+32713-117173FM-13+000299999V0209999C000019999999N999999999+99999+99999102071ADDMD1610241+9999REMSYN042SDBC1 46/// ///// 1//// 40207 56024 92200=
0068994027999992019011623004+32713-117173FM-13+000299999V0209999C000019999999N999999999+99999+99999102021ADDMD1610161+9999REMSYN042SDBC1 46/// ///// 1//// 40202 56016 92300=
0068994027999992019011700004+32713-117173FM-13+000299999V0209999C000019999999N999999999+99999+99999102021ADDMD1610091+9999REMSYN042SDBC1 46/// ///// 1//// 40202 56009 90000=
0068994027999992019011701004+32713-117173FM-13+000299999V0209999C000019999999N999999999+99999+99999102101ADDMD1310031+9999REMSYN042SDBC1 46/// ///// 1//// 40210 53003 90100=
0068994027999992019011702004+32713-117173FM-13+000299999V0209999C000019999999N999999999+99999+99999102211ADDMD1310191+9999REMSYN042SDBC1 46/// ///// 1//// 40221 53019 90200=
0068994027999992019011703004+32713-117173FM-13+000299999V0209999C000019999999N999999999+99999+99999102271ADDMD1110251+9999REMSYN042SDBC1 46/// ///// 1//// 40227 51025 90300=
0068994027999992019011704004+32713-117173FM-13+000299999V0209999C000019999999N999999999+99999+99999102271ADDMD1110171+9999REMSYN042SDBC1 46/// ///// 1//// 40227 51017 90400=
0068994027999992019011705004+32713-117173FM-13+000299999V0209999C000019999999N999999999+99999+99999102271ADDMD1110061+9999REMSYN042SDBC1 46/// ///// 1//// 40227 51006 90500=
0068994027999992019011706004+32713-117173FM-13+000299999V0209999C000019999999N999999999+99999+99999102291ADDMD1410001+9999REMSYN042SDBC1 46/// ///// 1//// 40229 54000 90600=
0068994027999992019011707004+32713-117173FM-13+000299999V0209999C000019999999N999999999+99999+99999102271ADDMD1410001+9999REMSYN042SDBC1 46/// ///// 1//// 40227 54000 90700=
0068994027999992019011708004+32713-117173FM-13+000299999V0209999C000019999999N999999999+99999+99999102221ADDMD1810051+9999REMSYN042SDBC1 46/// ///// 1//// 40222 58005 90800=
0068994027999992019011709004+32713-117173FM-13+000299999V0209999C000019999999N999999999+99999+99999102211ADDMD1710081+9999REMSYN042SDBC1 46/// ///// 1//// 40221 57008 90900=
0068994027999992019011710004+32713-117173FM-13+000299999V0209999C000019999999N999999999+99999+99999102201ADDMD1610071+9999REMSYN042SDBC1 46/// ///// 1//// 40220 56007 91000=
0068994027999992019011711004+32713-117173FM-13+000299999V0209999C000019999999N999999999+99999+99999102161ADDMD1810061+9999REMSYN042SDBC1 46/// ///// 1//// 40216 58006 91100=
0068994027999992019011712004+32713-117173FM-13+000299999V0209999C000019999999N999999999+99999+99999102131ADDMD1810081+9999REMSYN042SDBC1 46/// ///// 1//// 40213 58008 91200=
0068994027999992019011713004+32713-117173FM-13+000299999V0209999C000019999999N999999999+99999+99999102131ADDMD1610071+9999REMSYN042SDBC1 46/// ///// 1//// 40213 56007 91300=
0068994027999992019011714004+32713-117173FM-13+000299999V0209999C000019999999N999999999+99999+99999102111ADDMD1610051+9999REMSYN042SDBC1 46/// ///// 1//// 40211 56005 91400=
0068994027999992019011715004+32713-117173FM-13+000299999V0209999C000019999999N999999999+99999+99999102191ADDMD1310061+9999REMSYN042SDBC1 46/// ///// 1//// 40219 53006 91500=
0068994027999992019011716004+32713-117173FM-13+000299999V0209999C000019999999N999999999+99999+99999102271ADDMD1310141+9999REMSYN042SDBC1 46/// ///// 1//// 40227 53014 91600=
0068994027999992019011717004+32713-117173FM-13+000299999V0209999C000019999999N999999999+99999+99999102281ADDMD1110171+9999REMSYN042SDBC1 46/// ///// 1//// 40228 51017 91700=
0068994027999992019011718004+32713-117173FM-13+000299999V0209999C000019999999N999999999+99999+99999102381ADDMD1310191+9999REMSYN042SDBC1 46/// ///// 1//// 40238 53019 91800=
0068994027999992019011719004+32713-117173FM-13+000299999V0209999C000019999999N999999999+99999+99999102391ADDMD1210121+9999REMSYN042SDBC1 46/// ///// 1//// 40239 52012 91900=
0068994027999992019011720004+32713-117173FM-13+000299999V0209999C000019999999N999999999+99999+99999102291ADDMD1990001+9999REMSYN042SDBC1 46/// ///// 1//// 40229 50000 92000=
0068994027999992019011721004+32713-117173FM-13+000299999V0209999C000019999999N999999999+99999+99999102201ADDMD1810181+9999REMSYN042SDBC1 46/// ///// 1//// 40220 58018 92100=
0068994027999992019011722004+32713-117173FM-13+000299999V0209999C000019999999N999999999+99999+99999102171ADDMD1610221+9999REMSYN042SDBC1 46/// ///// 1//// 40217 56022 92200=
0068994027999992019011723004+32713-117173FM-13+000299999V0209999C000019999999N999999999+99999+99999102191ADDMD1610101+9999REMSYN042SDBC1 46/// ///// 1//// 40219 56010 92300=
0068994027999992019011800004+32713-117173FM-13+000299999V0209999C000019999999N999999999+99999+99999102191ADDMD1510001+9999REMSYN042SDBC1 46/// ///// 1//// 40219 55000 90000=
0068994027999992019011801004+32713-117173FM-13+000299999V0209999C000019999999N999999999+99999+99999102221ADDMD1310051+9999REMSYN042SDBC1 46/// ///// 1//// 40222 53005 90100=
0068994027999992019011802004+32713-117173FM-13+000299999V0209999C000019999999N999999999+99999+99999102271ADDMD1310081+9999REMSYN042SDBC1 46/// ///// 1//// 40227 53008 90200=
0068994027999992019011803004+32713-117173FM-13+000299999V0209999C000019999999N999999999+99999+99999102281ADDMD1110091+9999REMSYN042SDBC1 46/// ///// 1//// 40228 51009 90300=
0068994027999992019011804004+32713-117173FM-13+000299999V0209999C000019999999N999999999+99999+99999102221ADDMD1990001+9999REMSYN042SDBC1 46/// ///// 1//// 40222 50000 90400=
0068994027999992019011805004+32713-117173FM-13+000299999V0209999C000019999999N999999999+99999+99999102271ADDMD1510001+9999REMSYN042SDBC1 46/// ///// 1//// 40227 55000 90500=
0068994027999992019011806004+32713-117173FM-13+000299999V0209999C000019999999N999999999+99999+99999102301ADDMD1510001+9999REMSYN042SDBC1 46/// ///// 1//// 40230 55000 90600=
0068994027999992019011807004+32713-117173FM-13+000299999V0209999C000019999999N999999999+99999+99999102331ADDMD1110111+9999REMSYN042SDBC1 46/// ///// 1//// 40233 51011 90700=
0068994027999992019011808004+32713-117173FM-13+000299999V0209999C000019999999N999999999+99999+99999102311ADDMD1110041+9999REMSYN042SDBC1 46/// ///// 1//// 40231 51004 90800=
0068994027999992019011809004+32713-117173FM-13+000299999V0209999C000019999999N999999999+99999+99999102311ADDMD1990001+9999REMSYN042SDBC1 46/// ///// 1//// 40231 50000 90900=
0068994027999992019011810004+32713-117173FM-13+000299999V0209999C000019999999N999999999+99999+99999102311ADDMD1410001+9999REMSYN042SDBC1 46/// ///// 1//// 40231 54000 91000=
0068994027999992019011811004+32713-117173FM-13+000299999V0209999C000019999999N999999999+99999+99999102351ADDMD1310041+9999REMSYN042SDBC1 46/// ///// 1//// 40235 53004 91100=
0068994027999992019011812004+32713-117173FM-13+000299999V0209999C000019999999N999999999+99999+99999102381ADDMD1310071+9999REMSYN042SDBC1 46/// ///// 1//// 40238 53007 91200=
0068994027999992019011813004+32713-117173FM-13+000299999V0209999C000019999999N999999999+99999+99999102331ADDMD1990001+9999REMSYN042SDBC1 46/// ///// 1//// 40233 50000 91300=
0068994027999992019011814004+32713-117173FM-13+000299999V0209999C000019999999N999999999+99999+99999102361ADDMD1410001+9999REMSYN042SDBC1 46/// ///// 1//// 40236 54000 91400=
0068994027999992019011815004+32713-117173FM-13+000299999V0209999C000019999999N999999999+99999+99999102431ADDMD1310051+9999REMSYN042SDBC1 46/// ///// 1//// 40243 53005 91500=
0068994027999992019011816004+32713-117173FM-13+000299999V0209999C000019999999N999999999+99999+99999102491ADDMD1310161+9999REMSYN042SDBC1 46/// ///// 1//// 40249 53016 91600=
0068994027999992019011817004+32713-117173FM-13+000299999V0209999C000019999999N999999999+99999+99999102521ADDMD1110161+9999REMSYN042SDBC1 46/// ///// 1//// 40252 51016 91700=
0068994027999992019011818004+32713-117173FM-13+000299999V0209999C000019999999N999999999+99999+99999102521ADDMD1110091+9999REMSYN042SDBC1 46/// ///// 1//// 40252 51009 91800=
0068994027999992019011819004+32713-117173FM-13+000299999V0209999C000019999999N999999999+99999+99999102471ADDMD1990001+9999REMSYN042SDBC1 46/// ///// 1//// 40247 50000 91900=
0068994027999992019011820004+32713-117173FM-13+000299999V0209999C000019999999N999999999+99999+99999102391ADDMD1810131+9999REMSYN042SDBC1 46/// ///// 1//// 40239 58013 92000=
0068994027999992019011821004+32713-117173FM-13+000299999V0209999C000019999999N999999999+99999+99999102301ADDMD1810221+9999REMSYN042SDBC1 46/// ///// 1//// 40230 58022 92100=
0068994027999992019011822004+32713-117173FM-13+000299999V0209999C000019999999N999999999+99999+99999102291ADDMD1610181+9999REMSYN042SDBC1 46/// ///// 1//// 40229 56018 92200=
0068994027999992019011823004+32713-117173FM-13+000299999V0209999C000019999999N999999999+99999+99999102281ADDMD1610111+9999REMSYN042SDBC1 46/// ///// 1//// 40228 56011 92300=
0068994027999992019011900004+32713-117173FM-13+000299999V0209999C000019999999N999999999+99999+99999102241ADDMD1810061+9999REMSYN042SDBC1 46/// ///// 1//// 40224 58006 90000=
0068994027999992019011901004+32713-117173FM-13+000299999V0209999C000019999999N999999999+99999+99999102251ADDMD1710041+9999REMSYN042SDBC1 46/// ///// 1//// 40225 57004 90100=
0068994027999992019011902004+32713-117173FM-13+000299999V0209999C000019999999N999999999+99999+99999102301ADDMD1510001+9999REMSYN042SDBC1 46/// ///// 1//// 40230 55000 90200=
0068994027999992019011903004+32713-117173FM-13+000299999V0209999C000019999999N999999999+99999+99999102371ADDMD1310131+9999REMSYN042SDBC1 46/// ///// 1//// 40237 53013 90300=
0068994027999992019011904004+32713-117173FM-13+000299999V0209999C000019999999N999999999+99999+99999102421ADDMD1210171+9999REMSYN042SDBC1 46/// ///// 1//// 40242 52017 90400=
0068994027999992019011905004+32713-117173FM-13+000299999V0209999C000019999999N999999999+99999+99999102431ADDMD1110131+9999REMSYN042SDBC1 46/// ///// 1//// 40243 51013 90500=
0068994027999992019011906004+32713-117173FM-13+000299999V0209999C000019999999N999999999+99999+99999102451ADDMD1110081+9999REMSYN042SDBC1 46/// ///// 1//// 40245 51008 90600=
0068994027999992019011907004+32713-117173FM-13+000299999V0209999C000019999999N999999999+99999+99999102471ADDMD1210051+9999REMSYN042SDBC1 46/// ///// 1//// 40247 52005 90700=
0068994027999992019011908004+32713-117173FM-13+000299999V0209999C000019999999N999999999+99999+99999102431ADDMD1990001+9999REMSYN042SDBC1 46/// ///// 1//// 40243 50000 90800=
0068994027999992019011909004+32713-117173FM-13+000299999V0209999C000019999999N999999999+99999+99999102391ADDMD1810061+9999REMSYN042SDBC1 46/// ///// 1//// 40239 58006 90900=
0068994027999992019011910004+32713-117173FM-13+000299999V0209999C000019999999N999999999+99999+99999102351ADDMD1710121+9999REMSYN042SDBC1 46/// ///// 1//// 40235 57012 91000=
0068994027999992019011911004+32713-117173FM-13+000299999V0209999C000019999999N999999999+99999+99999102341ADDMD1610091+9999REMSYN042SDBC1 46/// ///// 1//// 40234 56009 91100=
0068994027999992019011912004+32713-117173FM-13+000299999V0209999C000019999999N999999999+99999+99999102301ADDMD1710091+9999REMSYN042SDBC1 46/// ///// 1//// 40230 57009 91200=
0068994027999992019011913004+32713-117173FM-13+000299999V0209999C000019999999N999999999+99999+99999102311ADDMD1710041+9999REMSYN042SDBC1 46/// ///// 1//// 40231 57004 91300=
0068994027999992019011914004+32713-117173FM-13+000299999V0209999C000019999999N999999999+99999+99999102321ADDMD1510001+9999REMSYN042SDBC1 46/// ///// 1//// 40232 55000 91400=
0068994027999992019011915004+32713-117173FM-13+000299999V0209999C000019999999N999999999+99999+99999102341ADDMD1210041+9999REMSYN042SDBC1 46/// ///// 1//// 40234 52004 91500=
0068994027999992019011916004+32713-117173FM-13+000299999V0209999C000019999999N999999999+99999+99999102381ADDMD1310071+9999REMSYN042SDBC1 46/// ///// 1//// 40238 53007 91600=
0068994027999992019011917004+32713-117173FM-13+000299999V0209999C000019999999N999999999+99999+99999102421ADDMD1310101+9999REMSYN042SDBC1 46/// ///// 1//// 40242 53010 91700=
0068994027999992019011918004+32713-117173FM-13+000299999V0209999C000019999999N999999999+99999+99999102441ADDMD1110101+9999REMSYN042SDBC1 46/// ///// 1//// 40244 51010 91800=
0068994027999992019011919004+32713-117173FM-13+000299999V0209999C000019999999N999999999+99999+99999102411ADDMD1990031+9999REMSYN042SDBC1 46/// ///// 1//// 40241 50003 91900=
0068994027999992019011920004+32713-117173FM-13+000299999V0209999C000019999999N999999999+99999+99999102291ADDMD1810131+9999REMSYN042SDBC1 46/// ///// 1//// 40229 58013 92000=
0068994027999992019011921004+32713-117173FM-13+000299999V0209999C000019999999N999999999+99999+99999102141ADDMD1810301+9999REMSYN042SDBC1 46/// ///// 1//// 40214 58030 92100=
0068994027999992019011922004+32713-117173FM-13+000299999V0209999C000019999999N999999999+99999+99999102061ADDMD1610351+9999REMSYN042SDBC1 46/// ///// 1//// 40206 56035 92200=
0068994027999992019011923004+32713-117173FM-13+000299999V0209999C000019999999N999999999+99999+99999102021ADDMD1610271+9999REMSYN042SDBC1 46/// ///// 1//// 40202 56027 92300=
0068994027999992019012000004+32713-117173FM-13+000299999V0209999C000019999999N999999999+99999+99999101981ADDMD1610161+9999REMSYN042SDBC1 46/// ///// 1//// 40198 56016 90000=
0068994027999992019012001004+32713-117173FM-13+000299999V0209999C000019999999N999999999+99999+99999101971ADDMD1610091+9999REMSYN042SDBC1 46/// ///// 1//// 40197 56009 90100=
0068994027999992019012002004+32713-117173FM-13+000299999V0209999C000019999999N999999999+99999+99999102001ADDMD1510001+9999REMSYN042SDBC1 46/// ///// 1//// 40200 55000 90200=
0068994027999992019012003004+32713-117173FM-13+000299999V0209999C000019999999N999999999+99999+99999101991ADDMD1410001+9999REMSYN042SDBC1 46/// ///// 1//// 40199 54000 90300=
0068994027999992019012004004+32713-117173FM-13+000299999V0209999C000019999999N999999999+99999+99999102041ADDMD1310071+9999REMSYN042SDBC1 46/// ///// 1//// 40204 53007 90400=
0068994027999992019012005004+32713-117173FM-13+000299999V0209999C000019999999N999999999+99999+99999102051ADDMD1210051+9999REMSYN042SDBC1 46/// ///// 1//// 40205 52005 90500=
0068994027999992019012006004+32713-117173FM-13+000299999V0209999C000019999999N999999999+99999+99999102051ADDMD1110061+9999REMSYN042SDBC1 46/// ///// 1//// 40205 51006 90600=
0068994027999992019012007004+32713-117173FM-13+000299999V0209999C000019999999N999999999+99999+99999102021ADDMD1990001+9999REMSYN042SDBC1 46/// ///// 1//// 40202 50000 90700=
0068994027999992019012008004+32713-117173FM-13+000299999V0209999C000019999999N999999999+99999+99999102001ADDMD1710051+9999REMSYN042SDBC1 46/// ///// 1//// 40200 57005 90800=
0068994027999992019012009004+32713-117173FM-13+000299999V0209999C000019999999N999999999+99999+99999101881ADDMD1810171+9999REMSYN042SDBC1 46/// ///// 1//// 40188 58017 90900=
0068994027999992019012010004+32713-117173FM-13+000299999V0209999C000019999999N999999999+99999+99999101861ADDMD1710161+9999REMSYN042SDBC1 46/// ///// 1//// 40186 57016 91000=
0068994027999992019012011004+32713-117173FM-13+000299999V0209999C000019999999N999999999+99999+99999101841ADDMD1610161+9999REMSYN042SDBC1 46/// ///// 1//// 40184 56016 91100=
0068994027999992019012012004+32713-117173FM-13+000299999V0209999C000019999999N999999999+99999+99999101791ADDMD1810091+9999REMSYN042SDBC1 46/// ///// 1//// 40179 58009 91200=
0068994027999992019012013004+32713-117173FM-13+000299999V0209999C000019999999N999999999+99999+99999101771ADDMD1710091+9999REMSYN042SDBC1 46/// ///// 1//// 40177 57009 91300=
0068994027999992019012014004+32713-117173FM-13+000299999V0209999C000019999999N999999999+99999+99999101801ADDMD1510041+9999REMSYN042SDBC1 46/// ///// 1//// 40180 55004 91400=
0068994027999992019012015004+32713-117173FM-13+000299999V0209999C000019999999N999999999+99999+99999101891ADDMD1310101+9999REMSYN042SDBC1 46/// ///// 1//// 40189 53010 91500=
0068994027999992019012016004+32713-117173FM-13+000299999V0209999C000019999999N999999999+99999+99999101871ADDMD1110101+9999REMSYN042SDBC1 46/// ///// 1//// 40187 51010 91600=
0068994027999992019012017004+32713-117173FM-13+000299999V0209999C000019999999N999999999+99999+99999101901ADDMD1110101+9999REMSYN042SDBC1 46/// ///// 1//// 40190 51010 91700=
0068994027999992019012018004+32713-117173FM-13+000299999V0209999C000019999999N999999999+99999+99999101891ADDMD1410001+9999REMSYN042SDBC1 46/// ///// 1//// 40189 54000 91800=
0068994027999992019012019004+32713-117173FM-13+000299999V0209999C000019999999N999999999+99999+99999101861ADDMD1990001+9999REMSYN042SDBC1 46/// ///// 1//// 40186 50000 91900=
0068994027999992019012020004+32713-117173FM-13+000299999V0209999C000019999999N999999999+99999+99999101751ADDMD1810151+9999REMSYN042SDBC1 46/// ///// 1//// 40175 58015 92000=
0068994027999992019012021004+32713-117173FM-13+000299999V0209999C000019999999N999999999+99999+99999101711ADDMD1810181+9999REMSYN042SDBC1 46/// ///// 1//// 40171 58018 92100=
0068994027999992019012022004+32713-117173FM-13+000299999V0209999C000019999999N999999999+99999+99999101641ADDMD1610221+9999REMSYN042SDBC1 46/// ///// 1//// 40164 56022 92200=
0068994027999992019012023004+32713-117173FM-13+000299999V0209999C000019999999N999999999+99999+99999101631ADDMD1610121+9999REMSYN042SDBC1 46/// ///// 1//// 40163 56012 92300=
0068994027999992019012100004+32713-117173FM-13+000299999V0209999C000019999999N999999999+99999+99999101631ADDMD1610081+9999REMSYN042SDBC1 46/// ///// 1//// 40163 56008 90000=
0068994027999992019012101004+32713-117173FM-13+000299999V0209999C000019999999N999999999+99999+99999101621ADDMD1410001+9999REMSYN042SDBC1 46/// ///// 1//// 40162 54000 90100=
0068994027999992019012102004+32713-117173FM-13+000299999V0209999C000019999999N999999999+99999+99999101651ADDMD1510001+9999REMSYN042SDBC1 46/// ///// 1//// 40165 55000 90200=
0068994027999992019012103004+32713-117173FM-13+000299999V0209999C000019999999N999999999+99999+99999101691ADDMD1310061+9999REMSYN042SDBC1 46/// ///// 1//// 40169 53006 90300=
0068994027999992019012104004+32713-117173FM-13+000299999V0209999C000019999999N999999999+99999+99999101681ADDMD1110061+9999REMSYN042SDBC1 46/// ///// 1//// 40168 51006 90400=
0068994027999992019012105004+32713-117173FM-13+000299999V0209999C000019999999N999999999+99999+99999101691ADDMD1110041+9999REMSYN042SDBC1 46/// ///// 1//// 40169 51004 90500=
0068994027999992019012106004+32713-117173FM-13+000299999V0209999C000019999999N999999999+99999+99999101731ADDMD1310041+9999REMSYN042SDBC1 46/// ///// 1//// 40173 53004 90600=
0068994027999992019012107004+32713-117173FM-13+000299999V0209999C000019999999N999999999+99999+99999101771ADDMD1310091+9999REMSYN042SDBC1 46/// ///// 1//// 40177 53009 90700=
0068994027999992019012108004+32713-117173FM-13+000299999V0209999C000019999999N999999999+99999+99999101751ADDMD1110061+9999REMSYN042SDBC1 46/// ///// 1//// 40175 51006 90800=
0068994027999992019012109004+32713-117173FM-13+000299999V0209999C000019999999N999999999+99999+99999101771ADDMD1110041+9999REMSYN042SDBC1 46/// ///// 1//// 40177 51004 90900=
0068994027999992019012110004+32713-117173FM-13+000299999V0209999C000019999999N999999999+99999+99999101791ADDMD1410001+9999REMSYN042SDBC1 46/// ///// 1//// 40179 54000 91000=
0068994027999992019012111004+32713-117173FM-13+000299999V0209999C000019999999N999999999+99999+99999101791ADDMD1210041+9999REMSYN042SDBC1 46/// ///// 1//// 40179 52004 91100=
0068994027999992019012112004+32713-117173FM-13+000299999V0209999C000019999999N999999999+99999+99999101791ADDMD1410001+9999REMSYN042SDBC1 46/// ///// 1//// 40179 54000 91200=
0068994027999992019012113004+32713-117173FM-13+000299999V0209999C000019999999N999999999+99999+99999101811ADDMD1410001+9999REMSYN042SDBC1 46/// ///// 1//// 40181 54000 91300=
0068994027999992019012114004+32713-117173FM-13+000299999V0209999C000019999999N999999999+99999+99999101861ADDMD1310071+9999REMSYN042SDBC1 46/// ///// 1//// 40186 53007 91400=
0068994027999992019012115004+32713-117173FM-13+000299999V0209999C000019999999N999999999+99999+99999101911ADDMD1310121+9999REMSYN042SDBC1 46/// ///// 1//// 40191 53012 91500=
0068994027999992019012116004+32713-117173FM-13+000299999V0209999C000019999999N999999999+99999+99999101951ADDMD1110141+9999REMSYN042SDBC1 46/// ///// 1//// 40195 51014 91600=
0068994027999992019012117004+32713-117173FM-13+000299999V0209999C000019999999N999999999+99999+99999101971ADDMD1110111+9999REMSYN042SDBC1 46/// ///// 1//// 40197 51011 91700=
0068994027999992019012118004+32713-117173FM-13+000299999V0209999C000019999999N999999999+99999+99999101961ADDMD1110051+9999REMSYN042SDBC1 46/// ///// 1//// 40196 51005 91800=
0068994027999992019012119004+32713-117173FM-13+000299999V0209999C000019999999N999999999+99999+99999101951ADDMD1410001+9999REMSYN042SDBC1 46/// ///// 1//// 40195 54000 91900=
0068994027999992019012120004+32713-117173FM-13+000299999V0209999C000019999999N999999999+99999+99999101851ADDMD1810121+9999REMSYN042SDBC1 46/// ///// 1//// 40185 58012 92000=
0068994027999992019012121004+32713-117173FM-13+000299999V0209999C000019999999N999999999+99999+99999101791ADDMD1810171+9999REMSYN042SDBC1 46/// ///// 1//// 40179 58017 92100=
0068994027999992019012122004+32713-117173FM-13+000299999V0209999C000019999999N999999999+99999+99999101721ADDMD1610231+9999REMSYN042SDBC1 46/// ///// 1//// 40172 56023 92200=
0068994027999992019012123004+32713-117173FM-13+000299999V0209999C000019999999N999999999+99999+99999101691ADDMD1610161+9999REMSYN042SDBC1 46/// ///// 1//// 40169 56016 92300=
0068994027999992019012200004+32713-117173FM-13+000299999V0209999C000019999999N999999999+99999+99999101721ADDMD1510071+9999REMSYN042SDBC1 46/// ///// 1//// 40172 55007 90000=
0068994027999992019012201004+32713-117173FM-13+000299999V0209999C000019999999N999999999+99999+99999101741ADDMD1510001+9999REMSYN042SDBC1 46/// ///// 1//// 40174 55000 90100=
0068994027999992019012202004+32713-117173FM-13+000299999V0209999C000019999999N999999999+99999+99999101761ADDMD1110071+9999REMSYN042SDBC1 46/// ///// 1//// 40176 51007 90200=
0068994027999992019012203004+32713-117173FM-13+000299999V0209999C000019999999N999999999+99999+99999101831ADDMD1310111+9999REMSYN042SDBC1 46/// ///// 1//// 40183 53011 90300=
0068994027999992019012204004+32713-117173FM-13+000299999V0209999C000019999999N999999999+99999+99999101891ADDMD1310151+9999REMSYN042SDBC1 46/// ///// 1//// 40189 53015 90400=
0068994027999992019012205004+32713-117173FM-13+000299999V0209999C000019999999N999999999+99999+99999101881ADDMD1110121+9999REMSYN042SDBC1 46/// ///// 1//// 40188 51012 90500=
0068994027999992019012206004+32713-117173FM-13+000299999V0209999C000019999999N999999999+99999+99999101941ADDMD1210111+9999REMSYN042SDBC1 46/// ///// 1//// 40194 52011 90600=
0068994027999992019012207004+32713-117173FM-13+000299999V0209999C000019999999N999999999+99999+99999101921ADDMD1210031+9999REMSYN042SDBC1 46/// ///// 1//// 40192 52003 90700=
0068994027999992019012208004+32713-117173FM-13+000299999V0209999C000019999999N999999999+99999+99999101931ADDMD1110051+9999REMSYN042SDBC1 46/// ///// 1//// 40193 51005 90800=
0068994027999992019012209004+32713-117173FM-13+000299999V0209999C000019999999N999999999+99999+99999101941ADDMD1410001+9999REMSYN042SDBC1 46/// ///// 1//// 40194 54000 90900=
0068994027999992019012210004+32713-117173FM-13+000299999V0209999C000019999999N999999999+99999+99999101991ADDMD1310071+9999REMSYN042SDBC1 46/// ///// 1//// 40199 53007 91000=
0068994027999992019012211004+32713-117173FM-13+000299999V0209999C000019999999N999999999+99999+99999102001ADDMD1210071+9999REMSYN042SDBC1 46/// ///// 1//// 40200 52007 91100=
0068994027999992019012212004+32713-117173FM-13+000299999V0209999C000019999999N999999999+99999+99999102011ADDMD1110071+9999REMSYN042SDBC1 46/// ///// 1//// 40201 51007 91200=
0068994027999992019012213004+32713-117173FM-13+000299999V0209999C000019999999N999999999+99999+99999102031ADDMD1210041+9999REMSYN042SDBC1 46/// ///// 1//// 40203 52004 91300=
0068994027999992019012214004+32713-117173FM-13+000299999V0209999C000019999999N999999999+99999+99999102101ADDMD1310101+9999REMSYN042SDBC1 46/// ///// 1//// 40210 53010 91400=
0068994027999992019012215004+32713-117173FM-13+000299999V0209999C000019999999N999999999+99999+99999102201ADDMD1310191+9999REMSYN042SDBC1 46/// ///// 1//// 40220 53019 91500=
0068994027999992019012216004+32713-117173FM-13+000299999V0209999C000019999999N999999999+99999+99999102261ADDMD1110231+9999REMSYN042SDBC1 46/// ///// 1//// 40226 51023 91600=
0068994027999992019012217004+32713-117173FM-13+000299999V0209999C000019999999N999999999+99999+99999102341ADDMD1110241+9999REMSYN042SDBC1 46/// ///// 1//// 40234 51024 91700=
0068994027999992019012218004+32713-117173FM-13+000299999V0209999C000019999999N999999999+99999+99999102401ADDMD1210201+9999REMSYN042SDBC1 46/// ///// 1//// 40240 52020 91800=
0068994027999992019012219004+32713-117173FM-13+000299999V0209999C000019999999N999999999+99999+99999102411ADDMD1110151+9999REMSYN042SDBC1 46/// ///// 1//// 40241 51015 91900=
0068994027999992019012220004+32713-117173FM-13+000299999V0209999C000019999999N999999999+99999+99999102351ADDMD1990001+9999REMSYN042SDBC1 46/// ///// 1//// 40235 50000 92000=
0068994027999992019012221004+32713-117173FM-13+000299999V0209999C000019999999N999999999+99999+99999102301ADDMD1810101+9999REMSYN042SDBC1 46/// ///// 1//// 40230 58010 92100=
0068994027999992019012222004+32713-117173FM-13+000299999V0209999C000019999999N999999999+99999+99999102271ADDMD1610141+9999REMSYN042SDBC1 46/// ///// 1//// 40227 56014 92200=
0068994027999992019012223004+32713-117173FM-13+000299999V0209999C000019999999N999999999+99999+99999102251ADDMD1610101+9999REMSYN042SDBC1 46/// ///// 1//// 40225 56010 92300=
0068994027999992019012300004+32713-117173FM-13+000299999V0209999C000019999999N999999999+99999+99999102331ADDMD1310031+9999REMSYN042SDBC1 46/// ///// 1//// 40233 53003 90000=
0068994027999992019012301004+32713-117173FM-13+000299999V0209999C000019999999N999999999+99999+99999102381ADDMD1310111+9999REMSYN042SDBC1 46/// ///// 1//// 40238 53011 90100=
0068994027999992019012302004+32713-117173FM-13+000299999V0209999C000019999999N999999999+99999+99999102451ADDMD1110201+9999REMSYN042SDBC1 46/// ///// 1//// 40245 51020 90200=
0068994027999992019012303004+32713-117173FM-13+000299999V0209999C000019999999N999999999+99999+99999102461ADDMD1110131+9999REMSYN042SDBC1 46/// ///// 1//// 40246 51013 90300=
0068994027999992019012304004+32713-117173FM-13+000299999V0209999C000019999999N999999999+99999+99999102531ADDMD1210151+9999REMSYN042SDBC1 46/// ///// 1//// 40253 52015 90400=
0068994027999992019012305004+32713-117173FM-13+000299999V0209999C000019999999N999999999+99999+99999102591ADDMD1310141+9999REMSYN042SDBC1 46/// ///// 1//// 40259 53014 90500=
0068994027999992019012306004+32713-117173FM-13+000299999V0209999C000019999999N999999999+99999+99999102611ADDMD1110151+9999REMSYN042SDBC1 46/// ///// 1//// 40261 51015 90600=
0068994027999992019012307004+32713-117173FM-13+000299999V0209999C000019999999N999999999+99999+99999102671ADDMD1210141+9999REMSYN042SDBC1 46/// ///// 1//// 40267 52014 90700=
0068994027999992019012308004+32713-117173FM-13+000299999V0209999C000019999999N999999999+99999+99999102681ADDMD1210091+9999REMSYN042SDBC1 46/// ///// 1//// 40268 52009 90800=
0068994027999992019012309004+32713-117173FM-13+000299999V0209999C000019999999N999999999+99999+99999102681ADDMD1110071+9999REMSYN042SDBC1 46/// ///// 1//// 40268 51007 90900=
0068994027999992019012310004+32713-117173FM-13+000299999V0209999C000019999999N999999999+99999+99999102651ADDMD1990001+9999REMSYN042SDBC1 46/// ///// 1//// 40265 50000 91000=
0068994027999992019012311004+32713-117173FM-13+000299999V0209999C000019999999N999999999+99999+99999102631ADDMD1710051+9999REMSYN042SDBC1 46/// ///// 1//// 40263 57005 91100=
0068994027999992019012312004+32713-117173FM-13+000299999V0209999C000019999999N999999999+99999+99999102641ADDMD1610041+9999REMSYN042SDBC1 46/// ///// 1//// 40264 56004 91200=
0068994027999992019012313004+32713-117173FM-13+000299999V0209999C000019999999N999999999+99999+99999102591ADDMD1810061+9999REMSYN042SDBC1 46/// ///// 1//// 40259 58006 91300=
0068994027999992019012314004+32713-117173FM-13+000299999V0209999C000019999999N999999999+99999+99999102631ADDMD1510001+9999REMSYN042SDBC1 46/// ///// 1//// 40263 55000 91400=
0068994027999992019012315004+32713-117173FM-13+000299999V0209999C000019999999N999999999+99999+99999102681ADDMD1310041+9999REMSYN042SDBC1 46/// ///// 1//// 40268 53004 91500=
0068994027999992019012316004+32713-117173FM-13+000299999V0209999C000019999999N999999999+99999+99999102701ADDMD1110111+9999REMSYN042SDBC1 46/// ///// 1//// 40270 51011 91600=
0068994027999992019012317004+32713-117173FM-13+000299999V0209999C000019999999N999999999+99999+99999102751ADDMD1210121+9999REMSYN042SDBC1 46/// ///// 1//// 40275 52012 91700=
0068994027999992019012318004+32713-117173FM-13+000299999V0209999C000019999999N999999999+99999+99999102741ADDMD1210061+9999REMSYN042SDBC1 46/// ///// 1//// 40274 52006 91800=
0068994027999992019012319004+32713-117173FM-13+000299999V0209999C000019999999N999999999+99999+99999102651ADDMD1810051+9999REMSYN042SDBC1 46/// ///// 1//// 40265 58005 91900=
0068994027999992019012320004+32713-117173FM-13+000299999V0209999C000019999999N999999999+99999+99999102521ADDMD1810231+9999REMSYN042SDBC1 46/// ///// 1//// 40252 58023 92000=
0068994027999992019012321004+32713-117173FM-13+000299999V0209999C000019999999N999999999+99999+99999102361ADDMD1810381+9999REMSYN042SDBC1 46/// ///// 1//// 40236 58038 92100=
0068994027999992019012322004+32713-117173FM-13+000299999V0209999C000019999999N999999999+99999+99999102301ADDMD1610351+9999REMSYN042SDBC1 46/// ///// 1//// 40230 56035 92200=
0068994027999992019012323004+32713-117173FM-13+000299999V0209999C000019999999N999999999+99999+99999102231ADDMD1610291+9999REMSYN042SDBC1 46/// ///// 1//// 40223 56029 92300=
0068994027999992019012400004+32713-117173FM-13+000299999V0209999C000019999999N999999999+99999+99999102171ADDMD1710191+9999REMSYN042SDBC1 46/// ///// 1//// 40217 57019 90000=
0068994027999992019012401004+32713-117173FM-13+000299999V0209999C000019999999N999999999+99999+99999102141ADDMD1610161+9999REMSYN042SDBC1 46/// ///// 1//// 40214 56016 90100=
0068994027999992019012402004+32713-117173FM-13+000299999V0209999C000019999999N999999999+99999+99999102151ADDMD1610081+9999REMSYN042SDBC1 46/// ///// 1//// 40215 56008 90200=
0068994027999992019012403004+32713-117173FM-13+000299999V0209999C000019999999N999999999+99999+99999102141ADDMD1610031+9999REMSYN042SDBC1 46/// ///// 1//// 40214 56003 90300=
0068994027999992019012404004+32713-117173FM-13+000299999V0209999C000019999999N999999999+99999+99999102171ADDMD1310031+9999REMSYN042SDBC1 46/// ///// 1//// 40217 53003 90400=
0068994027999992019012405004+32713-117173FM-13+000299999V0209999C000019999999N999999999+99999+99999102131ADDMD1990001+9999REMSYN042SDBC1 46/// ///// 1//// 40213 50000 90500=
0068994027999992019012406004+32713-117173FM-13+000299999V0209999C000019999999N999999999+99999+99999102171ADDMD1310031+9999REMSYN042SDBC1 46/// ///// 1//// 40217 53003 90600=
0068994027999992019012407004+32713-117173FM-13+000299999V0209999C000019999999N999999999+99999+99999102141ADDMD1610031+9999REMSYN042SDBC1 46/// ///// 1//// 40214 56003 90700=
0068994027999992019012408004+32713-117173FM-13+000299999V0209999C000019999999N999999999+99999+99999102051ADDMD1810081+9999REMSYN042SDBC1 46/// ///// 1//// 40205 58008 90800=
0068994027999992019012409004+32713-117173FM-13+000299999V0209999C000019999999N999999999+99999+99999101951ADDMD1810221+9999REMSYN042SDBC1 46/// ///// 1//// 40195 58022 90900=
0068994027999992019012410004+32713-117173FM-13+000299999V0209999C000019999999N999999999+99999+99999101891ADDMD1610251+9999REMSYN042SDBC1 46/// ///// 1//// 40189 56025 91000=
0068994027999992019012411004+32713-117173FM-13+000299999V0209999C000019999999N999999999+99999+99999101891ADDMD1610161+9999REMSYN042SDBC1 46/// ///// 1//// 40189 56016 91100=
0068994027999992019012412004+32713-117173FM-13+000299999V0209999C000019999999N999999999+99999+99999101841ADDMD1610111+9999REMSYN042SDBC1 46/// ///// 1//// 40184 56011 91200=
0068994027999992019012413004+32713-117173FM-13+000299999V0209999C000019999999N999999999+99999+99999101891ADDMD1510001+9999REMSYN042SDBC1 46/// ///// 1//// 40189 55000 91300=
0068994027999992019012414004+32713-117173FM-13+000299999V0209999C000019999999N999999999+99999+99999101891ADDMD1510001+9999REMSYN042SDBC1 46/// ///// 1//// 40189 55000 91400=
0068994027999992019012415004+32713-117173FM-13+000299999V0209999C000019999999N999999999+99999+99999101971ADDMD1310131+9999REMSYN042SDBC1 46/// ///// 1//// 40197 53013 91500=
0068994027999992019012416004+32713-117173FM-13+000299999V0209999C000019999999N999999999+99999+99999102001ADDMD1310111+9999REMSYN042SDBC1 46/// ///// 1//// 40200 53011 91600=
0068994027999992019012417004+32713-117173FM-13+000299999V0209999C000019999999N999999999+99999+99999102031ADDMD1110141+9999REMSYN042SDBC1 46/// ///// 1//// 40203 51014 91700=
0068994027999992019012418004+32713-117173FM-13+000299999V0209999C000019999999N999999999+99999+99999102001ADDMD1990031+9999REMSYN042SDBC1 46/// ///// 1//// 40200 50003 91800=
0068994027999992019012419004+32713-117173FM-13+000299999V0209999C000019999999N999999999+99999+99999101941ADDMD1810061+9999REMSYN042SDBC1 46/// ///// 1//// 40194 58006 91900=
0068994027999992019012420004+32713-117173FM-13+000299999V0209999C000019999999N999999999+99999+99999101841ADDMD1810191+9999REMSYN042SDBC1 46/// ///// 1//// 40184 58019 92000=
0068994027999992019012421004+32713-117173FM-13+000299999V0209999C000019999999N999999999+99999+99999101761ADDMD1810241+9999REMSYN042SDBC1 46/// ///// 1//// 40176 58024 92100=
0068994027999992019012422004+32713-117173FM-13+000299999V0209999C000019999999N999999999+99999+99999101821ADDMD1510121+9999REMSYN042SDBC1 46/// ///// 1//// 40182 55012 92200=
0068994027999992019012423004+32713-117173FM-13+000299999V0209999C000019999999N999999999+99999+99999101871ADDMD1310031+9999REMSYN042SDBC1 46/// ///// 1//// 40187 53003 92300=
