0088994027999992018010100004+32713-117173FM-13+000299999V0209999C000019999999N999999999+99999+99999101851ADDMD1510041+9999SA1+1701REMSYN054SDBC1 46/// ///// 1//// 40185 55004 90000 222// 00170=
0088994027999992018010101004+32713-117173FM-13+000299999V0209999C000019999999N999999999+99999+99999101901ADDMD1310051+9999SA1+1701REMSYN054SDBC1 46/// ///// 1//// 40190 53005 90100 222// 00170=
0088994027999992018010102004+32713-117173FM-13+000299999V0209999C000019999999N999999999+99999+99999101941ADDMD1110141+9999SA1+1701REMSYN054SDBC1 46/// ///// 1//// 40194 51014 90200 222// 00170=
0088994027999992018010103004+32713-117173FM-13+000299999V0209999C000019999999N999999999+99999+99999102021ADDMD1310171+9999SA1+1691REMSYN054SDBC1 46/// ///// 1//// 40202 53017 90300 222// 00169=
0088994027999992018010104004+32713-117173FM-13+000299999V0209999C000019999999N999999999+99999+99999102051ADDMD1110151+9999SA1+1691REMSYN054SDBC1 46/// ///// 1//// 40205 51015 90400 222// 00169=
0088994027999992018010105004+32713-117173FM-13+000299999V0209999C000019999999N999999999+99999+99999102051ADDMD1110111+9999SA1+1691REMSYN054SDBC1 46/// ///// 1//// 40205 51011 90500 222// 00169=
0088994027999992018010106004+32713-117173FM-13+000299999V0209999C000019999999N999999999+99999+99999102111ADDMD1310091+9999SA1+1701REMSYN054SDBC1 46/// ///// 1//// 40211 53009 90600 222// 00170=
0088994027999992018010107004+32713-117173FM-13+000299999V0209999C000019999999N999999999+99999+99999102131ADDMD1210081+9999SA1+1701REMSYN054SDBC1 46/// ///// 1//// 40213 52008 90700 222// 00170=
0088994027999992018010108004+32713-117173FM-13+000299999V0209999C000019999999N999999999+99999+99999102131ADDMD1110081+9999SA1+1701REMSYN054SDBC1 46/// ///// 1//// 40213 51008 90800 222// 00170=
0088994027999992018010109004+32713-117173FM-13+000299999V0209999C000019999999N999999999+99999+99999102111ADDMD1410001+9999SA1+1701REMSYN054SDBC1 46/// ///// 1//// 40211 54000 90900 222// 00170=
0088994027999992018010110004+32713-117173FM-13+000299999V0209999C000019999999N999999999+99999+99999102121ADDMD1410001+9999SA1+1701REMSYN054SDBC1 46/// ///// 1//// 40212 54000 91000 222// 00170=
0088994027999992018010111004+32713-117173FM-13+000299999V0209999C000019999999N999999999+99999+99999102131ADDMD1410001+9999SA1+1701REMSYN054SDBC1 46/// ///// 1//// 40213 54000 91100 222// 00170=
0088994027999992018010112004+32713-117173FM-13+000299999V0209999C000019999999N999999999+99999+99999102121ADDMD1410001+9999SA1+1701REMSYN054SDBC1 46/// ///// 1//// 40212 54000 91200 222// 00170=
0088994027999992018010113004+32713-117173FM-13+000299999V0209999C000019999999N999999999+99999+99999102071ADDMD1810051+9999SA1+1691REMSYN054SDBC1 46/// ///// 1//// 40207 58005 91300 222// 00169=
0088994027999992018010114004+32713-117173FM-13+000299999V0209999C000019999999N999999999+99999+99999102101ADDMD1510031+9999SA1+1691REMSYN054SDBC1 46/// ///// 1//// 40210 55003 91400 222// 00169=
0088994027999992018010115004+32713-117173FM-13+000299999V0209999C000019999999N999999999+99999+99999102161ADDMD1310041+9999SA1+1691REMSYN054SDBC1 46/// ///// 1//// 40216 53004 91500 222// 00169=
0088994027999992018010116004+32713-117173FM-13+000299999V0209999C000019999999N999999999+99999+99999102221ADDMD1310151+9999SA1+1691REMSYN054SDBC1 46/// ///// 1//// 40222 53015 91600 222// 00169=
0088994027999992018010117004+32713-117173FM-13+000299999V0209999C000019999999N999999999+99999+99999102251ADDMD1110151+9999SA1+1691REMSYN054SDBC1 46/// ///// 1//// 40225 51015 91700 222// 00169=
0088994027999992018010118004+32713-117173FM-13+000299999V0209999C000019999999N999999999+99999+99999102251ADDMD1110091+9999SA1+1691REMSYN054SDBC1 46/// ///// 1//// 40225 51009 91800 222// 00169=
0088994027999992018010119004+32713-117173FM-13+000299999V0209999C000019999999N999999999+99999+99999102221ADDMD1990001+9999SA1+1701REMSYN054SDBC1 46/// ///// 1//// 40222 50000 91900 222// 00170=
0088994027999992018010120004+32713-117173FM-13+000299999V0209999C000019999999N999999999+99999+99999102091ADDMD1810161+9999SA1+1701REMSYN054SDBC1 46/// ///// 1//// 40209 58016 92000 222// 00170=
0088994027999992018010121004+32713-117173FM-13+000299999V0209999C000019999999N999999999+99999+99999102011ADDMD1810241+9999SA1+1701REMSYN054SDBC1 46/// ///// 1//// 40201 58024 92100 222// 00170=
0088994027999992018010122004+32713-117173FM-13+000299999V0209999C000019999999N999999999+99999+99999101921ADDMD1610301+9999SA1+1721REMSYN054SDBC1 46/// ///// 1//// 40192 56030 92200 222// 00172=
0088994027999992018010123004+32713-117173FM-13+000299999V0209999C000019999999N999999999+99999+99999101951ADDMD1510141+9999SA1+1731REMSYN054SDBC1 46/// ///// 1//// 40195 55014 92300 222// 00173=
0088994027999992018010200004+32713-117173FM-13+000299999V0209999C000019999999N999999999+99999+99999102001ADDMD1510001+9999SA1+1721REMSYN054SDBC1 46/// ///// 1//// 40200 55000 90000 222// 00172=
0088994027999992018010201004+32713-117173FM-13+000299999V0209999C000019999999N999999999+99999+99999102061ADDMD1310141+9999SA1+1711REMSYN054SDBC1 46/// ///// 1//// 40206 53014 90100 222// 00171=
0088994027999992018010202004+32713-117173FM-13+000299999V0209999C000019999999N999999999+99999+99999102091ADDMD1110141+9999SA1+1701REMSYN054SDBC1 46/// ///// 1//// 40209 51014 90200 222// 00170=
0088994027999992018010203004+32713-117173FM-13+000299999V0209999C000019999999N999999999+99999+99999102101ADDMD1110101+9999SA1+1701REMSYN054SDBC1 46/// ///// 1//// 40210 51010 90300 222// 00170=
0088994027999992018010204004+32713-117173FM-13+000299999V0209999C000019999999N999999999+99999+99999102111ADDMD1110051+9999SA1+1701REMSYN054SDBC1 46/// ///// 1//// 40211 51005 90400 222// 00170=
0088994027999992018010205004+32713-117173FM-13+000299999V0209999C000019999999N999999999+99999+99999102161ADDMD1310071+9999SA1+1701REMSYN054SDBC1 46/// ///// 1//// 40216 53007 90500 222// 00170=
0088994027999992018010206004+32713-117173FM-13+000299999V0209999C000019999999N999999999+99999+99999102181ADDMD1210081+9999SA1+1701REMSYN054SDBC1 46/// ///// 1//// 40218 52008 90600 222// 00170=
0088994027999992018010207004+32713-117173FM-13+000299999V0209999C000019999999N999999999+99999+99999102201ADDMD1110091+9999SA1+1701REMSYN054SDBC1 46/// ///// 1//// 40220 51009 90700 222// 00170=
0088994027999992018010208004+32713-117173FM-13+000299999V0209999C000019999999N999999999+99999+99999102171ADDMD1990001+9999SA1+1701REMSYN054SDBC1 46/// ///// 1//// 40217 50000 90800 222// 00170=
0088994027999992018010209004+32713-117173FM-13+000299999V0209999C000019999999N999999999+99999+99999102141ADDMD1810041+9999SA1+1701REMSYN054SDBC1 46/// ///// 1//// 40214 58004 90900 222// 00170=
0088994027999992018010210004+32713-117173FM-13+000299999V0209999C000019999999N999999999+99999+99999102111ADDMD1710091+9999SA1+1701REMSYN054SDBC1 46/// ///// 1//// 40211 57009 91000 222// 00170=
0088994027999992018010211004+32713-117173FM-13+000299999V0209999C000019999999N999999999+99999+99999102131ADDMD1610041+9999SA1+1701REMSYN054SDBC1 46/// ///// 1//// 40213 56004 91100 222// 00170=
0088994027999992018010212004+32713-117173FM-13+000299999V0209999C000019999999N999999999+99999+99999102131ADDMD1510001+9999SA1+1701REMSYN054SDBC1 46/// ///// 1//// 40213 55000 91200 222// 00170=
0088994027999992018010213004+32713-117173FM-13+000299999V0209999C000019999999N999999999+99999+99999102181ADDMD1310071+9999SA1+1701REMSYN054SDBC1 46/// ///// 1//// 40218 53007 91300 222// 00170=
0088994027999992018010214004+32713-117173FM-13+000299999V0209999C000019999999N999999999+99999+99999102201ADDMD1210071+9999SA1+1701REMSYN054SDBC1 46/// ///// 1//// 40220 52007 91400 222// 00170=
0068994027999992018010215004+32713-117173FM-13+000299999V0209999C000019999999N999999999+99999+99999102191ADDSA1+1701REMSYN048SDBC1 46/// ///// 1//// 40219 91436 222// 00170=
0088994027999992018010216004+32713-117173FM-13+000299999V0209999C000019999999N999999999+99999+99999102141ADDMD1810041+9999SA1+1701REMSYN054SDBC1 46/// ///// 1//// 40214 58004 91600 222// 00170=
0088994027999992018010217004+32713-117173FM-13+000299999V0209999C000019999999N999999999+99999+99999102141ADDMD1710061+9999SA1+1701REMSYN054SDBC1 46/// ///// 1//// 40214 57006 91700 222// 00170=
0088994027999992018010218004+32713-117173FM-13+000299999V0209999C000019999999N999999999+99999+99999102081ADDMD1710121+9999SA1+1701REMSYN054SDBC1 46/// ///// 1//// 40208 57012 91800 222// 00170=
0088994027999992018010219004+32713-117173FM-13+000299999V0209999C000019999999N999999999+99999+99999101991ADDMD1810151+9999SA1+1711REMSYN054SDBC1 46/// ///// 1//// 40199 58015 91900 222// 00171=
0088994027999992018010220004+32713-117173FM-13+000299999V0209999C000019999999N999999999+99999+99999101901ADDMD1810241+9999SA1+1711REMSYN054SDBC1 46/// ///// 1//// 40190 58024 92000 222// 00171=
0088994027999992018010221004+32713-117173FM-13+000299999V0209999C000019999999N999999999+99999+99999101811ADDMD1710271+9999SA1+1711REMSYN054SDBC1 46/// ///// 1//// 40181 57027 92100 222// 00171=
0068994027999992018010222004+32713-117173FM-13+000299999V0209999C000019999999N999999999+99999+99999101781ADDSA1+1721REMSYN048SDBC1 46/// ///// 1//// 40178 92136 222// 00172=
0088994027999992018010223004+32713-117173FM-13+000299999V0209999C000019999999N999999999+99999+99999101751ADDMD1610151+9999SA1+1731REMSYN054SDBC1 46/// ///// 1//// 40175 56015 92300 222// 00173=
0088994027999992018010300004+32713-117173FM-13+000299999V0209999C000019999999N999999999+99999+99999101721ADDMD1610091+9999SA1+1731REMSYN054SDBC1 46/// ///// 1//// 40172 56009 90000 222// 00173=
0088994027999992018010301004+32713-117173FM-13+000299999V0209999C000019999999N999999999+99999+99999101721ADDMD1710051+9999SA1+1721REMSYN054SDBC1 46/// ///// 1//// 40172 57005 90100 222// 00172=
0088994027999992018010302004+32713-117173FM-13+000299999V0209999C000019999999N999999999+99999+99999101771ADDMD1510001+9999SA1+1721REMSYN054SDBC1 46/// ///// 1//// 40177 55000 90200 222// 00172=
0088994027999992018010303004+32713-117173FM-13+000299999V0209999C000019999999N999999999+99999+99999101831ADDMD1310111+9999SA1+1711REMSYN054SDBC1 46/// ///// 1//// 40183 53011 90300 222// 00171=
0088994027999992018010304004+32713-117173FM-13+000299999V0209999C000019999999N999999999+99999+99999101861ADDMD1110141+9999SA1+1701REMSYN054SDBC1 46/// ///// 1//// 40186 51014 90400 222// 00170=
0088994027999992018010305004+32713-117173FM-13+000299999V0209999C000019999999N999999999+99999+99999101861ADDMD1110091+9999SA1+1711REMSYN054SDBC1 46/// ///// 1//// 40186 51009 90500 222// 00171=
0088994027999992018010306004+32713-117173FM-13+000299999V0209999C000019999999N999999999+99999+99999101851ADDMD1990001+9999SA1+1711REMSYN054SDBC1 46/// ///// 1//// 40185 50000 90600 222// 00171=
0088994027999992018010307004+32713-117173FM-13+000299999V0209999C000019999999N999999999+99999+99999101861ADDMD1410001+9999SA1+1711REMSYN054SDBC1 46/// ///// 1//// 40186 54000 90700 222// 00171=
0088994027999992018010308004+32713-117173FM-13+000299999V0209999C000019999999N999999999+99999+99999101841ADDMD1410001+9999SA1+1711REMSYN054SDBC1 46/// ///// 1//// 40184 54000 90800 222// 00171=
0088994027999992018010309004+32713-117173FM-13+000299999V0209999C000019999999N999999999+99999+99999101851ADDMD1410001+9999SA1+1711REMSYN054SDBC1 46/// ///// 1//// 40185 54000 90900 222// 00171=
0088994027999992018010310004+32713-117173FM-13+000299999V0209999C000019999999N999999999+99999+99999101831ADDMD1710031+9999SA1+1711REMSYN054SDBC1 46/// ///// 1//// 40183 57003 91000 222// 00171=
0088994027999992018010311004+32713-117173FM-13+000299999V0209999C000019999999N999999999+99999+99999101831ADDMD1410001+9999SA1+1711REMSYN054SDBC1 46/// ///// 1//// 40183 54000 91100 222// 00171=
0088994027999992018010312004+32713-117173FM-13+000299999V0209999C000019999999N999999999+99999+99999101841ADDMD1410001+9999SA1+1711REMSYN054SDBC1 46/// ///// 1//// 40184 54000 91200 222// 00171=
0088994027999992018010313004+32713-117173FM-13+000299999V0209999C000019999999N999999999+99999+99999101791ADDMD1810041+9999SA1+1711REMSYN054SDBC1 46/// ///// 1//// 40179 58004 91300 222// 00171=
0088994027999992018010314004+32713-117173FM-13+000299999V0209999C000019999999N999999999+99999+99999101791ADDMD1710041+9999SA1+1711REMSYN054SDBC1 46/// ///// 1//// 40179 57004 91400 222// 00171=
0088994027999992018010315004+32713-117173FM-13+000299999V0209999C000019999999N999999999+99999+99999101791ADDMD1610051+9999SA1+1711REMSYN054SDBC1 46/// ///// 1//// 40179 56005 91500 222// 00171=
0088994027999992018010316004+32713-117173FM-13+000299999V0209999C000019999999N999999999+99999+99999101831ADDMD1310041+9999SA1+1711REMSYN054SDBC1 46/// ///// 1//// 40183 53004 91600 222// 00171=
0088994027999992018010317004+32713-117173FM-13+000299999V0209999C000019999999N999999999+99999+99999101891ADDMD1310101+9999SA1+1711REMSYN054SDBC1 46/// ///// 1//// 40189 53010 91700 222// 00171=
0088994027999992018010318004+32713-117173FM-13+000299999V0209999C000019999999N999999999+99999+99999101941ADDMD1310151+9999SA1+1711REMSYN054SDBC1 46/// ///// 1//// 40194 53015 91800 222// 00171=
0088994027999992018010319004+32713-117173FM-13+000299999V0209999C000019999999N999999999+99999+99999101891ADDMD1990061+9999SA1+1711REMSYN054SDBC1 46/// ///// 1//// 40189 50006 91900 222// 00171=
0088994027999992018010320004+32713-117173FM-13+000299999V0209999C000019999999N999999999+99999+99999101781ADDMD1810111+9999SA1+1711REMSYN054SDBC1 46/// ///// 1//// 40178 58011 92000 222// 00171=
0088994027999992018010321004+32713-117173FM-13+000299999V0209999C000019999999N999999999+99999+99999101721ADDMD1810221+9999SA1+1721REMSYN054SDBC1 46/// ///// 1//// 40172 58022 92100 222// 00172=
0088994027999992018010322004+32713-117173FM-13+000299999V0209999C000019999999N999999999+99999+99999101671ADDMD1610221+9999SA1+1721REMSYN054SDBC1 46/// ///// 1//// 40167 56022 92200 222// 00172=
0088994027999992018010323004+32713-117173FM-13+000299999V0209999C000019999999N999999999+99999+99999101651ADDMD1610131+9999SA1+1721REMSYN054SDBC1 46/// ///// 1//// 40165 56013 92300 222// 00172=
0088994027999992018010400004+32713-117173FM-13+000299999V0209999C000019999999N999999999+99999+99999101701ADDMD1510001+9999SA1+1721REMSYN054SDBC1 46/// ///// 1//// 40170 55000 90000 222// 00172=
0088994027999992018010401004+32713-117173FM-13+000299999V0209999C000019999999N999999999+99999+99999101781ADDMD1310111+9999SA1+1721REMSYN054SDBC1 46/// ///// 1//// 40178 53011 90100 222// 00172=
0088994027999992018010402004+32713-117173FM-13+000299999V0209999C000019999999N999999999+99999+99999101821ADDMD1110171+9999SA1+1721REMSYN054SDBC1 46/// ///// 1//// 40182 51017 90200 222// 00172=
0088994027999992018010403004+32713-117173FM-13+000299999V0209999C000019999999N999999999+99999+99999101861ADDMD1110161+9999SA1+1721REMSYN054SDBC1 46/// ///// 1//// 40186 51016 90300 222// 00172=
0088994027999992018010404004+32713-117173FM-13+000299999V0209999C000019999999N999999999+99999+99999101861ADDMD1110081+9999SA1+1721REMSYN054SDBC1 46/// ///// 1//// 40186 51008 90400 222// 00172=
0088994027999992018010405004+32713-117173FM-13+000299999V0209999C000019999999N999999999+99999+99999101941ADDMD1310121+9999SA1+1711REMSYN054SDBC1 46/// ///// 1//// 40194 53012 90500 222// 00171=
0088994027999992018010406004+32713-117173FM-13+000299999V0209999C000019999999N999999999+99999+99999102001ADDMD1310141+9999SA1+1711REMSYN054SDBC1 46/// ///// 1//// 40200 53014 90600 222// 00171=
0088994027999992018010407004+32713-117173FM-13+000299999V0209999C000019999999N999999999+99999+99999102011ADDMD1110151+9999SA1+1711REMSYN054SDBC1 46/// ///// 1//// 40201 51015 90700 222// 00171=
0088994027999992018010408004+32713-117173FM-13+000299999V0209999C000019999999N999999999+99999+99999101981ADDMD1990041+9999SA1+1711REMSYN054SDBC1 46/// ///// 1//// 40198 50004 90800 222// 00171=
0088994027999992018010409004+32713-117173FM-13+000299999V0209999C000019999999N999999999+99999+99999101921ADDMD1810081+9999SA1+1711REMSYN054SDBC1 46/// ///// 1//// 40192 58008 90900 222// 00171=
0088994027999992018010410004+32713-117173FM-13+000299999V0209999C000019999999N999999999+99999+99999101951ADDMD1510061+9999SA1+1711REMSYN054SDBC1 46/// ///// 1//// 40195 55006 91000 222// 00171=
0088994027999992018010411004+32713-117173FM-13+000299999V0209999C000019999999N999999999+99999+99999101941ADDMD1610041+9999SA1+1711REMSYN054SDBC1 46/// ///// 1//// 40194 56004 91100 222// 00171=
0088994027999992018010412004+32713-117173FM-13+000299999V0209999C000019999999N999999999+99999+99999101931ADDMD1990001+9999SA1+1711REMSYN054SDBC1 46/// ///// 1//// 40193 50000 91200 222// 00171=
0088994027999992018010413004+32713-117173FM-13+000299999V0209999C000019999999N999999999+99999+99999101941ADDMD1410001+9999SA1+1711REMSYN054SDBC1 46/// ///// 1//// 40194 54000 91300 222// 00171=
0088994027999992018010414004+32713-117173FM-13+000299999V0209999C000019999999N999999999+99999+99999102001ADDMD1310061+9999SA1+1711REMSYN054SDBC1 46/// ///// 1//// 40200 53006 91400 222// 00171=
0088994027999992018010415004+32713-117173FM-13+000299999V0209999C000019999999N999999999+99999+99999102091ADDMD1310161+9999SA1+1711REMSYN054SDBC1 46/// ///// 1//// 40209 53016 91500 222// 00171=
0088994027999992018010416004+32713-117173FM-13+000299999V0209999C000019999999N999999999+99999+99999102171ADDMD1310231+9999SA1+1711REMSYN054SDBC1 46/// ///// 1//// 40217 53023 91600 222// 00171=
0088994027999992018010417004+32713-117173FM-13+000299999V0209999C000019999999N999999999+99999+99999102171ADDMD1110171+9999SA1+1711REMSYN054SDBC1 46/// ///// 1//// 40217 51017 91700 222// 00171=
0088994027999992018010418004+32713-117173FM-13+000299999V0209999C000019999999N999999999+99999+99999102191ADDMD1110101+9999SA1+1711REMSYN054SDBC1 46/// ///// 1//// 40219 51010 91800 222// 00171=
0088994027999992018010419004+32713-117173FM-13+000299999V0209999C000019999999N999999999+99999+99999102141ADDMD1810031+9999SA1+1711REMSYN054SDBC1 46/// ///// 1//// 40214 58003 91900 222// 00171=
0088994027999992018010420004+32713-117173FM-13+000299999V0209999C000019999999N999999999+99999+99999102021ADDMD1810151+9999SA1+1721REMSYN054SDBC1 46/// ///// 1//// 40202 58015 92000 222// 00172=
0088994027999992018010421004+32713-117173FM-13+000299999V0209999C000019999999N999999999+99999+99999101941ADDMD1810251+9999SA1+1731REMSYN054SDBC1 46/// ///// 1//// 40194 58025 92100 222// 00173=
0088994027999992018010422004+32713-117173FM-13+000299999V0209999C000019999999N999999999+99999+99999101911ADDMD1610231+9999SA1+1741REMSYN054SDBC1 46/// ///// 1//// 40191 56023 92200 222// 00174=
0088994027999992018010423004+32713-117173FM-13+000299999V0209999C000019999999N999999999+99999+99999101891ADDMD1610131+9999SA1+1741REMSYN054SDBC1 46/// ///// 1//// 40189 56013 92300 222// 00174=
0088994027999992018010500004+32713-117173FM-13+000299999V0209999C000019999999N999999999+99999+99999101951ADDMD1510001+9999SA1+1741REMSYN054SDBC1 46/// ///// 1//// 40195 55000 90000 222// 00174=
0088994027999992018010501004+32713-117173FM-13+000299999V0209999C000019999999N999999999+99999+99999101931ADDMD1410001+9999SA1+1751REMSYN054SDBC1 46/// ///// 1//// 40193 54000 90100 222// 00175=
0088994027999992018010502004+32713-117173FM-13+000299999V0209999C000019999999N999999999+99999+99999101991ADDMD1210101+9999SA1+1751REMSYN054SDBC1 46/// ///// 1//// 40199 52010 90200 222// 00175=
0088994027999992018010503004+32713-117173FM-13+000299999V0209999C000019999999N999999999+99999+99999102021ADDMD1310071+9999SA1+1741REMSYN054SDBC1 46/// ///// 1//// 40202 53007 90300 222// 00174=
0088994027999992018010504004+32713-117173FM-13+000299999V0209999C000019999999N999999999+99999+99999102041ADDMD1110111+9999SA1+1731REMSYN054SDBC1 46/// ///// 1//// 40204 51011 90400 222// 00173=
0088994027999992018010505004+32713-117173FM-13+000299999V0209999C000019999999N999999999+99999+99999102181ADDMD1310191+9999SA1+1721REMSYN054SDBC1 46/// ///// 1//// 40218 53019 90500 222// 00172=
0088994027999992018010506004+32713-117173FM-13+000299999V0209999C000019999999N999999999+99999+99999102211ADDMD1310191+9999SA1+1721REMSYN054SDBC1 46/// ///// 1//// 40221 53019 90600 222// 00172=
0088994027999992018010507004+32713-117173FM-13+000299999V0209999C000019999999N999999999+99999+99999102241ADDMD1110201+9999SA1+1721REMSYN054SDBC1 46/// ///// 1//// 40224 51020 90700 222// 00172=
0088994027999992018010508004+32713-117173FM-13+000299999V0209999C000019999999N999999999+99999+99999102231ADDMD1110051+9999SA1+1721REMSYN054SDBC1 46/// ///// 1//// 40223 51005 90800 222// 00172=
0088994027999992018010509004+32713-117173FM-13+000299999V0209999C000019999999N999999999+99999+99999102301ADDMD1310091+9999SA1+1721REMSYN054SDBC1 46/// ///// 1//// 40230 53009 90900 222// 00172=
0088994027999992018010510004+32713-117173FM-13+000299999V0209999C000019999999N999999999+99999+99999102281ADDMD1210041+9999SA1+1721REMSYN054SDBC1 46/// ///// 1//// 40228 52004 91000 222// 00172=
0088994027999992018010511004+32713-117173FM-13+000299999V0209999C000019999999N999999999+99999+99999102291ADDMD1110061+9999SA1+1721REMSYN054SDBC1 46/// ///// 1//// 40229 51006 91100 222// 00172=
0088994027999992018010512004+32713-117173FM-13+000299999V0209999C000019999999N999999999+99999+99999102151ADDMD1810151+9999SA1+1721REMSYN054SDBC1 46/// ///// 1//// 40215 58015 91200 222// 00172=
0088994027999992018010513004+32713-117173FM-13+000299999V0209999C000019999999N999999999+99999+99999102111ADDMD1810171+9999SA1+1721REMSYN054SDBC1 46/// ///// 1//// 40211 58017 91300 222// 00172=
0088994027999992018010514004+32713-117173FM-13+000299999V0209999C000019999999N999999999+99999+99999102121ADDMD1610171+9999SA1+1721REMSYN054SDBC1 46/// ///// 1//// 40212 56017 91400 222// 00172=
0088994027999992018010515004+32713-117173FM-13+000299999V0209999C000019999999N999999999+99999+99999102131ADDMD1510001+9999SA1+1721REMSYN054SDBC1 46/// ///// 1//// 40213 55000 91500 222// 00172=
0088994027999992018010516004+32713-117173FM-13+000299999V0209999C000019999999N999999999+99999+99999102251ADDMD1310141+9999SA1+1721REMSYN054SDBC1 46/// ///// 1//// 40225 53014 91600 222// 00172=
0088994027999992018010517004+32713-117173FM-13+000299999V0209999C000019999999N999999999+99999+99999102311ADDMD1310191+9999SA1+1721REMSYN054SDBC1 46/// ///// 1//// 40231 53019 91700 222// 00172=
0088994027999992018010518004+32713-117173FM-13+000299999V0209999C000019999999N999999999+99999+99999102311ADDMD1110181+9999SA1+1721REMSYN054SDBC1 46/// ///// 1//// 40231 51018 91800 222// 00172=
0088994027999992018010519004+32713-117173FM-13+000299999V0209999C000019999999N999999999+99999+99999102301ADDMD1110051+9999SA1+1721REMSYN054SDBC1 46/// ///// 1//// 40230 51005 91900 222// 00172=
0088994027999992018010520004+32713-117173FM-13+000299999V0209999C000019999999N999999999+99999+99999102181ADDMD1810131+9999SA1+1721REMSYN054SDBC1 46/// ///// 1//// 40218 58013 92000 222// 00172=
0088994027999992018010521004+32713-117173FM-13+000299999V0209999C000019999999N999999999+99999+99999102081ADDMD1810231+9999SA1+1731REMSYN054SDBC1 46/// ///// 1//// 40208 58023 92100 222// 00173=
0088994027999992018010522004+32713-117173FM-13+000299999V0209999C000019999999N999999999+99999+99999102071ADDMD1610231+9999SA1+1741REMSYN054SDBC1 46/// ///// 1//// 40207 56023 92200 222// 00174=
0088994027999992018010523004+32713-117173FM-13+000299999V0209999C000019999999N999999999+99999+99999102041ADDMD1610141+9999SA1+1741REMSYN054SDBC1 46/// ///// 1//// 40204 56014 92300 222// 00174=
0088994027999992018010600004+32713-117173FM-13+000299999V0209999C000019999999N999999999+99999+99999102071ADDMD1510001+9999SA1+1751REMSYN054SDBC1 46/// ///// 1//// 40207 55000 90000 222// 00175=
0088994027999992018010601004+32713-117173FM-13+000299999V0209999C000019999999N999999999+99999+99999102131ADDMD1310061+9999SA1+1751REMSYN054SDBC1 46/// ///// 1//// 40213 53006 90100 222// 00175=
0088994027999992018010602004+32713-117173FM-13+000299999V0209999C000019999999N999999999+99999+99999102221ADDMD1310181+9999SA1+1761REMSYN054SDBC1 46/// ///// 1//// 40222 53018 90200 222// 00176=
0088994027999992018010603004+32713-117173FM-13+000299999V0209999C000019999999N999999999+99999+99999102231ADDMD1110161+9999SA1+1761REMSYN054SDBC1 46/// ///// 1//// 40223 51016 90300 222// 00176=
0088994027999992018010604004+32713-117173FM-13+000299999V0209999C000019999999N999999999+99999+99999102211ADDMD1110081+9999SA1+1751REMSYN054SDBC1 46/// ///// 1//// 40221 51008 90400 222// 00175=
0088994027999992018010605004+32713-117173FM-13+000299999V0209999C000019999999N999999999+99999+99999102241ADDMD1510001+9999SA1+1741REMSYN054SDBC1 46/// ///// 1//// 40224 55000 90500 222// 00174=
0088994027999992018010606004+32713-117173FM-13+000299999V0209999C000019999999N999999999+99999+99999102251ADDMD1410001+9999SA1+1741REMSYN054SDBC1 46/// ///// 1//// 40225 54000 90600 222// 00174=
0088994027999992018010607004+32713-117173FM-13+000299999V0209999C000019999999N999999999+99999+99999102231ADDMD1990001+9999SA1+1741REMSYN054SDBC1 46/// ///// 1//// 40223 50000 90700 222// 00174=
0088994027999992018010608004+32713-117173FM-13+000299999V0209999C000019999999N999999999+99999+99999102201ADDMD1810041+9999SA1+1731REMSYN054SDBC1 46/// ///// 1//// 40220 58004 90800 222// 00173=
0088994027999992018010609004+32713-117173FM-13+000299999V0209999C000019999999N999999999+99999+99999102101ADDMD1810151+9999SA1+1731REMSYN054SDBC1 46/// ///// 1//// 40210 58015 90900 222// 00173=
0088994027999992018010610004+32713-117173FM-13+000299999V0209999C000019999999N999999999+99999+99999101991ADDMD1810241+9999SA1+1731REMSYN054SDBC1 46/// ///// 1//// 40199 58024 91000 222// 00173=
0088994027999992018010611004+32713-117173FM-13+000299999V0209999C000019999999N999999999+99999+99999101961ADDMD1610241+9999SA1+1731REMSYN054SDBC1 46/// ///// 1//// 40196 56024 91100 222// 00173=
0088994027999992018010612004+32713-117173FM-13+000299999V0209999C000019999999N999999999+99999+99999101931ADDMD1610171+9999SA1+1741REMSYN054SDBC1 46/// ///// 1//// 40193 56017 91200 222// 00174=
0088994027999992018010613004+32713-117173FM-13+000299999V0209999C000019999999N999999999+99999+99999101901ADDMD1710091+9999SA1+1741REMSYN054SDBC1 46/// ///// 1//// 40190 57009 91300 222// 00174=
0088994027999992018010614004+32713-117173FM-13+000299999V0209999C000019999999N999999999+99999+99999102091ADDMD1310131+9999SA1+1741REMSYN054SDBC1 46/// ///// 1//// 40209 53013 91400 222// 00174=
0088994027999992018010615004+32713-117173FM-13+000299999V0209999C000019999999N999999999+99999+99999102151ADDMD1310221+9999SA1+1741REMSYN054SDBC1 46/// ///// 1//// 40215 53022 91500 222// 00174=
0088994027999992018010616004+32713-117173FM-13+000299999V0209999C000019999999N999999999+99999+99999102201ADDMD1110301+9999SA1+1731REMSYN054SDBC1 46/// ///// 1//// 40220 51030 91600 222// 00173=
0088994027999992018010617004+32713-117173FM-13+000299999V0209999C000019999999N999999999+99999+99999102211ADDMD1110121+9999SA1+1731REMSYN054SDBC1 46/// ///// 1//// 40221 51012 91700 222// 00173=
0088994027999992018010618004+32713-117173FM-13+000299999V0209999C000019999999N999999999+99999+99999102241ADDMD1110091+9999SA1+1731REMSYN054SDBC1 46/// ///// 1//// 40224 51009 91800 222// 00173=
0088994027999992018010619004+32713-117173FM-13+000299999V0209999C000019999999N999999999+99999+99999102161ADDMD1810041+9999SA1+1731REMSYN054SDBC1 46/// ///// 1//// 40216 58004 91900 222// 00173=
0088994027999992018010620004+32713-117173FM-13+000299999V0209999C000019999999N999999999+99999+99999102081ADDMD1810131+9999SA1+1731REMSYN054SDBC1 46/// ///// 1//// 40208 58013 92000 222// 00173=
0088994027999992018010621004+32713-117173FM-13+000299999V0209999C000019999999N999999999+99999+99999101971ADDMD1810271+9999SA1+1741REMSYN054SDBC1 46/// ///// 1//// 40197 58027 92100 222// 00174=
0088994027999992018010622004+32713-117173FM-13+000299999V0209999C000019999999N999999999+99999+99999101931ADDMD1610231+9999SA1+1761REMSYN054SDBC1 46/// ///// 1//// 40193 56023 92200 222// 00176=
0088994027999992018010623004+32713-117173FM-13+000299999V0209999C000019999999N999999999+99999+99999101931ADDMD1610151+9999SA1+1761REMSYN054SDBC1 46/// ///// 1//// 40193 56015 92300 222// 00176=
0088994027999992018010700004+32713-117173FM-13+000299999V0209999C000019999999N999999999+99999+99999101981ADDMD1510001+9999SA1+1761REMSYN054SDBC1 46/// ///// 1//// 40198 55000 90000 222// 00176=
0088994027999992018010701004+32713-117173FM-13+000299999V0209999C000019999999N999999999+99999+99999102031ADDMD1310101+9999SA1+1761REMSYN054SDBC1 46/// ///// 1//// 40203 53010 90100 222// 00176=
0088994027999992018010702004+32713-117173FM-13+000299999V0209999C000019999999N999999999+99999+99999102031ADDMD1110101+9999SA1+1761REMSYN054SDBC1 46/// ///// 1//// 40203 51010 90200 222// 00176=
0088994027999992018010703004+32713-117173FM-13+000299999V0209999C000019999999N999999999+99999+99999102011ADDMD1110031+9999SA1+1761REMSYN054SDBC1 46/// ///// 1//// 40201 51003 90300 222// 00176=
0088994027999992018010704004+32713-117173FM-13+000299999V0209999C000019999999N999999999+99999+99999102031ADDMD1410001+9999SA1+1761REMSYN054SDBC1 46/// ///// 1//// 40203 54000 90400 222// 00176=
0088994027999992018010705004+32713-117173FM-13+000299999V0209999C000019999999N999999999+99999+99999102041ADDMD1410001+9999SA1+1751REMSYN054SDBC1 46/// ///// 1//// 40204 54000 90500 222// 00175=
0088994027999992018010706004+32713-117173FM-13+000299999V0209999C000019999999N999999999+99999+99999102001ADDMD1990001+9999SA1+1741REMSYN054SDBC1 46/// ///// 1//// 40200 50000 90600 222// 00174=
0088994027999992018010707004+32713-117173FM-13+000299999V0209999C000019999999N999999999+99999+99999101971ADDMD1810061+9999SA1+1741REMSYN054SDBC1 46/// ///// 1//// 40197 58006 90700 222// 00174=
0088994027999992018010708004+32713-117173FM-13+000299999V0209999C000019999999N999999999+99999+99999101941ADDMD1610101+9999SA1+1741REMSYN054SDBC1 46/// ///// 1//// 40194 56010 90800 222// 00174=
0088994027999992018010709004+32713-117173FM-13+000299999V0209999C000019999999N999999999+99999+99999101911ADDMD1710091+9999SA1+1741REMSYN054SDBC1 46/// ///// 1//// 40191 57009 90900 222// 00174=
0088994027999992018010710004+32713-117173FM-13+000299999V0209999C000019999999N999999999+99999+99999101931ADDMD1610041+9999SA1+1741REMSYN054SDBC1 46/// ///// 1//// 40193 56004 91000 222// 00174=
0088994027999992018010711004+32713-117173FM-13+000299999V0209999C000019999999N999999999+99999+99999101921ADDMD1510001+9999SA1+1741REMSYN054SDBC1 46/// ///// 1//// 40192 55000 91100 222// 00174=
0088994027999992018010712004+32713-117173FM-13+000299999V0209999C000019999999N999999999+99999+99999101881ADDMD1810031+9999SA1+1741REMSYN054SDBC1 46/// ///// 1//// 40188 58003 91200 222// 00174=
0088994027999992018010713004+32713-117173FM-13+000299999V0209999C000019999999N999999999+99999+99999101901ADDMD1710031+9999SA1+1741REMSYN054SDBC1 46/// ///// 1//// 40190 57003 91300 222// 00174=
0088994027999992018010714004+32713-117173FM-13+000299999V0209999C000019999999N999999999+99999+99999101921ADDMD1510001+9999SA1+1741REMSYN054SDBC1 46/// ///// 1//// 40192 55000 91400 222// 00174=
0088994027999992018010715004+32713-117173FM-13+000299999V0209999C000019999999N999999999+99999+99999101911ADDMD1210031+9999SA1+1741REMSYN054SDBC1 46/// ///// 1//// 40191 52003 91500 222// 00174=
0088994027999992018010716004+32713-117173FM-13+000299999V0209999C000019999999N999999999+99999+99999101951ADDMD1310051+9999SA1+1741REMSYN054SDBC1 46/// ///// 1//// 40195 53005 91600 222// 00174=
0088994027999992018010717004+32713-117173FM-13+000299999V0209999C000019999999N999999999+99999+99999102001ADDMD1310081+9999SA1+1741REMSYN054SDBC1 46/// ///// 1//// 40200 53008 91700 222// 00174=
0088994027999992018010718004+32713-117173FM-13+000299999V0209999C000019999999N999999999+99999+99999102001ADDMD1110091+9999SA1+1741REMSYN054SDBC1 46/// ///// 1//// 40200 51009 91800 222// 00174=
0088994027999992018010719004+32713-117173FM-13+000299999V0209999C000019999999N999999999+99999+99999101911ADDMD1810041+9999SA1+1741REMSYN054SDBC1 46/// ///// 1//// 40191 58004 91900 222// 00174=
0088994027999992018010720004+32713-117173FM-13+000299999V0209999C000019999999N999999999+99999+99999101831ADDMD1810171+9999SA1+1741REMSYN054SDBC1 46/// ///// 1//// 40183 58017 92000 222// 00174=
0088994027999992018010721004+32713-117173FM-13+000299999V0209999C000019999999N999999999+99999+99999101711ADDMD1810291+9999SA1+1741REMSYN054SDBC1 46/// ///// 1//// 40171 58029 92100 222// 00174=
0088994027999992018010722004+32713-117173FM-13+000299999V0209999C000019999999N999999999+99999+99999101661ADDMD1610251+9999SA1+1751REMSYN054SDBC1 46/// ///// 1//// 40166 56025 92200 222// 00175=
0088994027999992018010723004+32713-117173FM-13+000299999V0209999C000019999999N999999999+99999+99999101641ADDMD1610191+9999SA1+1761REMSYN054SDBC1 46/// ///// 1//// 40164 56019 92300 222// 00176=
0088994027999992018010800004+32713-117173FM-13+000299999V0209999C000019999999N999999999+99999+99999101621ADDMD1610091+9999SA1+1771REMSYN054SDBC1 46/// ///// 1//// 40162 56009 90000 222// 00177=
0088994027999992018010801004+32713-117173FM-13+000299999V0209999C000019999999N999999999+99999+99999101611ADDMD1710051+9999SA1+1781REMSYN054SDBC1 46/// ///// 1//// 40161 57005 90100 222// 00178=
0088994027999992018010802004+32713-117173FM-13+000299999V0209999C000019999999N999999999+99999+99999101651ADDMD1510001+9999SA1+1781REMSYN054SDBC1 46/// ///// 1//// 40165 55000 90200 222// 00178=
0088994027999992018010803004+32713-117173FM-13+000299999V0209999C000019999999N999999999+99999+99999101671ADDMD1210051+9999SA1+1781REMSYN054SDBC1 46/// ///// 1//// 40167 52005 90300 222// 00178=
0088994027999992018010804004+32713-117173FM-13+000299999V0209999C000019999999N999999999+99999+99999101681ADDMD1110071+9999SA1+1781REMSYN054SDBC1 46/// ///// 1//// 40168 51007 90400 222// 00178=
0088994027999992018010805004+32713-117173FM-13+000299999V0209999C000019999999N999999999+99999+99999101711ADDMD1310061+9999SA1+1781REMSYN054SDBC1 46/// ///// 1//// 40171 53006 90500 222// 00178=
0088994027999992018010806004+32713-117173FM-13+000299999V0209999C000019999999N999999999+99999+99999101681ADDMD1990001+9999SA1+1761REMSYN054SDBC1 46/// ///// 1//// 40168 50000 90600 222// 00176=
0088994027999992018010807004+32713-117173FM-13+000299999V0209999C000019999999N999999999+99999+99999101641ADDMD1810041+9999SA1+1761REMSYN054SDBC1 46/// ///// 1//// 40164 58004 90700 222// 00176=
0088994027999992018010808004+32713-117173FM-13+000299999V0209999C000019999999N999999999+99999+99999101591ADDMD1810121+9999SA1+1751REMSYN054SDBC1 46/// ///// 1//// 40159 58012 90800 222// 00175=
0088994027999992018010809004+32713-117173FM-13+000299999V0209999C000019999999N999999999+99999+99999101541ADDMD1810141+9999SA1+1751REMSYN054SDBC1 46/// ///// 1//// 40154 58014 90900 222// 00175=
0088994027999992018010810004+32713-117173FM-13+000299999V0209999C000019999999N999999999+99999+99999101541ADDMD1610101+9999SA1+1751REMSYN054SDBC1 46/// ///// 1//// 40154 56010 91000 222// 00175=
0088994027999992018010811004+32713-117173FM-13+000299999V0209999C000019999999N999999999+99999+99999101521ADDMD1610071+9999SA1+1751REMSYN054SDBC1 46/// ///// 1//// 40152 56007 91100 222// 00175=
0088994027999992018010812004+32713-117173FM-13+000299999V0209999C000019999999N999999999+99999+99999101481ADDMD1810061+9999SA1+1751REMSYN054SDBC1 46/// ///// 1//// 40148 58006 91200 222// 00175=
0088994027999992018010813004+32713-117173FM-13+000299999V0209999C000019999999N999999999+99999+99999101431ADDMD1810111+9999SA1+1751REMSYN054SDBC1 46/// ///// 1//// 40143 58011 91300 222// 00175=
0088994027999992018010814004+32713-117173FM-13+000299999V0209999C000019999999N999999999+99999+99999101481ADDMD1510041+9999SA1+1751REMSYN054SDBC1 46/// ///// 1//// 40148 55004 91400 222// 00175=
0088994027999992018010815004+32713-117173FM-13+000299999V0209999C000019999999N999999999+99999+99999101501ADDMD1510001+9999SA1+1751REMSYN054SDBC1 46/// ///// 1//// 40150 55000 91500 222// 00175=
0088994027999992018010816004+32713-117173FM-13+000299999V0209999C000019999999N999999999+99999+99999101481ADDMD1110051+9999SA1+1751REMSYN054SDBC1 46/// ///// 1//// 40148 51005 91600 222// 00175=
0088994027999992018010817004+32713-117173FM-13+000299999V0209999C000019999999N999999999+99999+99999101481ADDMD1410001+9999SA1+1751REMSYN054SDBC1 46/// ///// 1//// 40148 54000 91700 222// 00175=
0088994027999992018010818004+32713-117173FM-13+000299999V0209999C000019999999N999999999+99999+99999101491ADDMD1410001+9999SA1+1751REMSYN054SDBC1 46/// ///// 1//// 40149 54000 91800 222// 00175=
0088994027999992018010819004+32713-117173FM-13+000299999V0209999C000019999999N999999999+99999+99999101451ADDMD1810031+9999SA1+1751REMSYN054SDBC1 46/// ///// 1//// 40145 58003 91900 222// 00175=
0088994027999992018010820004+32713-117173FM-13+000299999V0209999C000019999999N999999999+99999+99999101351ADDMD1810131+9999SA1+1751REMSYN054SDBC1 46/// ///// 1//// 40135 58013 92000 222// 00175=
0088994027999992018010821004+32713-117173FM-13+000299999V0209999C000019999999N999999999+99999+99999101261ADDMD1810231+9999SA1+1751REMSYN054SDBC1 46/// ///// 1//// 40126 58023 92100 222// 00175=
0088994027999992018010822004+32713-117173FM-13+000299999V0209999C000019999999N999999999+99999+99999101321ADDMD1510131+9999SA1+1751REMSYN054SDBC1 46/// ///// 1//// 40132 55013 92200 222// 00175=
0088994027999992018010823004+32713-117173FM-13+000299999V0209999C000019999999N999999999+99999+99999101271ADDMD1610081+9999SA1+1751REMSYN054SDBC1 46/// ///// 1//// 40127 56008 92300 222// 00175=
0088994027999992018010900004+32713-117173FM-13+000299999V0209999C000019999999N999999999+99999+99999101291ADDMD1110031+9999SA1+1751REMSYN054SDBC1 46/// ///// 1//// 40129 51003 90000 222// 00175=
0088994027999992018010901004+32713-117173FM-13+000299999V0209999C000019999999N999999999+99999+99999101481ADDMD1310161+9999SA1+1751REMSYN054SDBC1 46/// ///// 1//// 40148 53016 90100 222// 00175=
0088994027999992018010902004+32713-117173FM-13+000299999V0209999C000019999999N999999999+99999+99999101341ADDMD1990071+9999SA1+1761REMSYN054SDBC1 46/// ///// 1//// 40134 50007 90200 222// 00176=
0088994027999992018010903004+32713-117173FM-13+000299999V0209999C000019999999N999999999+99999+99999101221ADDMD1810071+9999SA1+1761REMSYN054SDBC1 46/// ///// 1//// 40122 58007 90300 222// 00176=
0088994027999992018010904004+32713-117173FM-13+000299999V0209999C000019999999N999999999+99999+99999101111ADDMD1610371+9999SA1+1761REMSYN054SDBC1 46/// ///// 1//// 40111 56037 90400 222// 00176=
0088994027999992018010905004+32713-117173FM-13+000299999V0209999C000019999999N999999999+99999+99999101151ADDMD1510191+9999SA1+1761REMSYN054SDBC1 46/// ///// 1//// 40115 55019 90500 222// 00176=
0088994027999992018010906004+32713-117173FM-13+000299999V0209999C000019999999N999999999+99999+99999101121ADDMD1610101+9999SA1+1751REMSYN054SDBC1 46/// ///// 1//// 40112 56010 90600 222// 00175=
0088994027999992018010907004+32713-117173FM-13+000299999V0209999C000019999999N999999999+99999+99999101161ADDMD1210051+9999SA1+1751REMSYN054SDBC1 46/// ///// 1//// 40116 52005 90700 222// 00175=
0088994027999992018010908004+32713-117173FM-13+000299999V0209999C000019999999N999999999+99999+99999101061ADDMD1810091+9999SA1+1751REMSYN054SDBC1 46/// ///// 1//// 40106 58009 90800 222// 00175=
0088994027999992018010909004+32713-117173FM-13+000299999V0209999C000019999999N999999999+99999+99999101081ADDMD1810041+9999SA1+1751REMSYN054SDBC1 46/// ///// 1//// 40108 58004 90900 222// 00175=
0088994027999992018010910004+32713-117173FM-13+000299999V0209999C000019999999N999999999+99999+99999100881ADDMD1810281+9999SA1+1751REMSYN054SDBC1 46/// ///// 1//// 40088 58028 91000 222// 00175=
0088994027999992018010911004+32713-117173FM-13+000299999V0209999C000019999999N999999999+99999+99999100641ADDMD1810421+9999SA1+1751REMSYN054SDBC1 46/// ///// 1//// 40064 58042 91100 222// 00175=
0088994027999992018010912004+32713-117173FM-13+000299999V0209999C000019999999N999999999+99999+99999100621ADDMD1610461+9999SA1+1761REMSYN054SDBC1 46/// ///// 1//// 40062 56046 91200 222// 00176=
0088994027999992018010913004+32713-117173FM-13+000299999V0209999C000019999999N999999999+99999+99999100591ADDMD1610291+9999SA1+1761REMSYN054SDBC1 46/// ///// 1//// 40059 56029 91300 222// 00176=
0088994027999992018010914004+32713-117173FM-13+000299999V0209999C000019999999N999999999+99999+99999100781ADDMD1310141+9999SA1+1761REMSYN054SDBC1 46/// ///// 1//// 40078 53014 91400 222// 00176=
0088994027999992018010915004+32713-117173FM-13+000299999V0209999C000019999999N999999999+99999+99999100981ADDMD1310361+9999SA1+1761REMSYN054SDBC1 46/// ///// 1//// 40098 53036 91500 222// 00176=
0088994027999992018010916004+32713-117173FM-13+000299999V0209999C000019999999N999999999+99999+99999101051ADDMD1110461+9999SA1+1761REMSYN054SDBC1 46/// ///// 1//// 40105 51046 91600 222// 00176=
0088994027999992018010917004+32713-117173FM-13+000299999V0209999C000019999999N999999999+99999+99999101211ADDMD1110431+9999SA1+1761REMSYN054SDBC1 46/// ///// 1//// 40121 51043 91700 222// 00176=
0088994027999992018010918004+32713-117173FM-13+000299999V0209999C000019999999N999999999+99999+99999101281ADDMD1210301+9999SA1+1761REMSYN054SDBC1 46/// ///// 1//// 40128 52030 91800 222// 00176=
0088994027999992018010919004+32713-117173FM-13+000299999V0209999C000019999999N999999999+99999+99999101211ADDMD1990161+9999SA1+1761REMSYN054SDBC1 46/// ///// 1//// 40121 50016 91900 222// 00176=
0088994027999992018010920004+32713-117173FM-13+000299999V0209999C000019999999N999999999+99999+99999101201ADDMD1990001+9999SA1+1761REMSYN054SDBC1 46/// ///// 1//// 40120 50000 92000 222// 00176=
0088994027999992018010921004+32713-117173FM-13+000299999V0209999C000019999999N999999999+99999+99999101171ADDMD1610111+9999SA1+1761REMSYN054SDBC1 46/// ///// 1//// 40117 56011 92100 222// 00176=
0088994027999992018010922004+32713-117173FM-13+000299999V0209999C000019999999N999999999+99999+99999101161ADDMD1710051+9999SA1+1761REMSYN054SDBC1 46/// ///// 1//// 40116 57005 92200 222// 00176=
0088994027999992018010923004+32713-117173FM-13+000299999V0209999C000019999999N999999999+99999+99999101131ADDMD1710071+9999SA1+1761REMSYN054SDBC1 46/// ///// 1//// 40113 57007 92300 222// 00176=
0088994027999992018011000004+32713-117173FM-13+000299999V0209999C000019999999N999999999+99999+99999101091ADDMD1810081+9999SA1+1761REMSYN054SDBC1 46/// ///// 1//// 40109 58008 90000 222// 00176=
0088994027999992018011001004+32713-117173FM-13+000299999V0209999C000019999999N999999999+99999+99999101141ADDMD1510001+9999SA1+1771REMSYN054SDBC1 46/// ///// 1//// 40114 55000 90100 222// 00177=
0088994027999992018011002004+32713-117173FM-13+000299999V0209999C000019999999N999999999+99999+99999101181ADDMD1310051+9999SA1+1771REMSYN054SDBC1 46/// ///// 1//// 40118 53005 90200 222// 00177=
0088994027999992018011003004+32713-117173FM-13+000299999V0209999C000019999999N999999999+99999+99999101171ADDMD1110081+9999SA1+1771REMSYN054SDBC1 46/// ///// 1//// 40117 51008 90300 222// 00177=
0088994027999992018011004004+32713-117173FM-13+000299999V0209999C000019999999N999999999+99999+99999101201ADDMD1110061+9999SA1+1771REMSYN054SDBC1 46/// ///// 1//// 40120 51006 90400 222// 00177=
0088994027999992018011005004+32713-117173FM-13+000299999V0209999C000019999999N999999999+99999+99999101231ADDMD1310051+9999SA1+1771REMSYN054SDBC1 46/// ///// 1//// 40123 53005 90500 222// 00177=
0088994027999992018011006004+32713-117173FM-13+000299999V0209999C000019999999N999999999+99999+99999101331ADDMD1310161+9999SA1+1771REMSYN054SDBC1 46/// ///// 1//// 40133 53016 90600 222// 00177=
0088994027999992018011007004+32713-117173FM-13+000299999V0209999C000019999999N999999999+99999+99999101341ADDMD1110141+9999SA1+1761REMSYN054SDBC1 46/// ///// 1//// 40134 51014 90700 222// 00176=
0088994027999992018011008004+32713-117173FM-13+000299999V0209999C000019999999N999999999+99999+99999101421ADDMD1110191+9999SA1+1771REMSYN054SDBC1 46/// ///// 1//// 40142 51019 90800 222// 00177=
0088994027999992018011009004+32713-117173FM-13+000299999V0209999C000019999999N999999999+99999+99999101451ADDMD1310121+9999SA1+1771REMSYN054SDBC1 46/// ///// 1//// 40145 53012 90900 222// 00177=
0088994027999992018011010004+32713-117173FM-13+000299999V0209999C000019999999N999999999+99999+99999101471ADDMD1110131+9999SA1+1771REMSYN054SDBC1 46/// ///// 1//// 40147 51013 91000 222// 00177=
0088994027999992018011011004+32713-117173FM-13+000299999V0209999C000019999999N999999999+99999+99999101581ADDMD1310161+9999SA1+1771REMSYN054SDBC1 46/// ///// 1//// 40158 53016 91100 222// 00177=
0088994027999992018011012004+32713-117173FM-13+000299999V0209999C000019999999N999999999+99999+99999101521ADDMD1990071+9999SA1+1771REMSYN054SDBC1 46/// ///// 1//// 40152 50007 91200 222// 00177=
0088994027999992018011013004+32713-117173FM-13+000299999V0209999C000019999999N999999999+99999+99999101581ADDMD1110111+9999SA1+1761REMSYN054SDBC1 46/// ///// 1//// 40158 51011 91300 222// 00176=
0088994027999992018011014004+32713-117173FM-13+000299999V0209999C000019999999N999999999+99999+99999101681ADDMD1310101+9999SA1+1761REMSYN054SDBC1 46/// ///// 1//// 40168 53010 91400 222// 00176=
0088994027999992018011015004+32713-117173FM-13+000299999V0209999C000019999999N999999999+99999+99999101731ADDMD1110211+9999SA1+1761REMSYN054SDBC1 46/// ///// 1//// 40173 51021 91500 222// 00176=
0088994027999992018011016004+32713-117173FM-13+000299999V0209999C000019999999N999999999+99999+99999101811ADDMD1110231+9999SA1+1761REMSYN054SDBC1 46/// ///// 1//// 40181 51023 91600 222// 00176=
0088994027999992018011017004+32713-117173FM-13+000299999V0209999C000019999999N999999999+99999+99999101881ADDMD1310201+9999SA1+1761REMSYN054SDBC1 46/// ///// 1//// 40188 53020 91700 222// 00176=
0088994027999992018011018004+32713-117173FM-13+000299999V0209999C000019999999N999999999+99999+99999101971ADDMD1310241+9999SA1+1751REMSYN054SDBC1 46/// ///// 1//// 40197 53024 91800 222// 00175=
0088994027999992018011019004+32713-117173FM-13+000299999V0209999C000019999999N999999999+99999+99999101991ADDMD1110181+9999SA1+1751REMSYN054SDBC1 46/// ///// 1//// 40199 51018 91900 222// 00175=
0088994027999992018011020004+32713-117173FM-13+000299999V0209999C000019999999N999999999+99999+99999101931ADDMD1990051+9999SA1+1751REMSYN054SDBC1 46/// ///// 1//// 40193 50005 92000 222// 00175=
0088994027999992018011021004+32713-117173FM-13+000299999V0209999C000019999999N999999999+99999+99999101851ADDMD1810121+9999SA1+1761REMSYN054SDBC1 46/// ///// 1//// 40185 58012 92100 222// 00176=
0088994027999992018011022004+32713-117173FM-13+000299999V0209999C000019999999N999999999+99999+99999101811ADDMD1610181+9999SA1+1761REMSYN054SDBC1 46/// ///// 1//// 40181 56018 92200 222// 00176=
0088994027999992018011023004+32713-117173FM-13+000299999V0209999C000019999999N999999999+99999+99999101821ADDMD1610111+9999SA1+1761REMSYN054SDBC1 46/// ///// 1//// 40182 56011 92300 222// 00176=
0088994027999992018011100004+32713-117173FM-13+000299999V0209999C000019999999N999999999+99999+99999101851ADDMD1510001+9999SA1+1761REMSYN054SDBC1 46/// ///// 1//// 40185 55000 90000 222// 00176=
0088994027999992018011101004+32713-117173FM-13+000299999V0209999C000019999999N999999999+99999+99999101911ADDMD1310101+9999SA1+1761REMSYN054SDBC1 46/// ///// 1//// 40191 53010 90100 222// 00176=
0088994027999992018011102004+32713-117173FM-13+000299999V0209999C000019999999N999999999+99999+99999101951ADDMD1310131+9999SA1+1761REMSYN054SDBC1 46/// ///// 1//// 40195 53013 90200 222// 00176=
0088994027999992018011103004+32713-117173FM-13+000299999V0209999C000019999999N999999999+99999+99999101961ADDMD1110111+9999SA1+1761REMSYN054SDBC1 46/// ///// 1//// 40196 51011 90300 222// 00176=
0088994027999992018011104004+32713-117173FM-13+000299999V0209999C000019999999N999999999+99999+99999102021ADDMD1310111+9999SA1+1761REMSYN054SDBC1 46/// ///// 1//// 40202 53011 90400 222// 00176=
0088994027999992018011105004+32713-117173FM-13+000299999V0209999C000019999999N999999999+99999+99999102011ADDMD1210061+9999SA1+1761REMSYN054SDBC1 46/// ///// 1//// 40201 52006 90500 222// 00176=
0088994027999992018011106004+32713-117173FM-13+000299999V0209999C000019999999N999999999+99999+99999102071ADDMD1210111+9999SA1+1761REMSYN054SDBC1 46/// ///// 1//// 40207 52011 90600 222// 00176=
0088994027999992018011107004+32713-117173FM-13+000299999V0209999C000019999999N999999999+99999+99999102091ADDMD1210071+9999SA1+1761REMSYN054SDBC1 46/// ///// 1//// 40209 52007 90700 222// 00176=
0088994027999992018011108004+32713-117173FM-13+000299999V0209999C000019999999N999999999+99999+99999102101ADDMD1110091+9999SA1+1761REMSYN054SDBC1 46/// ///// 1//// 40210 51009 90800 222// 00176=
0088994027999992018011109004+32713-117173FM-13+000299999V0209999C000019999999N999999999+99999+99999102131ADDMD1310061+9999SA1+1761REMSYN054SDBC1 46/// ///// 1//// 40213 53006 90900 222// 00176=
0088994027999992018011110004+32713-117173FM-13+000299999V0209999C000019999999N999999999+99999+99999102151ADDMD1210061+9999SA1+1761REMSYN054SDBC1 46/// ///// 1//// 40215 52006 91000 222// 00176=
0088994027999992018011111004+32713-117173FM-13+000299999V0209999C000019999999N999999999+99999+99999102161ADDMD1110061+9999SA1+1761REMSYN054SDBC1 46/// ///// 1//// 40216 51006 91100 222// 00176=
0088994027999992018011112004+32713-117173FM-13+000299999V0209999C000019999999N999999999+99999+99999102161ADDMD1210031+9999SA1+1761REMSYN054SDBC1 46/// ///// 1//// 40216 52003 91200 222// 00176=
0088994027999992018011113004+32713-117173FM-13+000299999V0209999C000019999999N999999999+99999+99999102211ADDMD1310061+9999SA1+1761REMSYN054SDBC1 46/// ///// 1//// 40221 53006 91300 222// 00176=
0088994027999992018011114004+32713-117173FM-13+000299999V0209999C000019999999N999999999+99999+99999102231ADDMD1210071+9999SA1+1761REMSYN054SDBC1 46/// ///// 1//// 40223 52007 91400 222// 00176=
0088994027999992018011115004+32713-117173FM-13+000299999V0209999C000019999999N999999999+99999+99999102331ADDMD1310171+9999SA1+1761REMSYN054SDBC1 46/// ///// 1//// 40233 53017 91500 222// 00176=
0088994027999992018011116004+32713-117173FM-13+000299999V0209999C000019999999N999999999+99999+99999102411ADDMD1310201+9999SA1+1761REMSYN054SDBC1 46/// ///// 1//// 40241 53020 91600 222// 00176=
0088994027999992018011117004+32713-117173FM-13+000299999V0209999C000019999999N999999999+99999+99999102481ADDMD1110251+9999SA1+1761REMSYN054SDBC1 46/// ///// 1//// 40248 51025 91700 222// 00176=
0088994027999992018011118004+32713-117173FM-13+000299999V0209999C000019999999N999999999+99999+99999102471ADDMD1110141+9999SA1+1761REMSYN054SDBC1 46/// ///// 1//// 40247 51014 91800 222// 00176=
0088994027999992018011119004+32713-117173FM-13+000299999V0209999C000019999999N999999999+99999+99999102371ADDMD1810041+9999SA1+1761REMSYN054SDBC1 46/// ///// 1//// 40237 58004 91900 222// 00176=
0088994027999992018011120004+32713-117173FM-13+000299999V0209999C000019999999N999999999+99999+99999102241ADDMD1810241+9999SA1+1761REMSYN054SDBC1 46/// ///// 1//// 40224 58024 92000 222// 00176=
0088994027999992018011121004+32713-117173FM-13+000299999V0209999C000019999999N999999999+99999+99999102141ADDMD1710331+9999SA1+1791REMSYN054SDBC1 46/// ///// 1//// 40214 57033 92100 222// 00179=
0088994027999992018011122004+32713-117173FM-13+000299999V0209999C000019999999N999999999+99999+99999102101ADDMD1610271+9999SA1+1801REMSYN054SDBC1 46/// ///// 1//// 40210 56027 92200 222// 00180=
0088994027999992018011123004+32713-117173FM-13+000299999V0209999C000019999999N999999999+99999+99999102111ADDMD1610131+9999SA1+1801REMSYN054SDBC1 46/// ///// 1//// 40211 56013 92300 222// 00180=
0088994027999992018011200004+32713-117173FM-13+000299999V0209999C000019999999N999999999+99999+99999102161ADDMD1510001+9999SA1+1791REMSYN054SDBC1 46/// ///// 1//// 40216 55000 90000 222// 00179=
0088994027999992018011201004+32713-117173FM-13+000299999V0209999C000019999999N999999999+99999+99999102181ADDMD1210081+9999SA1+1801REMSYN054SDBC1 46/// ///// 1//// 40218 52008 90100 222// 00180=
0088994027999992018011202004+32713-117173FM-13+000299999V0209999C000019999999N999999999+99999+99999102201ADDMD1110091+9999SA1+1791REMSYN054SDBC1 46/// ///// 1//// 40220 51009 90200 222// 00179=
0088994027999992018011203004+32713-117173FM-13+000299999V0209999C000019999999N999999999+99999+99999102231ADDMD1310071+9999SA1+1781REMSYN054SDBC1 46/// ///// 1//// 40223 53007 90300 222// 00178=
0088994027999992018011204004+32713-117173FM-13+000299999V0209999C000019999999N999999999+99999+99999102281ADDMD1310101+9999SA1+1781REMSYN054SDBC1 46/// ///// 1//// 40228 53010 90400 222// 00178=
0088994027999992018011205004+32713-117173FM-13+000299999V0209999C000019999999N999999999+99999+99999102311ADDMD1210111+9999SA1+1781REMSYN054SDBC1 46/// ///// 1//// 40231 52011 90500 222// 00178=
0088994027999992018011206004+32713-117173FM-13+000299999V0209999C000019999999N999999999+99999+99999102371ADDMD1310141+9999SA1+1781REMSYN054SDBC1 46/// ///// 1//// 40237 53014 90600 222// 00178=
0088994027999992018011207004+32713-117173FM-13+000299999V0209999C000019999999N999999999+99999+99999102341ADDMD1990061+9999SA1+1781REMSYN054SDBC1 46/// ///// 1//// 40234 50006 90700 222// 00178=
0088994027999992018011208004+32713-117173FM-13+000299999V0209999C000019999999N999999999+99999+99999102321ADDMD1990001+9999SA1+1781REMSYN054SDBC1 46/// ///// 1//// 40232 50000 90800 222// 00178=
0088994027999992018011209004+32713-117173FM-13+000299999V0209999C000019999999N999999999+99999+99999102301ADDMD1610071+9999SA1+1781REMSYN054SDBC1 46/// ///// 1//// 40230 56007 90900 222// 00178=
0088994027999992018011210004+32713-117173FM-13+000299999V0209999C000019999999N999999999+99999+99999102291ADDMD1710051+9999SA1+1771REMSYN054SDBC1 46/// ///// 1//// 40229 57005 91000 222// 00177=
0088994027999992018011211004+32713-117173FM-13+000299999V0209999C000019999999N999999999+99999+99999102251ADDMD1810071+9999SA1+1771REMSYN054SDBC1 46/// ///// 1//// 40225 58007 91100 222// 00177=
0088994027999992018011212004+32713-117173FM-13+000299999V0209999C000019999999N999999999+99999+99999102231ADDMD1710071+9999SA1+1771REMSYN054SDBC1 46/// ///// 1//// 40223 57007 91200 222// 00177=
0088994027999992018011213004+32713-117173FM-13+000299999V0209999C000019999999N999999999+99999+99999102201ADDMD1610091+9999SA1+1771REMSYN054SDBC1 46/// ///// 1//// 40220 56009 91300 222// 00177=
0088994027999992018011214004+32713-117173FM-13+000299999V0209999C000019999999N999999999+99999+99999102231ADDMD1510001+9999SA1+1771REMSYN054SDBC1 46/// ///// 1//// 40223 55000 91400 222// 00177=
0088994027999992018011215004+32713-117173FM-13+000299999V0209999C000019999999N999999999+99999+99999102261ADDMD1310031+9999SA1+1771REMSYN054SDBC1 46/// ///// 1//// 40226 53003 91500 222// 00177=
0088994027999992018011216004+32713-117173FM-13+000299999V0209999C000019999999N999999999+99999+99999102271ADDMD1110071+9999SA1+1761REMSYN054SDBC1 46/// ///// 1//// 40227 51007 91600 222// 00176=
0088994027999992018011217004+32713-117173FM-13+000299999V0209999C000019999999N999999999+99999+99999102311ADDMD1310081+9999SA1+1761REMSYN054SDBC1 46/// ///// 1//// 40231 53008 91700 222// 00176=
0088994027999992018011218004+32713-117173FM-13+000299999V0209999C000019999999N999999999+99999+99999102331ADDMD1210071+9999SA1+1761REMSYN054SDBC1 46/// ///// 1//// 40233 52007 91800 222// 00176=
0088994027999992018011219004+32713-117173FM-13+000299999V0209999C000019999999N999999999+99999+99999102231ADDMD1810041+9999SA1+1761REMSYN054SDBC1 46/// ///// 1//// 40223 58004 91900 222// 00176=
0088994027999992018011220004+32713-117173FM-13+000299999V0209999C000019999999N999999999+99999+99999102091ADDMD1810221+9999SA1+1771REMSYN054SDBC1 46/// ///// 1//// 40209 58022 92000 222// 00177=
0088994027999992018011221004+32713-117173FM-13+000299999V0209999C000019999999N999999999+99999+99999101971ADDMD1810361+9999SA1+1791REMSYN054SDBC1 46/// ///// 1//// 40197 58036 92100 222// 00179=
0088994027999992018011222004+32713-117173FM-13+000299999V0209999C000019999999N999999999+99999+99999101931ADDMD1610301+9999SA1+1801REMSYN054SDBC1 46/// ///// 1//// 40193 56030 92200 222// 00180=
0088994027999992018011223004+32713-117173FM-13+000299999V0209999C000019999999N999999999+99999+99999101931ADDMD1610161+9999SA1+1811REMSYN054SDBC1 46/// ///// 1//// 40193 56016 92300 222// 00181=
0088994027999992018011300004+32713-117173FM-13+000299999V0209999C000019999999N999999999+99999+99999101931ADDMD1610041+9999SA1+1811REMSYN054SDBC1 46/// ///// 1//// 40193 56004 90000 222// 00181=
0088994027999992018011301004+32713-117173FM-13+000299999V0209999C000019999999N999999999+99999+99999101891ADDMD1810041+9999SA1+1801REMSYN054SDBC1 46/// ///// 1//// 40189 58004 90100 222// 00180=
0088994027999992018011302004+32713-117173FM-13+000299999V0209999C000019999999N999999999+99999+99999101941ADDMD1510001+9999SA1+1791REMSYN054SDBC1 46/// ///// 1//// 40194 55000 90200 222// 00179=
0088994027999992018011303004+32713-117173FM-13+000299999V0209999C000019999999N999999999+99999+99999101941ADDMD1510001+9999SA1+1781REMSYN054SDBC1 46/// ///// 1//// 40194 55000 90300 222// 00178=
0088994027999992018011304004+32713-117173FM-13+000299999V0209999C000019999999N999999999+99999+99999102001ADDMD1310111+9999SA1+1781REMSYN054SDBC1 46/// ///// 1//// 40200 53011 90400 222// 00178=
0088994027999992018011305004+32713-117173FM-13+000299999V0209999C000019999999N999999999+99999+99999102021ADDMD1210081+9999SA1+1781REMSYN054SDBC1 46/// ///// 1//// 40202 52008 90500 222// 00178=
0088994027999992018011306004+32713-117173FM-13+000299999V0209999C000019999999N999999999+99999+99999102021ADDMD1110081+9999SA1+1781REMSYN054SDBC1 46/// ///// 1//// 40202 51008 90600 222// 00178=
0088994027999992018011307004+32713-117173FM-13+000299999V0209999C000019999999N999999999+99999+99999101991ADDMD1990001+9999SA1+1791REMSYN054SDBC1 46/// ///// 1//// 40199 50000 90700 222// 00179=
0088994027999992018011308004+32713-117173FM-13+000299999V0209999C000019999999N999999999+99999+99999101971ADDMD1710051+9999SA1+1781REMSYN054SDBC1 46/// ///// 1//// 40197 57005 90800 222// 00178=
0088994027999992018011309004+32713-117173FM-13+000299999V0209999C000019999999N999999999+99999+99999101971ADDMD1610051+9999SA1+1781REMSYN054SDBC1 46/// ///// 1//// 40197 56005 90900 222// 00178=
0088994027999992018011310004+32713-117173FM-13+000299999V0209999C000019999999N999999999+99999+99999101971ADDMD1410001+9999SA1+1781REMSYN054SDBC1 46/// ///// 1//// 40197 54000 91000 222// 00178=
0088994027999992018011311004+32713-117173FM-13+000299999V0209999C000019999999N999999999+99999+99999101941ADDMD1810031+9999SA1+1781REMSYN054SDBC1 46/// ///// 1//// 40194 58003 91100 222// 00178=
0088994027999992018011312004+32713-117173FM-13+000299999V0209999C000019999999N999999999+99999+99999101891ADDMD1810081+9999SA1+1781REMSYN054SDBC1 46/// ///// 1//// 40189 58008 91200 222// 00178=
0088994027999992018011313004+32713-117173FM-13+000299999V0209999C000019999999N999999999+99999+99999101921ADDMD1510051+9999SA1+1781REMSYN054SDBC1 46/// ///// 1//// 40192 55005 91300 222// 00178=
0088994027999992018011314004+32713-117173FM-13+000299999V0209999C000019999999N999999999+99999+99999101941ADDMD1510001+9999SA1+1771REMSYN054SDBC1 46/// ///// 1//// 40194 55000 91400 222// 00177=
0088994027999992018011315004+32713-117173FM-13+000299999V0209999C000019999999N999999999+99999+99999101981ADDMD1310091+9999SA1+1771REMSYN054SDBC1 46/// ///// 1//// 40198 53009 91500 222// 00177=
0088994027999992018011316004+32713-117173FM-13+000299999V0209999C000019999999N999999999+99999+99999102001ADDMD1210081+9999SA1+1771REMSYN054SDBC1 46/// ///// 1//// 40200 52008 91600 222// 00177=
0088994027999992018011317004+32713-117173FM-13+000299999V0209999C000019999999N999999999+99999+99999102071ADDMD1310131+9999SA1+1771REMSYN054SDBC1 46/// ///// 1//// 40207 53013 91700 222// 00177=
0088994027999992018011318004+32713-117173FM-13+000299999V0209999C000019999999N999999999+99999+99999102071ADDMD1210091+9999SA1+1771REMSYN054SDBC1 46/// ///// 1//// 40207 52009 91800 222// 00177=
0088994027999992018011319004+32713-117173FM-13+000299999V0209999C000019999999N999999999+99999+99999102021ADDMD1990001+9999SA1+1771REMSYN054SDBC1 46/// ///// 1//// 40202 50000 91900 222// 00177=
0088994027999992018011320004+32713-117173FM-13+000299999V0209999C000019999999N999999999+99999+99999101911ADDMD1810161+9999SA1+1771REMSYN054SDBC1 46/// ///// 1//// 40191 58016 92000 222// 00177=
0088994027999992018011321004+32713-117173FM-13+000299999V0209999C000019999999N999999999+99999+99999101841ADDMD1810231+9999SA1+1771REMSYN054SDBC1 46/// ///// 1//// 40184 58023 92100 222// 00177=
0088994027999992018011322004+32713-117173FM-13+000299999V0209999C000019999999N999999999+99999+99999101801ADDMD1610221+9999SA1+1791REMSYN054SDBC1 46/// ///// 1//// 40180 56022 92200 222// 00179=
0088994027999992018011323004+32713-117173FM-13+000299999V0209999C000019999999N999999999+99999+99999101771ADDMD1610141+9999SA1+1801REMSYN054SDBC1 46/// ///// 1//// 40177 56014 92300 222// 00180=
0088994027999992018011400004+32713-117173FM-13+000299999V0209999C000019999999N999999999+99999+99999101771ADDMD1610071+9999SA1+1801REMSYN054SDBC1 46/// ///// 1//// 40177 56007 90000 222// 00180=
0088994027999992018011401004+32713-117173FM-13+000299999V0209999C000019999999N999999999+99999+99999101811ADDMD1510001+9999SA1+1801REMSYN054SDBC1 46/// ///// 1//// 40181 55000 90100 222// 00180=
0088994027999992018011402004+32713-117173FM-13+000299999V0209999C000019999999N999999999+99999+99999101851ADDMD1310081+9999SA1+1801REMSYN054SDBC1 46/// ///// 1//// 40185 53008 90200 222// 00180=
0088994027999992018011403004+32713-117173FM-13+000299999V0209999C000019999999N999999999+99999+99999101881ADDMD1110111+9999SA1+1791REMSYN054SDBC1 46/// ///// 1//// 40188 51011 90300 222// 00179=
0088994027999992018011404004+32713-117173FM-13+000299999V0209999C000019999999N999999999+99999+99999101911ADDMD1110101+9999SA1+1791REMSYN054SDBC1 46/// ///// 1//// 40191 51010 90400 222// 00179=
0088994027999992018011405004+32713-117173FM-13+000299999V0209999C000019999999N999999999+99999+99999101961ADDMD1310111+9999SA1+1791REMSYN054SDBC1 46/// ///// 1//// 40196 53011 90500 222// 00179=
0088994027999992018011406004+32713-117173FM-13+000299999V0209999C000019999999N999999999+99999+99999101991ADDMD1210111+9999SA1+1791REMSYN054SDBC1 46/// ///// 1//// 40199 52011 90600 222// 00179=
0088994027999992018011407004+32713-117173FM-13+000299999V0209999C000019999999N999999999+99999+99999102001ADDMD1110091+9999SA1+1791REMSYN054SDBC1 46/// ///// 1//// 40200 51009 90700 222// 00179=
0088994027999992018011408004+32713-117173FM-13+000299999V0209999C000019999999N999999999+99999+99999101961ADDMD1990001+9999SA1+1791REMSYN054SDBC1 46/// ///// 1//// 40196 50000 90800 222// 00179=
0088994027999992018011409004+32713-117173FM-13+000299999V0209999C000019999999N999999999+99999+99999101941ADDMD1710051+9999SA1+1791REMSYN054SDBC1 46/// ///// 1//// 40194 57005 90900 222// 00179=
0088994027999992018011410004+32713-117173FM-13+000299999V0209999C000019999999N999999999+99999+99999101961ADDMD1610041+9999SA1+1791REMSYN054SDBC1 46/// ///// 1//// 40196 56004 91000 222// 00179=
0088994027999992018011411004+32713-117173FM-13+000299999V0209999C000019999999N999999999+99999+99999101981ADDMD1410001+9999SA1+1781REMSYN054SDBC1 46/// ///// 1//// 40198 54000 91100 222// 00178=
0088994027999992018011412004+32713-117173FM-13+000299999V0209999C000019999999N999999999+99999+99999101941ADDMD1990001+9999SA1+1781REMSYN054SDBC1 46/// ///// 1//// 40194 50000 91200 222// 00178=
0088994027999992018011413004+32713-117173FM-13+000299999V0209999C000019999999N999999999+99999+99999101941ADDMD1410001+9999SA1+1781REMSYN054SDBC1 46/// ///// 1//// 40194 54000 91300 222// 00178=
0088994027999992018011414004+32713-117173FM-13+000299999V0209999C000019999999N999999999+99999+99999102001ADDMD1510001+9999SA1+1781REMSYN054SDBC1 46/// ///// 1//// 40200 55000 91400 222// 00178=
0088994027999992018011415004+32713-117173FM-13+000299999V0209999C000019999999N999999999+99999+99999102041ADDMD1310101+9999SA1+1781REMSYN054SDBC1 46/// ///// 1//// 40204 53010 91500 222// 00178=
0088994027999992018011416004+32713-117173FM-13+000299999V0209999C000019999999N999999999+99999+99999102061ADDMD1110121+9999SA1+1781REMSYN054SDBC1 46/// ///// 1//// 40206 51012 91600 222// 00178=
0088994027999992018011417004+32713-117173FM-13+000299999V0209999C000019999999N999999999+99999+99999102111ADDMD1310111+9999SA1+1771REMSYN054SDBC1 46/// ///// 1//// 40211 53011 91700 222// 00177=
0088994027999992018011418004+32713-117173FM-13+000299999V0209999C000019999999N999999999+99999+99999102131ADDMD1210091+9999SA1+1771REMSYN054SDBC1 46/// ///// 1//// 40213 52009 91800 222// 00177=
0088994027999992018011419004+32713-117173FM-13+000299999V0209999C000019999999N999999999+99999+99999102111ADDMD1110051+9999SA1+1771REMSYN054SDBC1 46/// ///// 1//// 40211 51005 91900 222// 00177=
0088994027999992018011420004+32713-117173FM-13+000299999V0209999C000019999999N999999999+99999+99999102001ADDMD1810111+9999SA1+1781REMSYN054SDBC1 46/// ///// 1//// 40200 58011 92000 222// 00178=
0088994027999992018011421004+32713-117173FM-13+000299999V0209999C000019999999N999999999+99999+99999101931ADDMD1810201+9999SA1+1781REMSYN054SDBC1 46/// ///// 1//// 40193 58020 92100 222// 00178=
0088994027999992018011422004+32713-117173FM-13+000299999V0209999C000019999999N999999999+99999+99999101901ADDMD1610211+9999SA1+1791REMSYN054SDBC1 46/// ///// 1//// 40190 56021 92200 222// 00179=
0088994027999992018011423004+32713-117173FM-13+000299999V0209999C000019999999N999999999+99999+99999101911ADDMD1610091+9999SA1+1801REMSYN054SDBC1 46/// ///// 1//// 40191 56009 92300 222// 00180=
0088994027999992018011500004+32713-117173FM-13+000299999V0209999C000019999999N999999999+99999+99999101931ADDMD1510001+9999SA1+1801REMSYN054SDBC1 46/// ///// 1//// 40193 55000 90000 222// 00180=
0088994027999992018011501004+32713-117173FM-13+000299999V0209999C000019999999N999999999+99999+99999101971ADDMD1310071+9999SA1+1801REMSYN054SDBC1 46/// ///// 1//// 40197 53007 90100 222// 00180=
0088994027999992018011502004+32713-117173FM-13+000299999V0209999C000019999999N999999999+99999+99999102091ADDMD1310181+9999SA1+1801REMSYN054SDBC1 46/// ///// 1//// 40209 53018 90200 222// 00180=
0088994027999992018011503004+32713-117173FM-13+000299999V0209999C000019999999N999999999+99999+99999102051ADDMD1990121+9999SA1+1791REMSYN054SDBC1 46/// ///// 1//// 40205 50012 90300 222// 00179=
0088994027999992018011504004+32713-117173FM-13+000299999V0209999C000019999999N999999999+99999+99999101941ADDMD1810031+9999SA1+1791REMSYN054SDBC1 46/// ///// 1//// 40194 58003 90400 222// 00179=
0088994027999992018011505004+32713-117173FM-13+000299999V0209999C000019999999N999999999+99999+99999101951ADDMD1610141+9999SA1+1791REMSYN054SDBC1 46/// ///// 1//// 40195 56014 90500 222// 00179=
0088994027999992018011506004+32713-117173FM-13+000299999V0209999C000019999999N999999999+99999+99999102011ADDMD1510041+9999SA1+1791REMSYN054SDBC1 46/// ///// 1//// 40201 55004 90600 222// 00179=
0088994027999992018011507004+32713-117173FM-13+000299999V0209999C000019999999N999999999+99999+99999102081ADDMD1310141+9999SA1+1791REMSYN054SDBC1 46/// ///// 1//// 40208 53014 90700 222// 00179=
0088994027999992018011508004+32713-117173FM-13+000299999V0209999C000019999999N999999999+99999+99999102061ADDMD1110111+9999SA1+1791REMSYN054SDBC1 46/// ///// 1//// 40206 51011 90800 222// 00179=
0088994027999992018011509004+32713-117173FM-13+000299999V0209999C000019999999N999999999+99999+99999102011ADDMD1990001+9999SA1+1791REMSYN054SDBC1 46/// ///// 1//// 40201 50000 90900 222// 00179=
0088994027999992018011510004+32713-117173FM-13+000299999V0209999C000019999999N999999999+99999+99999102001ADDMD1710081+9999SA1+1791REMSYN054SDBC1 46/// ///// 1//// 40200 57008 91000 222// 00179=
0088994027999992018011511004+32713-117173FM-13+000299999V0209999C000019999999N999999999+99999+99999101971ADDMD1610091+9999SA1+1781REMSYN054SDBC1 46/// ///// 1//// 40197 56009 91100 222// 00178=
0088994027999992018011512004+32713-117173FM-13+000299999V0209999C000019999999N999999999+99999+99999101961ADDMD1710051+9999SA1+1781REMSYN054SDBC1 46/// ///// 1//// 40196 57005 91200 222// 00178=
0088994027999992018011513004+32713-117173FM-13+000299999V0209999C000019999999N999999999+99999+99999101931ADDMD1710071+9999SA1+1781REMSYN054SDBC1 46/// ///// 1//// 40193 57007 91300 222// 00178=
0088994027999992018011514004+32713-117173FM-13+000299999V0209999C000019999999N999999999+99999+99999101951ADDMD1410001+9999SA1+1781REMSYN054SDBC1 46/// ///// 1//// 40195 54000 91400 222// 00178=
0088994027999992018011515004+32713-117173FM-13+000299999V0209999C000019999999N999999999+99999+99999101961ADDMD1510001+9999SA1+1781REMSYN054SDBC1 46/// ///// 1//// 40196 55000 91500 222// 00178=
0088994027999992018011516004+32713-117173FM-13+000299999V0209999C000019999999N999999999+99999+99999102021ADDMD1310091+9999SA1+1781REMSYN054SDBC1 46/// ///// 1//// 40202 53009 91600 222// 00178=
0088994027999992018011517004+32713-117173FM-13+000299999V0209999C000019999999N999999999+99999+99999102071ADDMD1310121+9999SA1+1771REMSYN054SDBC1 46/// ///// 1//// 40207 53012 91700 222// 00177=
0088994027999992018011518004+32713-117173FM-13+000299999V0209999C000019999999N999999999+99999+99999102131ADDMD1210171+9999SA1+1771REMSYN054SDBC1 46/// ///// 1//// 40213 52017 91800 222// 00177=
0088994027999992018011519004+32713-117173FM-13+000299999V0209999C000019999999N999999999+99999+99999102051ADDMD1990031+9999SA1+1771REMSYN054SDBC1 46/// ///// 1//// 40205 50003 91900 222// 00177=
0088994027999992018011520004+32713-117173FM-13+000299999V0209999C000019999999N999999999+99999+99999101981ADDMD1810091+9999SA1+1781REMSYN054SDBC1 46/// ///// 1//// 40198 58009 92000 222// 00178=
0088994027999992018011521004+32713-117173FM-13+000299999V0209999C000019999999N999999999+99999+99999101911ADDMD1610221+9999SA1+1791REMSYN054SDBC1 46/// ///// 1//// 40191 56022 92100 222// 00179=
0088994027999992018011522004+32713-117173FM-13+000299999V0209999C000019999999N999999999+99999+99999101901ADDMD1610151+9999SA1+1811REMSYN054SDBC1 46/// ///// 1//// 40190 56015 92200 222// 00181=
0088994027999992018011523004+32713-117173FM-13+000299999V0209999C000019999999N999999999+99999+99999101891ADDMD1610091+9999SA1+1821REMSYN054SDBC1 46/// ///// 1//// 40189 56009 92300 222// 00182=
0088994027999992018011600004+32713-117173FM-13+000299999V0209999C000019999999N999999999+99999+99999101901ADDMD1410001+9999SA1+1821REMSYN054SDBC1 46/// ///// 1//// 40190 54000 90000 222// 00182=
0088994027999992018011601004+32713-117173FM-13+000299999V0209999C000019999999N999999999+99999+99999101981ADDMD1310081+9999SA1+1811REMSYN054SDBC1 46/// ///// 1//// 40198 53008 90100 222// 00181=
0088994027999992018011602004+32713-117173FM-13+000299999V0209999C000019999999N999999999+99999+99999102001ADDMD1210111+9999SA1+1811REMSYN054SDBC1 46/// ///// 1//// 40200 52011 90200 222// 00181=
0088994027999992018011603004+32713-117173FM-13+000299999V0209999C000019999999N999999999+99999+99999101911ADDMD1990001+9999SA1+1801REMSYN054SDBC1 46/// ///// 1//// 40191 50000 90300 222// 00180=
0088994027999992018011604004+32713-117173FM-13+000299999V0209999C000019999999N999999999+99999+99999101881ADDMD1810101+9999SA1+1791REMSYN054SDBC1 46/// ///// 1//// 40188 58010 90400 222// 00179=
0088994027999992018011605004+32713-117173FM-13+000299999V0209999C000019999999N999999999+99999+99999101901ADDMD1610101+9999SA1+1791REMSYN054SDBC1 46/// ///// 1//// 40190 56010 90500 222// 00179=
0088994027999992018011606004+32713-117173FM-13+000299999V0209999C000019999999N999999999+99999+99999102011ADDMD1310101+9999SA1+1791REMSYN054SDBC1 46/// ///// 1//// 40201 53010 90600 222// 00179=
0088994027999992018011607004+32713-117173FM-13+000299999V0209999C000019999999N999999999+99999+99999102051ADDMD1310171+9999SA1+1791REMSYN054SDBC1 46/// ///// 1//// 40205 53017 90700 222// 00179=
0088994027999992018011608004+32713-117173FM-13+000299999V0209999C000019999999N999999999+99999+99999102041ADDMD1110141+9999SA1+1791REMSYN054SDBC1 46/// ///// 1//// 40204 51014 90800 222// 00179=
0088994027999992018011609004+32713-117173FM-13+000299999V0209999C000019999999N999999999+99999+99999102091ADDMD1310081+9999SA1+1791REMSYN054SDBC1 46/// ///// 1//// 40209 53008 90900 222// 00179=
0088994027999992018011610004+32713-117173FM-13+000299999V0209999C000019999999N999999999+99999+99999102081ADDMD1210031+9999SA1+1791REMSYN054SDBC1 46/// ///// 1//// 40208 52003 91000 222// 00179=
0088994027999992018011611004+32713-117173FM-13+000299999V0209999C000019999999N999999999+99999+99999102041ADDMD1990001+9999SA1+1791REMSYN054SDBC1 46/// ///// 1//// 40204 50000 91100 222// 00179=
0088994027999992018011612004+32713-117173FM-13+000299999V0209999C000019999999N999999999+99999+99999102021ADDMD1710071+9999SA1+1791REMSYN054SDBC1 46/// ///// 1//// 40202 57007 91200 222// 00179=
0088994027999992018011613004+32713-117173FM-13+000299999V0209999C000019999999N999999999+99999+99999101981ADDMD1710101+9999SA1+1791REMSYN054SDBC1 46/// ///// 1//// 40198 57010 91300 222// 00179=
0088994027999992018011614004+32713-117173FM-13+000299999V0209999C000019999999N999999999+99999+99999102031ADDMD1510001+9999SA1+1781REMSYN054SDBC1 46/// ///// 1//// 40203 55000 91400 222// 00178=
0088994027999992018011615004+32713-117173FM-13+000299999V0209999C000019999999N999999999+99999+99999102071ADDMD1310051+9999SA1+1781REMSYN054SDBC1 46/// ///// 1//// 40207 53005 91500 222// 00178=
0088994027999992018011616004+32713-117173FM-13+000299999V0209999C000019999999N999999999+99999+99999102141ADDMD1310161+9999SA1+1781REMSYN054SDBC1 46/// ///// 1//// 40214 53016 91600 222// 00178=
0088994027999992018011617004+32713-117173FM-13+000299999V0209999C000019999999N999999999+99999+99999102191ADDMD1310161+9999SA1+1781REMSYN054SDBC1 46/// ///// 1//// 40219 53016 91700 222// 00178=
0088994027999992018011618004+32713-117173FM-13+000299999V0209999C000019999999N999999999+99999+99999102141ADDMD1990071+9999SA1+1781REMSYN054SDBC1 46/// ///// 1//// 40214 50007 91800 222// 00178=
0088994027999992018011619004+32713-117173FM-13+000299999V0209999C000019999999N999999999+99999+99999102161ADDMD1990001+9999SA1+1781REMSYN054SDBC1 46/// ///// 1//// 40216 50000 91900 222// 00178=
0088994027999992018011620004+32713-117173FM-13+000299999V0209999C000019999999N999999999+99999+99999102071ADDMD1810121+9999SA1+1781REMSYN054SDBC1 46/// ///// 1//// 40207 58012 92000 222// 00178=
0088994027999992018011621004+32713-117173FM-13+000299999V0209999C000019999999N999999999+99999+99999102061ADDMD1710081+9999SA1+1791REMSYN054SDBC1 46/// ///// 1//// 40206 57008 92100 222// 00179=
0088994027999992018011622004+32713-117173FM-13+000299999V0209999C000019999999N999999999+99999+99999102031ADDMD1610131+9999SA1+1801REMSYN054SDBC1 46/// ///// 1//// 40203 56013 92200 222// 00180=
0088994027999992018011623004+32713-117173FM-13+000299999V0209999C000019999999N999999999+99999+99999102011ADDMD1710061+9999SA1+1811REMSYN054SDBC1 46/// ///// 1//// 40201 57006 92300 222// 00181=
0088994027999992018011700004+32713-117173FM-13+000299999V0209999C000019999999N999999999+99999+99999101971ADDMD1810091+9999SA1+1821REMSYN054SDBC1 46/// ///// 1//// 40197 58009 90000 222// 00182=
0088994027999992018011701004+32713-117173FM-13+000299999V0209999C000019999999N999999999+99999+99999101951ADDMD1710081+9999SA1+1821REMSYN054SDBC1 46/// ///// 1//// 40195 57008 90100 222// 00182=
0088994027999992018011702004+32713-117173FM-13+000299999V0209999C000019999999N999999999+99999+99999102001ADDMD1510001+9999SA1+1811REMSYN054SDBC1 46/// ///// 1//// 40200 55000 90200 222// 00181=
0088994027999992018011703004+32713-117173FM-13+000299999V0209999C000019999999N999999999+99999+99999102051ADDMD1310081+9999SA1+1811REMSYN054SDBC1 46/// ///// 1//// 40205 53008 90300 222// 00181=
0088994027999992018011704004+32713-117173FM-13+000299999V0209999C000019999999N999999999+99999+99999102091ADDMD1110141+9999SA1+1801REMSYN054SDBC1 46/// ///// 1//// 40209 51014 90400 222// 00180=
0088994027999992018011705004+32713-117173FM-13+000299999V0209999C000019999999N999999999+99999+99999102111ADDMD1110111+9999SA1+1801REMSYN054SDBC1 46/// ///// 1//// 40211 51011 90500 222// 00180=
0088994027999992018011706004+32713-117173FM-13+000299999V0209999C000019999999N999999999+99999+99999102131ADDMD1110081+9999SA1+1791REMSYN054SDBC1 46/// ///// 1//// 40213 51008 90600 222// 00179=
0088994027999992018011707004+32713-117173FM-13+000299999V0209999C000019999999N999999999+99999+99999102111ADDMD1410001+9999SA1+1791REMSYN054SDBC1 46/// ///// 1//// 40211 54000 90700 222// 00179=
0088994027999992018011708004+32713-117173FM-13+000299999V0209999C000019999999N999999999+99999+99999102061ADDMD1810051+9999SA1+1791REMSYN054SDBC1 46/// ///// 1//// 40206 58005 90800 222// 00179=
0088994027999992018011709004+32713-117173FM-13+000299999V0209999C000019999999N999999999+99999+99999102061ADDMD1710071+9999SA1+1791REMSYN054SDBC1 46/// ///// 1//// 40206 57007 90900 222// 00179=
0088994027999992018011710004+32713-117173FM-13+000299999V0209999C000019999999N999999999+99999+99999102061ADDMD1610051+9999SA1+1791REMSYN054SDBC1 46/// ///// 1//// 40206 56005 91000 222// 00179=
0088994027999992018011711004+32713-117173FM-13+000299999V0209999C000019999999N999999999+99999+99999102041ADDMD1410001+9999SA1+1791REMSYN054SDBC1 46/// ///// 1//// 40204 54000 91100 222// 00179=
0088994027999992018011712004+32713-117173FM-13+000299999V0209999C000019999999N999999999+99999+99999102021ADDMD1710041+9999SA1+1791REMSYN054SDBC1 46/// ///// 1//// 40202 57004 91200 222// 00179=
0088994027999992018011713004+32713-117173FM-13+000299999V0209999C000019999999N999999999+99999+99999102041ADDMD1410001+9999SA1+1791REMSYN054SDBC1 46/// ///// 1//// 40204 54000 91300 222// 00179=
0088994027999992018011714004+32713-117173FM-13+000299999V0209999C000019999999N999999999+99999+99999102071ADDMD1310031+9999SA1+1791REMSYN054SDBC1 46/// ///// 1//// 40207 53003 91400 222// 00179=
0088994027999992018011715004+32713-117173FM-13+000299999V0209999C000019999999N999999999+99999+99999102121ADDMD1310101+9999SA1+1791REMSYN054SDBC1 46/// ///// 1//// 40212 53010 91500 222// 00179=
0088994027999992018011716004+32713-117173FM-13+000299999V0209999C000019999999N999999999+99999+99999102181ADDMD1310141+9999SA1+1791REMSYN054SDBC1 46/// ///// 1//// 40218 53014 91600 222// 00179=
0088994027999992018011717004+32713-117173FM-13+000299999V0209999C000019999999N999999999+99999+99999102261ADDMD1310191+9999SA1+1781REMSYN054SDBC1 46/// ///// 1//// 40226 53019 91700 222// 00178=
0088994027999992018011718004+32713-117173FM-13+000299999V0209999C000019999999N999999999+99999+99999102231ADDMD1990111+9999SA1+1781REMSYN054SDBC1 46/// ///// 1//// 40223 50011 91800 222// 00178=
0088994027999992018011719004+32713-117173FM-13+000299999V0209999C000019999999N999999999+99999+99999102161ADDMD1990001+9999SA1+1781REMSYN054SDBC1 46/// ///// 1//// 40216 50000 91900 222// 00178=
0088994027999992018011720004+32713-117173FM-13+000299999V0209999C000019999999N999999999+99999+99999102071ADDMD1810191+9999SA1+1781REMSYN054SDBC1 46/// ///// 1//// 40207 58019 92000 222// 00178=
0088994027999992018011721004+32713-117173FM-13+000299999V0209999C000019999999N999999999+99999+99999101991ADDMD1810241+9999SA1+1791REMSYN054SDBC1 46/// ///// 1//// 40199 58024 92100 222// 00179=
0088994027999992018011722004+32713-117173FM-13+000299999V0209999C000019999999N999999999+99999+99999101961ADDMD1610201+9999SA1+1801REMSYN054SDBC1 46/// ///// 1//// 40196 56020 92200 222// 00180=
0088994027999992018011723004+32713-117173FM-13+000299999V0209999C000019999999N999999999+99999+99999101971ADDMD1610101+9999SA1+1811REMSYN054SDBC1 46/// ///// 1//// 40197 56010 92300 222// 00181=
0088994027999992018011800004+32713-117173FM-13+000299999V0209999C000019999999N999999999+99999+99999101991ADDMD1510001+9999SA1+1821REMSYN054SDBC1 46/// ///// 1//// 40199 55000 90000 222// 00182=
0088994027999992018011801004+32713-117173FM-13+000299999V0209999C000019999999N999999999+99999+99999101991ADDMD1210031+9999SA1+1821REMSYN054SDBC1 46/// ///// 1//// 40199 52003 90100 222// 00182=
0088994027999992018011802004+32713-117173FM-13+000299999V0209999C000019999999N999999999+99999+99999102021ADDMD1310051+9999SA1+1821REMSYN054SDBC1 46/// ///// 1//// 40202 53005 90200 222// 00182=
0088994027999992018011803004+32713-117173FM-13+000299999V0209999C000019999999N999999999+99999+99999102011ADDMD1410001+9999SA1+1811REMSYN054SDBC1 46/// ///// 1//// 40201 54000 90300 222// 00181=
0088994027999992018011804004+32713-117173FM-13+000299999V0209999C000019999999N999999999+99999+99999101991ADDMD1990001+9999SA1+1801REMSYN054SDBC1 46/// ///// 1//// 40199 50000 90400 222// 00180=
0088994027999992018011805004+32713-117173FM-13+000299999V0209999C000019999999N999999999+99999+99999101991ADDMD1710031+9999SA1+1801REMSYN054SDBC1 46/// ///// 1//// 40199 57003 90500 222// 00180=
0088994027999992018011806004+32713-117173FM-13+000299999V0209999C000019999999N999999999+99999+99999102001ADDMD1410001+9999SA1+1801REMSYN054SDBC1 46/// ///// 1//// 40200 54000 90600 222// 00180=
0088994027999992018011807004+32713-117173FM-13+000299999V0209999C000019999999N999999999+99999+99999101961ADDMD1810031+9999SA1+1801REMSYN054SDBC1 46/// ///// 1//// 40196 58003 90700 222// 00180=
0088994027999992018011808004+32713-117173FM-13+000299999V0209999C000019999999N999999999+99999+99999101961ADDMD1710031+9999SA1+1801REMSYN054SDBC1 46/// ///// 1//// 40196 57003 90800 222// 00180=
0088994027999992018011809004+32713-117173FM-13+000299999V0209999C000019999999N999999999+99999+99999101941ADDMD1610061+9999SA1+1801REMSYN054SDBC1 46/// ///// 1//// 40194 56006 90900 222// 00180=
0088994027999992018011810004+32713-117173FM-13+000299999V0209999C000019999999N999999999+99999+99999101921ADDMD1710041+9999SA1+1801REMSYN054SDBC1 46/// ///// 1//// 40192 57004 91000 222// 00180=
0088994027999992018011811004+32713-117173FM-13+000299999V0209999C000019999999N999999999+99999+99999101891ADDMD1810071+9999SA1+1801REMSYN054SDBC1 46/// ///// 1//// 40189 58007 91100 222// 00180=
0088994027999992018011812004+32713-117173FM-13+000299999V0209999C000019999999N999999999+99999+99999101871ADDMD1710071+9999SA1+1791REMSYN054SDBC1 46/// ///// 1//// 40187 57007 91200 222// 00179=
0068994027999992018011813004+32713-117173FM-13+000299999V0209999C000019999999N999999999+99999+99999101881ADDSA1+1791REMSYN048SDBC1 46/// ///// 1//// 40188 91236 222// 00179=
0068994027999992018011814004+32713-117173FM-13+000299999V0209999C000019999999N999999999+99999+99999101931ADDSA1+1791REMSYN048SDBC1 46/// ///// 1//// 40193 91336 222// 00179=
0088994027999992018011815004+32713-117173FM-13+000299999V0209999C000019999999N999999999+99999+99999101971ADDMD1310101+9999SA1+1791REMSYN054SDBC1 46/// ///// 1//// 40197 53010 91500 222// 00179=
0088994027999992018011816004+32713-117173FM-13+000299999V0209999C000019999999N999999999+99999+99999102041ADDMD1310141+9999SA1+1791REMSYN054SDBC1 46/// ///// 1//// 40204 53014 91600 222// 00179=
0088994027999992018011817004+32713-117173FM-13+000299999V0209999C000019999999N999999999+99999+99999102151ADDMD1310221+9999SA1+1791REMSYN054SDBC1 46/// ///// 1//// 40215 53022 91700 222// 00179=
0088994027999992018011818004+32713-117173FM-13+000299999V0209999C000019999999N999999999+99999+99999102151ADDMD1110181+9999SA1+1791REMSYN054SDBC1 46/// ///// 1//// 40215 51018 91800 222// 00179=
0088994027999992018011819004+32713-117173FM-13+000299999V0209999C000019999999N999999999+99999+99999102011ADDMD1810031+9999SA1+1791REMSYN054SDBC1 46/// ///// 1//// 40201 58003 91900 222// 00179=
0068994027999992018011820004+32713-117173FM-13+000299999V0209999C000019999999N999999999+99999+99999101911ADDSA1+1791REMSYN048SDBC1 46/// ///// 1//// 40191 91942 222// 00179=
0088994027999992018011821004+32713-117173FM-13+000299999V0209999C000019999999N999999999+99999+99999101791ADDMD1610361+9999SA1+1791REMSYN054SDBC1 46/// ///// 1//// 40179 56036 92100 222// 00179=
0088994027999992018011822004+32713-117173FM-13+000299999V0209999C000019999999N999999999+99999+99999101761ADDMD1610251+9999SA1+1791REMSYN054SDBC1 46/// ///// 1//// 40176 56025 92200 222// 00179=
0088994027999992018011823004+32713-117173FM-13+000299999V0209999C000019999999N999999999+99999+99999101821ADDMD1510051+9999SA1+1811REMSYN054SDBC1 46/// ///// 1//// 40182 55005 92300 222// 00181=
0068994027999992018011900004+32713-117173FM-13+000299999V0209999C000019999999N999999999+99999+99999101851ADDSA1+1831REMSYN048SDBC1 46/// ///// 1//// 40185 92336 222// 00183=
0088994027999992018011901004+32713-117173FM-13+000299999V0209999C000019999999N999999999+99999+99999101781ADDMD1990001+9999SA1+1831REMSYN054SDBC1 46/// ///// 1//// 40178 50000 90100 222// 00183=
0088994027999992018011902004+32713-117173FM-13+000299999V0209999C000019999999N999999999+99999+99999101771ADDMD1810051+9999SA1+1821REMSYN054SDBC1 46/// ///// 1//// 40177 58005 90200 222// 00182=
0088994027999992018011903004+32713-117173FM-13+000299999V0209999C000019999999N999999999+99999+99999101781ADDMD1610081+9999SA1+1811REMSYN054SDBC1 46/// ///// 1//// 40178 56008 90300 222// 00181=
0088994027999992018011904004+32713-117173FM-13+000299999V0209999C000019999999N999999999+99999+99999101781ADDMD1410001+9999SA1+1811REMSYN054SDBC1 46/// ///// 1//// 40178 54000 90400 222// 00181=
0088994027999992018011905004+32713-117173FM-13+000299999V0209999C000019999999N999999999+99999+99999101791ADDMD1410001+9999SA1+1801REMSYN054SDBC1 46/// ///// 1//// 40179 54000 90500 222// 00180=
0088994027999992018011906004+32713-117173FM-13+000299999V0209999C000019999999N999999999+99999+99999101801ADDMD1410001+9999SA1+1801REMSYN054SDBC1 46/// ///// 1//// 40180 54000 90600 222// 00180=
0088994027999992018011907004+32713-117173FM-13+000299999V0209999C000019999999N999999999+99999+99999101821ADDMD1210041+9999SA1+1801REMSYN054SDBC1 46/// ///// 1//// 40182 52004 90700 222// 00180=
0088994027999992018011908004+32713-117173FM-13+000299999V0209999C000019999999N999999999+99999+99999101831ADDMD1210041+9999SA1+1801REMSYN054SDBC1 46/// ///// 1//// 40183 52004 90800 222// 00180=
0088994027999992018011909004+32713-117173FM-13+000299999V0209999C000019999999N999999999+99999+99999101791ADDMD1990001+9999SA1+1801REMSYN054SDBC1 46/// ///// 1//// 40179 50000 90900 222// 00180=
0088994027999992018011910004+32713-117173FM-13+000299999V0209999C000019999999N999999999+99999+99999101771ADDMD1710051+9999SA1+1801REMSYN054SDBC1 46/// ///// 1//// 40177 57005 91000 222// 00180=
0088994027999992018011911004+32713-117173FM-13+000299999V0209999C000019999999N999999999+99999+99999101751ADDMD1610081+9999SA1+1801REMSYN054SDBC1 46/// ///// 1//// 40175 56008 91100 222// 00180=
0088994027999992018011912004+32713-117173FM-13+000299999V0209999C000019999999N999999999+99999+99999101761ADDMD1710031+9999SA1+1801REMSYN054SDBC1 46/// ///// 1//// 40176 57003 91200 222// 00180=
0088994027999992018011913004+32713-117173FM-13+000299999V0209999C000019999999N999999999+99999+99999101741ADDMD1710031+9999SA1+1801REMSYN054SDBC1 46/// ///// 1//// 40174 57003 91300 222// 00180=
0088994027999992018011914004+32713-117173FM-13+000299999V0209999C000019999999N999999999+99999+99999101721ADDMD1710031+9999SA1+1801REMSYN054SDBC1 46/// ///// 1//// 40172 57003 91400 222// 00180=
0088994027999992018011915004+32713-117173FM-13+000299999V0209999C000019999999N999999999+99999+99999101721ADDMD1710041+9999SA1+1791REMSYN054SDBC1 46/// ///// 1//// 40172 57004 91500 222// 00179=
0068994027999992018011916004+32713-117173FM-13+000299999V0209999C000019999999N999999999+99999+99999101741ADDSA1+1791REMSYN048SDBC1 46/// ///// 1//// 40174 91536 222// 00179=
0088994027999992018011917004+32713-117173FM-13+000299999V0209999C000019999999N999999999+99999+99999101821ADDMD1310101+9999SA1+1791REMSYN054SDBC1 46/// ///// 1//// 40182 53010 91700 222// 00179=
0088994027999992018011918004+32713-117173FM-13+000299999V0209999C000019999999N999999999+99999+99999101831ADDMD1110111+9999SA1+1791REMSYN054SDBC1 46/// ///// 1//// 40183 51011 91800 222// 00179=
0088994027999992018011919004+32713-117173FM-13+000299999V0209999C000019999999N999999999+99999+99999101781ADDMD1990001+9999SA1+1791REMSYN054SDBC1 46/// ///// 1//// 40178 50000 91900 222// 00179=
0088994027999992018011920004+32713-117173FM-13+000299999V0209999C000019999999N999999999+99999+99999101661ADDMD1810161+9999SA1+1791REMSYN054SDBC1 46/// ///// 1//// 40166 58016 92000 222// 00179=
0088994027999992018011921004+32713-117173FM-13+000299999V0209999C000019999999N999999999+99999+99999101551ADDMD1810281+9999SA1+1791REMSYN054SDBC1 46/// ///// 1//// 40155 58028 92100 222// 00179=
0088994027999992018011922004+32713-117173FM-13+000299999V0209999C000019999999N999999999+99999+99999101521ADDMD1610261+9999SA1+1791REMSYN054SDBC1 46/// ///// 1//// 40152 56026 92200 222// 00179=
0088994027999992018011923004+32713-117173FM-13+000299999V0209999C000019999999N999999999+99999+99999101491ADDMD1610171+9999SA1+1791REMSYN054SDBC1 46/// ///// 1//// 40149 56017 92300 222// 00179=
0088994027999992018012000004+32713-117173FM-13+000299999V0209999C000019999999N999999999+99999+99999101491ADDMD1610061+9999SA1+1801REMSYN054SDBC1 46/// ///// 1//// 40149 56006 90000 222// 00180=
0088994027999992018012001004+32713-117173FM-13+000299999V0209999C000019999999N999999999+99999+99999101471ADDMD1610051+9999SA1+1811REMSYN054SDBC1 46/// ///// 1//// 40147 56005 90100 222// 00181=
0088994027999992018012002004+32713-117173FM-13+000299999V0209999C000019999999N999999999+99999+99999101491ADDMD1410001+9999SA1+1801REMSYN054SDBC1 46/// ///// 1//// 40149 54000 90200 222// 00180=
0088994027999992018012003004+32713-117173FM-13+000299999V0209999C000019999999N999999999+99999+99999101531ADDMD1310041+9999SA1+1801REMSYN054SDBC1 46/// ///// 1//// 40153 53004 90300 222// 00180=
0088994027999992018012004004+32713-117173FM-13+000299999V0209999C000019999999N999999999+99999+99999101561ADDMD1310091+9999SA1+1801REMSYN054SDBC1 46/// ///// 1//// 40156 53009 90400 222// 00180=
0088994027999992018012005004+32713-117173FM-13+000299999V0209999C000019999999N999999999+99999+99999101601ADDMD1210111+9999SA1+1791REMSYN054SDBC1 46/// ///// 1//// 40160 52011 90500 222// 00179=
0088994027999992018012006004+32713-117173FM-13+000299999V0209999C000019999999N999999999+99999+99999101631ADDMD1210101+9999SA1+1791REMSYN054SDBC1 46/// ///// 1//// 40163 52010 90600 222// 00179=
0088994027999992018012007004+32713-117173FM-13+000299999V0209999C000019999999N999999999+99999+99999101631ADDMD1110071+9999SA1+1791REMSYN054SDBC1 46/// ///// 1//// 40163 51007 90700 222// 00179=
0088994027999992018012008004+32713-117173FM-13+000299999V0209999C000019999999N999999999+99999+99999101601ADDMD1990001+9999SA1+1781REMSYN054SDBC1 46/// ///// 1//// 40160 50000 90800 222// 00178=
0088994027999992018012009004+32713-117173FM-13+000299999V0209999C000019999999N999999999+99999+99999101591ADDMD1710041+9999SA1+1781REMSYN054SDBC1 46/// ///// 1//// 40159 57004 90900 222// 00178=
0088994027999992018012010004+32713-117173FM-13+000299999V0209999C000019999999N999999999+99999+99999101591ADDMD1610041+9999SA1+1781REMSYN054SDBC1 46/// ///// 1//// 40159 56004 91000 222// 00178=
0088994027999992018012011004+32713-117173FM-13+000299999V0209999C000019999999N999999999+99999+99999101571ADDMD1710031+9999SA1+1781REMSYN054SDBC1 46/// ///// 1//// 40157 57003 91100 222// 00178=
0088994027999992018012012004+32713-117173FM-13+000299999V0209999C000019999999N999999999+99999+99999101551ADDMD1710041+9999SA1+1781REMSYN054SDBC1 46/// ///// 1//// 40155 57004 91200 222// 00178=
0088994027999992018012013004+32713-117173FM-13+000299999V0209999C000019999999N999999999+99999+99999101561ADDMD1710031+9999SA1+1771REMSYN054SDBC1 46/// ///// 1//// 40156 57003 91300 222// 00177=
0088994027999992018012014004+32713-117173FM-13+000299999V0209999C000019999999N999999999+99999+99999101601ADDMD1310031+9999SA1+1771REMSYN054SDBC1 46/// ///// 1//// 40160 53003 91400 222// 00177=
0088994027999992018012015004+32713-117173FM-13+000299999V0209999C000019999999N999999999+99999+99999101671ADDMD1310121+9999SA1+1761REMSYN054SDBC1 46/// ///// 1//// 40167 53012 91500 222// 00176=
0088994027999992018012016004+32713-117173FM-13+000299999V0209999C000019999999N999999999+99999+99999101741ADDMD1310181+9999SA1+1761REMSYN054SDBC1 46/// ///// 1//// 40174 53018 91600 222// 00176=
0088994027999992018012017004+32713-117173FM-13+000299999V0209999C000019999999N999999999+99999+99999101811ADDMD1210211+9999SA1+1761REMSYN054SDBC1 46/// ///// 1//// 40181 52021 91700 222// 00176=
0088994027999992018012018004+32713-117173FM-13+000299999V0209999C000019999999N999999999+99999+99999101871ADDMD1110201+9999SA1+1761REMSYN054SDBC1 46/// ///// 1//// 40187 51020 91800 222// 00176=
0088994027999992018012019004+32713-117173FM-13+000299999V0209999C000019999999N999999999+99999+99999101871ADDMD1110131+9999SA1+1761REMSYN054SDBC1 46/// ///// 1//// 40187 51013 91900 222// 00176=
0088994027999992018012020004+32713-117173FM-13+000299999V0209999C000019999999N999999999+99999+99999101811ADDMD1990001+9999SA1+1761REMSYN054SDBC1 46/// ///// 1//// 40181 50000 92000 222// 00176=
0088994027999992018012021004+32713-117173FM-13+000299999V0209999C000019999999N999999999+99999+99999101791ADDMD1710081+9999SA1+1771REMSYN054SDBC1 46/// ///// 1//// 40179 57008 92100 222// 00177=
0088994027999992018012022004+32713-117173FM-13+000299999V0209999C000019999999N999999999+99999+99999101811ADDMD1610061+9999SA1+1771REMSYN054SDBC1 46/// ///// 1//// 40181 56006 92200 222// 00177=
0088994027999992018012023004+32713-117173FM-13+000299999V0209999C000019999999N999999999+99999+99999101841ADDMD1310031+9999SA1+1771REMSYN054SDBC1 46/// ///// 1//// 40184 53003 92300 222// 00177=
0088994027999992018012100004+32713-117173FM-13+000299999V0209999C000019999999N999999999+99999+99999101901ADDMD1310111+9999SA1+1771REMSYN054SDBC1 46/// ///// 1//// 40190 53011 90000 222// 00177=
0088994027999992018012101004+32713-117173FM-13+000299999V0209999C000019999999N999999999+99999+99999101941ADDMD1310131+9999SA1+1771REMSYN054SDBC1 46/// ///// 1//// 40194 53013 90100 222// 00177=
0088994027999992018012102004+32713-117173FM-13+000299999V0209999C000019999999N999999999+99999+99999102011ADDMD1310171+9999SA1+1771REMSYN054SDBC1 46/// ///// 1//// 40201 53017 90200 222// 00177=
0088994027999992018012103004+32713-117173FM-13+000299999V0209999C000019999999N999999999+99999+99999102041ADDMD1110141+9999SA1+1771REMSYN054SDBC1 46/// ///// 1//// 40204 51014 90300 222// 00177=
0088994027999992018012104004+32713-117173FM-13+000299999V0209999C000019999999N999999999+99999+99999102081ADDMD1110141+9999SA1+1771REMSYN054SDBC1 46/// ///// 1//// 40208 51014 90400 222// 00177=
0088994027999992018012105004+32713-117173FM-13+000299999V0209999C000019999999N999999999+99999+99999102141ADDMD1310131+9999SA1+1771REMSYN054SDBC1 46/// ///// 1//// 40214 53013 90500 222// 00177=
0088994027999992018012106004+32713-117173FM-13+000299999V0209999C000019999999N999999999+99999+99999102211ADDMD1310171+9999SA1+1771REMSYN054SDBC1 46/// ///// 1//// 40221 53017 90600 222// 00177=
0088994027999992018012107004+32713-117173FM-13+000299999V0209999C000019999999N999999999+99999+99999102251ADDMD1110171+9999SA1+1761REMSYN054SDBC1 46/// ///// 1//// 40225 51017 90700 222// 00176=
0088994027999992018012108004+32713-117173FM-13+000299999V0209999C000019999999N999999999+99999+99999102271ADDMD1110131+9999SA1+1761REMSYN054SDBC1 46/// ///// 1//// 40227 51013 90800 222// 00176=
0088994027999992018012109004+32713-117173FM-13+000299999V0209999C000019999999N999999999+99999+99999102291ADDMD1110081+9999SA1+1761REMSYN054SDBC1 46/// ///// 1//// 40229 51008 90900 222// 00176=
0088994027999992018012110004+32713-117173FM-13+000299999V0209999C000019999999N999999999+99999+99999102301ADDMD1210051+9999SA1+1761REMSYN054SDBC1 46/// ///// 1//// 40230 52005 91000 222// 00176=
0088994027999992018012111004+32713-117173FM-13+000299999V0209999C000019999999N999999999+99999+99999102311ADDMD1210041+9999SA1+1761REMSYN054SDBC1 46/// ///// 1//// 40231 52004 91100 222// 00176=
0088994027999992018012112004+32713-117173FM-13+000299999V0209999C000019999999N999999999+99999+99999102311ADDMD1410001+9999SA1+1761REMSYN054SDBC1 46/// ///// 1//// 40231 54000 91200 222// 00176=
0088994027999992018012113004+32713-117173FM-13+000299999V0209999C000019999999N999999999+99999+99999102331ADDMD1210031+9999SA1+1761REMSYN054SDBC1 46/// ///// 1//// 40233 52003 91300 222// 00176=
0088994027999992018012114004+32713-117173FM-13+000299999V0209999C000019999999N999999999+99999+99999102391ADDMD1310081+9999SA1+1751REMSYN054SDBC1 46/// ///// 1//// 40239 53008 91400 222// 00175=
0088994027999992018012115004+32713-117173FM-13+000299999V0209999C000019999999N999999999+99999+99999102461ADDMD1310151+9999SA1+1751REMSYN054SDBC1 46/// ///// 1//// 40246 53015 91500 222// 00175=
0088994027999992018012116004+32713-117173FM-13+000299999V0209999C000019999999N999999999+99999+99999102551ADDMD1310221+9999SA1+1751REMSYN054SDBC1 46/// ///// 1//// 40255 53022 91600 222// 00175=
0088994027999992018012117004+32713-117173FM-13+000299999V0209999C000019999999N999999999+99999+99999102611ADDMD1110221+9999SA1+1751REMSYN054SDBC1 46/// ///// 1//// 40261 51022 91700 222// 00175=
0088994027999992018012118004+32713-117173FM-13+000299999V0209999C000019999999N999999999+99999+99999102691ADDMD1110231+9999SA1+1751REMSYN054SDBC1 46/// ///// 1//// 40269 51023 91800 222// 00175=
0088994027999992018012119004+32713-117173FM-13+000299999V0209999C000019999999N999999999+99999+99999102651ADDMD1990101+9999SA1+1751REMSYN054SDBC1 46/// ///// 1//// 40265 50010 91900 222// 00175=
0088994027999992018012120004+32713-117173FM-13+000299999V0209999C000019999999N999999999+99999+99999102581ADDMD1810031+9999SA1+1751REMSYN054SDBC1 46/// ///// 1//// 40258 58003 92000 222// 00175=
0088994027999992018012121004+32713-117173FM-13+000299999V0209999C000019999999N999999999+99999+99999102541ADDMD1710151+9999SA1+1761REMSYN054SDBC1 46/// ///// 1//// 40254 57015 92100 222// 00176=
0088994027999992018012122004+32713-117173FM-13+000299999V0209999C000019999999N999999999+99999+99999102491ADDMD1610161+9999SA1+1771REMSYN054SDBC1 46/// ///// 1//// 40249 56016 92200 222// 00177=
0088994027999992018012123004+32713-117173FM-13+000299999V0209999C000019999999N999999999+99999+99999102481ADDMD1610101+9999SA1+1781REMSYN054SDBC1 46/// ///// 1//// 40248 56010 92300 222// 00178=
0088994027999992018012200004+32713-117173FM-13+000299999V0209999C000019999999N999999999+99999+99999102501ADDMD1610041+9999SA1+1781REMSYN054SDBC1 46/// ///// 1//// 40250 56004 90000 222// 00178=
0088994027999992018012201004+32713-117173FM-13+000299999V0209999C000019999999N999999999+99999+99999102531ADDMD1310041+9999SA1+1781REMSYN054SDBC1 46/// ///// 1//// 40253 53004 90100 222// 00178=
0088994027999992018012202004+32713-117173FM-13+000299999V0209999C000019999999N999999999+99999+99999102541ADDMD1210061+9999SA1+1781REMSYN054SDBC1 46/// ///// 1//// 40254 52006 90200 222// 00178=
0088994027999992018012203004+32713-117173FM-13+000299999V0209999C000019999999N999999999+99999+99999102551ADDMD1110051+9999SA1+1781REMSYN054SDBC1 46/// ///// 1//// 40255 51005 90300 222// 00178=
0088994027999992018012204004+32713-117173FM-13+000299999V0209999C000019999999N999999999+99999+99999102581ADDMD1310051+9999SA1+1771REMSYN054SDBC1 46/// ///// 1//// 40258 53005 90400 222// 00177=
0088994027999992018012205004+32713-117173FM-13+000299999V0209999C000019999999N999999999+99999+99999102561ADDMD1410001+9999SA1+1771REMSYN054SDBC1 46/// ///// 1//// 40256 54000 90500 222// 00177=
0088994027999992018012206004+32713-117173FM-13+000299999V0209999C000019999999N999999999+99999+99999102541ADDMD1990001+9999SA1+1761REMSYN054SDBC1 46/// ///// 1//// 40254 50000 90600 222// 00176=
0088994027999992018012207004+32713-117173FM-13+000299999V0209999C000019999999N999999999+99999+99999102571ADDMD1510001+9999SA1+1761REMSYN054SDBC1 46/// ///// 1//// 40257 55000 90700 222// 00176=
0088994027999992018012208004+32713-117173FM-13+000299999V0209999C000019999999N999999999+99999+99999102531ADDMD1810031+9999SA1+1761REMSYN054SDBC1 46/// ///// 1//// 40253 58003 90800 222// 00176=
0088994027999992018012209004+32713-117173FM-13+000299999V0209999C000019999999N999999999+99999+99999102521ADDMD1990001+9999SA1+1761REMSYN054SDBC1 46/// ///// 1//// 40252 50000 90900 222// 00176=
0088994027999992018012210004+32713-117173FM-13+000299999V0209999C000019999999N999999999+99999+99999102491ADDMD1610081+9999SA1+1761REMSYN054SDBC1 46/// ///// 1//// 40249 56008 91000 222// 00176=
0088994027999992018012211004+32713-117173FM-13+000299999V0209999C000019999999N999999999+99999+99999102471ADDMD1710061+9999SA1+1761REMSYN054SDBC1 46/// ///// 1//// 40247 57006 91100 222// 00176=
