0088994027999992020010100004+32713-117173FM-13+000299999V0209999C000019999999N999999999+99999+99999101541ADDMD1310101+9999SA1+1471REMSYN054SDBC1 46/// ///// 1//// 40154 53010 90000 222// 00147=
0088994027999992020010101004+32713-117173FM-13+000299999V0209999C000019999999N999999999+99999+99999101621ADDMD1310171+9999SA1+1481REMSYN054SDBC1 46/// ///// 1//// 40162 53017 90100 222// 00148=
0088994027999992020010102004+32713-117173FM-13+000299999V0209999C000019999999N999999999+99999+99999101661ADDMD1110171+9999SA1+1471REMSYN054SDBC1 46/// ///// 1//// 40166 51017 90200 222// 00147=
0088994027999992020010103004+32713-117173FM-13+000299999V0209999C000019999999N999999999+99999+99999101691ADDMD1110151+9999SA1+1471REMSYN054SDBC1 46/// ///// 1//// 40169 51015 90300 222// 00147=
0088994027999992020010104004+32713-117173FM-13+000299999V0209999C000019999999N999999999+99999+99999101731ADDMD1210111+9999SA1+1471REMSYN054SDBC1 46/// ///// 1//// 40173 52011 90400 222// 00147=
0088994027999992020010105004+32713-117173FM-13+000299999V0209999C000019999999N999999999+99999+99999101801ADDMD1310141+9999SA1+1471REMSYN054SDBC1 46/// ///// 1//// 40180 53014 90500 222// 00147=
0068994027999992020010106004+32713-117173FM-13+000299999V0209999C000019999999N999999999+99999+99999101821ADDSA1+1471REMSYN048SDBC1 46/// ///// 1//// 40182 90554 222// 00147=
0088994027999992020010107004+32713-117173FM-13+000299999V0209999C000019999999N999999999+99999+99999101811ADDMD1110081+9999SA1+1461REMSYN054SDBC1 46/// ///// 1//// 40181 51008 90700 222// 00146=
0088994027999992020010108004+32713-117173FM-13+000299999V0209999C000019999999N999999999+99999+99999101821ADDMD1990001+9999SA1+1471REMSYN054SDBC1 46/// ///// 1//// 40182 50000 90800 222// 00147=
0088994027999992020010109004+32713-117173FM-13+000299999V0209999C000019999999N999999999+99999+99999101791ADDMD1810041+9999SA1+1471REMSYN054SDBC1 46/// ///// 1//// 40179 58004 90900 222// 00147=
0088994027999992020010110004+32713-117173FM-13+000299999V0209999C000019999999N999999999+99999+99999101711ADDMD1810101+9999SA1+1471REMSYN054SDBC1 46/// ///// 1//// 40171 58010 91000 222// 00147=
0088994027999992020010111004+32713-117173FM-13+000299999V0209999C000019999999N999999999+99999+99999101781ADDMD1510041+9999SA1+1471REMSYN054SDBC1 46/// ///// 1//// 40178 55004 91100 222// 00147=
0088994027999992020010112004+32713-117173FM-13+000299999V0209999C000019999999N999999999+99999+99999101821ADDMD1310031+9999SA1+1471REMSYN054SDBC1 46/// ///// 1//// 40182 53003 91200 222// 00147=
0088994027999992020010113004+32713-117173FM-13+000299999V0209999C000019999999N999999999+99999+99999101791ADDMD1990081+9999SA1+1461REMSYN054SDBC1 46/// ///// 1//// 40179 50008 91300 222// 00146=
0088994027999992020010114004+32713-117173FM-13+000299999V0209999C000019999999N999999999+99999+99999101791ADDMD1990001+9999SA1+1471REMSYN054SDBC1 46/// ///// 1//// 40179 50000 91400 222// 00147=
0088994027999992020010115004+32713-117173FM-13+000299999V0209999C000019999999N999999999+99999+99999101821ADDMD1510001+9999SA1+1451REMSYN054SDBC1 46/// ///// 1//// 40182 55000 91500 222// 00145=
0088994027999992020010116004+32713-117173FM-13+000299999V0209999C000019999999N999999999+99999+99999101851ADDMD1310061+9999SA1+1441REMSYN054SDBC1 46/// ///// 1//// 40185 53006 91600 222// 00144=
0088994027999992020010117004+32713-117173FM-13+000299999V0209999C000019999999N999999999+99999+99999101841ADDMD1110051+9999SA1+1441REMSYN054SDBC1 46/// ///// 1//// 40184 51005 91700 222// 00144=
0088994027999992020010118004+32713-117173FM-13+000299999V0209999C000019999999N999999999+99999+99999101821ADDMD1990001+9999SA1+1441REMSYN054SDBC1 46/// ///// 1//// 40182 50000 91800 222// 00144=
0088994027999992020010119004+32713-117173FM-13+000299999V0209999C000019999999N999999999+99999+99999101751ADDMD1810101+9999SA1+1461REMSYN054SDBC1 46/// ///// 1//// 40175 58010 91900 222// 00146=
0088994027999992020010120004+32713-117173FM-13+000299999V0209999C000019999999N999999999+99999+99999101641ADDMD1810201+9999SA1+1471REMSYN054SDBC1 46/// ///// 1//// 40164 58020 92000 222// 00147=
0068994027999992020010121004+32713-117173FM-13+000299999V0209999C000019999999N999999999+99999+99999101561ADDSA1+1461REMSYN048SDBC1 46/// ///// 1//// 40156 92036 222// 00146=
0088994027999992020010122004+32713-117173FM-13+000299999V0209999C000019999999N999999999+99999+99999101461ADDMD1610291+9999SA1+1471REMSYN054SDBC1 46/// ///// 1//// 40146 56029 92200 222// 00147=
0088994027999992020010123004+32713-117173FM-13+000299999V0209999C000019999999N999999999+99999+99999101401ADDMD1610241+9999SA1+1471REMSYN054SDBC1 46/// ///// 1//// 40140 56024 92300 222// 00147=
0088994027999992020010200004+32713-117173FM-13+000299999V0209999C000019999999N999999999+99999+99999101451ADDMD1510071+9999SA1+1471REMSYN054SDBC1 46/// ///// 1//// 40145 55007 90000 222// 00147=
0088994027999992020010201004+32713-117173FM-13+000299999V0209999C000019999999N999999999+99999+99999101451ADDMD1510001+9999SA1+1471REMSYN054SDBC1 46/// ///// 1//// 40145 55000 90100 222// 00147=
0088994027999992020010202004+32713-117173FM-13+000299999V0209999C000019999999N999999999+99999+99999101401ADDMD1990001+9999SA1+1471REMSYN054SDBC1 46/// ///// 1//// 40140 50000 90200 222// 00147=
0088994027999992020010203004+32713-117173FM-13+000299999V0209999C000019999999N999999999+99999+99999101331ADDMD1810121+9999SA1+1471REMSYN054SDBC1 46/// ///// 1//// 40133 58012 90300 222// 00147=
0088994027999992020010204004+32713-117173FM-13+000299999V0209999C000019999999N999999999+99999+99999101341ADDMD1610111+9999SA1+1471REMSYN054SDBC1 46/// ///// 1//// 40134 56011 90400 222// 00147=
0088994027999992020010205004+32713-117173FM-13+000299999V0209999C000019999999N999999999+99999+99999101341ADDMD1610061+9999SA1+1471REMSYN054SDBC1 46/// ///// 1//// 40134 56006 90500 222// 00147=
0088994027999992020010206004+32713-117173FM-13+000299999V0209999C000019999999N999999999+99999+99999101371ADDMD1310041+9999SA1+1471REMSYN054SDBC1 46/// ///// 1//// 40137 53004 90600 222// 00147=
0088994027999992020010207004+32713-117173FM-13+000299999V0209999C000019999999N999999999+99999+99999101381ADDMD1210041+9999SA1+1471REMSYN054SDBC1 46/// ///// 1//// 40138 52004 90700 222// 00147=
0088994027999992020010208004+32713-117173FM-13+000299999V0209999C000019999999N999999999+99999+99999101291ADDMD1810051+9999SA1+1471REMSYN054SDBC1 46/// ///// 1//// 40129 58005 90800 222// 00147=
0088994027999992020010209004+32713-117173FM-13+000299999V0209999C000019999999N999999999+99999+99999101251ADDMD1810121+9999SA1+1471REMSYN054SDBC1 46/// ///// 1//// 40125 58012 90900 222// 00147=
0088994027999992020010210004+32713-117173FM-13+000299999V0209999C000019999999N999999999+99999+99999101251ADDMD1610131+9999SA1+1471REMSYN054SDBC1 46/// ///// 1//// 40125 56013 91000 222// 00147=
0088994027999992020010211004+32713-117173FM-13+000299999V0209999C000019999999N999999999+99999+99999101251ADDMD1610041+9999SA1+1471REMSYN054SDBC1 46/// ///// 1//// 40125 56004 91100 222// 00147=
0088994027999992020010212004+32713-117173FM-13+000299999V0209999C000019999999N999999999+99999+99999101261ADDMD1410001+9999SA1+1471REMSYN054SDBC1 46/// ///// 1//// 40126 54000 91200 222// 00147=
0088994027999992020010213004+32713-117173FM-13+000299999V0209999C000019999999N999999999+99999+99999101271ADDMD1410001+9999SA1+1471REMSYN054SDBC1 46/// ///// 1//// 40127 54000 91300 222// 00147=
0088994027999992020010214004+32713-117173FM-13+000299999V0209999C000019999999N999999999+99999+99999101291ADDMD1210041+9999SA1+1471REMSYN054SDBC1 46/// ///// 1//// 40129 52004 91400 222// 00147=
0088994027999992020010215004+32713-117173FM-13+000299999V0209999C000019999999N999999999+99999+99999101361ADDMD1310101+9999SA1+1471REMSYN054SDBC1 46/// ///// 1//// 40136 53010 91500 222// 00147=
0088994027999992020010216004+32713-117173FM-13+000299999V0209999C000019999999N999999999+99999+99999101461ADDMD1310191+9999SA1+1461REMSYN054SDBC1 46/// ///// 1//// 40146 53019 91600 222// 00146=
0088994027999992020010217004+32713-117173FM-13+000299999V0209999C000019999999N999999999+99999+99999101571ADDMD1310281+9999SA1+1451REMSYN054SDBC1 46/// ///// 1//// 40157 53028 91700 222// 00145=
0088994027999992020010218004+32713-117173FM-13+000299999V0209999C000019999999N999999999+99999+99999101561ADDMD1110201+9999SA1+1451REMSYN054SDBC1 46/// ///// 1//// 40156 51020 91800 222// 00145=
0088994027999992020010219004+32713-117173FM-13+000299999V0209999C000019999999N999999999+99999+99999101431ADDMD1810031+9999SA1+1461REMSYN054SDBC1 46/// ///// 1//// 40143 58003 91900 222// 00146=
0088994027999992020010220004+32713-117173FM-13+000299999V0209999C000019999999N999999999+99999+99999101331ADDMD1810241+9999SA1+1461REMSYN054SDBC1 46/// ///// 1//// 40133 58024 92000 222// 00146=
0088994027999992020010221004+32713-117173FM-13+000299999V0209999C000019999999N999999999+99999+99999101331ADDMD1610231+9999SA1+1461REMSYN054SDBC1 46/// ///// 1//// 40133 56023 92100 222// 00146=
0088994027999992020010222004+32713-117173FM-13+000299999V0209999C000019999999N999999999+99999+99999101311ADDMD1610121+9999SA1+1491REMSYN054SDBC1 46/// ///// 1//// 40131 56012 92200 222// 00149=
0088994027999992020010223004+32713-117173FM-13+000299999V0209999C000019999999N999999999+99999+99999101371ADDMD1310041+9999SA1+1491REMSYN054SDBC1 46/// ///// 1//// 40137 53004 92300 222// 00149=
0088994027999992020010300004+32713-117173FM-13+000299999V0209999C000019999999N999999999+99999+99999101411ADDMD1310081+9999SA1+1491REMSYN054SDBC1 46/// ///// 1//// 40141 53008 90000 222// 00149=
0088994027999992020010301004+32713-117173FM-13+000299999V0209999C000019999999N999999999+99999+99999101451ADDMD1110141+9999SA1+1491REMSYN054SDBC1 46/// ///// 1//// 40145 51014 90100 222// 00149=
0088994027999992020010302004+32713-117173FM-13+000299999V0209999C000019999999N999999999+99999+99999101551ADDMD1310181+9999SA1+1491REMSYN054SDBC1 46/// ///// 1//// 40155 53018 90200 222// 00149=
0088994027999992020010303004+32713-117173FM-13+000299999V0209999C000019999999N999999999+99999+99999101641ADDMD1310231+9999SA1+1481REMSYN054SDBC1 46/// ///// 1//// 40164 53023 90300 222// 00148=
0088994027999992020010304004+32713-117173FM-13+000299999V0209999C000019999999N999999999+99999+99999101731ADDMD1110281+9999SA1+1481REMSYN054SDBC1 46/// ///// 1//// 40173 51028 90400 222// 00148=
0088994027999992020010305004+32713-117173FM-13+000299999V0209999C000019999999N999999999+99999+99999101781ADDMD1110231+9999SA1+1481REMSYN054SDBC1 46/// ///// 1//// 40178 51023 90500 222// 00148=
0088994027999992020010306004+32713-117173FM-13+000299999V0209999C000019999999N999999999+99999+99999101851ADDMD1110211+9999SA1+1481REMSYN054SDBC1 46/// ///// 1//// 40185 51021 90600 222// 00148=
0088994027999992020010307004+32713-117173FM-13+000299999V0209999C000019999999N999999999+99999+99999101861ADDMD1110131+9999SA1+1481REMSYN054SDBC1 46/// ///// 1//// 40186 51013 90700 222// 00148=
0088994027999992020010308004+32713-117173FM-13+000299999V0209999C000019999999N999999999+99999+99999101891ADDMD1110111+9999SA1+1471REMSYN054SDBC1 46/// ///// 1//// 40189 51011 90800 222// 00147=
0088994027999992020010309004+32713-117173FM-13+000299999V0209999C000019999999N999999999+99999+99999101911ADDMD1210061+9999SA1+1471REMSYN054SDBC1 46/// ///// 1//// 40191 52006 90900 222// 00147=
0088994027999992020010310004+32713-117173FM-13+000299999V0209999C000019999999N999999999+99999+99999101941ADDMD1210081+9999SA1+1471REMSYN054SDBC1 46/// ///// 1//// 40194 52008 91000 222// 00147=
0088994027999992020010311004+32713-117173FM-13+000299999V0209999C000019999999N999999999+99999+99999101961ADDMD1210071+9999SA1+1471REMSYN054SDBC1 46/// ///// 1//// 40196 52007 91100 222// 00147=
0088994027999992020010312004+32713-117173FM-13+000299999V0209999C000019999999N999999999+99999+99999101951ADDMD1110041+9999SA1+1481REMSYN054SDBC1 46/// ///// 1//// 40195 51004 91200 222// 00148=
0088994027999992020010313004+32713-117173FM-13+000299999V0209999C000019999999N999999999+99999+99999102011ADDMD1310071+9999SA1+1481REMSYN054SDBC1 46/// ///// 1//// 40201 53007 91300 222// 00148=
0088994027999992020010314004+32713-117173FM-13+000299999V0209999C000019999999N999999999+99999+99999102091ADDMD1310131+9999SA1+1471REMSYN054SDBC1 46/// ///// 1//// 40209 53013 91400 222// 00147=
0088994027999992020010315004+32713-117173FM-13+000299999V0209999C000019999999N999999999+99999+99999102171ADDMD1310221+9999SA1+1461REMSYN054SDBC1 46/// ///// 1//// 40217 53022 91500 222// 00146=
0088994027999992020010316004+32713-117173FM-13+000299999V0209999C000019999999N999999999+99999+99999102281ADDMD1310271+9999SA1+1471REMSYN054SDBC1 46/// ///// 1//// 40228 53027 91600 222// 00147=
0088994027999992020010317004+32713-117173FM-13+000299999V0209999C000019999999N999999999+99999+99999102381ADDMD1310291+9999SA1+1461REMSYN054SDBC1 46/// ///// 1//// 40238 53029 91700 222// 00146=
0088994027999992020010318004+32713-117173FM-13+000299999V0209999C000019999999N999999999+99999+99999102411ADDMD1110241+9999SA1+1461REMSYN054SDBC1 46/// ///// 1//// 40241 51024 91800 222// 00146=
0088994027999992020010319004+32713-117173FM-13+000299999V0209999C000019999999N999999999+99999+99999102371ADDMD1990091+9999SA1+1461REMSYN054SDBC1 46/// ///// 1//// 40237 50009 91900 222// 00146=
0088994027999992020010320004+32713-117173FM-13+000299999V0209999C000019999999N999999999+99999+99999102281ADDMD1810101+9999SA1+1471REMSYN054SDBC1 46/// ///// 1//// 40228 58010 92000 222// 00147=
0088994027999992020010321004+32713-117173FM-13+000299999V0209999C000019999999N999999999+99999+99999102261ADDMD1610151+9999SA1+1481REMSYN054SDBC1 46/// ///// 1//// 40226 56015 92100 222// 00148=
0088994027999992020010322004+32713-117173FM-13+000299999V0209999C000019999999N999999999+99999+99999102291ADDMD1510081+9999SA1+1471REMSYN054SDBC1 46/// ///// 1//// 40229 55008 92200 222// 00147=
0088994027999992020010323004+32713-117173FM-13+000299999V0209999C000019999999N999999999+99999+99999102341ADDMD1310061+9999SA1+1481REMSYN054SDBC1 46/// ///// 1//// 40234 53006 92300 222// 00148=
0088994027999992020010400004+32713-117173FM-13+000299999V0209999C000019999999N999999999+99999+99999102371ADDMD1210111+9999SA1+1481REMSYN054SDBC1 46/// ///// 1//// 40237 52011 90000 222// 00148=
0088994027999992020010401004+32713-117173FM-13+000299999V0209999C000019999999N999999999+99999+99999102401ADDMD1110111+9999SA1+1481REMSYN054SDBC1 46/// ///// 1//// 40240 51011 90100 222// 00148=
0088994027999992020010402004+32713-117173FM-13+000299999V0209999C000019999999N999999999+99999+99999102431ADDMD1210091+9999SA1+1491REMSYN054SDBC1 46/// ///// 1//// 40243 52009 90200 222// 00149=
0088994027999992020010403004+32713-117173FM-13+000299999V0209999C000019999999N999999999+99999+99999102491ADDMD1310121+9999SA1+1491REMSYN054SDBC1 46/// ///// 1//// 40249 53012 90300 222// 00149=
0088994027999992020010404004+32713-117173FM-13+000299999V0209999C000019999999N999999999+99999+99999102521ADDMD1210121+9999SA1+1491REMSYN054SDBC1 46/// ///// 1//// 40252 52012 90400 222// 00149=
0088994027999992020010405004+32713-117173FM-13+000299999V0209999C000019999999N999999999+99999+99999102561ADDMD1110131+9999SA1+1491REMSYN054SDBC1 46/// ///// 1//// 40256 51013 90500 222// 00149=
0088994027999992020010406004+32713-117173FM-13+000299999V0209999C000019999999N999999999+99999+99999102621ADDMD1310131+9999SA1+1491REMSYN054SDBC1 46/// ///// 1//// 40262 53013 90600 222// 00149=
0088994027999992020010407004+32713-117173FM-13+000299999V0209999C000019999999N999999999+99999+99999102601ADDMD1110081+9999SA1+1481REMSYN054SDBC1 46/// ///// 1//// 40260 51008 90700 222// 00148=
0088994027999992020010408004+32713-117173FM-13+000299999V0209999C000019999999N999999999+99999+99999102601ADDMD1110041+9999SA1+1491REMSYN054SDBC1 46/// ///// 1//// 40260 51004 90800 222// 00149=
0088994027999992020010409004+32713-117173FM-13+000299999V0209999C000019999999N999999999+99999+99999102581ADDMD1710041+9999SA1+1491REMSYN054SDBC1 46/// ///// 1//// 40258 57004 90900 222// 00149=
0088994027999992020010410004+32713-117173FM-13+000299999V0209999C000019999999N999999999+99999+99999102581ADDMD1410001+9999SA1+1481REMSYN054SDBC1 46/// ///// 1//// 40258 54000 91000 222// 00148=
0088994027999992020010411004+32713-117173FM-13+000299999V0209999C000019999999N999999999+99999+99999102591ADDMD1410001+9999SA1+1481REMSYN054SDBC1 46/// ///// 1//// 40259 54000 91100 222// 00148=
0088994027999992020010412004+32713-117173FM-13+000299999V0209999C000019999999N999999999+99999+99999102591ADDMD1410001+9999SA1+1481REMSYN054SDBC1 46/// ///// 1//// 40259 54000 91200 222// 00148=
0088994027999992020010413004+32713-117173FM-13+000299999V0209999C000019999999N999999999+99999+99999102631ADDMD1310051+9999SA1+1481REMSYN054SDBC1 46/// ///// 1//// 40263 53005 91300 222// 00148=
0088994027999992020010414004+32713-117173FM-13+000299999V0209999C000019999999N999999999+99999+99999102661ADDMD1310071+9999SA1+1481REMSYN054SDBC1 46/// ///// 1//// 40266 53007 91400 222// 00148=
0088994027999992020010415004+32713-117173FM-13+000299999V0209999C000019999999N999999999+99999+99999102661ADDMD1110071+9999SA1+1481REMSYN054SDBC1 46/// ///// 1//// 40266 51007 91500 222// 00148=
0088994027999992020010416004+32713-117173FM-13+000299999V0209999C000019999999N999999999+99999+99999102751ADDMD1310121+9999SA1+1471REMSYN054SDBC1 46/// ///// 1//// 40275 53012 91600 222// 00147=
0088994027999992020010417004+32713-117173FM-13+000299999V0209999C000019999999N999999999+99999+99999102801ADDMD1310141+9999SA1+1471REMSYN054SDBC1 46/// ///// 1//// 40280 53014 91700 222// 00147=
0088994027999992020010418004+32713-117173FM-13+000299999V0209999C000019999999N999999999+99999+99999102831ADDMD1110171+9999SA1+1471REMSYN054SDBC1 46/// ///// 1//// 40283 51017 91800 222// 00147=
0088994027999992020010419004+32713-117173FM-13+000299999V0209999C000019999999N999999999+99999+99999102711ADDMD1810041+9999SA1+1471REMSYN054SDBC1 46/// ///// 1//// 40271 58004 91900 222// 00147=
0088994027999992020010420004+32713-117173FM-13+000299999V0209999C000019999999N999999999+99999+99999102591ADDMD1810211+9999SA1+1481REMSYN054SDBC1 46/// ///// 1//// 40259 58021 92000 222// 00148=
0088994027999992020010421004+32713-117173FM-13+000299999V0209999C000019999999N999999999+99999+99999102511ADDMD1610321+9999SA1+1491REMSYN054SDBC1 46/// ///// 1//// 40251 56032 92100 222// 00149=
0088994027999992020010422004+32713-117173FM-13+000299999V0209999C000019999999N999999999+99999+99999102441ADDMD1610271+9999SA1+1501REMSYN054SDBC1 46/// ///// 1//// 40244 56027 92200 222// 00150=
0088994027999992020010423004+32713-117173FM-13+000299999V0209999C000019999999N999999999+99999+99999102431ADDMD1610161+9999SA1+1491REMSYN054SDBC1 46/// ///// 1//// 40243 56016 92300 222// 00149=
0088994027999992020010500004+32713-117173FM-13+000299999V0209999C000019999999N999999999+99999+99999102431ADDMD1610081+9999SA1+1491REMSYN054SDBC1 46/// ///// 1//// 40243 56008 90000 222// 00149=
0088994027999992020010501004+32713-117173FM-13+000299999V0209999C000019999999N999999999+99999+99999102441ADDMD1410001+9999SA1+1501REMSYN054SDBC1 46/// ///// 1//// 40244 54000 90100 222// 00150=
0088994027999992020010502004+32713-117173FM-13+000299999V0209999C000019999999N999999999+99999+99999102481ADDMD1310051+9999SA1+1491REMSYN054SDBC1 46/// ///// 1//// 40248 53005 90200 222// 00149=
0088994027999992020010503004+32713-117173FM-13+000299999V0209999C000019999999N999999999+99999+99999102511ADDMD1310081+9999SA1+1481REMSYN054SDBC1 46/// ///// 1//// 40251 53008 90300 222// 00148=
0088994027999992020010504004+32713-117173FM-13+000299999V0209999C000019999999N999999999+99999+99999102541ADDMD1110101+9999SA1+1491REMSYN054SDBC1 46/// ///// 1//// 40254 51010 90400 222// 00149=
0088994027999992020010505004+32713-117173FM-13+000299999V0209999C000019999999N999999999+99999+99999102551ADDMD1110071+9999SA1+1491REMSYN054SDBC1 46/// ///// 1//// 40255 51007 90500 222// 00149=
0088994027999992020010506004+32713-117173FM-13+000299999V0209999C000019999999N999999999+99999+99999102551ADDMD1110041+9999SA1+1491REMSYN054SDBC1 46/// ///// 1//// 40255 51004 90600 222// 00149=
0088994027999992020010507004+32713-117173FM-13+000299999V0209999C000019999999N999999999+99999+99999102541ADDMD1410001+9999SA1+1491REMSYN054SDBC1 46/// ///// 1//// 40254 54000 90700 222// 00149=
0088994027999992020010508004+32713-117173FM-13+000299999V0209999C000019999999N999999999+99999+99999102531ADDMD1410001+9999SA1+1481REMSYN054SDBC1 46/// ///// 1//// 40253 54000 90800 222// 00148=
0088994027999992020010509004+32713-117173FM-13+000299999V0209999C000019999999N999999999+99999+99999102491ADDMD1810061+9999SA1+1481REMSYN054SDBC1 46/// ///// 1//// 40249 58006 90900 222// 00148=
0088994027999992020010510004+32713-117173FM-13+000299999V0209999C000019999999N999999999+99999+99999102481ADDMD1710061+9999SA1+1481REMSYN054SDBC1 46/// ///// 1//// 40248 57006 91000 222// 00148=
0088994027999992020010511004+32713-117173FM-13+000299999V0209999C000019999999N999999999+99999+99999102471ADDMD1610061+9999SA1+1481REMSYN054SDBC1 46/// ///// 1//// 40247 56006 91100 222// 00148=
0088994027999992020010512004+32713-117173FM-13+000299999V0209999C000019999999N999999999+99999+99999102441ADDMD1810051+9999SA1+1481REMSYN054SDBC1 46/// ///// 1//// 40244 58005 91200 222// 00148=
0088994027999992020010513004+32713-117173FM-13+000299999V0209999C000019999999N999999999+99999+99999102451ADDMD1710031+9999SA1+1491REMSYN054SDBC1 46/// ///// 1//// 40245 57003 91300 222// 00149=
0088994027999992020010514004+32713-117173FM-13+000299999V0209999C000019999999N999999999+99999+99999102531ADDMD1310061+9999SA1+1491REMSYN054SDBC1 46/// ///// 1//// 40253 53006 91400 222// 00149=
0088994027999992020010515004+32713-117173FM-13+000299999V0209999C000019999999N999999999+99999+99999102581ADDMD1310141+9999SA1+1481REMSYN054SDBC1 46/// ///// 1//// 40258 53014 91500 222// 00148=
0088994027999992020010516004+32713-117173FM-13+000299999V0209999C000019999999N999999999+99999+99999102621ADDMD1110171+9999SA1+1481REMSYN054SDBC1 46/// ///// 1//// 40262 51017 91600 222// 00148=
0088994027999992020010517004+32713-117173FM-13+000299999V0209999C000019999999N999999999+99999+99999102631ADDMD1110101+9999SA1+1481REMSYN054SDBC1 46/// ///// 1//// 40263 51010 91700 222// 00148=
0088994027999992020010518004+32713-117173FM-13+000299999V0209999C000019999999N999999999+99999+99999102611ADDMD1110031+9999SA1+1471REMSYN054SDBC1 46/// ///// 1//// 40261 51003 91800 222// 00147=
0088994027999992020010519004+32713-117173FM-13+000299999V0209999C000019999999N999999999+99999+99999102521ADDMD1810101+9999SA1+1481REMSYN054SDBC1 46/// ///// 1//// 40252 58010 91900 222// 00148=
0088994027999992020010520004+32713-117173FM-13+000299999V0209999C000019999999N999999999+99999+99999102411ADDMD1810221+9999SA1+1501REMSYN054SDBC1 46/// ///// 1//// 40241 58022 92000 222// 00150=
0088994027999992020010521004+32713-117173FM-13+000299999V0209999C000019999999N999999999+99999+99999102321ADDMD1710291+9999SA1+1491REMSYN054SDBC1 46/// ///// 1//// 40232 57029 92100 222// 00149=
0088994027999992020010522004+32713-117173FM-13+000299999V0209999C000019999999N999999999+99999+99999102301ADDMD1610221+9999SA1+1491REMSYN054SDBC1 46/// ///// 1//// 40230 56022 92200 222// 00149=
0088994027999992020010523004+32713-117173FM-13+000299999V0209999C000019999999N999999999+99999+99999102271ADDMD1610141+9999SA1+1501REMSYN054SDBC1 46/// ///// 1//// 40227 56014 92300 222// 00150=
0088994027999992020010600004+32713-117173FM-13+000299999V0209999C000019999999N999999999+99999+99999102251ADDMD1710071+9999SA1+1501REMSYN054SDBC1 46/// ///// 1//// 40225 57007 90000 222// 00150=
0088994027999992020010601004+32713-117173FM-13+000299999V0209999C000019999999N999999999+99999+99999102221ADDMD1710081+9999SA1+1501REMSYN054SDBC1 46/// ///// 1//// 40222 57008 90100 222// 00150=
0088994027999992020010602004+32713-117173FM-13+000299999V0209999C000019999999N999999999+99999+99999102261ADDMD1510001+9999SA1+1491REMSYN054SDBC1 46/// ///// 1//// 40226 55000 90200 222// 00149=
0088994027999992020010603004+32713-117173FM-13+000299999V0209999C000019999999N999999999+99999+99999102301ADDMD1310051+9999SA1+1491REMSYN054SDBC1 46/// ///// 1//// 40230 53005 90300 222// 00149=
0088994027999992020010604004+32713-117173FM-13+000299999V0209999C000019999999N999999999+99999+99999102291ADDMD1110071+9999SA1+1491REMSYN054SDBC1 46/// ///// 1//// 40229 51007 90400 222// 00149=
0088994027999992020010605004+32713-117173FM-13+000299999V0209999C000019999999N999999999+99999+99999102331ADDMD1210071+9999SA1+1491REMSYN054SDBC1 46/// ///// 1//// 40233 52007 90500 222// 00149=
0088994027999992020010606004+32713-117173FM-13+000299999V0209999C000019999999N999999999+99999+99999102351ADDMD1210051+9999SA1+1491REMSYN054SDBC1 46/// ///// 1//// 40235 52005 90600 222// 00149=
0088994027999992020010607004+32713-117173FM-13+000299999V0209999C000019999999N999999999+99999+99999102311ADDMD1990001+9999SA1+1491REMSYN054SDBC1 46/// ///// 1//// 40231 50000 90700 222// 00149=
0088994027999992020010608004+32713-117173FM-13+000299999V0209999C000019999999N999999999+99999+99999102321ADDMD1410001+9999SA1+1481REMSYN054SDBC1 46/// ///// 1//// 40232 54000 90800 222// 00148=
0088994027999992020010609004+32713-117173FM-13+000299999V0209999C000019999999N999999999+99999+99999102291ADDMD1610061+9999SA1+1481REMSYN054SDBC1 46/// ///// 1//// 40229 56006 90900 222// 00148=
0088994027999992020010610004+32713-117173FM-13+000299999V0209999C000019999999N999999999+99999+99999102301ADDMD1410001+9999SA1+1481REMSYN054SDBC1 46/// ///// 1//// 40230 54000 91000 222// 00148=
0088994027999992020010611004+32713-117173FM-13+000299999V0209999C000019999999N999999999+99999+99999102281ADDMD1610041+9999SA1+1481REMSYN054SDBC1 46/// ///// 1//// 40228 56004 91100 222// 00148=
0088994027999992020010612004+32713-117173FM-13+000299999V0209999C000019999999N999999999+99999+99999102281ADDMD1410001+9999SA1+1481REMSYN054SDBC1 46/// ///// 1//// 40228 54000 91200 222// 00148=
0088994027999992020010613004+32713-117173FM-13+000299999V0209999C000019999999N999999999+99999+99999102311ADDMD1510001+9999SA1+1491REMSYN054SDBC1 46/// ///// 1//// 40231 55000 91300 222// 00149=
0088994027999992020010614004+32713-117173FM-13+000299999V0209999C000019999999N999999999+99999+99999102331ADDMD1210051+9999SA1+1481REMSYN054SDBC1 46/// ///// 1//// 40233 52005 91400 222// 00148=
0088994027999992020010615004+32713-117173FM-13+000299999V0209999C000019999999N999999999+99999+99999102371ADDMD1310091+9999SA1+1491REMSYN054SDBC1 46/// ///// 1//// 40237 53009 91500 222// 00149=
0088994027999992020010616004+32713-117173FM-13+000299999V0209999C000019999999N999999999+99999+99999102421ADDMD1310111+9999SA1+1491REMSYN054SDBC1 46/// ///// 1//// 40242 53011 91600 222// 00149=
0088994027999992020010617004+32713-117173FM-13+000299999V0209999C000019999999N999999999+99999+99999102501ADDMD1310171+9999SA1+1481REMSYN054SDBC1 46/// ///// 1//// 40250 53017 91700 222// 00148=
0088994027999992020010618004+32713-117173FM-13+000299999V0209999C000019999999N999999999+99999+99999102501ADDMD1110131+9999SA1+1481REMSYN054SDBC1 46/// ///// 1//// 40250 51013 91800 222// 00148=
0088994027999992020010619004+32713-117173FM-13+000299999V0209999C000019999999N999999999+99999+99999102461ADDMD1990041+9999SA1+1491REMSYN054SDBC1 46/// ///// 1//// 40246 50004 91900 222// 00149=
0088994027999992020010620004+32713-117173FM-13+000299999V0209999C000019999999N999999999+99999+99999102341ADDMD1810161+9999SA1+1491REMSYN054SDBC1 46/// ///// 1//// 40234 58016 92000 222// 00149=
0088994027999992020010621004+32713-117173FM-13+000299999V0209999C000019999999N999999999+99999+99999102281ADDMD1810221+9999SA1+1491REMSYN054SDBC1 46/// ///// 1//// 40228 58022 92100 222// 00149=
0088994027999992020010622004+32713-117173FM-13+000299999V0209999C000019999999N999999999+99999+99999102241ADDMD1610221+9999SA1+1501REMSYN054SDBC1 46/// ///// 1//// 40224 56022 92200 222// 00150=
0088994027999992020010623004+32713-117173FM-13+000299999V0209999C000019999999N999999999+99999+99999102221ADDMD1610121+9999SA1+1511REMSYN054SDBC1 46/// ///// 1//// 40222 56012 92300 222// 00151=
0088994027999992020010700004+32713-117173FM-13+000299999V0209999C000019999999N999999999+99999+99999102201ADDMD1610081+9999SA1+1511REMSYN054SDBC1 46/// ///// 1//// 40220 56008 90000 222// 00151=
0088994027999992020010701004+32713-117173FM-13+000299999V0209999C000019999999N999999999+99999+99999102181ADDMD1710061+9999SA1+1511REMSYN054SDBC1 46/// ///// 1//// 40218 57006 90100 222// 00151=
0088994027999992020010702004+32713-117173FM-13+000299999V0209999C000019999999N999999999+99999+99999102211ADDMD1510001+9999SA1+1501REMSYN054SDBC1 46/// ///// 1//// 40221 55000 90200 222// 00150=
0088994027999992020010703004+32713-117173FM-13+000299999V0209999C000019999999N999999999+99999+99999102211ADDMD1410001+9999SA1+1491REMSYN054SDBC1 46/// ///// 1//// 40221 54000 90300 222// 00149=
0088994027999992020010704004+32713-117173FM-13+000299999V0209999C000019999999N999999999+99999+99999102221ADDMD1110041+9999SA1+1491REMSYN054SDBC1 46/// ///// 1//// 40222 51004 90400 222// 00149=
0088994027999992020010705004+32713-117173FM-13+000299999V0209999C000019999999N999999999+99999+99999102251ADDMD1310041+9999SA1+1491REMSYN054SDBC1 46/// ///// 1//// 40225 53004 90500 222// 00149=
0088994027999992020010706004+32713-117173FM-13+000299999V0209999C000019999999N999999999+99999+99999102231ADDMD1410001+9999SA1+1491REMSYN054SDBC1 46/// ///// 1//// 40223 54000 90600 222// 00149=
0088994027999992020010707004+32713-117173FM-13+000299999V0209999C000019999999N999999999+99999+99999102201ADDMD1990001+9999SA1+1491REMSYN054SDBC1 46/// ///// 1//// 40220 50000 90700 222// 00149=
0088994027999992020010708004+32713-117173FM-13+000299999V0209999C000019999999N999999999+99999+99999102141ADDMD1810111+9999SA1+1491REMSYN054SDBC1 46/// ///// 1//// 40214 58011 90800 222// 00149=
0088994027999992020010709004+32713-117173FM-13+000299999V0209999C000019999999N999999999+99999+99999102101ADDMD1810131+9999SA1+1491REMSYN054SDBC1 46/// ///// 1//// 40210 58013 90900 222// 00149=
0088994027999992020010710004+32713-117173FM-13+000299999V0209999C000019999999N999999999+99999+99999102091ADDMD1610111+9999SA1+1481REMSYN054SDBC1 46/// ///// 1//// 40209 56011 91000 222// 00148=
0088994027999992020010711004+32713-117173FM-13+000299999V0209999C000019999999N999999999+99999+99999102061ADDMD1610081+9999SA1+1471REMSYN054SDBC1 46/// ///// 1//// 40206 56008 91100 222// 00147=
0088994027999992020010712004+32713-117173FM-13+000299999V0209999C000019999999N999999999+99999+99999102011ADDMD1810091+9999SA1+1481REMSYN054SDBC1 46/// ///// 1//// 40201 58009 91200 222// 00148=
0088994027999992020010713004+32713-117173FM-13+000299999V0209999C000019999999N999999999+99999+99999101981ADDMD1710111+9999SA1+1491REMSYN054SDBC1 46/// ///// 1//// 40198 57011 91300 222// 00149=
0088994027999992020010714004+32713-117173FM-13+000299999V0209999C000019999999N999999999+99999+99999101971ADDMD1610091+9999SA1+1501REMSYN054SDBC1 46/// ///// 1//// 40197 56009 91400 222// 00150=
0088994027999992020010715004+32713-117173FM-13+000299999V0209999C000019999999N999999999+99999+99999101991ADDMD1510001+9999SA1+1501REMSYN054SDBC1 46/// ///// 1//// 40199 55000 91500 222// 00150=
0088994027999992020010716004+32713-117173FM-13+000299999V0209999C000019999999N999999999+99999+99999101991ADDMD1410001+9999SA1+1501REMSYN054SDBC1 46/// ///// 1//// 40199 54000 91600 222// 00150=
0088994027999992020010717004+32713-117173FM-13+000299999V0209999C000019999999N999999999+99999+99999102041ADDMD1310071+9999SA1+1491REMSYN054SDBC1 46/// ///// 1//// 40204 53007 91700 222// 00149=
0088994027999992020010718004+32713-117173FM-13+000299999V0209999C000019999999N999999999+99999+99999102011ADDMD1990001+9999SA1+1501REMSYN054SDBC1 46/// ///// 1//// 40201 50000 91800 222// 00150=
0088994027999992020010719004+32713-117173FM-13+000299999V0209999C000019999999N999999999+99999+99999101931ADDMD1810061+9999SA1+1501REMSYN054SDBC1 46/// ///// 1//// 40193 58006 91900 222// 00150=
0088994027999992020010720004+32713-117173FM-13+000299999V0209999C000019999999N999999999+99999+99999101821ADDMD1810221+9999SA1+1501REMSYN054SDBC1 46/// ///// 1//// 40182 58022 92000 222// 00150=
0088994027999992020010721004+32713-117173FM-13+000299999V0209999C000019999999N999999999+99999+99999101751ADDMD1610261+9999SA1+1511REMSYN054SDBC1 46/// ///// 1//// 40175 56026 92100 222// 00151=
0088994027999992020010722004+32713-117173FM-13+000299999V0209999C000019999999N999999999+99999+99999101721ADDMD1610211+9999SA1+1511REMSYN054SDBC1 46/// ///// 1//// 40172 56021 92200 222// 00151=
0088994027999992020010723004+32713-117173FM-13+000299999V0209999C000019999999N999999999+99999+99999101751ADDMD1510071+9999SA1+1521REMSYN054SDBC1 46/// ///// 1//// 40175 55007 92300 222// 00152=
0088994027999992020010800004+32713-117173FM-13+000299999V0209999C000019999999N999999999+99999+99999101751ADDMD1510001+9999SA1+1511REMSYN054SDBC1 46/// ///// 1//// 40175 55000 90000 222// 00151=
0088994027999992020010801004+32713-117173FM-13+000299999V0209999C000019999999N999999999+99999+99999101751ADDMD1110031+9999SA1+1511REMSYN054SDBC1 46/// ///// 1//// 40175 51003 90100 222// 00151=
0088994027999992020010802004+32713-117173FM-13+000299999V0209999C000019999999N999999999+99999+99999101751ADDMD1410001+9999SA1+1501REMSYN054SDBC1 46/// ///// 1//// 40175 54000 90200 222// 00150=
0088994027999992020010803004+32713-117173FM-13+000299999V0209999C000019999999N999999999+99999+99999101761ADDMD1410001+9999SA1+1491REMSYN054SDBC1 46/// ///// 1//// 40176 54000 90300 222// 00149=
0088994027999992020010804004+32713-117173FM-13+000299999V0209999C000019999999N999999999+99999+99999101811ADDMD1310061+9999SA1+1501REMSYN054SDBC1 46/// ///// 1//// 40181 53006 90400 222// 00150=
0088994027999992020010805004+32713-117173FM-13+000299999V0209999C000019999999N999999999+99999+99999101851ADDMD1310101+9999SA1+1501REMSYN054SDBC1 46/// ///// 1//// 40185 53010 90500 222// 00150=
0088994027999992020010806004+32713-117173FM-13+000299999V0209999C000019999999N999999999+99999+99999101841ADDMD1110081+9999SA1+1501REMSYN054SDBC1 46/// ///// 1//// 40184 51008 90600 222// 00150=
0088994027999992020010807004+32713-117173FM-13+000299999V0209999C000019999999N999999999+99999+99999101811ADDMD1990001+9999SA1+1501REMSYN054SDBC1 46/// ///// 1//// 40181 50000 90700 222// 00150=
0088994027999992020010808004+32713-117173FM-13+000299999V0209999C000019999999N999999999+99999+99999101751ADDMD1810101+9999SA1+1501REMSYN054SDBC1 46/// ///// 1//// 40175 58010 90800 222// 00150=
0088994027999992020010809004+32713-117173FM-13+000299999V0209999C000019999999N999999999+99999+99999101681ADDMD1810161+9999SA1+1501REMSYN054SDBC1 46/// ///// 1//// 40168 58016 90900 222// 00150=
0088994027999992020010810004+32713-117173FM-13+000299999V0209999C000019999999N999999999+99999+99999101681ADDMD1610131+9999SA1+1501REMSYN054SDBC1 46/// ///// 1//// 40168 56013 91000 222// 00150=
0088994027999992020010811004+32713-117173FM-13+000299999V0209999C000019999999N999999999+99999+99999101671ADDMD1610081+9999SA1+1491REMSYN054SDBC1 46/// ///// 1//// 40167 56008 91100 222// 00149=
0088994027999992020010812004+32713-117173FM-13+000299999V0209999C000019999999N999999999+99999+99999101701ADDMD1510001+9999SA1+1491REMSYN054SDBC1 46/// ///// 1//// 40170 55000 91200 222// 00149=
0088994027999992020010813004+32713-117173FM-13+000299999V0209999C000019999999N999999999+99999+99999101581ADDMD1810101+9999SA1+1491REMSYN054SDBC1 46/// ///// 1//// 40158 58010 91300 222// 00149=
0088994027999992020010814004+32713-117173FM-13+000299999V0209999C000019999999N999999999+99999+99999101621ADDMD1510051+9999SA1+1511REMSYN054SDBC1 46/// ///// 1//// 40162 55005 91400 222// 00151=
0088994027999992020010815004+32713-117173FM-13+000299999V0209999C000019999999N999999999+99999+99999101641ADDMD1610061+9999SA1+1511REMSYN054SDBC1 46/// ///// 1//// 40164 56006 91500 222// 00151=
0088994027999992020010816004+32713-117173FM-13+000299999V0209999C000019999999N999999999+99999+99999101651ADDMD1110071+9999SA1+1501REMSYN054SDBC1 46/// ///// 1//// 40165 51007 91600 222// 00150=
0088994027999992020010817004+32713-117173FM-13+000299999V0209999C000019999999N999999999+99999+99999101711ADDMD1310091+9999SA1+1501REMSYN054SDBC1 46/// ///// 1//// 40171 53009 91700 222// 00150=
0088994027999992020010818004+32713-117173FM-13+000299999V0209999C000019999999N999999999+99999+99999101751ADDMD1310111+9999SA1+1501REMSYN054SDBC1 46/// ///// 1//// 40175 53011 91800 222// 00150=
0088994027999992020010819004+32713-117173FM-13+000299999V0209999C000019999999N999999999+99999+99999101761ADDMD1110111+9999SA1+1501REMSYN054SDBC1 46/// ///// 1//// 40176 51011 91900 222// 00150=
0088994027999992020010820004+32713-117173FM-13+000299999V0209999C000019999999N999999999+99999+99999101651ADDMD1810061+9999SA1+1501REMSYN054SDBC1 46/// ///// 1//// 40165 58006 92000 222// 00150=
0088994027999992020010821004+32713-117173FM-13+000299999V0209999C000019999999N999999999+99999+99999101581ADDMD1810171+9999SA1+1501REMSYN054SDBC1 46/// ///// 1//// 40158 58017 92100 222// 00150=
0088994027999992020010822004+32713-117173FM-13+000299999V0209999C000019999999N999999999+99999+99999101491ADDMD1610271+9999SA1+1511REMSYN054SDBC1 46/// ///// 1//// 40149 56027 92200 222// 00151=
0088994027999992020010823004+32713-117173FM-13+000299999V0209999C000019999999N999999999+99999+99999101501ADDMD1610151+9999SA1+1511REMSYN054SDBC1 46/// ///// 1//// 40150 56015 92300 222// 00151=
0088994027999992020010900004+32713-117173FM-13+000299999V0209999C000019999999N999999999+99999+99999101491ADDMD1610091+9999SA1+1511REMSYN054SDBC1 46/// ///// 1//// 40149 56009 90000 222// 00151=
0088994027999992020010901004+32713-117173FM-13+000299999V0209999C000019999999N999999999+99999+99999101501ADDMD1410001+9999SA1+1501REMSYN054SDBC1 46/// ///// 1//// 40150 54000 90100 222// 00150=
0088994027999992020010902004+32713-117173FM-13+000299999V0209999C000019999999N999999999+99999+99999101581ADDMD1310081+9999SA1+1491REMSYN054SDBC1 46/// ///// 1//// 40158 53008 90200 222// 00149=
0088994027999992020010903004+32713-117173FM-13+000299999V0209999C000019999999N999999999+99999+99999101611ADDMD1310121+9999SA1+1491REMSYN054SDBC1 46/// ///// 1//// 40161 53012 90300 222// 00149=
0088994027999992020010904004+32713-117173FM-13+000299999V0209999C000019999999N999999999+99999+99999101601ADDMD1110101+9999SA1+1491REMSYN054SDBC1 46/// ///// 1//// 40160 51010 90400 222// 00149=
0088994027999992020010905004+32713-117173FM-13+000299999V0209999C000019999999N999999999+99999+99999101621ADDMD1110041+9999SA1+1501REMSYN054SDBC1 46/// ///// 1//// 40162 51004 90500 222// 00150=
0088994027999992020010906004+32713-117173FM-13+000299999V0209999C000019999999N999999999+99999+99999101631ADDMD1410001+9999SA1+1501REMSYN054SDBC1 46/// ///// 1//// 40163 54000 90600 222// 00150=
0088994027999992020010907004+32713-117173FM-13+000299999V0209999C000019999999N999999999+99999+99999101621ADDMD1410001+9999SA1+1501REMSYN054SDBC1 46/// ///// 1//// 40162 54000 90700 222// 00150=
0088994027999992020010908004+32713-117173FM-13+000299999V0209999C000019999999N999999999+99999+99999101601ADDMD1410001+9999SA1+1501REMSYN054SDBC1 46/// ///// 1//// 40160 54000 90800 222// 00150=
0088994027999992020010909004+32713-117173FM-13+000299999V0209999C000019999999N999999999+99999+99999101581ADDMD1710051+9999SA1+1501REMSYN054SDBC1 46/// ///// 1//// 40158 57005 90900 222// 00150=
0088994027999992020010910004+32713-117173FM-13+000299999V0209999C000019999999N999999999+99999+99999101611ADDMD1510001+9999SA1+1501REMSYN054SDBC1 46/// ///// 1//// 40161 55000 91000 222// 00150=
0088994027999992020010911004+32713-117173FM-13+000299999V0209999C000019999999N999999999+99999+99999101571ADDMD1810031+9999SA1+1501REMSYN054SDBC1 46/// ///// 1//// 40157 58003 91100 222// 00150=
0088994027999992020010912004+32713-117173FM-13+000299999V0209999C000019999999N999999999+99999+99999101481ADDMD1810101+9999SA1+1491REMSYN054SDBC1 46/// ///// 1//// 40148 58010 91200 222// 00149=
0088994027999992020010913004+32713-117173FM-13+000299999V0209999C000019999999N999999999+99999+99999101521ADDMD1510091+9999SA1+1491REMSYN054SDBC1 46/// ///// 1//// 40152 55009 91300 222// 00149=
0088994027999992020010914004+32713-117173FM-13+000299999V0209999C000019999999N999999999+99999+99999101531ADDMD1610041+9999SA1+1501REMSYN054SDBC1 46/// ///// 1//// 40153 56004 91400 222// 00150=
0088994027999992020010915004+32713-117173FM-13+000299999V0209999C000019999999N999999999+99999+99999101631ADDMD1310151+9999SA1+1511REMSYN054SDBC1 46/// ///// 1//// 40163 53015 91500 222// 00151=
0088994027999992020010916004+32713-117173FM-13+000299999V0209999C000019999999N999999999+99999+99999101621ADDMD1210101+9999SA1+1511REMSYN054SDBC1 46/// ///// 1//// 40162 52010 91600 222// 00151=
0088994027999992020010917004+32713-117173FM-13+000299999V0209999C000019999999N999999999+99999+99999101691ADDMD1110161+9999SA1+1501REMSYN054SDBC1 46/// ///// 1//// 40169 51016 91700 222// 00150=
0088994027999992020010918004+32713-117173FM-13+000299999V0209999C000019999999N999999999+99999+99999101651ADDMD1990001+9999SA1+1501REMSYN054SDBC1 46/// ///// 1//// 40165 50000 91800 222// 00150=
0068994027999992020010919004+32713-117173FM-13+000299999V0209999C000019999999N999999999+99999+99999101601ADDSA1+1501REMSYN048SDBC1 46/// ///// 1//// 40160 91842 222// 00150=
0088994027999992020010920004+32713-117173FM-13+000299999V0209999C000019999999N999999999+99999+99999101501ADDMD1810191+9999SA1+1501REMSYN054SDBC1 46/// ///// 1//// 40150 58019 92000 222// 00150=
0088994027999992020010921004+32713-117173FM-13+000299999V0209999C000019999999N999999999+99999+99999101451ADDMD1610201+9999SA1+1511REMSYN054SDBC1 46/// ///// 1//// 40145 56020 92100 222// 00151=
0088994027999992020010922004+32713-117173FM-13+000299999V0209999C000019999999N999999999+99999+99999101421ADDMD1610151+9999SA1+1511REMSYN054SDBC1 46/// ///// 1//// 40142 56015 92200 222// 00151=
0088994027999992020010923004+32713-117173FM-13+000299999V0209999C000019999999N999999999+99999+99999101431ADDMD1610071+9999SA1+1511REMSYN054SDBC1 46/// ///// 1//// 40143 56007 92300 222// 00151=
0088994027999992020011000004+32713-117173FM-13+000299999V0209999C000019999999N999999999+99999+99999101431ADDMD1510001+9999SA1+1511REMSYN054SDBC1 46/// ///// 1//// 40143 55000 90000 222// 00151=
0088994027999992020011001004+32713-117173FM-13+000299999V0209999C000019999999N999999999+99999+99999101421ADDMD1410001+9999SA1+1501REMSYN054SDBC1 46/// ///// 1//// 40142 54000 90100 222// 00150=
0088994027999992020011002004+32713-117173FM-13+000299999V0209999C000019999999N999999999+99999+99999101431ADDMD1410001+9999SA1+1491REMSYN054SDBC1 46/// ///// 1//// 40143 54000 90200 222// 00149=
0088994027999992020011003004+32713-117173FM-13+000299999V0209999C000019999999N999999999+99999+99999101481ADDMD1310051+9999SA1+1491REMSYN054SDBC1 46/// ///// 1//// 40148 53005 90300 222// 00149=
0088994027999992020011004004+32713-117173FM-13+000299999V0209999C000019999999N999999999+99999+99999101521ADDMD1310101+9999SA1+1491REMSYN054SDBC1 46/// ///// 1//// 40152 53010 90400 222// 00149=
0088994027999992020011005004+32713-117173FM-13+000299999V0209999C000019999999N999999999+99999+99999101621ADDMD1310191+9999SA1+1491REMSYN054SDBC1 46/// ///// 1//// 40162 53019 90500 222// 00149=
0088994027999992020011006004+32713-117173FM-13+000299999V0209999C000019999999N999999999+99999+99999101701ADDMD1310221+9999SA1+1501REMSYN054SDBC1 46/// ///// 1//// 40170 53022 90600 222// 00150=
0088994027999992020011007004+32713-117173FM-13+000299999V0209999C000019999999N999999999+99999+99999101721ADDMD1110201+9999SA1+1501REMSYN054SDBC1 46/// ///// 1//// 40172 51020 90700 222// 00150=
0088994027999992020011008004+32713-117173FM-13+000299999V0209999C000019999999N999999999+99999+99999101811ADDMD1310191+9999SA1+1501REMSYN054SDBC1 46/// ///// 1//// 40181 53019 90800 222// 00150=
0088994027999992020011009004+32713-117173FM-13+000299999V0209999C000019999999N999999999+99999+99999101871ADDMD1310171+9999SA1+1501REMSYN054SDBC1 46/// ///// 1//// 40187 53017 90900 222// 00150=
0088994027999992020011010004+32713-117173FM-13+000299999V0209999C000019999999N999999999+99999+99999101911ADDMD1110191+9999SA1+1491REMSYN054SDBC1 46/// ///// 1//// 40191 51019 91000 222// 00149=
0088994027999992020011011004+32713-117173FM-13+000299999V0209999C000019999999N999999999+99999+99999102001ADDMD1310191+9999SA1+1491REMSYN054SDBC1 46/// ///// 1//// 40200 53019 91100 222// 00149=
0088994027999992020011012004+32713-117173FM-13+000299999V0209999C000019999999N999999999+99999+99999102031ADDMD1110161+9999SA1+1491REMSYN054SDBC1 46/// ///// 1//// 40203 51016 91200 222// 00149=
0068994027999992020011013004+32713-117173FM-13+000299999V0209999C000019999999N999999999+99999+99999102081ADDSA1+1491REMSYN048SDBC1 46/// ///// 1//// 40208 91242 222// 00149=
0068994027999992020011014004+32713-117173FM-13+000299999V0209999C000019999999N999999999+99999+99999102131ADDSA1+1491REMSYN048SDBC1 46/// ///// 1//// 40213 91342 222// 00149=
0068994027999992020011015004+32713-117173FM-13+000299999V0209999C000019999999N999999999+99999+99999102191ADDSA1+1501REMSYN048SDBC1 46/// ///// 1//// 40219 91442 222// 00150=
0068994027999992020011016004+32713-117173FM-13+000299999V0209999C000019999999N999999999+99999+99999102291ADDSA1+1501REMSYN048SDBC1 46/// ///// 1//// 40229 91536 222// 00150=
0088994027999992020011017004+32713-117173FM-13+000299999V0209999C000019999999N999999999+99999+99999102411ADDMD1310301+9999SA1+1501REMSYN054SDBC1 46/// ///// 1//// 40241 53030 91700 222// 00150=
0088994027999992020011018004+32713-117173FM-13+000299999V0209999C000019999999N999999999+99999+99999102411ADDMD1110191+9999SA1+1501REMSYN054SDBC1 46/// ///// 1//// 40241 51019 91800 222// 00150=
0088994027999992020011019004+32713-117173FM-13+000299999V0209999C000019999999N999999999+99999+99999102411ADDMD1110121+9999SA1+1501REMSYN054SDBC1 46/// ///// 1//// 40241 51012 91900 222// 00150=
0088994027999992020011020004+32713-117173FM-13+000299999V0209999C000019999999N999999999+99999+99999102281ADDMD1810131+9999SA1+1511REMSYN054SDBC1 46/// ///// 1//// 40228 58013 92000 222// 00151=
0088994027999992020011021004+32713-117173FM-13+000299999V0209999C000019999999N999999999+99999+99999102221ADDMD1810191+9999SA1+1511REMSYN054SDBC1 46/// ///// 1//// 40222 58019 92100 222// 00151=
0088994027999992020011022004+32713-117173FM-13+000299999V0209999C000019999999N999999999+99999+99999102201ADDMD1610211+9999SA1+1521REMSYN054SDBC1 46/// ///// 1//// 40220 56021 92200 222// 00152=
0088994027999992020011023004+32713-117173FM-13+000299999V0209999C000019999999N999999999+99999+99999102251ADDMD1510031+9999SA1+1521REMSYN054SDBC1 46/// ///// 1//// 40225 55003 92300 222// 00152=
0088994027999992020011100004+32713-117173FM-13+000299999V0209999C000019999999N999999999+99999+99999102271ADDMD1210051+9999SA1+1521REMSYN054SDBC1 46/// ///// 1//// 40227 52005 90000 222// 00152=
0088994027999992020011101004+32713-117173FM-13+000299999V0209999C000019999999N999999999+99999+99999102271ADDMD1110071+9999SA1+1521REMSYN054SDBC1 46/// ///// 1//// 40227 51007 90100 222// 00152=
0068994027999992020011102004+32713-117173FM-13+000299999V0209999C000019999999N999999999+99999+99999102291ADDSA1+1501REMSYN048SDBC1 46/// ///// 1//// 40229 90142 222// 00150=
0088994027999992020011103004+32713-117173FM-13+000299999V0209999C000019999999N999999999+99999+99999102331ADDMD1310061+9999SA1+1491REMSYN054SDBC1 46/// ///// 1//// 40233 53006 90300 222// 00149=
0088994027999992020011104004+32713-117173FM-13+000299999V0209999C000019999999N999999999+99999+99999102371ADDMD1310101+9999SA1+1491REMSYN054SDBC1 46/// ///// 1//// 40237 53010 90400 222// 00149=
0088994027999992020011105004+32713-117173FM-13+000299999V0209999C000019999999N999999999+99999+99999102351ADDMD1110061+9999SA1+1491REMSYN054SDBC1 46/// ///// 1//// 40235 51006 90500 222// 00149=
0088994027999992020011106004+32713-117173FM-13+000299999V0209999C000019999999N999999999+99999+99999102371ADDMD1110041+9999SA1+1501REMSYN054SDBC1 46/// ///// 1//// 40237 51004 90600 222// 00150=
0068994027999992020011107004+32713-117173FM-13+000299999V0209999C000019999999N999999999+99999+99999102381ADDSA1+1501REMSYN048SDBC1 46/// ///// 1//// 40238 90642 222// 00150=
0088994027999992020011108004+32713-117173FM-13+000299999V0209999C000019999999N999999999+99999+99999102351ADDMD1410001+9999SA1+1501REMSYN054SDBC1 46/// ///// 1//// 40235 54000 90800 222// 00150=
0088994027999992020011109004+32713-117173FM-13+000299999V0209999C000019999999N999999999+99999+99999102321ADDMD1810051+9999SA1+1501REMSYN054SDBC1 46/// ///// 1//// 40232 58005 90900 222// 00150=
0088994027999992020011110004+32713-117173FM-13+000299999V0209999C000019999999N999999999+99999+99999102291ADDMD1810071+9999SA1+1501REMSYN054SDBC1 46/// ///// 1//// 40229 58007 91000 222// 00150=
0088994027999992020011111004+32713-117173FM-13+000299999V0209999C000019999999N999999999+99999+99999102221ADDMD1810131+9999SA1+1501REMSYN054SDBC1 46/// ///// 1//// 40222 58013 91100 222// 00150=
0068994027999992020011115004+32713-117173FM-13+000299999V0209999C000019999999N999999999+99999+99999102241ADDSA1+1491REMSYN048SDBC1 46/// ///// 1//// 40224 91442 222// 00149=
0088994027999992020011116004+32713-117173FM-13+000299999V0209999C000019999999N999999999+99999+99999102261ADDMD1110071+9999SA1+1501REMSYN054SDBC1 46/// ///// 1//// 40226 51007 91600 222// 00150=
0068994027999992020011117004+32713-117173FM-13+000299999V0209999C000019999999N999999999+99999+99999102271ADDSA1+1501REMSYN048SDBC1 46/// ///// 1//// 40227 91636 222// 00150=
0088994027999992020011118004+32713-117173FM-13+000299999V0209999C000019999999N999999999+99999+99999102321ADDMD1310081+9999SA1+1511REMSYN054SDBC1 46/// ///// 1//// 40232 53008 91800 222// 00151=
0068994027999992020011119004+32713-117173FM-13+000299999V0209999C000019999999N999999999+99999+99999102291ADDSA1+1501REMSYN048SDBC1 46/// ///// 1//// 40229 91842 222// 00150=
0088994027999992020011120004+32713-117173FM-13+000299999V0209999C000019999999N999999999+99999+99999102051ADDMD1810231+9999SA1+1511REMSYN054SDBC1 46/// ///// 1//// 40205 58023 92000 222// 00151=
0088994027999992020011121004+32713-117173FM-13+000299999V0209999C000019999999N999999999+99999+99999101991ADDMD1610331+9999SA1+1511REMSYN054SDBC1 46/// ///// 1//// 40199 56033 92100 222// 00151=
0068994027999992020011122004+32713-117173FM-13+000299999V0209999C000019999999N999999999+99999+99999101951ADDSA1+1511REMSYN048SDBC1 46/// ///// 1//// 40195 92136 222// 00151=
0068994027999992020011123004+32713-117173FM-13+000299999V0209999C000019999999N999999999+99999+99999101901ADDSA1+1521REMSYN048SDBC1 46/// ///// 1//// 40190 92242 222// 00152=
0088994027999992020011200004+32713-117173FM-13+000299999V0209999C000019999999N999999999+99999+99999101801ADDMD1710191+9999SA1+1521REMSYN054SDBC1 46/// ///// 1//// 40180 57019 90000 222// 00152=
0068994027999992020011201004+32713-117173FM-13+000299999V0209999C000019999999N999999999+99999+99999101811ADDSA1+1521REMSYN048SDBC1 46/// ///// 1//// 40181 90042 222// 00152=
0068994027999992020011202004+32713-117173FM-13+000299999V0209999C000019999999N999999999+99999+99999101761ADDSA1+1511REMSYN048SDBC1 46/// ///// 1//// 40176 90142 222// 00151=
0088994027999992020011204004+32713-117173FM-13+000299999V0209999C000019999999N999999999+99999+99999101841ADDMD1310041+9999SA1+1491REMSYN054SDBC1 46/// ///// 1//// 40184 53004 90400 222// 00149=
0068994027999992020011205004+32713-117173FM-13+000299999V0209999C000019999999N999999999+99999+99999101861ADDSA1+1491REMSYN048SDBC1 46/// ///// 1//// 40186 90442 222// 00149=
0068994027999992020011206004+32713-117173FM-13+000299999V0209999C000019999999N999999999+99999+99999101931ADDSA1+1501REMSYN048SDBC1 46/// ///// 1//// 40193 90536 222// 00150=
0068994027999992020011207004+32713-117173FM-13+000299999V0209999C000019999999N999999999+99999+99999101881ADDSA1+1501REMSYN048SDBC1 46/// ///// 1//// 40188 90642 222// 00150=
0068994027999992020011208004+32713-117173FM-13+000299999V0209999C000019999999N999999999+99999+99999101851ADDSA1+1501REMSYN048SDBC1 46/// ///// 1//// 40185 90736 222// 00150=
0088994027999992020011209004+32713-117173FM-13+000299999V0209999C000019999999N999999999+99999+99999101841ADDMD1610081+9999SA1+1501REMSYN054SDBC1 46/// ///// 1//// 40184 56008 90900 222// 00150=
0088994027999992020011210004+32713-117173FM-13+000299999V0209999C000019999999N999999999+99999+99999101871ADDMD1510001+9999SA1+1501REMSYN054SDBC1 46/// ///// 1//// 40187 55000 91000 222// 00150=
0088994027999992020011211004+32713-117173FM-13+000299999V0209999C000019999999N999999999+99999+99999101821ADDMD1810041+9999SA1+1501REMSYN054SDBC1 46/// ///// 1//// 40182 58004 91100 222// 00150=
0068994027999992020011212004+32713-117173FM-13+000299999V0209999C000019999999N999999999+99999+99999101841ADDSA1+1491REMSYN048SDBC1 46/// ///// 1//// 40184 91136 222// 00149=
0068994027999992020011213004+32713-117173FM-13+000299999V0209999C000019999999N999999999+99999+99999101821ADDSA1+1501REMSYN048SDBC1 46/// ///// 1//// 40182 91242 222// 00150=
0068994027999992020011214004+32713-117173FM-13+000299999V0209999C000019999999N999999999+99999+99999101861ADDSA1+1491REMSYN048SDBC1 46/// ///// 1//// 40186 91342 222// 00149=
0068994027999992020011215004+32713-117173FM-13+000299999V0209999C000019999999N999999999+99999+99999101901ADDSA1+1491REMSYN048SDBC1 46/// ///// 1//// 40190 91436 222// 00149=
0088994027999992020011216004+32713-117173FM-13+000299999V0209999C000019999999N999999999+99999+99999101951ADDMD1310121+9999SA1+1501REMSYN054SDBC1 46/// ///// 1//// 40195 53012 91600 222// 00150=
0068994027999992020011217004+32713-117173FM-13+000299999V0209999C000019999999N999999999+99999+99999101961ADDSA1+1501REMSYN048SDBC1 46/// ///// 1//// 40196 91636 222// 00150=
0068994027999992020011218004+32713-117173FM-13+000299999V0209999C000019999999N999999999+99999+99999101901ADDSA1+1501REMSYN048SDBC1 46/// ///// 1//// 40190 91736 222// 00150=
0088994027999992020011219004+32713-117173FM-13+000299999V0209999C000019999999N999999999+99999+99999101881ADDMD1710071+9999SA1+1501REMSYN054SDBC1 46/// ///// 1//// 40188 57007 91900 222// 00150=
0068994027999992020011220004+32713-117173FM-13+000299999V0209999C000019999999N999999999+99999+99999101801ADDSA1+1501REMSYN048SDBC1 46/// ///// 1//// 40180 91936 222// 00150=
0088994027999992020011221004+32713-117173FM-13+000299999V0209999C000019999999N999999999+99999+99999101701ADDMD1810191+9999SA1+1511REMSYN054SDBC1 46/// ///// 1//// 40170 58019 92100 222// 00151=
0088994027999992020011222004+32713-117173FM-13+000299999V0209999C000019999999N999999999+99999+99999101661ADDMD1610221+9999SA1+1521REMSYN054SDBC1 46/// ///// 1//// 40166 56022 92200 222// 00152=
0088994027999992020011223004+32713-117173FM-13+000299999V0209999C000019999999N999999999+99999+99999101641ADDMD1610131+9999SA1+1521REMSYN054SDBC1 46/// ///// 1//// 40164 56013 92300 222// 00152=
0068994027999992020011300004+32713-117173FM-13+000299999V0209999C000019999999N999999999+99999+99999101651ADDSA1+1521REMSYN048SDBC1 46/// ///// 1//// 40165 92336 222// 00152=
0068994027999992020011301004+32713-117173FM-13+000299999V0209999C000019999999N999999999+99999+99999101681ADDSA1+1521REMSYN048SDBC1 46/// ///// 1//// 40168 90036 222// 00152=
0068994027999992020011302004+32713-117173FM-13+000299999V0209999C000019999999N999999999+99999+99999101751ADDSA1+1521REMSYN048SDBC1 46/// ///// 1//// 40175 90136 222// 00152=
0068994027999992020011303004+32713-117173FM-13+000299999V0209999C000019999999N999999999+99999+99999101781ADDSA1+1501REMSYN048SDBC1 46/// ///// 1//// 40178 90242 222// 00150=
0068994027999992020011304004+32713-117173FM-13+000299999V0209999C000019999999N999999999+99999+99999101821ADDSA1+1501REMSYN048SDBC1 46/// ///// 1//// 40182 90336 222// 00150=
0068994027999992020011305004+32713-117173FM-13+000299999V0209999C000019999999N999999999+99999+99999101821ADDSA1+1501REMSYN048SDBC1 46/// ///// 1//// 40182 90436 222// 00150=
0068994027999992020011306004+32713-117173FM-13+000299999V0209999C000019999999N999999999+99999+99999101901ADDSA1+1491REMSYN048SDBC1 46/// ///// 1//// 40190 90536 222// 00149=
0068994027999992020011307004+32713-117173FM-13+000299999V0209999C000019999999N999999999+99999+99999101911ADDSA1+1501REMSYN048SDBC1 46/// ///// 1//// 40191 90636 222// 00150=
0068994027999992020011308004+32713-117173FM-13+000299999V0209999C000019999999N999999999+99999+99999101891ADDSA1+1501REMSYN048SDBC1 46/// ///// 1//// 40189 90736 222// 00150=
0088994027999992020011309004+32713-117173FM-13+000299999V0209999C000019999999N999999999+99999+99999101871ADDMD1710041+9999SA1+1501REMSYN054SDBC1 46/// ///// 1//// 40187 57004 90900 222// 00150=
0068994027999992020011310004+32713-117173FM-13+000299999V0209999C000019999999N999999999+99999+99999101861ADDSA1+1501REMSYN048SDBC1 46/// ///// 1//// 40186 90936 222// 00150=
0088994027999992020011311004+32713-117173FM-13+000299999V0209999C000019999999N999999999+99999+99999101861ADDMD1410001+9999SA1+1501REMSYN054SDBC1 46/// ///// 1//// 40186 54000 91100 222// 00150=
0088994027999992020011312004+32713-117173FM-13+000299999V0209999C000019999999N999999999+99999+99999101841ADDMD1710031+9999SA1+1501REMSYN054SDBC1 46/// ///// 1//// 40184 57003 91200 222// 00150=
0068994027999992020011313004+32713-117173FM-13+000299999V0209999C000019999999N999999999+99999+99999101841ADDSA1+1501REMSYN048SDBC1 46/// ///// 1//// 40184 91236 222// 00150=
0068994027999992020011314004+32713-117173FM-13+000299999V0209999C000019999999N999999999+99999+99999101861ADDSA1+1491REMSYN048SDBC1 46/// ///// 1//// 40186 91342 222// 00149=
0088994027999992020011315004+32713-117173FM-13+000299999V0209999C000019999999N999999999+99999+99999101921ADDMD1310081+9999SA1+1491REMSYN054SDBC1 46/// ///// 1//// 40192 53008 91500 222// 00149=
0088994027999992020011316004+32713-117173FM-13+000299999V0209999C000019999999N999999999+99999+99999101971ADDMD1210131+9999SA1+1491REMSYN054SDBC1 46/// ///// 1//// 40197 52013 91600 222// 00149=
0088994027999992020011317004+32713-117173FM-13+000299999V0209999C000019999999N999999999+99999+99999102061ADDMD1310171+9999SA1+1501REMSYN054SDBC1 46/// ///// 1//// 40206 53017 91700 222// 00150=
0088994027999992020011318004+32713-117173FM-13+000299999V0209999C000019999999N999999999+99999+99999102081ADDMD1110161+9999SA1+1501REMSYN054SDBC1 46/// ///// 1//// 40208 51016 91800 222// 00150=
0088994027999992020011323004+32713-117173FM-13+000299999V0209999C000019999999N999999999+99999+99999101831ADDMD1610061+9999SA1+1521REMSYN054SDBC1 46/// ///// 1//// 40183 56006 92300 222// 00152=
0088994027999992020011400004+32713-117173FM-13+000299999V0209999C000019999999N999999999+99999+99999101851ADDMD1410001+9999SA1+1521REMSYN054SDBC1 46/// ///// 1//// 40185 54000 90000 222// 00152=
0088994027999992020011401004+32713-117173FM-13+000299999V0209999C000019999999N999999999+99999+99999101841ADDMD1410001+9999SA1+1511REMSYN054SDBC1 46/// ///// 1//// 40184 54000 90100 222// 00151=
0088994027999992020011402004+32713-117173FM-13+000299999V0209999C000019999999N999999999+99999+99999101871ADDMD1310041+9999SA1+1511REMSYN054SDBC1 46/// ///// 1//// 40187 53004 90200 222// 00151=
0088994027999992020011403004+32713-117173FM-13+000299999V0209999C000019999999N999999999+99999+99999101861ADDMD1410001+9999SA1+1511REMSYN054SDBC1 46/// ///// 1//// 40186 54000 90300 222// 00151=
0088994027999992020011404004+32713-117173FM-13+000299999V0209999C000019999999N999999999+99999+99999101871ADDMD1110031+9999SA1+1501REMSYN054SDBC1 46/// ///// 1//// 40187 51003 90400 222// 00150=
0088994027999992020011405004+32713-117173FM-13+000299999V0209999C000019999999N999999999+99999+99999101901ADDMD1310031+9999SA1+1501REMSYN054SDBC1 46/// ///// 1//// 40190 53003 90500 222// 00150=
0088994027999992020011406004+32713-117173FM-13+000299999V0209999C000019999999N999999999+99999+99999101941ADDMD1310081+9999SA1+1501REMSYN054SDBC1 46/// ///// 1//// 40194 53008 90600 222// 00150=
0088994027999992020011407004+32713-117173FM-13+000299999V0209999C000019999999N999999999+99999+99999101951ADDMD1110081+9999SA1+1501REMSYN054SDBC1 46/// ///// 1//// 40195 51008 90700 222// 00150=
0088994027999992020011408004+32713-117173FM-13+000299999V0209999C000019999999N999999999+99999+99999101941ADDMD1110041+9999SA1+1501REMSYN054SDBC1 46/// ///// 1//// 40194 51004 90800 222// 00150=
0088994027999992020011409004+32713-117173FM-13+000299999V0209999C000019999999N999999999+99999+99999101941ADDMD1410001+9999SA1+1511REMSYN054SDBC1 46/// ///// 1//// 40194 54000 90900 222// 00151=
0088994027999992020011410004+32713-117173FM-13+000299999V0209999C000019999999N999999999+99999+99999101941ADDMD1410001+9999SA1+1511REMSYN054SDBC1 46/// ///// 1//// 40194 54000 91000 222// 00151=
0088994027999992020011411004+32713-117173FM-13+000299999V0209999C000019999999N999999999+99999+99999101891ADDMD1810051+9999SA1+1501REMSYN054SDBC1 46/// ///// 1//// 40189 58005 91100 222// 00150=
0088994027999992020011412004+32713-117173FM-13+000299999V0209999C000019999999N999999999+99999+99999101861ADDMD1810081+9999SA1+1501REMSYN054SDBC1 46/// ///// 1//// 40186 58008 91200 222// 00150=
0088994027999992020011413004+32713-117173FM-13+000299999V0209999C000019999999N999999999+99999+99999101901ADDMD1510041+9999SA1+1501REMSYN054SDBC1 46/// ///// 1//// 40190 55004 91300 222// 00150=
0088994027999992020011414004+32713-117173FM-13+000299999V0209999C000019999999N999999999+99999+99999101921ADDMD1310031+9999SA1+1501REMSYN054SDBC1 46/// ///// 1//// 40192 53003 91400 222// 00150=
0088994027999992020011415004+32713-117173FM-13+000299999V0209999C000019999999N999999999+99999+99999102011ADDMD1310151+9999SA1+1501REMSYN054SDBC1 46/// ///// 1//// 40201 53015 91500 222// 00150=
0088994027999992020011416004+32713-117173FM-13+000299999V0209999C000019999999N999999999+99999+99999102051ADDMD1310151+9999SA1+1501REMSYN054SDBC1 46/// ///// 1//// 40205 53015 91600 222// 00150=
0088994027999992020011417004+32713-117173FM-13+000299999V0209999C000019999999N999999999+99999+99999102141ADDMD1210221+9999SA1+1491REMSYN054SDBC1 46/// ///// 1//// 40214 52022 91700 222// 00149=
0088994027999992020011418004+32713-117173FM-13+000299999V0209999C000019999999N999999999+99999+99999102201ADDMD1310191+9999SA1+1501REMSYN054SDBC1 46/// ///// 1//// 40220 53019 91800 222// 00150=
0088994027999992020011419004+32713-117173FM-13+000299999V0209999C000019999999N999999999+99999+99999102101ADDMD1990051+9999SA1+1501REMSYN054SDBC1 46/// ///// 1//// 40210 50005 91900 222// 00150=
0088994027999992020011420004+32713-117173FM-13+000299999V0209999C000019999999N999999999+99999+99999101961ADDMD1810181+9999SA1+1501REMSYN054SDBC1 46/// ///// 1//// 40196 58018 92000 222// 00150=
0088994027999992020011421004+32713-117173FM-13+000299999V0209999C000019999999N999999999+99999+99999101841ADDMD1810361+9999SA1+1501REMSYN054SDBC1 46/// ///// 1//// 40184 58036 92100 222// 00150=
0088994027999992020011422004+32713-117173FM-13+000299999V0209999C000019999999N999999999+99999+99999101801ADDMD1610301+9999SA1+1521REMSYN054SDBC1 46/// ///// 1//// 40180 56030 92200 222// 00152=
0088994027999992020011423004+32713-117173FM-13+000299999V0209999C000019999999N999999999+99999+99999101791ADDMD1610171+9999SA1+1521REMSYN054SDBC1 46/// ///// 1//// 40179 56017 92300 222// 00152=
0088994027999992020011500004+32713-117173FM-13+000299999V0209999C000019999999N999999999+99999+99999101781ADDMD1610061+9999SA1+1521REMSYN054SDBC1 46/// ///// 1//// 40178 56006 90000 222// 00152=
0088994027999992020011501004+32713-117173FM-13+000299999V0209999C000019999999N999999999+99999+99999101751ADDMD1810051+9999SA1+1511REMSYN054SDBC1 46/// ///// 1//// 40175 58005 90100 222// 00151=
0088994027999992020011502004+32713-117173FM-13+000299999V0209999C000019999999N999999999+99999+99999101781ADDMD1510001+9999SA1+1521REMSYN054SDBC1 46/// ///// 1//// 40178 55000 90200 222// 00152=
0088994027999992020011503004+32713-117173FM-13+000299999V0209999C000019999999N999999999+99999+99999101771ADDMD1510001+9999SA1+1511REMSYN054SDBC1 46/// ///// 1//// 40177 55000 90300 222// 00151=
0088994027999992020011504004+32713-117173FM-13+000299999V0209999C000019999999N999999999+99999+99999101841ADDMD1310091+9999SA1+1511REMSYN054SDBC1 46/// ///// 1//// 40184 53009 90400 222// 00151=
0088994027999992020011505004+32713-117173FM-13+000299999V0209999C000019999999N999999999+99999+99999101821ADDMD1210041+9999SA1+1501REMSYN054SDBC1 46/// ///// 1//// 40182 52004 90500 222// 00150=
0088994027999992020011506004+32713-117173FM-13+000299999V0209999C000019999999N999999999+99999+99999101831ADDMD1110061+9999SA1+1501REMSYN054SDBC1 46/// ///// 1//// 40183 51006 90600 222// 00150=
0088994027999992020011507004+32713-117173FM-13+000299999V0209999C000019999999N999999999+99999+99999101841ADDMD1410001+9999SA1+1501REMSYN054SDBC1 46/// ///// 1//// 40184 54000 90700 222// 00150=
0088994027999992020011508004+32713-117173FM-13+000299999V0209999C000019999999N999999999+99999+99999101781ADDMD1810041+9999SA1+1501REMSYN054SDBC1 46/// ///// 1//// 40178 58004 90800 222// 00150=
0088994027999992020011509004+32713-117173FM-13+000299999V0209999C000019999999N999999999+99999+99999101811ADDMD1510001+9999SA1+1511REMSYN054SDBC1 46/// ///// 1//// 40181 55000 90900 222// 00151=
0088994027999992020011510004+32713-117173FM-13+000299999V0209999C000019999999N999999999+99999+99999101781ADDMD1610061+9999SA1+1511REMSYN054SDBC1 46/// ///// 1//// 40178 56006 91000 222// 00151=
0088994027999992020011511004+32713-117173FM-13+000299999V0209999C000019999999N999999999+99999+99999101721ADDMD1810061+9999SA1+1511REMSYN054SDBC1 46/// ///// 1//// 40172 58006 91100 222// 00151=
0088994027999992020011512004+32713-117173FM-13+000299999V0209999C000019999999N999999999+99999+99999101671ADDMD1810141+9999SA1+1511REMSYN054SDBC1 46/// ///// 1//// 40167 58014 91200 222// 00151=
0088994027999992020011513004+32713-117173FM-13+000299999V0209999C000019999999N999999999+99999+99999101631ADDMD1610151+9999SA1+1501REMSYN054SDBC1 46/// ///// 1//// 40163 56015 91300 222// 00150=
0088994027999992020011514004+32713-117173FM-13+000299999V0209999C000019999999N999999999+99999+99999101611ADDMD1610111+9999SA1+1501REMSYN054SDBC1 46/// ///// 1//// 40161 56011 91400 222// 00150=
0088994027999992020011515004+32713-117173FM-13+000299999V0209999C000019999999N999999999+99999+99999101611ADDMD1610061+9999SA1+1491REMSYN054SDBC1 46/// ///// 1//// 40161 56006 91500 222// 00149=
0088994027999992020011516004+32713-117173FM-13+000299999V0209999C000019999999N999999999+99999+99999101671ADDMD1310041+9999SA1+1491REMSYN054SDBC1 46/// ///// 1//// 40167 53004 91600 222// 00149=
0088994027999992020011517004+32713-117173FM-13+000299999V0209999C000019999999N999999999+99999+99999101681ADDMD1210071+9999SA1+1501REMSYN054SDBC1 46/// ///// 1//// 40168 52007 91700 222// 00150=
0088994027999992020011518004+32713-117173FM-13+000299999V0209999C000019999999N999999999+99999+99999101681ADDMD1110071+9999SA1+1491REMSYN054SDBC1 46/// ///// 1//// 40168 51007 91800 222// 00149=
0088994027999992020011519004+32713-117173FM-13+000299999V0209999C000019999999N999999999+99999+99999101651ADDMD1990001+9999SA1+1501REMSYN054SDBC1 46/// ///// 1//// 40165 50000 91900 222// 00150=
0088994027999992020011520004+32713-117173FM-13+000299999V0209999C000019999999N999999999+99999+99999101521ADDMD1810161+9999SA1+1501REMSYN054SDBC1 46/// ///// 1//// 40152 58016 92000 222// 00150=
0088994027999992020011521004+32713-117173FM-13+000299999V0209999C000019999999N999999999+99999+99999101471ADDMD1810211+9999SA1+1501REMSYN054SDBC1 46/// ///// 1//// 40147 58021 92100 222// 00150=
0088994027999992020011522004+32713-117173FM-13+000299999V0209999C000019999999N999999999+99999+99999101401ADDMD1610251+9999SA1+1511REMSYN054SDBC1 46/// ///// 1//// 40140 56025 92200 222// 00151=
0088994027999992020011523004+32713-117173FM-13+000299999V0209999C000019999999N999999999+99999+99999101381ADDMD1610141+9999SA1+1521REMSYN054SDBC1 46/// ///// 1//// 40138 56014 92300 222// 00152=
0088994027999992020011600004+32713-117173FM-13+000299999V0209999C000019999999N999999999+99999+99999101411ADDMD1510061+9999SA1+1511REMSYN054SDBC1 46/// ///// 1//// 40141 55006 90000 222// 00151=
0088994027999992020011601004+32713-117173FM-13+000299999V0209999C000019999999N999999999+99999+99999101461ADDMD1310061+9999SA1+1511REMSYN054SDBC1 46/// ///// 1//// 40146 53006 90100 222// 00151=
0088994027999992020011602004+32713-117173FM-13+000299999V0209999C000019999999N999999999+99999+99999101491ADDMD1210111+9999SA1+1511REMSYN054SDBC1 46/// ///// 1//// 40149 52011 90200 222// 00151=
0088994027999992020011603004+32713-117173FM-13+000299999V0209999C000019999999N999999999+99999+99999101531ADDMD1110121+9999SA1+1511REMSYN054SDBC1 46/// ///// 1//// 40153 51012 90300 222// 00151=
0088994027999992020011604004+32713-117173FM-13+000299999V0209999C000019999999N999999999+99999+99999101561ADDMD1210101+9999SA1+1511REMSYN054SDBC1 46/// ///// 1//// 40156 52010 90400 222// 00151=
0088994027999992020011605004+32713-117173FM-13+000299999V0209999C000019999999N999999999+99999+99999101611ADDMD1310121+9999SA1+1511REMSYN054SDBC1 46/// ///// 1//// 40161 53012 90500 222// 00151=
0088994027999992020011606004+32713-117173FM-13+000299999V0209999C000019999999N999999999+99999+99999101621ADDMD1110091+9999SA1+1501REMSYN054SDBC1 46/// ///// 1//// 40162 51009 90600 222// 00150=
0088994027999992020011607004+32713-117173FM-13+000299999V0209999C000019999999N999999999+99999+99999101691ADDMD1310131+9999SA1+1501REMSYN054SDBC1 46/// ///// 1//// 40169 53013 90700 222// 00150=
0088994027999992020011608004+32713-117173FM-13+000299999V0209999C000019999999N999999999+99999+99999101651ADDMD1990041+9999SA1+1501REMSYN054SDBC1 46/// ///// 1//// 40165 50004 90800 222// 00150=
0088994027999992020011609004+32713-117173FM-13+000299999V0209999C000019999999N999999999+99999+99999101681ADDMD1110061+9999SA1+1501REMSYN054SDBC1 46/// ///// 1//// 40168 51006 90900 222// 00150=
0088994027999992020011610004+32713-117173FM-13+000299999V0209999C000019999999N999999999+99999+99999101641ADDMD1710051+9999SA1+1511REMSYN054SDBC1 46/// ///// 1//// 40164 57005 91000 222// 00151=
0088994027999992020011611004+32713-117173FM-13+000299999V0209999C000019999999N999999999+99999+99999101641ADDMD1990001+9999SA1+1511REMSYN054SDBC1 46/// ///// 1//// 40164 50000 91100 222// 00151=
0088994027999992020011612004+32713-117173FM-13+000299999V0209999C000019999999N999999999+99999+99999101611ADDMD1610071+9999SA1+1511REMSYN054SDBC1 46/// ///// 1//// 40161 56007 91200 222// 00151=
0088994027999992020011613004+32713-117173FM-13+000299999V0209999C000019999999N999999999+99999+99999101601ADDMD1710041+9999SA1+1511REMSYN054SDBC1 46/// ///// 1//// 40160 57004 91300 222// 00151=
0088994027999992020011614004+32713-117173FM-13+000299999V0209999C000019999999N999999999+99999+99999101651ADDMD1510001+9999SA1+1501REMSYN054SDBC1 46/// ///// 1//// 40165 55000 91400 222// 00150=
0088994027999992020011615004+32713-117173FM-13+000299999V0209999C000019999999N999999999+99999+99999101631ADDMD1410001+9999SA1+1501REMSYN054SDBC1 46/// ///// 1//// 40163 54000 91500 222// 00150=
0088994027999992020011616004+32713-117173FM-13+000299999V0209999C000019999999N999999999+99999+99999101691ADDMD1310091+9999SA1+1501REMSYN054SDBC1 46/// ///// 1//// 40169 53009 91600 222// 00150=
0088994027999992020011617004+32713-117173FM-13+000299999V0209999C000019999999N999999999+99999+99999101751ADDMD1310101+9999SA1+1501REMSYN054SDBC1 46/// ///// 1//// 40175 53010 91700 222// 00150=
0088994027999992020011618004+32713-117173FM-13+000299999V0209999C000019999999N999999999+99999+99999101841ADDMD1310211+9999SA1+1501REMSYN054SDBC1 46/// ///// 1//// 40184 53021 91800 222// 00150=
0088994027999992020011619004+32713-117173FM-13+000299999V0209999C000019999999N999999999+99999+99999101831ADDMD1110141+9999SA1+1501REMSYN054SDBC1 46/// ///// 1//// 40183 51014 91900 222// 00150=
0088994027999992020011620004+32713-117173FM-13+000299999V0209999C000019999999N999999999+99999+99999101761ADDMD1990001+9999SA1+1501REMSYN054SDBC1 46/// ///// 1//// 40176 50000 92000 222// 00150=
0088994027999992020011621004+32713-117173FM-13+000299999V0209999C000019999999N999999999+99999+99999101701ADDMD1810141+9999SA1+1501REMSYN054SDBC1 46/// ///// 1//// 40170 58014 92100 222// 00150=
0088994027999992020011622004+32713-117173FM-13+000299999V0209999C000019999999N999999999+99999+99999101741ADDMD1510091+9999SA1+1511REMSYN054SDBC1 46/// ///// 1//// 40174 55009 92200 222// 00151=
0088994027999992020011623004+32713-117173FM-13+000299999V0209999C000019999999N999999999+99999+99999101821ADDMD1310061+9999SA1+1511REMSYN054SDBC1 46/// ///// 1//// 40182 53006 92300 222// 00151=
0088994027999992020011700004+32713-117173FM-13+000299999V0209999C000019999999N999999999+99999+99999101851ADDMD1110151+9999SA1+1511REMSYN054SDBC1 46/// ///// 1//// 40185 51015 90000 222// 00151=
0088994027999992020011701004+32713-117173FM-13+000299999V0209999C000019999999N999999999+99999+99999101891ADDMD1110151+9999SA1+1511REMSYN054SDBC1 46/// ///// 1//// 40189 51015 90100 222// 00151=
0088994027999992020011702004+32713-117173FM-13+000299999V0209999C000019999999N999999999+99999+99999101941ADDMD1310121+9999SA1+1511REMSYN054SDBC1 46/// ///// 1//// 40194 53012 90200 222// 00151=
0088994027999992020011703004+32713-117173FM-13+000299999V0209999C000019999999N999999999+99999+99999101961ADDMD1110111+9999SA1+1511REMSYN054SDBC1 46/// ///// 1//// 40196 51011 90300 222// 00151=
0088994027999992020011704004+32713-117173FM-13+000299999V0209999C000019999999N999999999+99999+99999102011ADDMD1210121+9999SA1+1501REMSYN054SDBC1 46/// ///// 1//// 40201 52012 90400 222// 00150=
0088994027999992020011705004+32713-117173FM-13+000299999V0209999C000019999999N999999999+99999+99999102031ADDMD1210091+9999SA1+1501REMSYN054SDBC1 46/// ///// 1//// 40203 52009 90500 222// 00150=
0088994027999992020011706004+32713-117173FM-13+000299999V0209999C000019999999N999999999+99999+99999102101ADDMD1310141+9999SA1+1501REMSYN054SDBC1 46/// ///// 1//// 40210 53014 90600 222// 00150=
0088994027999992020011707004+32713-117173FM-13+000299999V0209999C000019999999N999999999+99999+99999102141ADDMD1310131+9999SA1+1501REMSYN054SDBC1 46/// ///// 1//// 40214 53013 90700 222// 00150=
0088994027999992020011708004+32713-117173FM-13+000299999V0209999C000019999999N999999999+99999+99999102091ADDMD1990061+9999SA1+1501REMSYN054SDBC1 46/// ///// 1//// 40209 50006 90800 222// 00150=
0088994027999992020011709004+32713-117173FM-13+000299999V0209999C000019999999N999999999+99999+99999102091ADDMD1990001+9999SA1+1501REMSYN054SDBC1 46/// ///// 1//// 40209 50000 90900 222// 00150=
0088994027999992020011710004+32713-117173FM-13+000299999V0209999C000019999999N999999999+99999+99999102111ADDMD1610031+9999SA1+1511REMSYN054SDBC1 46/// ///// 1//// 40211 56003 91000 222// 00151=
0068994027999992020011711004+32713-117173FM-13+000299999V0209999C000019999999N999999999+99999+99999102111ADDSA1+1511REMSYN048SDBC1 46/// ///// 1//// 40211 91036 222// 00151=
0088994027999992020011712004+32713-117173FM-13+000299999V0209999C000019999999N999999999+99999+99999102081ADDMD1990001+9999SA1+1511REMSYN054SDBC1 46/// ///// 1//// 40208 50000 91200 222// 00151=
0088994027999992020011713004+32713-117173FM-13+000299999V0209999C000019999999N999999999+99999+99999102101ADDMD1410001+9999SA1+1501REMSYN054SDBC1 46/// ///// 1//// 40210 54000 91300 222// 00150=
0088994027999992020011714004+32713-117173FM-13+000299999V0209999C000019999999N999999999+99999+99999102121ADDMD1510001+9999SA1+1501REMSYN054SDBC1 46/// ///// 1//// 40212 55000 91400 222// 00150=
0088994027999992020011715004+32713-117173FM-13+000299999V0209999C000019999999N999999999+99999+99999102211ADDMD1310131+9999SA1+1501REMSYN054SDBC1 46/// ///// 1//// 40221 53013 91500 222// 00150=
0068994027999992020011716004+32713-117173FM-13+000299999V0209999C000019999999N999999999+99999+99999102251ADDSA1+1501REMSYN048SDBC1 46/// ///// 1//// 40225 91536 222// 00150=
0088994027999992020011717004+32713-117173FM-13+000299999V0209999C000019999999N999999999+99999+99999102361ADDMD1210241+9999SA1+1501REMSYN054SDBC1 46/// ///// 1//// 40236 52024 91700 222// 00150=
0088994027999992020011718004+32713-117173FM-13+000299999V0209999C000019999999N999999999+99999+99999102411ADDMD1210201+9999SA1+1501REMSYN054SDBC1 46/// ///// 1//// 40241 52020 91800 222// 00150=
0068994027999992020011719004+32713-117173FM-13+000299999V0209999C000019999999N999999999+99999+99999102431ADDSA1+1501REMSYN048SDBC1 46/// ///// 1//// 40243 91836 222// 00150=
0068994027999992020011720004+32713-117173FM-13+000299999V0209999C000019999999N999999999+99999+99999102391ADDSA1+1511REMSYN048SDBC1 46/// ///// 1//// 40239 91936 222// 00151=
0088994027999992020011721004+32713-117173FM-13+000299999V0209999C000019999999N999999999+99999+99999102271ADDMD1810141+9999SA1+1511REMSYN054SDBC1 46/// ///// 1//// 40227 58014 92100 222// 00151=
0088994027999992020011722004+32713-117173FM-13+000299999V0209999C000019999999N999999999+99999+99999102211ADDMD1610221+9999SA1+1511REMSYN054SDBC1 46/// ///// 1//// 40221 56022 92200 222// 00151=
0088994027999992020011723004+32713-117173FM-13+000299999V0209999C000019999999N999999999+99999+99999102171ADDMD1610181+9999SA1+1511REMSYN054SDBC1 46/// ///// 1//// 40217 56018 92300 222// 00151=
0088994027999992020011800004+32713-117173FM-13+000299999V0209999C000019999999N999999999+99999+99999102161ADDMD1610111+9999SA1+1511REMSYN054SDBC1 46/// ///// 1//// 40216 56011 90000 222// 00151=
0088994027999992020011801004+32713-117173FM-13+000299999V0209999C000019999999N999999999+99999+99999102161ADDMD1610051+9999SA1+1511REMSYN054SDBC1 46/// ///// 1//// 40216 56005 90100 222// 00151=
0088994027999992020011802004+32713-117173FM-13+000299999V0209999C000019999999N999999999+99999+99999102221ADDMD1310051+9999SA1+1511REMSYN054SDBC1 46/// ///// 1//// 40222 53005 90200 222// 00151=
0088994027999992020011803004+32713-117173FM-13+000299999V0209999C000019999999N999999999+99999+99999102221ADDMD1210061+9999SA1+1511REMSYN054SDBC1 46/// ///// 1//// 40222 52006 90300 222// 00151=
0088994027999992020011804004+32713-117173FM-13+000299999V0209999C000019999999N999999999+99999+99999102251ADDMD1110091+9999SA1+1501REMSYN054SDBC1 46/// ///// 1//// 40225 51009 90400 222// 00150=
0088994027999992020011805004+32713-117173FM-13+000299999V0209999C000019999999N999999999+99999+99999102241ADDMD1410001+9999SA1+1511REMSYN054SDBC1 46/// ///// 1//// 40224 54000 90500 222// 00151=
0088994027999992020011806004+32713-117173FM-13+000299999V0209999C000019999999N999999999+99999+99999102261ADDMD1110041+9999SA1+1501REMSYN054SDBC1 46/// ///// 1//// 40226 51004 90600 222// 00150=
0088994027999992020011807004+32713-117173FM-13+000299999V0209999C000019999999N999999999+99999+99999102281ADDMD1210031+9999SA1+1501REMSYN054SDBC1 46/// ///// 1//// 40228 52003 90700 222// 00150=
0088994027999992020011808004+32713-117173FM-13+000299999V0209999C000019999999N999999999+99999+99999102261ADDMD1410001+9999SA1+1491REMSYN054SDBC1 46/// ///// 1//// 40226 54000 90800 222// 00149=
0088994027999992020011809004+32713-117173FM-13+000299999V0209999C000019999999N999999999+99999+99999102251ADDMD1410001+9999SA1+1501REMSYN054SDBC1 46/// ///// 1//// 40225 54000 90900 222// 00150=
0088994027999992020011810004+32713-117173FM-13+000299999V0209999C000019999999N999999999+99999+99999102211ADDMD1810071+9999SA1+1501REMSYN054SDBC1 46/// ///// 1//// 40221 58007 91000 222// 00150=
0068994027999992020011811004+32713-117173FM-13+000299999V0209999C000019999999N999999999+99999+99999102181ADDSA1+1511REMSYN048SDBC1 46/// ///// 1//// 40218 91036 222// 00151=
0088994027999992020011812004+32713-117173FM-13+000299999V0209999C000019999999N999999999+99999+99999102141ADDMD1610111+9999SA1+1511REMSYN054SDBC1 46/// ///// 1//// 40214 56011 91200 222// 00151=
0088994027999992020011813004+32713-117173FM-13+000299999V0209999C000019999999N999999999+99999+99999102121ADDMD1610091+9999SA1+1501REMSYN054SDBC1 46/// ///// 1//// 40212 56009 91300 222// 00150=
0088994027999992020011814004+32713-117173FM-13+000299999V0209999C000019999999N999999999+99999+99999102221ADDMD1310051+9999SA1+1501REMSYN054SDBC1 46/// ///// 1//// 40222 53005 91400 222// 00150=
0088994027999992020011815004+32713-117173FM-13+000299999V0209999C000019999999N999999999+99999+99999102251ADDMD1310111+9999SA1+1511REMSYN054SDBC1 46/// ///// 1//// 40225 53011 91500 222// 00151=
0088994027999992020011816004+32713-117173FM-13+000299999V0209999C000019999999N999999999+99999+99999102271ADDMD1110151+9999SA1+1501REMSYN054SDBC1 46/// ///// 1//// 40227 51015 91600 222// 00150=
0088994027999992020011817004+32713-117173FM-13+000299999V0209999C000019999999N999999999+99999+99999102301ADDMD1210081+9999SA1+1501REMSYN054SDBC1 46/// ///// 1//// 40230 52008 91700 222// 00150=
0088994027999992020011818004+32713-117173FM-13+000299999V0209999C000019999999N999999999+99999+99999102301ADDMD1210051+9999SA1+1501REMSYN054SDBC1 46/// ///// 1//// 40230 52005 91800 222// 00150=
0088994027999992020011819004+32713-117173FM-13+000299999V0209999C000019999999N999999999+99999+99999102191ADDMD1810081+9999SA1+1511REMSYN054SDBC1 46/// ///// 1//// 40219 58008 91900 222// 00151=
0088994027999992020011820004+32713-117173FM-13+000299999V0209999C000019999999N999999999+99999+99999102071ADDMD1810231+9999SA1+1511REMSYN054SDBC1 46/// ///// 1//// 40207 58023 92000 222// 00151=
0088994027999992020011821004+32713-117173FM-13+000299999V0209999C000019999999N999999999+99999+99999101991ADDMD1610311+9999SA1+1531REMSYN054SDBC1 46/// ///// 1//// 40199 56031 92100 222// 00153=
0088994027999992020011822004+32713-117173FM-13+000299999V0209999C000019999999N999999999+99999+99999101981ADDMD1610211+9999SA1+1531REMSYN054SDBC1 46/// ///// 1//// 40198 56021 92200 222// 00153=
0088994027999992020011823004+32713-117173FM-13+000299999V0209999C000019999999N999999999+99999+99999101951ADDMD1610121+9999SA1+1521REMSYN054SDBC1 46/// ///// 1//// 40195 56012 92300 222// 00152=
0088994027999992020011900004+32713-117173FM-13+000299999V0209999C000019999999N999999999+99999+99999101971ADDMD1410001+9999SA1+1521REMSYN054SDBC1 46/// ///// 1//// 40197 54000 90000 222// 00152=
0088994027999992020011901004+32713-117173FM-13+000299999V0209999C000019999999N999999999+99999+99999101991ADDMD1510001+9999SA1+1521REMSYN054SDBC1 46/// ///// 1//// 40199 55000 90100 222// 00152=
0088994027999992020011902004+32713-117173FM-13+000299999V0209999C000019999999N999999999+99999+99999102001ADDMD1210051+9999SA1+1511REMSYN054SDBC1 46/// ///// 1//// 40200 52005 90200 222// 00151=
0088994027999992020011903004+32713-117173FM-13+000299999V0209999C000019999999N999999999+99999+99999102011ADDMD1210041+9999SA1+1511REMSYN054SDBC1 46/// ///// 1//// 40201 52004 90300 222// 00151=
0088994027999992020011904004+32713-117173FM-13+000299999V0209999C000019999999N999999999+99999+99999102011ADDMD1410001+9999SA1+1521REMSYN054SDBC1 46/// ///// 1//// 40201 54000 90400 222// 00152=
0088994027999992020011905004+32713-117173FM-13+000299999V0209999C000019999999N999999999+99999+99999102021ADDMD1410001+9999SA1+1521REMSYN054SDBC1 46/// ///// 1//// 40202 54000 90500 222// 00152=
0088994027999992020011906004+32713-117173FM-13+000299999V0209999C000019999999N999999999+99999+99999102071ADDMD1310061+9999SA1+1511REMSYN054SDBC1 46/// ///// 1//// 40207 53006 90600 222// 00151=
0088994027999992020011907004+32713-117173FM-13+000299999V0209999C000019999999N999999999+99999+99999102091ADDMD1210081+9999SA1+1511REMSYN054SDBC1 46/// ///// 1//// 40209 52008 90700 222// 00151=
0088994027999992020011908004+32713-117173FM-13+000299999V0209999C000019999999N999999999+99999+99999102071ADDMD1110051+9999SA1+1511REMSYN054SDBC1 46/// ///// 1//// 40207 51005 90800 222// 00151=
0088994027999992020011909004+32713-117173FM-13+000299999V0209999C000019999999N999999999+99999+99999102021ADDMD1810051+9999SA1+1511REMSYN054SDBC1 46/// ///// 1//// 40202 58005 90900 222// 00151=
0088994027999992020011910004+32713-117173FM-13+000299999V0209999C000019999999N999999999+99999+99999101951ADDMD1810141+9999SA1+1501REMSYN054SDBC1 46/// ///// 1//// 40195 58014 91000 222// 00150=
0088994027999992020011911004+32713-117173FM-13+000299999V0209999C000019999999N999999999+99999+99999101861ADDMD1810211+9999SA1+1501REMSYN054SDBC1 46/// ///// 1//// 40186 58021 91100 222// 00150=
0088994027999992020011912004+32713-117173FM-13+000299999V0209999C000019999999N999999999+99999+99999101831ADDMD1610191+9999SA1+1511REMSYN054SDBC1 46/// ///// 1//// 40183 56019 91200 222// 00151=
0088994027999992020011913004+32713-117173FM-13+000299999V0209999C000019999999N999999999+99999+99999101791ADDMD1610161+9999SA1+1511REMSYN054SDBC1 46/// ///// 1//// 40179 56016 91300 222// 00151=
0088994027999992020011914004+32713-117173FM-13+000299999V0209999C000019999999N999999999+99999+99999101831ADDMD1510031+9999SA1+1511REMSYN054SDBC1 46/// ///// 1//// 40183 55003 91400 222// 00151=
0088994027999992020011915004+32713-117173FM-13+000299999V0209999C000019999999N999999999+99999+99999101881ADDMD1310051+9999SA1+1511REMSYN054SDBC1 46/// ///// 1//// 40188 53005 91500 222// 00151=
0088994027999992020011916004+32713-117173FM-13+000299999V0209999C000019999999N999999999+99999+99999101901ADDMD1110111+9999SA1+1511REMSYN054SDBC1 46/// ///// 1//// 40190 51011 91600 222// 00151=
0088994027999992020011917004+32713-117173FM-13+000299999V0209999C000019999999N999999999+99999+99999101921ADDMD1110091+9999SA1+1501REMSYN054SDBC1 46/// ///// 1//// 40192 51009 91700 222// 00150=
0088994027999992020011918004+32713-117173FM-13+000299999V0209999C000019999999N999999999+99999+99999101941ADDMD1210061+9999SA1+1501REMSYN054SDBC1 46/// ///// 1//// 40194 52006 91800 222// 00150=
0088994027999992020011919004+32713-117173FM-13+000299999V0209999C000019999999N999999999+99999+99999101861ADDMD1810041+9999SA1+1501REMSYN054SDBC1 46/// ///// 1//// 40186 58004 91900 222// 00150=
0088994027999992020011920004+32713-117173FM-13+000299999V0209999C000019999999N999999999+99999+99999101761ADDMD1810161+9999SA1+1511REMSYN054SDBC1 46/// ///// 1//// 40176 58016 92000 222// 00151=
0088994027999992020011921004+32713-117173FM-13+000299999V0209999C000019999999N999999999+99999+99999101781ADDMD1610161+9999SA1+1521REMSYN054SDBC1 46/// ///// 1//// 40178 56016 92100 222// 00152=
0088994027999992020011922004+32713-117173FM-13+000299999V0209999C000019999999N999999999+99999+99999101801ADDMD1610061+9999SA1+1531REMSYN054SDBC1 46/// ///// 1//// 40180 56006 92200 222// 00153=
0088994027999992020011923004+32713-117173FM-13+000299999V0209999C000019999999N999999999+99999+99999101771ADDMD1990001+9999SA1+1531REMSYN054SDBC1 46/// ///// 1//// 40177 50000 92300 222// 00153=
0088994027999992020012000004+32713-117173FM-13+000299999V0209999C000019999999N999999999+99999+99999101771ADDMD1410001+9999SA1+1521REMSYN054SDBC1 46/// ///// 1//// 40177 54000 90000 222// 00152=
0088994027999992020012001004+32713-117173FM-13+000299999V0209999C000019999999N999999999+99999+99999101751ADDMD1610051+9999SA1+1511REMSYN054SDBC1 46/// ///// 1//// 40175 56005 90100 222// 00151=
0088994027999992020012002004+32713-117173FM-13+000299999V0209999C000019999999N999999999+99999+99999101761ADDMD1410001+9999SA1+1521REMSYN054SDBC1 46/// ///// 1//// 40176 54000 90200 222// 00152=
0088994027999992020012003004+32713-117173FM-13+000299999V0209999C000019999999N999999999+99999+99999101761ADDMD1410001+9999SA1+1521REMSYN054SDBC1 46/// ///// 1//// 40176 54000 90300 222// 00152=
0088994027999992020012004004+32713-117173FM-13+000299999V0209999C000019999999N999999999+99999+99999101811ADDMD1310061+9999SA1+1521REMSYN054SDBC1 46/// ///// 1//// 40181 53006 90400 222// 00152=
0088994027999992020012005004+32713-117173FM-13+000299999V0209999C000019999999N999999999+99999+99999101841ADDMD1310081+9999SA1+1521REMSYN054SDBC1 46/// ///// 1//// 40184 53008 90500 222// 00152=
0088994027999992020012006004+32713-117173FM-13+000299999V0209999C000019999999N999999999+99999+99999101831ADDMD1110071+9999SA1+1521REMSYN054SDBC1 46/// ///// 1//// 40183 51007 90600 222// 00152=
0088994027999992020012007004+32713-117173FM-13+000299999V0209999C000019999999N999999999+99999+99999101811ADDMD1990001+9999SA1+1521REMSYN054SDBC1 46/// ///// 1//// 40181 50000 90700 222// 00152=
0088994027999992020012008004+32713-117173FM-13+000299999V0209999C000019999999N999999999+99999+99999101801ADDMD1710041+9999SA1+1521REMSYN054SDBC1 46/// ///// 1//// 40180 57004 90800 222// 00152=
0088994027999992020012009004+32713-117173FM-13+000299999V0209999C000019999999N999999999+99999+99999101761ADDMD1810071+9999SA1+1521REMSYN054SDBC1 46/// ///// 1//// 40176 58007 90900 222// 00152=
0088994027999992020012010004+32713-117173FM-13+000299999V0209999C000019999999N999999999+99999+99999101791ADDMD1510001+9999SA1+1511REMSYN054SDBC1 46/// ///// 1//// 40179 55000 91000 222// 00151=
0088994027999992020012011004+32713-117173FM-13+000299999V0209999C000019999999N999999999+99999+99999101731ADDMD1810071+9999SA1+1511REMSYN054SDBC1 46/// ///// 1//// 40173 58007 91100 222// 00151=
0088994027999992020012012004+32713-117173FM-13+000299999V0209999C000019999999N999999999+99999+99999101681ADDMD1810081+9999SA1+1511REMSYN054SDBC1 46/// ///// 1//// 40168 58008 91200 222// 00151=
0088994027999992020012013004+32713-117173FM-13+000299999V0209999C000019999999N999999999+99999+99999101661ADDMD1610131+9999SA1+1511REMSYN054SDBC1 46/// ///// 1//// 40166 56013 91300 222// 00151=
0088994027999992020012014004+32713-117173FM-13+000299999V0209999C000019999999N999999999+99999+99999101721ADDMD1510001+9999SA1+1511REMSYN054SDBC1 46/// ///// 1//// 40172 55000 91400 222// 00151=
0088994027999992020012015004+32713-117173FM-13+000299999V0209999C000019999999N999999999+99999+99999101831ADDMD1310151+9999SA1+1511REMSYN054SDBC1 46/// ///// 1//// 40183 53015 91500 222// 00151=
0088994027999992020012016004+32713-117173FM-13+000299999V0209999C000019999999N999999999+99999+99999101951ADDMD1310291+9999SA1+1511REMSYN054SDBC1 46/// ///// 1//// 40195 53029 91600 222// 00151=
0088994027999992020012017004+32713-117173FM-13+000299999V0209999C000019999999N999999999+99999+99999101971ADDMD1110251+9999SA1+1511REMSYN054SDBC1 46/// ///// 1//// 40197 51025 91700 222// 00151=
0088994027999992020012018004+32713-117173FM-13+000299999V0209999C000019999999N999999999+99999+99999102031ADDMD1110201+9999SA1+1511REMSYN054SDBC1 46/// ///// 1//// 40203 51020 91800 222// 00151=
0088994027999992020012019004+32713-117173FM-13+000299999V0209999C000019999999N999999999+99999+99999102011ADDMD1210061+9999SA1+1511REMSYN054SDBC1 46/// ///// 1//// 40201 52006 91900 222// 00151=
0088994027999992020012020004+32713-117173FM-13+000299999V0209999C000019999999N999999999+99999+99999101801ADDMD1810171+9999SA1+1521REMSYN054SDBC1 46/// ///// 1//// 40180 58017 92000 222// 00152=
0088994027999992020012021004+32713-117173FM-13+000299999V0209999C000019999999N999999999+99999+99999101661ADDMD1810371+9999SA1+1521REMSYN054SDBC1 46/// ///// 1//// 40166 58037 92100 222// 00152=
0088994027999992020012022004+32713-117173FM-13+000299999V0209999C000019999999N999999999+99999+99999101771ADDMD1510241+9999SA1+1521REMSYN054SDBC1 46/// ///// 1//// 40177 55024 92200 222// 00152=
0088994027999992020012023004+32713-117173FM-13+000299999V0209999C000019999999N999999999+99999+99999101771ADDMD1610031+9999SA1+1521REMSYN054SDBC1 46/// ///// 1//// 40177 56003 92300 222// 00152=
0068994027999992020012100004+32713-117173FM-13+000299999V0209999C000019999999N999999999+99999+99999101791ADDSA1+1511REMSYN048SDBC1 46/// ///// 1//// 40179 92336 222// 00151=
0088994027999992020012101004+32713-117173FM-13+000299999V0209999C000019999999N999999999+99999+99999101731ADDMD1710041+9999SA1+1511REMSYN054SDBC1 46/// ///// 1//// 40173 57004 90100 222// 00151=
0088994027999992020012102004+32713-117173FM-13+000299999V0209999C000019999999N999999999+99999+99999101721ADDMD1610051+9999SA1+1511REMSYN054SDBC1 46/// ///// 1//// 40172 56005 90200 222// 00151=
0088994027999992020012103004+32713-117173FM-13+000299999V0209999C000019999999N999999999+99999+99999101851ADDMD1310121+9999SA1+1511REMSYN054SDBC1 46/// ///// 1//// 40185 53012 90300 222// 00151=
0088994027999992020012104004+32713-117173FM-13+000299999V0209999C000019999999N999999999+99999+99999101781ADDMD1990051+9999SA1+1511REMSYN054SDBC1 46/// ///// 1//// 40178 50005 90400 222// 00151=
0088994027999992020012105004+32713-117173FM-13+000299999V0209999C000019999999N999999999+99999+99999101771ADDMD1110051+9999SA1+1511REMSYN054SDBC1 46/// ///// 1//// 40177 51005 90500 222// 00151=
0088994027999992020012106004+32713-117173FM-13+000299999V0209999C000019999999N999999999+99999+99999101841ADDMD1510001+9999SA1+1511REMSYN054SDBC1 46/// ///// 1//// 40184 55000 90600 222// 00151=
0088994027999992020012107004+32713-117173FM-13+000299999V0209999C000019999999N999999999+99999+99999101941ADDMD1310161+9999SA1+1511REMSYN054SDBC1 46/// ///// 1//// 40194 53016 90700 222// 00151=
0088994027999992020012108004+32713-117173FM-13+000299999V0209999C000019999999N999999999+99999+99999101961ADDMD1110191+9999SA1+1511REMSYN054SDBC1 46/// ///// 1//// 40196 51019 90800 222// 00151=
0088994027999992020012109004+32713-117173FM-13+000299999V0209999C000019999999N999999999+99999+99999101951ADDMD1110111+9999SA1+1511REMSYN054SDBC1 46/// ///// 1//// 40195 51011 90900 222// 00151=
0088994027999992020012110004+32713-117173FM-13+000299999V0209999C000019999999N999999999+99999+99999101971ADDMD1210031+9999SA1+1511REMSYN054SDBC1 46/// ///// 1//// 40197 52003 91000 222// 00151=
0088994027999992020012111004+32713-117173FM-13+000299999V0209999C000019999999N999999999+99999+99999101931ADDMD1810031+9999SA1+1511REMSYN054SDBC1 46/// ///// 1//// 40193 58003 91100 222// 00151=
0088994027999992020012112004+32713-117173FM-13+000299999V0209999C000019999999N999999999+99999+99999101931ADDMD1410001+9999SA1+1511REMSYN054SDBC1 46/// ///// 1//// 40193 54000 91200 222// 00151=
0088994027999992020012113004+32713-117173FM-13+000299999V0209999C000019999999N999999999+99999+99999101941ADDMD1610031+9999SA1+1511REMSYN054SDBC1 46/// ///// 1//// 40194 56003 91300 222// 00151=
0088994027999992020012114004+32713-117173FM-13+000299999V0209999C000019999999N999999999+99999+99999102011ADDMD1310081+9999SA1+1511REMSYN054SDBC1 46/// ///// 1//// 40201 53008 91400 222// 00151=
0088994027999992020012115004+32713-117173FM-13+000299999V0209999C000019999999N999999999+99999+99999102031ADDMD1210101+9999SA1+1511REMSYN054SDBC1 46/// ///// 1//// 40203 52010 91500 222// 00151=
0088994027999992020012116004+32713-117173FM-13+000299999V0209999C000019999999N999999999+99999+99999102051ADDMD1110111+9999SA1+1511REMSYN054SDBC1 46/// ///// 1//// 40205 51011 91600 222// 00151=
0088994027999992020012117004+32713-117173FM-13+000299999V0209999C000019999999N999999999+99999+99999102121ADDMD1310111+9999SA1+1511REMSYN054SDBC1 46/// ///// 1//// 40212 53011 91700 222// 00151=
0088994027999992020012118004+32713-117173FM-13+000299999V0209999C000019999999N999999999+99999+99999102181ADDMD1310151+9999SA1+1511REMSYN054SDBC1 46/// ///// 1//// 40218 53015 91800 222// 00151=
0088994027999992020012119004+32713-117173FM-13+000299999V0209999C000019999999N999999999+99999+99999102191ADDMD1110141+9999SA1+1511REMSYN054SDBC1 46/// ///// 1//// 40219 51014 91900 222// 00151=
0088994027999992020012120004+32713-117173FM-13+000299999V0209999C000019999999N999999999+99999+99999102121ADDMD1990001+9999SA1+1511REMSYN054SDBC1 46/// ///// 1//// 40212 50000 92000 222// 00151=
0088994027999992020012121004+32713-117173FM-13+000299999V0209999C000019999999N999999999+99999+99999102051ADDMD1810131+9999SA1+1521REMSYN054SDBC1 46/// ///// 1//// 40205 58013 92100 222// 00152=
0088994027999992020012122004+32713-117173FM-13+000299999V0209999C000019999999N999999999+99999+99999102031ADDMD1610161+9999SA1+1521REMSYN054SDBC1 46/// ///// 1//// 40203 56016 92200 222// 00152=
0088994027999992020012123004+32713-117173FM-13+000299999V0209999C000019999999N999999999+99999+99999102081ADDMD1510041+9999SA1+1531REMSYN054SDBC1 46/// ///// 1//// 40208 55004 92300 222// 00153=
0088994027999992020012200004+32713-117173FM-13+000299999V0209999C000019999999N999999999+99999+99999102021ADDMD1810031+9999SA1+1521REMSYN054SDBC1 46/// ///// 1//// 40202 58003 90000 222// 00152=
0088994027999992020012201004+32713-117173FM-13+000299999V0209999C000019999999N999999999+99999+99999102071ADDMD1210041+9999SA1+1521REMSYN054SDBC1 46/// ///// 1//// 40207 52004 90100 222// 00152=
0088994027999992020012202004+32713-117173FM-13+000299999V0209999C000019999999N999999999+99999+99999102081ADDMD1510001+9999SA1+1521REMSYN054SDBC1 46/// ///// 1//// 40208 55000 90200 222// 00152=
0088994027999992020012203004+32713-117173FM-13+000299999V0209999C000019999999N999999999+99999+99999102151ADDMD1310131+9999SA1+1521REMSYN054SDBC1 46/// ///// 1//// 40215 53013 90300 222// 00152=
0088994027999992020012204004+32713-117173FM-13+000299999V0209999C000019999999N999999999+99999+99999102141ADDMD1210071+9999SA1+1521REMSYN054SDBC1 46/// ///// 1//// 40214 52007 90400 222// 00152=
0088994027999992020012205004+32713-117173FM-13+000299999V0209999C000019999999N999999999+99999+99999102211ADDMD1210131+9999SA1+1511REMSYN054SDBC1 46/// ///// 1//// 40221 52013 90500 222// 00151=
0088994027999992020012206004+32713-117173FM-13+000299999V0209999C000019999999N999999999+99999+99999102231ADDMD1210081+9999SA1+1521REMSYN054SDBC1 46/// ///// 1//// 40223 52008 90600 222// 00152=
0088994027999992020012207004+32713-117173FM-13+000299999V0209999C000019999999N999999999+99999+99999102271ADDMD1110131+9999SA1+1521REMSYN054SDBC1 46/// ///// 1//// 40227 51013 90700 222// 00152=
0088994027999992020012208004+32713-117173FM-13+000299999V0209999C000019999999N999999999+99999+99999102231ADDMD1990001+9999SA1+1521REMSYN054SDBC1 46/// ///// 1//// 40223 50000 90800 222// 00152=
0068994027999992020012209004+32713-117173FM-13+000299999V0209999C000019999999N999999999+99999+99999102241ADDSA1+1511REMSYN048SDBC1 46/// ///// 1//// 40224 90836 222// 00151=
0088994027999992020012210004+32713-117173FM-13+000299999V0209999C000019999999N999999999+99999+99999102251ADDMD1510001+9999SA1+1511REMSYN054SDBC1 46/// ///// 1//// 40225 55000 91000 222// 00151=
0088994027999992020012211004+32713-117173FM-13+000299999V0209999C000019999999N999999999+99999+99999102211ADDMD1990001+9999SA1+1511REMSYN054SDBC1 46/// ///// 1//// 40221 50000 91100 222// 00151=
0088994027999992020012212004+32713-117173FM-13+000299999V0209999C000019999999N999999999+99999+99999102161ADDMD1810041+9999SA1+1511REMSYN054SDBC1 46/// ///// 1//// 40216 58004 91200 222// 00151=
0088994027999992020012213004+32713-117173FM-13+000299999V0209999C000019999999N999999999+99999+99999102161ADDMD1610091+9999SA1+1511REMSYN054SDBC1 46/// ///// 1//// 40216 56009 91300 222// 00151=
0088994027999992020012214004+32713-117173FM-13+000299999V0209999C000019999999N999999999+99999+99999102171ADDMD1610041+9999SA1+1521REMSYN054SDBC1 46/// ///// 1//// 40217 56004 91400 222// 00152=
0088994027999992020012215004+32713-117173FM-13+000299999V0209999C000019999999N999999999+99999+99999102231ADDMD1310071+9999SA1+1521REMSYN054SDBC1 46/// ///// 1//// 40223 53007 91500 222// 00152=
0088994027999992020012216004+32713-117173FM-13+000299999V0209999C000019999999N999999999+99999+99999102231ADDMD1210071+9999SA1+1521REMSYN054SDBC1 46/// ///// 1//// 40223 52007 91600 222// 00152=
0088994027999992020012217004+32713-117173FM-13+000299999V0209999C000019999999N999999999+99999+99999102271ADDMD1110101+9999SA1+1521REMSYN054SDBC1 46/// ///// 1//// 40227 51010 91700 222// 00152=
0088994027999992020012218004+32713-117173FM-13+000299999V0209999C000019999999N999999999+99999+99999102271ADDMD1210041+9999SA1+1521REMSYN054SDBC1 46/// ///// 1//// 40227 52004 91800 222// 00152=
0088994027999992020012219004+32713-117173FM-13+000299999V0209999C000019999999N999999999+99999+99999102251ADDMD1990001+9999SA1+1521REMSYN054SDBC1 46/// ///// 1//// 40225 50000 91900 222// 00152=
0088994027999992020012220004+32713-117173FM-13+000299999V0209999C000019999999N999999999+99999+99999102121ADDMD1810151+9999SA1+1531REMSYN054SDBC1 46/// ///// 1//// 40212 58015 92000 222// 00153=
0088994027999992020012221004+32713-117173FM-13+000299999V0209999C000019999999N999999999+99999+99999102031ADDMD1810241+9999SA1+1531REMSYN054SDBC1 46/// ///// 1//// 40203 58024 92100 222// 00153=
0088994027999992020012222004+32713-117173FM-13+000299999V0209999C000019999999N999999999+99999+99999101971ADDMD1610281+9999SA1+1541REMSYN054SDBC1 46/// ///// 1//// 40197 56028 92200 222// 00154=
0088994027999992020012223004+32713-117173FM-13+000299999V0209999C000019999999N999999999+99999+99999101971ADDMD1610151+9999SA1+1551REMSYN054SDBC1 46/// ///// 1//// 40197 56015 92300 222// 00155=
