0068994971999992018010100004+42350-071050FM-13+000099999V0209999C000019999999N999999999-01221+99999102061ADDMD1210081+9999REMSYN042BHBM3 46/// ///// 11122 40206 52008 90000=
0068994971999992018010101004+42350-071050FM-13+000099999V0209999C000019999999N999999999-01291+99999102101ADDMD1110111+9999REMSYN042BHBM3 46/// ///// 11129 40210 51011 90100=
0068994971999992018010102004+42350-071050FM-13+000099999V0209999C000019999999N999999999-01311+99999102111ADDMD1210041+9999REMSYN042BHBM3 46/// ///// 11131 40211 52004 90200=
0068994971999992018010103004+42350-071050FM-13+000099999V0209999C000019999999N999999999-01351+99999102131ADDMD1110071+9999REMSYN042BHBM3 46/// ///// 11135 40213 51007 90300=
0068994971999992018010104004+42350-071050FM-13+000099999V0209999C000019999999N999999999-01411+99999102161ADDMD1310061+9999REMSYN042BHBM3 46/// ///// 11141 40216 53006 90400=
0068994971999992018010105004+42350-071050FM-13+000099999V0209999C000019999999N999999999-01461+99999102161ADDMD1210051+9999REMSYN042BHBM3 46/// ///// 11146 40216 52005 90500=
0068994971999992018010106004+42350-071050FM-13+000099999V0209999C000019999999N999999999-01561+99999102171ADDMD1110041+9999REMSYN042BHBM3 46/// ///// 11156 40217 51004 90600=
0068994971999992018010107004+42350-071050FM-13+000099999V0209999C000019999999N999999999-01621+99999102221ADDMD1310061+9999REMSYN042BHBM3 46/// ///// 11162 40222 53006 90700=
0068994971999992018010108004+42350-071050FM-13+000099999V0209999C000019999999N999999999-01651+99999102221ADDMD1210061+9999REMSYN042BHBM3 46/// ///// 11165 40222 52006 90800=
0068994971999992018010109004+42350-071050FM-13+000099999V0209999C000019999999N999999999-01671+99999102181ADDMD1990001+9999REMSYN042BHBM3 46/// ///// 11167 40218 50000 90900=
0068994971999992018010110004+42350-071050FM-13+000099999V0209999C000019999999N999999999-01681+99999102161ADDMD1710061+9999REMSYN042BHBM3 46/// ///// 11168 40216 57006 91000=
0068994971999992018010111004+42350-071050FM-13+000099999V0209999C000019999999N999999999-01691+99999102191ADDMD1510031+9999REMSYN042BHBM3 46/// ///// 11169 40219 55003 91100=
0045994971999992018010112004+42350-071050FM-13+000099999V0209999C000019999999N999999999-01691+99999102231REMSYN036BHBM3 46/// ///// 11169 40223 91142=
0068994971999992018010113004+42350-071050FM-13+000099999V0209999C000019999999N999999999-01701+99999102311ADDMD1210151+9999REMSYN042BHBM3 46/// ///// 11170 40231 52015 91300=
0068994971999992018010114004+42350-071050FM-13+000099999V0209999C000019999999N999999999-01561+99999102321ADDMD1210131+9999REMSYN042BHBM3 46/// ///// 11156 40232 52013 91400=
0045994971999992018010115004+42350-071050FM-13+000099999V0209999C000019999999N999999999-01471+99999102341REMSYN036BHBM3 46/// ///// 11147 40234 91436=
0068994971999992018010116004+42350-071050FM-13+000099999V0209999C000019999999N999999999-01311+99999102281ADDMD1810031+9999REMSYN042BHBM3 46/// ///// 11131 40228 58003 91600=
0068994971999992018010117004+42350-071050FM-13+000099999V0209999C000019999999N999999999-01201+99999102171ADDMD1810151+9999REMSYN042BHBM3 46/// ///// 11120 40217 58015 91700=
0068994971999992018010118004+42350-071050FM-13+000099999V0209999C000019999999N999999999-01071+99999102111ADDMD1710231+9999REMSYN042BHBM3 46/// ///// 11107 40211 57023 91800=
0068994971999992018010119004+42350-071050FM-13+000099999V0209999C000019999999N999999999-00991+99999102101ADDMD1610181+9999REMSYN042BHBM3 46/// ///// 11099 40210 56018 91900=
0068994971999992018010120004+42350-071050FM-13+000099999V0209999C000019999999N999999999-00971+99999102171ADDMD1510001+9999REMSYN042BHBM3 46/// ///// 11097 40217 55000 92000=
0068994971999992018010121004+42350-071050FM-13+000099999V0209999C000019999999N999999999-01061+99999102221ADDMD1310111+9999REMSYN042BHBM3 46/// ///// 11106 40222 53011 92100=
0068994971999992018010122004+42350-071050FM-13+000099999V0209999C000019999999N999999999-01111+99999102291ADDMD1210191+9999REMSYN042BHBM3 46/// ///// 11111 40229 52019 92200=
0068994971999992018010123004+42350-071050FM-13+000099999V0209999C000019999999N999999999-01221+99999102381ADDMD1310211+9999REMSYN042BHBM3 46/// ///// 11122 40238 53021 92300=
0068994971999992018010200004+42350-071050FM-13+000099999V0209999C000019999999N999999999-01241+99999102441ADDMD1110221+9999REMSYN042BHBM3 46/// ///// 11124 40244 51022 90000=
0068994971999992018010201004+42350-071050FM-13+000099999V0209999C000019999999N999999999-01291+99999102451ADDMD1110161+9999REMSYN042BHBM3 46/// ///// 11129 40245 51016 90100=
0068994971999992018010202004+42350-071050FM-13+000099999V0209999C000019999999N999999999-01311+99999102461ADDMD1110081+9999REMSYN042BHBM3 46/// ///// 11131 40246 51008 90200=
0068994971999992018010203004+42350-071050FM-13+000099999V0209999C000019999999N999999999-01341+99999102451ADDMD1410001+9999REMSYN042BHBM3 46/// ///// 11134 40245 54000 90300=
0068994971999992018010204004+42350-071050FM-13+000099999V0209999C000019999999N999999999-01361+99999102441ADDMD1410001+9999REMSYN042BHBM3 46/// ///// 11136 40244 54000 90400=
0068994971999992018010205004+42350-071050FM-13+000099999V0209999C000019999999N999999999-01321+99999102381ADDMD1810081+9999REMSYN042BHBM3 46/// ///// 11132 40238 58008 90500=
0068994971999992018010206004+42350-071050FM-13+000099999V0209999C000019999999N999999999-01291+99999102331ADDMD1810121+9999REMSYN042BHBM3 46/// ///// 11129 40233 58012 90600=
0068994971999992018010207004+42350-071050FM-13+000099999V0209999C000019999999N999999999-01301+99999102331ADDMD1610111+9999REMSYN042BHBM3 46/// ///// 11130 40233 56011 90700=
0068994971999992018010208004+42350-071050FM-13+000099999V0209999C000019999999N999999999-01351+99999102331ADDMD1610051+9999REMSYN042BHBM3 46/// ///// 11135 40233 56005 90800=
0068994971999992018010209004+42350-071050FM-13+000099999V0209999C000019999999N999999999-01391+99999102321ADDMD1410001+9999REMSYN042BHBM3 46/// ///// 11139 40232 54000 90900=
0068994971999992018010210004+42350-071050FM-13+000099999V0209999C000019999999N999999999-01411+99999102351ADDMD1510001+9999REMSYN042BHBM3 46/// ///// 11141 40235 55000 91000=
0068994971999992018010211004+42350-071050FM-13+000099999V0209999C000019999999N999999999-01431+99999102421ADDMD1310091+9999REMSYN042BHBM3 46/// ///// 11143 40242 53009 91100=
0068994971999992018010212004+42350-071050FM-13+000099999V0209999C000019999999N999999999-01441+99999102481ADDMD1310161+9999REMSYN042BHBM3 46/// ///// 11144 40248 53016 91200=
0068994971999992018010213004+42350-071050FM-13+000099999V0209999C000019999999N999999999-01401+99999102571ADDMD1310221+9999REMSYN042BHBM3 46/// ///// 11140 40257 53022 91300=
0068994971999992018010214004+42350-071050FM-13+000099999V0209999C000019999999N999999999-01231+99999102571ADDMD1110151+9999REMSYN042BHBM3 46/// ///// 11123 40257 51015 91400=
0045994971999992018010215004+42350-071050FM-13+000099999V0209999C000019999999N999999999-01171+99999102601REMSYN036BHBM3 46/// ///// 11117 40260 91436=
0068994971999992018010216004+42350-071050FM-13+000099999V0209999C000019999999N999999999-01131+99999102521ADDMD1810051+9999REMSYN042BHBM3 46/// ///// 11113 40252 58005 91600=
0068994971999992018010217004+42350-071050FM-13+000099999V0209999C000019999999N999999999-01031+99999102411ADDMD1810161+9999REMSYN042BHBM3 46/// ///// 11103 40241 58016 91700=
0068994971999992018010218004+42350-071050FM-13+000099999V0209999C000019999999N999999999-00861+99999102321ADDMD1810261+9999REMSYN042BHBM3 46/// ///// 11086 40232 58026 91800=
0068994971999992018010219004+42350-071050FM-13+000099999V0209999C000019999999N999999999-00811+99999102301ADDMD1610221+9999REMSYN042BHBM3 46/// ///// 11081 40230 56022 91900=
0068994971999992018010220004+42350-071050FM-13+000099999V0209999C000019999999N999999999-00731+99999102291ADDMD1610121+9999REMSYN042BHBM3 46/// ///// 11073 40229 56012 92000=
0068994971999992018010221004+42350-071050FM-13+000099999V0209999C000019999999N999999999-00721+99999102271ADDMD1710051+9999REMSYN042BHBM3 46/// ///// 11072 40227 57005 92100=
0045994971999992018010222004+42350-071050FM-13+000099999V0209999C000019999999N999999999-00721+99999102291REMSYN036BHBM3 46/// ///// 11072 40229 92136=
0068994971999992018010223004+42350-071050FM-13+000099999V0209999C000019999999N999999999-00721+99999102301ADDMD1410001+9999REMSYN042BHBM3 46/// ///// 11072 40230 54000 92300=
0068994971999992018010300004+42350-071050FM-13+000099999V0209999C000019999999N999999999-00751+99999102341ADDMD1310071+9999REMSYN042BHBM3 46/// ///// 11075 40234 53007 90000=
0068994971999992018010301004+42350-071050FM-13+000099999V0209999C000019999999N999999999-00791+99999102311ADDMD1990031+9999REMSYN042BHBM3 46/// ///// 11079 40231 50003 90100=
0068994971999992018010302004+42350-071050FM-13+000099999V0209999C000019999999N999999999-00771+99999102291ADDMD1990001+9999REMSYN042BHBM3 46/// ///// 11077 40229 50000 90200=
0068994971999992018010303004+42350-071050FM-13+000099999V0209999C000019999999N999999999-00821+99999102301ADDMD1610041+9999REMSYN042BHBM3 46/// ///// 11082 40230 56004 90300=
0068994971999992018010304004+42350-071050FM-13+000099999V0209999C000019999999N999999999-00781+99999102311ADDMD1410001+9999REMSYN042BHBM3 46/// ///// 11078 40231 54000 90400=
0068994971999992018010305004+42350-071050FM-13+000099999V0209999C000019999999N999999999-00701+99999102271ADDMD1990001+9999REMSYN042BHBM3 46/// ///// 11070 40227 50000 90500=
0068994971999992018010306004+42350-071050FM-13+000099999V0209999C000019999999N999999999-00761+99999102291ADDMD1410001+9999REMSYN042BHBM3 46/// ///// 11076 40229 54000 90600=
0068994971999992018010307004+42350-071050FM-13+000099999V0209999C000019999999N999999999-00721+99999102331ADDMD1510001+9999REMSYN042BHBM3 46/// ///// 11072 40233 55000 90700=
0068994971999992018010308004+42350-071050FM-13+000099999V0209999C000019999999N999999999-00801+99999102381ADDMD1310111+9999REMSYN042BHBM3 46/// ///// 11080 40238 53011 90800=
0068994971999992018010309004+42350-071050FM-13+000099999V0209999C000019999999N999999999-00771+99999102341ADDMD1990051+9999REMSYN042BHBM3 46/// ///// 11077 40234 50005 90900=
0068994971999992018010310004+42350-071050FM-13+000099999V0209999C000019999999N999999999-00791+99999102341ADDMD1990001+9999REMSYN042BHBM3 46/// ///// 11079 40234 50000 91000=
0068994971999992018010311004+42350-071050FM-13+000099999V0209999C000019999999N999999999-00801+99999102381ADDMD1510001+9999REMSYN042BHBM3 46/// ///// 11080 40238 55000 91100=
0068994971999992018010312004+42350-071050FM-13+000099999V0209999C000019999999N999999999-00801+99999102461ADDMD1310121+9999REMSYN042BHBM3 46/// ///// 11080 40246 53012 91200=
0068994971999992018010313004+42350-071050FM-13+000099999V0209999C000019999999N999999999-00761+99999102491ADDMD1110151+9999REMSYN042BHBM3 46/// ///// 11076 40249 51015 91300=
0068994971999992018010314004+42350-071050FM-13+000099999V0209999C000019999999N999999999-00641+99999102471ADDMD1110091+9999REMSYN042BHBM3 46/// ///// 11064 40247 51009 91400=
0068994971999992018010315004+42350-071050FM-13+000099999V0209999C000019999999N999999999-00401+99999102501ADDMD1210041+9999REMSYN042BHBM3 46/// ///// 11040 40250 52004 91500=
0068994971999992018010316004+42350-071050FM-13+000099999V0209999C000019999999N999999999-00511+99999102511ADDMD1410001+9999REMSYN042BHBM3 46/// ///// 11051 40251 54000 91600=
0068994971999992018010317004+42350-071050FM-13+000099999V0209999C000019999999N999999999-00381+99999102331ADDMD1810141+9999REMSYN042BHBM3 46/// ///// 11038 40233 58014 91700=
0068994971999992018010318004+42350-071050FM-13+000099999V0209999C000019999999N999999999-00301+99999102291ADDMD1810211+9999REMSYN042BHBM3 46/// ///// 11030 40229 58021 91800=
0068994971999992018010319004+42350-071050FM-13+000099999V0209999C000019999999N999999999-00211+99999102231ADDMD1610281+9999REMSYN042BHBM3 46/// ///// 11021 40223 56028 91900=
0068994971999992018010320004+42350-071050FM-13+000099999V0209999C000019999999N999999999-00191+99999102221ADDMD1610111+9999REMSYN042BHBM3 46/// ///// 11019 40222 56011 92000=
0068994971999992018010321004+42350-071050FM-13+000099999V0209999C000019999999N999999999-00161+99999102161ADDMD1710131+9999REMSYN042BHBM3 46/// ///// 11016 40216 57013 92100=
0068994971999992018010322004+42350-071050FM-13+000099999V0209999C000019999999N999999999-00231+99999102071ADDMD1810161+9999REMSYN042BHBM3 46/// ///// 11023 40207 58016 92200=
0068994971999992018010323004+42350-071050FM-13+000099999V0209999C000019999999N999999999-00261+99999102181ADDMD1510041+9999REMSYN042BHBM3 46/// ///// 11026 40218 55004 92300=
0068994971999992018010400004+42350-071050FM-13+000099999V0209999C000019999999N999999999-00331+99999102131ADDMD1610031+9999REMSYN042BHBM3 46/// ///// 11033 40213 56003 90000=
0068994971999992018010401004+42350-071050FM-13+000099999V0209999C000019999999N999999999-00371+99999102141ADDMD1110071+9999REMSYN042BHBM3 46/// ///// 11037 40214 51007 90100=
0068994971999992018010402004+42350-071050FM-13+000099999V0209999C000019999999N999999999-00401+99999102111ADDMD1610071+9999REMSYN042BHBM3 46/// ///// 11040 40211 56007 90200=
0068994971999992018010403004+42350-071050FM-13+000099999V0209999C000019999999N999999999-00281+99999102061ADDMD1810071+9999REMSYN042BHBM3 46/// ///// 11028 40206 58007 90300=
0068994971999992018010404004+42350-071050FM-13+000099999V0209999C000019999999N999999999-00281+99999101941ADDMD1810201+9999REMSYN042BHBM3 46/// ///// 11028 40194 58020 90400=
0068994971999992018010405004+42350-071050FM-13+000099999V0209999C000019999999N999999999-00321+99999101841ADDMD1810271+9999REMSYN042BHBM3 46/// ///// 11032 40184 58027 90500=
0068994971999992018010406004+42350-071050FM-13+000099999V0209999C000019999999N999999999-00441+99999101671ADDMD1810391+9999REMSYN042BHBM3 46/// ///// 11044 40167 58039 90600=
0068994971999992018010407004+42350-071050FM-13+000099999V0209999C000019999999N999999999-00441+99999101521ADDMD1810421+9999REMSYN042BHBM3 46/// ///// 11044 40152 58042 90700=
0068994971999992018010408004+42350-071050FM-13+000099999V0209999C000019999999N999999999-00391+99999101451ADDMD1610391+9999REMSYN042BHBM3 46/// ///// 11039 40145 56039 90800=
0068994971999992018010409004+42350-071050FM-13+000099999V0209999C000019999999N999999999-00391+99999101141ADDMD1810531+9999REMSYN042BHBM3 46/// ///// 11039 40114 58053 90900=
0068994971999992018010410004+42350-071050FM-13+000099999V0209999C000019999999N999999999-00371+99999100901ADDMD1810621+9999REMSYN042BHBM3 46/// ///// 11037 40090 58062 91000=
0068994971999992018010411004+42350-071050FM-13+000099999V0209999C000019999999N999999999-00311+99999100601ADDMD1610851+9999REMSYN042BHBM3 46/// ///// 11031 40060 56085 91100=
0068994971999992018010412004+42350-071050FM-13+000099999V0209999C000019999999N999999999-00331+99999100341ADDMD1810801+9999REMSYN042BHBM3 46/// ///// 11033 40034 58080 91200=
0068994971999992018010413004+42350-071050FM-13+000099999V0209999C000019999999N999999999-00411+99999100101ADDMD1610801+9999REMSYN042BHBM3 46/// ///// 11041 40010 56080 91300=
0068994971999992018010414004+42350-071050FM-13+000099999V0209999C000019999999N999999999-00431+99999099871ADDMD1610731+9999REMSYN042BHBM3 46/// ///// 11043 49987 56073 91400=
0068994971999992018010415004+42350-071050FM-13+000099999V0209999C000019999999N999999999-00351+99999099611ADDMD1810731+9999REMSYN042BHBM3 46/// ///// 11035 49961 58073 91500=
0068994971999992018010416004+42350-071050FM-13+000099999V0209999C000019999999N999999999-00321+99999099031ADDMD1811071+9999REMSYN042BHBM3 46/// ///// 11032 49903 58107 91600=
0068994971999992018010417004+42350-071050FM-13+000099999V0209999C000019999999N999999999-00221+99999098571ADDMD1811301+9999REMSYN042BHBM3 46/// ///// 11022 49857 58130 91700=
0068994971999992018010418004+42350-071050FM-13+000099999V0209999C000019999999N999999999-00231+99999098381ADDMD1611231+9999REMSYN042BHBM3 46/// ///// 11023 49838 56123 91800=
0068994971999992018010419004+42350-071050FM-13+000099999V0209999C000019999999N999999999-00231+99999097991ADDMD1611041+9999REMSYN042BHBM3 46/// ///// 11023 49799 56104 91900=
0068994971999992018010420004+42350-071050FM-13+000099999V0209999C000019999999N999999999-00161+99999097711ADDMD1810861+9999REMSYN042BHBM3 46/// ///// 11016 49771 58086 92000=
0068994971999992018010421004+42350-071050FM-13+000099999V0209999C000019999999N999999999-00151+99999097631ADDMD1610751+9999REMSYN042BHBM3 46/// ///// 11015 49763 56075 92100=
0068994971999992018010422004+42350-071050FM-13+000099999V0209999C000019999999N999999999-00271+99999097622ADDMD1610371+9999REMSYN042BHBM3 46/// ///// 11027 49762 56037 92200=
0068994971999992018010423004+42350-071050FM-13+000099999V0209999C000019999999N999999999-00311+99999097702ADDMD1510001+9999REMSYN042BHBM3 46/// ///// 11031 49770 55000 92300=
0068994971999992018010500004+42350-071050FM-13+000099999V0209999C000019999999N999999999-00331+99999097782ADDMD1310151+9999REMSYN042BHBM3 46/// ///// 11033 49778 53015 90000=
0068994971999992018010501004+42350-071050FM-13+000099999V0209999C000019999999N999999999-00381+99999097912ADDMD1310291+9999REMSYN042BHBM3 46/// ///// 11038 49791 53029 90100=
0068994971999992018010502004+42350-071050FM-13+000099999V0209999C000019999999N999999999-00421+99999098141ADDMD1310441+9999REMSYN042BHBM3 46/// ///// 11042 49814 53044 90200=
0068994971999992018010503004+42350-071050FM-13+000099999V0209999C000019999999N999999999-00491+99999098361ADDMD1310581+9999REMSYN042BHBM3 46/// ///// 11049 49836 53058 90300=
0068994971999992018010504004+42350-071050FM-13+000099999V0209999C000019999999N999999999-00551+99999098511ADDMD1110601+9999REMSYN042BHBM3 46/// ///// 11055 49851 51060 90400=
0068994971999992018010505004+42350-071050FM-13+000099999V0209999C000019999999N999999999-00571+99999098631ADDMD1110491+9999REMSYN042BHBM3 46/// ///// 11057 49863 51049 90500=
0068994971999992018010506004+42350-071050FM-13+000099999V0209999C000019999999N999999999-00611+99999098791ADDMD1310431+9999REMSYN042BHBM3 46/// ///// 11061 49879 53043 90600=
0068994971999992018010507004+42350-071050FM-13+000099999V0209999C000019999999N999999999-00641+99999098931ADDMD1310421+9999REMSYN042BHBM3 46/// ///// 11064 49893 53042 90700=
0068994971999992018010508004+42350-071050FM-13+000099999V0209999C000019999999N999999999-00661+99999099011ADDMD1110381+9999REMSYN042BHBM3 46/// ///// 11066 49901 51038 90800=
0068994971999992018010509004+42350-071050FM-13+000099999V0209999C000019999999N999999999-00671+99999099061ADDMD1110271+9999REMSYN042BHBM3 46/// ///// 11067 49906 51027 90900=
0068994971999992018010510004+42350-071050FM-13+000099999V0209999C000019999999N999999999-00731+99999099151ADDMD1310221+9999REMSYN042BHBM3 46/// ///// 11073 49915 53022 91000=
0068994971999992018010511004+42350-071050FM-13+000099999V0209999C000019999999N999999999-00881+99999099291ADDMD1310281+9999REMSYN042BHBM3 46/// ///// 11088 49929 53028 91100=
0068994971999992018010512004+42350-071050FM-13+000099999V0209999C000019999999N999999999-01051+99999099411ADDMD1310351+9999REMSYN042BHBM3 46/// ///// 11105 49941 53035 91200=
0068994971999992018010513004+42350-071050FM-13+000099999V0209999C000019999999N999999999-01161+99999099521ADDMD1110371+9999REMSYN042BHBM3 46/// ///// 11116 49952 51037 91300=
0068994971999992018010514004+42350-071050FM-13+000099999V0209999C000019999999N999999999-01061+99999099561ADDMD1110271+9999REMSYN042BHBM3 46/// ///// 11106 49956 51027 91400=
0068994971999992018010515004+42350-071050FM-13+000099999V0209999C000019999999N999999999-01061+99999099631ADDMD1110221+9999REMSYN042BHBM3 46/// ///// 11106 49963 51022 91500=
0068994971999992018010516004+42350-071050FM-13+000099999V0209999C000019999999N999999999-01071+99999099631ADDMD1110111+9999REMSYN042BHBM3 46/// ///// 11107 49963 51011 91600=
0068994971999992018010517004+42350-071050FM-13+000099999V0209999C000019999999N999999999-01091+99999099641ADDMD1110081+9999REMSYN042BHBM3 46/// ///// 11109 49964 51008 91700=
0068994971999992018010518004+42350-071050FM-13+000099999V0209999C000019999999N999999999-01061+99999099661ADDMD1210031+9999REMSYN042BHBM3 46/// ///// 11106 49966 52003 91800=
0068994971999992018010519004+42350-071050FM-13+000099999V0209999C000019999999N999999999-01121+99999099761ADDMD1310131+9999REMSYN042BHBM3 46/// ///// 11112 49976 53013 91900=
0068994971999992018010520004+42350-071050FM-13+000099999V0209999C000019999999N999999999-01131+99999099891ADDMD1310251+9999REMSYN042BHBM3 46/// ///// 11113 49989 53025 92000=
0068994971999992018010521004+42350-071050FM-13+000099999V0209999C000019999999N999999999-01191+99999099991ADDMD1210331+9999REMSYN042BHBM3 46/// ///// 11119 49999 52033 92100=
0068994971999992018010522004+42350-071050FM-13+000099999V0209999C000019999999N999999999-01251+99999100101ADDMD1110341+9999REMSYN042BHBM3 46/// ///// 11125 40010 51034 92200=
0068994971999992018010523004+42350-071050FM-13+000099999V0209999C000019999999N999999999-01321+99999100231ADDMD1310341+9999REMSYN042BHBM3 46/// ///// 11132 40023 53034 92300=
0068994971999992018010600004+42350-071050FM-13+000099999V0209999C000019999999N999999999-01321+99999100301ADDMD1110311+9999REMSYN042BHBM3 46/// ///// 11132 40030 51031 90000=
0068994971999992018010601004+42350-071050FM-13+000099999V0209999C000019999999N999999999-01351+99999100381ADDMD1110281+9999REMSYN042BHBM3 46/// ///// 11135 40038 51028 90100=
0068994971999992018010602004+42350-071050FM-13+000099999V0209999C000019999999N999999999-01361+99999100421ADDMD1110191+9999REMSYN042BHBM3 46/// ///// 11136 40042 51019 90200=
0068994971999992018010603004+42350-071050FM-13+000099999V0209999C000019999999N999999999-01381+99999100521ADDMD1310221+9999REMSYN042BHBM3 46/// ///// 11138 40052 53022 90300=
0068994971999992018010604004+42350-071050FM-13+000099999V0209999C000019999999N999999999-01401+99999100561ADDMD1210181+9999REMSYN042BHBM3 46/// ///// 11140 40056 52018 90400=
0068994971999992018010605004+42350-071050FM-13+000099999V0209999C000019999999N999999999-01431+99999100621ADDMD1110201+9999REMSYN042BHBM3 46/// ///// 11143 40062 51020 90500=
0068994971999992018010606004+42350-071050FM-13+000099999V0209999C000019999999N999999999-01421+99999100661ADDMD1210141+9999REMSYN042BHBM3 46/// ///// 11142 40066 52014 90600=
0068994971999992018010607004+42350-071050FM-13+000099999V0209999C000019999999N999999999-01401+99999100741ADDMD1310181+9999REMSYN042BHBM3 46/// ///// 11140 40074 53018 90700=
0068994971999992018010608004+42350-071050FM-13+000099999V0209999C000019999999N999999999-01381+99999100791ADDMD1310171+9999REMSYN042BHBM3 46/// ///// 11138 40079 53017 90800=
0068994971999992018010609004+42350-071050FM-13+000099999V0209999C000019999999N999999999-01381+99999100861ADDMD1110201+9999REMSYN042BHBM3 46/// ///// 11138 40086 51020 90900=
0068994971999992018010610004+42350-071050FM-13+000099999V0209999C000019999999N999999999-01401+99999100961ADDMD1310221+9999REMSYN042BHBM3 46/// ///// 11140 40096 53022 91000=
0068994971999992018010611004+42350-071050FM-13+000099999V0209999C000019999999N999999999-01371+99999101041ADDMD1310251+9999REMSYN042BHBM3 46/// ///// 11137 40104 53025 91100=
0068994971999992018010612004+42350-071050FM-13+000099999V0209999C000019999999N999999999-01381+99999101091ADDMD1110231+9999REMSYN042BHBM3 46/// ///// 11138 40109 51023 91200=
0068994971999992018010613004+42350-071050FM-13+000099999V0209999C000019999999N999999999-01401+99999101151ADDMD1110191+9999REMSYN042BHBM3 46/// ///// 11140 40115 51019 91300=
0068994971999992018010614004+42350-071050FM-13+000099999V0209999C000019999999N999999999-01341+99999101231ADDMD1310191+9999REMSYN042BHBM3 46/// ///// 11134 40123 53019 91400=
0068994971999992018010615004+42350-071050FM-13+000099999V0209999C000019999999N999999999-01291+99999101291ADDMD1210201+9999REMSYN042BHBM3 46/// ///// 11129 40129 52020 91500=
0068994971999992018010616004+42350-071050FM-13+000099999V0209999C000019999999N999999999-01221+99999101291ADDMD1110141+9999REMSYN042BHBM3 46/// ///// 11122 40129 51014 91600=
0068994971999992018010617004+42350-071050FM-13+000099999V0209999C000019999999N999999999-01211+99999101301ADDMD1110071+9999REMSYN042BHBM3 46/// ///// 11121 40130 51007 91700=
0068994971999992018010618004+42350-071050FM-13+000099999V0209999C000019999999N999999999-01121+99999101311ADDMD1410001+9999REMSYN042BHBM3 46/// ///// 11112 40131 54000 91800=
0068994971999992018010619004+42350-071050FM-13+000099999V0209999C000019999999N999999999-01081+99999101411ADDMD1310121+9999REMSYN042BHBM3 46/// ///// 11108 40141 53012 91900=
0068994971999992018010620004+42350-071050FM-13+000099999V0209999C000019999999N999999999-01101+99999101511ADDMD1310211+9999REMSYN042BHBM3 46/// ///// 11110 40151 53021 92000=
0068994971999992018010621004+42350-071050FM-13+000099999V0209999C000019999999N999999999-01171+99999101611ADDMD1210301+9999REMSYN042BHBM3 46/// ///// 11117 40161 52030 92100=
0068994971999992018010622004+42350-071050FM-13+000099999V0209999C000019999999N999999999-01191+99999101711ADDMD1210301+9999REMSYN042BHBM3 46/// ///// 11119 40171 52030 92200=
0068994971999992018010623004+42350-071050FM-13+000099999V0209999C000019999999N999999999-01241+99999101811ADDMD1210301+9999REMSYN042BHBM3 46/// ///// 11124 40181 52030 92300=
0068994971999992018010700004+42350-071050FM-13+000099999V0209999C000019999999N999999999-01261+99999101931ADDMD1310321+9999REMSYN042BHBM3 46/// ///// 11126 40193 53032 90000=
0068994971999992018010701004+42350-071050FM-13+000099999V0209999C000019999999N999999999-01271+99999102011ADDMD1110301+9999REMSYN042BHBM3 46/// ///// 11127 40201 51030 90100=
0068994971999992018010702004+42350-071050FM-13+000099999V0209999C000019999999N999999999-01311+99999102131ADDMD1210321+9999REMSYN042BHBM3 46/// ///// 11131 40213 52032 90200=
0068994971999992018010703004+42350-071050FM-13+000099999V0209999C000019999999N999999999-01471+99999102241ADDMD1310311+9999REMSYN042BHBM3 46/// ///// 11147 40224 53031 90300=
0068994971999992018010704004+42350-071050FM-13+000099999V0209999C000019999999N999999999-01571+99999102341ADDMD1110331+9999REMSYN042BHBM3 46/// ///// 11157 40234 51033 90400=
0068994971999992018010705004+42350-071050FM-13+000099999V0209999C000019999999N999999999-01651+99999102401ADDMD1110271+9999REMSYN042BHBM3 46/// ///// 11165 40240 51027 90500=
0068994971999992018010706004+42350-071050FM-13+000099999V0209999C000019999999N999999999-01691+99999102461ADDMD1110221+9999REMSYN042BHBM3 46/// ///// 11169 40246 51022 90600=
0068994971999992018010707004+42350-071050FM-13+000099999V0209999C000019999999N999999999-01731+99999102551ADDMD1310211+9999REMSYN042BHBM3 46/// ///// 11173 40255 53021 90700=
0068994971999992018010708004+42350-071050FM-13+000099999V0209999C000019999999N999999999-01791+99999102601ADDMD1110201+9999REMSYN042BHBM3 46/// ///// 11179 40260 51020 90800=
0068994971999992018010709004+42350-071050FM-13+000099999V0209999C000019999999N999999999-01791+99999102691ADDMD1210231+9999REMSYN042BHBM3 46/// ///// 11179 40269 52023 90900=
0068994971999992018010710004+42350-071050FM-13+000099999V0209999C000019999999N999999999-01831+99999102791ADDMD1310241+9999REMSYN042BHBM3 46/// ///// 11183 40279 53024 91000=
0068994971999992018010711004+42350-071050FM-13+000099999V0209999C000019999999N999999999-01821+99999102941ADDMD1310341+9999REMSYN042BHBM3 46/// ///// 11182 40294 53034 91100=
0068994971999992018010712004+42350-071050FM-13+000099999V0209999C000019999999N999999999-01841+99999103061ADDMD1310371+9999REMSYN042BHBM3 46/// ///// 11184 40306 53037 91200=
0068994971999992018010713004+42350-071050FM-13+000099999V0209999C000019999999N999999999-01831+99999103141ADDMD1110351+9999REMSYN042BHBM3 46/// ///// 11183 40314 51035 91300=
0068994971999992018010714004+42350-071050FM-13+000099999V0209999C000019999999N999999999-01581+99999103151ADDMD1110211+9999REMSYN042BHBM3 46/// ///// 11158 40315 51021 91400=
0068994971999992018010715004+42350-071050FM-13+000099999V0209999C000019999999N999999999-01441+99999103231ADDMD1210171+9999REMSYN042BHBM3 46/// ///// 11144 40323 52017 91500=
0068994971999992018010716004+42350-071050FM-13+000099999V0209999C000019999999N999999999-01261+99999103121ADDMD1990001+9999REMSYN042BHBM3 46/// ///// 11126 40312 50000 91600=
0068994971999992018010717004+42350-071050FM-13+000099999V0209999C000019999999N999999999-01161+99999103041ADDMD1810111+9999REMSYN042BHBM3 46/// ///// 11116 40304 58011 91700=
0068994971999992018010718004+42350-071050FM-13+000099999V0209999C000019999999N999999999-01121+99999102991ADDMD1610241+9999REMSYN042BHBM3 46/// ///// 11112 40299 56024 91800=
0068994971999992018010719004+42350-071050FM-13+000099999V0209999C000019999999N999999999-01031+99999102961ADDMD1610161+9999REMSYN042BHBM3 46/// ///// 11103 40296 56016 91900=
0068994971999992018010720004+42350-071050FM-13+000099999V0209999C000019999999N999999999-00921+99999102971ADDMD1610071+9999REMSYN042BHBM3 46/// ///// 11092 40297 56007 92000=
0068994971999992018010721004+42350-071050FM-13+000099999V0209999C000019999999N999999999-00941+99999102941ADDMD1710051+9999REMSYN042BHBM3 46/// ///// 11094 40294 57005 92100=
0068994971999992018010722004+42350-071050FM-13+000099999V0209999C000019999999N999999999-00941+99999102911ADDMD1810051+9999REMSYN042BHBM3 46/// ///// 11094 40291 58005 92200=
0068994971999992018010723004+42350-071050FM-13+000099999V0209999C000019999999N999999999-00931+99999102871ADDMD1810101+9999REMSYN042BHBM3 46/// ///// 11093 40287 58010 92300=
0068994971999992018010800004+42350-071050FM-13+000099999V0209999C000019999999N999999999-00941+99999102831ADDMD1810111+9999REMSYN042BHBM3 46/// ///// 11094 40283 58011 90000=
0068994971999992018010801004+42350-071050FM-13+000099999V0209999C000019999999N999999999-00991+99999102701ADDMD1810211+9999REMSYN042BHBM3 46/// ///// 11099 40270 58021 90100=
0068994971999992018010802004+42350-071050FM-13+000099999V0209999C000019999999N999999999-00991+99999102601ADDMD1810271+9999REMSYN042BHBM3 46/// ///// 11099 40260 58027 90200=
0068994971999992018010803004+42350-071050FM-13+000099999V0209999C000019999999N999999999-00981+99999102521ADDMD1610311+9999REMSYN042BHBM3 46/// ///// 11098 40252 56031 90300=
0068994971999992018010804004+42350-071050FM-13+000099999V0209999C000019999999N999999999-00941+99999102411ADDMD1810291+9999REMSYN042BHBM3 46/// ///// 11094 40241 58029 90400=
0068994971999992018010805004+42350-071050FM-13+000099999V0209999C000019999999N999999999-00821+99999102311ADDMD1810291+9999REMSYN042BHBM3 46/// ///// 11082 40231 58029 90500=
0068994971999992018010806004+42350-071050FM-13+000099999V0209999C000019999999N999999999-00651+99999102191ADDMD1810331+9999REMSYN042BHBM3 46/// ///// 11065 40219 58033 90600=
0068994971999992018010807004+42350-071050FM-13+000099999V0209999C000019999999N999999999-00611+99999102201ADDMD1610211+9999REMSYN042BHBM3 46/// ///// 11061 40220 56021 90700=
0068994971999992018010808004+42350-071050FM-13+000099999V0209999C000019999999N999999999-00601+99999102221ADDMD1610091+9999REMSYN042BHBM3 46/// ///// 11060 40222 56009 90800=
0068994971999992018010809004+42350-071050FM-13+000099999V0209999C000019999999N999999999-00581+99999102191ADDMD1990001+9999REMSYN042BHBM3 46/// ///// 11058 40219 50000 90900=
0068994971999992018010810004+42350-071050FM-13+000099999V0209999C000019999999N999999999-00531+99999102161ADDMD1810041+9999REMSYN042BHBM3 46/// ///// 11053 40216 58004 91000=
0068994971999992018010811004+42350-071050FM-13+000099999V0209999C000019999999N999999999-00451+99999102161ADDMD1610061+9999REMSYN042BHBM3 46/// ///// 11045 40216 56006 91100=
0068994971999992018010812004+42350-071050FM-13+000099999V0209999C000019999999N999999999-00401+99999102131ADDMD1710061+9999REMSYN042BHBM3 46/// ///// 11040 40213 57006 91200=
0068994971999992018010813004+42350-071050FM-13+000099999V0209999C000019999999N999999999-00361+99999102131ADDMD1710031+9999REMSYN042BHBM3 46/// ///// 11036 40213 57003 91300=
0068994971999992018010814004+42350-071050FM-13+000099999V0209999C000019999999N999999999-00351+99999102091ADDMD1810071+9999REMSYN042BHBM3 46/// ///// 11035 40209 58007 91400=
0068994971999992018010815004+42350-071050FM-13+000099999V0209999C000019999999N999999999-00291+99999102041ADDMD1810091+9999REMSYN042BHBM3 46/// ///// 11029 40204 58009 91500=
0068994971999992018010816004+42350-071050FM-13+000099999V0209999C000019999999N999999999-00131+99999101961ADDMD1810171+9999REMSYN042BHBM3 46/// ///// 11013 40196 58017 91600=
0068994971999992018010817004+42350-071050FM-13+000099999V0209999C000019999999N999999999+00041+99999101801ADDMD1810291+9999REMSYN042BHBM3 46/// ///// 10004 40180 58029 91700=
0068994971999992018010818004+42350-071050FM-13+000099999V0209999C000019999999N999999999+00151+99999101701ADDMD1810341+9999REMSYN042BHBM3 46/// ///// 10015 40170 58034 91800=
0068994971999992018010819004+42350-071050FM-13+000099999V0209999C000019999999N999999999+00161+99999101541ADDMD1710421+9999REMSYN042BHBM3 46/// ///// 10016 40154 57042 91900=
0068994971999992018010820004+42350-071050FM-13+000099999V0209999C000019999999N999999999+00191+99999101391ADDMD1810411+9999REMSYN042BHBM3 46/// ///// 10019 40139 58041 92000=
0068994971999992018010821004+42350-071050FM-13+000099999V0209999C000019999999N999999999+00201+99999101281ADDMD1610421+9999REMSYN042BHBM3 46/// ///// 10020 40128 56042 92100=
0045994971999992018010822004+42350-071050FM-13+000099999V0209999C000019999999N999999999+00191+99999101341REMSYN036BHBM3 46/// ///// 10019 40134 92136=
0045994971999992018010907004+42350-071050FM-13+000099999V0209999C000019999999N999999999+00051+99999101221REMSYN036BHBM3 46/// ///// 10005 40122 90648=
0045994971999992018010908004+42350-071050FM-13+000099999V0209999C000019999999N999999999+00041+99999101221REMSYN036BHBM3 46/// ///// 10004 40122 90736=
0045994971999992018010909004+42350-071050FM-13+000099999V0209999C000019999999N999999999+00051+99999101241REMSYN036BHBM3 46/// ///// 10005 40124 90836=
0068994971999992018010910004+42350-071050FM-13+000099999V0209999C000019999999N999999999+00021+99999101261ADDMD1210051+9999REMSYN042BHBM3 46/// ///// 10002 40126 52005 91000=
0068994971999992018010911004+42350-071050FM-13+000099999V0209999C000019999999N999999999+00021+99999101261ADDMD1210031+9999REMSYN042BHBM3 46/// ///// 10002 40126 52003 91100=
0068994971999992018010912004+42350-071050FM-13+000099999V0209999C000019999999N999999999+00071+99999101301ADDMD1310061+9999REMSYN042BHBM3 46/// ///// 10007 40130 53006 91200=
0068994971999992018010913004+42350-071050FM-13+000099999V0209999C000019999999N999999999+00181+99999101381ADDMD1310121+9999REMSYN042BHBM3 46/// ///// 10018 40138 53012 91300=
0068994971999992018010914004+42350-071050FM-13+000099999V0209999C000019999999N999999999+00241+99999101431ADDMD1310171+9999REMSYN042BHBM3 46/// ///// 10024 40143 53017 91400=
0068994971999992018010915004+42350-071050FM-13+000099999V0209999C000019999999N999999999+00351+99999101491ADDMD1110191+9999REMSYN042BHBM3 46/// ///// 10035 40149 51019 91500=
0068994971999992018010916004+42350-071050FM-13+000099999V0209999C000019999999N999999999+00491+99999101481ADDMD1110101+9999REMSYN042BHBM3 46/// ///// 10049 40148 51010 91600=
0068994971999992018010917004+42350-071050FM-13+000099999V0209999C000019999999N999999999+00521+99999101491ADDMD1110061+9999REMSYN042BHBM3 46/// ///// 10052 40149 51006 91700=
0068994971999992018010918004+42350-071050FM-13+000099999V0209999C000019999999N999999999+00531+99999101491ADDMD1410001+9999REMSYN042BHBM3 46/// ///// 10053 40149 54000 91800=
0068994971999992018010919004+42350-071050FM-13+000099999V0209999C000019999999N999999999+00541+99999101541ADDMD1310061+9999REMSYN042BHBM3 46/// ///// 10054 40154 53006 91900=
0068994971999992018010920004+42350-071050FM-13+000099999V0209999C000019999999N999999999+00571+99999101631ADDMD1310141+9999REMSYN042BHBM3 46/// ///// 10057 40163 53014 92000=
0068994971999992018010921004+42350-071050FM-13+000099999V0209999C000019999999N999999999+00471+99999101741ADDMD1310251+9999REMSYN042BHBM3 46/// ///// 10047 40174 53025 92100=
0068994971999992018010922004+42350-071050FM-13+000099999V0209999C000019999999N999999999+00411+99999101891ADDMD1310351+9999REMSYN042BHBM3 46/// ///// 10041 40189 53035 92200=
0068994971999992018010923004+42350-071050FM-13+000099999V0209999C000019999999N999999999+00331+99999102031ADDMD1310401+9999REMSYN042BHBM3 46/// ///// 10033 40203 53040 92300=
0068994971999992018011000004+42350-071050FM-13+000099999V0209999C000019999999N999999999+00251+99999102171ADDMD1110431+9999REMSYN042BHBM3 46/// ///// 10025 40217 51043 90000=
0068994971999992018011001004+42350-071050FM-13+000099999V0209999C000019999999N999999999+00171+99999102281ADDMD1110391+9999REMSYN042BHBM3 46/// ///// 10017 40228 51039 90100=
0068994971999992018011002004+42350-071050FM-13+000099999V0209999C000019999999N999999999+00111+99999102351ADDMD1110321+9999REMSYN042BHBM3 46/// ///// 10011 40235 51032 90200=
0068994971999992018011003004+42350-071050FM-13+000099999V0209999C000019999999N999999999+00091+99999102461ADDMD1210291+9999REMSYN042BHBM3 46/// ///// 10009 40246 52029 90300=
0068994971999992018011004004+42350-071050FM-13+000099999V0209999C000019999999N999999999+00041+99999102531ADDMD1210251+9999REMSYN042BHBM3 46/// ///// 10004 40253 52025 90400=
0068994971999992018011005004+42350-071050FM-13+000099999V0209999C000019999999N999999999-00011+99999102631ADDMD1110281+9999REMSYN042BHBM3 46/// ///// 11001 40263 51028 90500=
0068994971999992018011006004+42350-071050FM-13+000099999V0209999C000019999999N999999999-00061+99999102691ADDMD1110231+9999REMSYN042BHBM3 46/// ///// 11006 40269 51023 90600=
0068994971999992018011007004+42350-071050FM-13+000099999V0209999C000019999999N999999999-00091+99999102741ADDMD1110211+9999REMSYN042BHBM3 46/// ///// 11009 40274 51021 90700=
0068994971999992018011008004+42350-071050FM-13+000099999V0209999C000019999999N999999999-00141+99999102781ADDMD1110151+9999REMSYN042BHBM3 46/// ///// 11014 40278 51015 90800=
0068994971999992018011009004+42350-071050FM-13+000099999V0209999C000019999999N999999999-00171+99999102831ADDMD1210141+9999REMSYN042BHBM3 46/// ///// 11017 40283 52014 90900=
0068994971999992018011010004+42350-071050FM-13+000099999V0209999C000019999999N999999999-00181+99999102901ADDMD1310161+9999REMSYN042BHBM3 46/// ///// 11018 40290 53016 91000=
0068994971999992018011011004+42350-071050FM-13+000099999V0209999C000019999999N999999999-00211+99999102991ADDMD1310211+9999REMSYN042BHBM3 46/// ///// 11021 40299 53021 91100=
0068994971999992018011012004+42350-071050FM-13+000099999V0209999C000019999999N999999999-00201+99999103051ADDMD1110221+9999REMSYN042BHBM3 46/// ///// 11020 40305 51022 91200=
0068994971999992018011013004+42350-071050FM-13+000099999V0209999C000019999999N999999999-00241+99999103091ADDMD1110191+9999REMSYN042BHBM3 46/// ///// 11024 40309 51019 91300=
0068994971999992018011014004+42350-071050FM-13+000099999V0209999C000019999999N999999999-00061+99999103151ADDMD1210161+9999REMSYN042BHBM3 46/// ///// 11006 40315 52016 91400=
0068994971999992018011015004+42350-071050FM-13+000099999V0209999C000019999999N999999999-00041+99999103191ADDMD1210141+9999REMSYN042BHBM3 46/// ///// 11004 40319 52014 91500=
0068994971999992018011016004+42350-071050FM-13+000099999V0209999C000019999999N999999999-00041+99999103141ADDMD1990051+9999REMSYN042BHBM3 46/// ///// 11004 40314 50005 91600=
0068994971999992018011017004+42350-071050FM-13+000099999V0209999C000019999999N999999999+00061+99999103031ADDMD1810121+9999REMSYN042BHBM3 46/// ///// 10006 40303 58012 91700=
0068994971999992018011018004+42350-071050FM-13+000099999V0209999C000019999999N999999999+00151+99999102961ADDMD1810231+9999REMSYN042BHBM3 46/// ///// 10015 40296 58023 91800=
0068994971999992018011019004+42350-071050FM-13+000099999V0209999C000019999999N999999999+00231+99999102931ADDMD1610211+9999REMSYN042BHBM3 46/// ///// 10023 40293 56021 91900=
0068994971999992018011020004+42350-071050FM-13+000099999V0209999C000019999999N999999999+00271+99999102911ADDMD1610121+9999REMSYN042BHBM3 46/// ///// 10027 40291 56012 92000=
0068994971999992018011021004+42350-071050FM-13+000099999V0209999C000019999999N999999999+00231+99999102921ADDMD1610041+9999REMSYN042BHBM3 46/// ///// 10023 40292 56004 92100=
0068994971999992018011022004+42350-071050FM-13+000099999V0209999C000019999999N999999999+00171+99999102951ADDMD1510001+9999REMSYN042BHBM3 46/// ///// 10017 40295 55000 92200=
0068994971999992018011023004+42350-071050FM-13+000099999V0209999C000019999999N999999999+00101+99999103001ADDMD1310091+9999REMSYN042BHBM3 46/// ///// 10010 40300 53009 92300=
0068994971999992018011100004+42350-071050FM-13+000099999V0209999C000019999999N999999999+00071+99999102991ADDMD1110071+9999REMSYN042BHBM3 46/// ///// 10007 40299 51007 90000=
0068994971999992018011101004+42350-071050FM-13+000099999V0209999C000019999999N999999999+00051+99999102951ADDMD1990001+9999REMSYN042BHBM3 46/// ///// 10005 40295 50000 90100=
0068994971999992018011102004+42350-071050FM-13+000099999V0209999C000019999999N999999999+00041+99999102891ADDMD1810111+9999REMSYN042BHBM3 46/// ///// 10004 40289 58011 90200=
0068994971999992018011103004+42350-071050FM-13+000099999V0209999C000019999999N999999999+00091+99999102891ADDMD1610101+9999REMSYN042BHBM3 46/// ///// 10009 40289 56010 90300=
0068994971999992018011104004+42350-071050FM-13+000099999V0209999C000019999999N999999999+00141+99999102881ADDMD1610071+9999REMSYN042BHBM3 46/// ///// 10014 40288 56007 90400=
0068994971999992018011105004+42350-071050FM-13+000099999V0209999C000019999999N999999999+00141+99999102811ADDMD1810081+9999REMSYN042BHBM3 46/// ///// 10014 40281 58008 90500=
0068994971999992018011106004+42350-071050FM-13+000099999V0209999C000019999999N999999999+00201+99999102751ADDMD1810141+9999REMSYN042BHBM3 46/// ///// 10020 40275 58014 90600=
0068994971999992018011107004+42350-071050FM-13+000099999V0209999C000019999999N999999999+00221+99999102731ADDMD1610151+9999REMSYN042BHBM3 46/// ///// 10022 40273 56015 90700=
0068994971999992018011108004+42350-071050FM-13+000099999V0209999C000019999999N999999999+00261+99999102751ADDMD1610061+9999REMSYN042BHBM3 46/// ///// 10026 40275 56006 90800=
0068994971999992018011109004+42350-071050FM-13+000099999V0209999C000019999999N999999999+00271+99999102731ADDMD1410001+9999REMSYN042BHBM3 46/// ///// 10027 40273 54000 90900=
0068994971999992018011110004+42350-071050FM-13+000099999V0209999C000019999999N999999999+00331+99999102711ADDMD1410001+9999REMSYN042BHBM3 46/// ///// 10033 40271 54000 91000=
0068994971999992018011111004+42350-071050FM-13+000099999V0209999C000019999999N999999999+00391+99999102711ADDMD1710041+9999REMSYN042BHBM3 46/// ///// 10039 40271 57004 91100=
0068994971999992018011112004+42350-071050FM-13+000099999V0209999C000019999999N999999999+00511+99999102701ADDMD1710031+9999REMSYN042BHBM3 46/// ///// 10051 40270 57003 91200=
0068994971999992018011113004+42350-071050FM-13+000099999V0209999C000019999999N999999999+00571+99999102711ADDMD1410001+9999REMSYN042BHBM3 46/// ///// 10057 40271 54000 91300=
0068994971999992018011114004+42350-071050FM-13+000099999V0209999C000019999999N999999999+00721+99999102721ADDMD1410001+9999REMSYN042BHBM3 46/// ///// 10072 40272 54000 91400=
0068994971999992018011115004+42350-071050FM-13+000099999V0209999C000019999999N999999999+00781+99999102751ADDMD1310051+9999REMSYN042BHBM3 46/// ///// 10078 40275 53005 91500=
0068994971999992018011116004+42350-071050FM-13+000099999V0209999C000019999999N999999999+00871+99999102651ADDMD1810061+9999REMSYN042BHBM3 46/// ///// 10087 40265 58006 91600=
0068994971999992018011117004+42350-071050FM-13+000099999V0209999C000019999999N999999999+01021+99999102631ADDMD1810091+9999REMSYN042BHBM3 46/// ///// 10102 40263 58009 91700=
0068994971999992018011118004+42350-071050FM-13+000099999V0209999C000019999999N999999999+01051+99999102521ADDMD1810231+9999REMSYN042BHBM3 46/// ///// 10105 40252 58023 91800=
0068994971999992018011119004+42350-071050FM-13+000099999V0209999C000019999999N999999999+01101+99999102481ADDMD1810171+9999REMSYN042BHBM3 46/// ///// 10110 40248 58017 91900=
0068994971999992018011120004+42350-071050FM-13+000099999V0209999C000019999999N999999999+01151+99999102481ADDMD1610151+9999REMSYN042BHBM3 46/// ///// 10115 40248 56015 92000=
0068994971999992018011121004+42350-071050FM-13+000099999V0209999C000019999999N999999999+01131+99999102481ADDMD1610041+9999REMSYN042BHBM3 46/// ///// 10113 40248 56004 92100=
0068994971999992018011122004+42350-071050FM-13+000099999V0209999C000019999999N999999999+01041+99999102511ADDMD1310031+9999REMSYN042BHBM3 46/// ///// 10104 40251 53003 92200=
0068994971999992018011123004+42350-071050FM-13+000099999V0209999C000019999999N999999999+01021+99999102461ADDMD1990001+9999REMSYN042BHBM3 46/// ///// 10102 40246 50000 92300=
0068994971999992018011200004+42350-071050FM-13+000099999V0209999C000019999999N999999999+00961+99999102461ADDMD1990001+9999REMSYN042BHBM3 46/// ///// 10096 40246 50000 90000=
0068994971999992018011201004+42350-071050FM-13+000099999V0209999C000019999999N999999999+00971+99999102431ADDMD1610081+9999REMSYN042BHBM3 46/// ///// 10097 40243 56008 90100=
0068994971999992018011202004+42350-071050FM-13+000099999V0209999C000019999999N999999999+00931+99999102361ADDMD1810101+9999REMSYN042BHBM3 46/// ///// 10093 40236 58010 90200=
0068994971999992018011203004+42350-071050FM-13+000099999V0209999C000019999999N999999999+00951+99999102311ADDMD1810151+9999REMSYN042BHBM3 46/// ///// 10095 40231 58015 90300=
0068994971999992018011204004+42350-071050FM-13+000099999V0209999C000019999999N999999999+00891+99999102261ADDMD1610171+9999REMSYN042BHBM3 46/// ///// 10089 40226 56017 90400=
0068994971999992018011205004+42350-071050FM-13+000099999V0209999C000019999999N999999999+00951+99999102211ADDMD1710151+9999REMSYN042BHBM3 46/// ///// 10095 40221 57015 90500=
0068994971999992018011206004+42350-071050FM-13+000099999V0209999C000019999999N999999999+00981+99999102191ADDMD1610121+9999REMSYN042BHBM3 46/// ///// 10098 40219 56012 90600=
0068994971999992018011207004+42350-071050FM-13+000099999V0209999C000019999999N999999999+01031+99999102171ADDMD1610091+9999REMSYN042BHBM3 46/// ///// 10103 40217 56009 90700=
0068994971999992018011208004+42350-071050FM-13+000099999V0209999C000019999999N999999999+01031+99999102061ADDMD1810151+9999REMSYN042BHBM3 46/// ///// 10103 40206 58015 90800=
0068994971999992018011209004+42350-071050FM-13+000099999V0209999C000019999999N999999999+00901+99999101981ADDMD1810211+9999REMSYN042BHBM3 46/// ///// 10090 40198 58021 90900=
0068994971999992018011210004+42350-071050FM-13+000099999V0209999C000019999999N999999999+00961+99999101891ADDMD1610281+9999REMSYN042BHBM3 46/// ///// 10096 40189 56028 91000=
0045994971999992018011211004+42350-071050FM-13+000099999V0209999C000019999999N999999999+01071+99999101861REMSYN036BHBM3 46/// ///// 10107 40186 91036=
0068994971999992018011212004+42350-071050FM-13+000099999V0209999C000019999999N999999999+01131+99999101771ADDMD1610211+9999REMSYN042BHBM3 46/// ///// 10113 40177 56021 91200=
0068994971999992018011213004+42350-071050FM-13+000099999V0209999C000019999999N999999999+01201+99999101671ADDMD1810221+9999REMSYN042BHBM3 46/// ///// 10120 40167 58022 91300=
0068994971999992018011214004+42350-071050FM-13+000099999V0209999C000019999999N999999999+01311+99999101601ADDMD1610251+9999REMSYN042BHBM3 46/// ///// 10131 40160 56025 91400=
0068994971999992018011215004+42350-071050FM-13+000099999V0209999C000019999999N999999999+01461+99999101531ADDMD1610241+9999REMSYN042BHBM3 46/// ///// 10146 40153 56024 91500=
0068994971999992018011216004+42350-071050FM-13+000099999V0209999C000019999999N999999999+01581+99999101351ADDMD1810321+9999REMSYN042BHBM3 46/// ///// 10158 40135 58032 91600=
0068994971999992018011217004+42350-071050FM-13+000099999V0209999C000019999999N999999999+01671+99999101181ADDMD1810421+9999REMSYN042BHBM3 46/// ///// 10167 40118 58042 91700=
0068994971999992018011218004+42350-071050FM-13+000099999V0209999C000019999999N999999999+01551+99999101071ADDMD1610461+9999REMSYN042BHBM3 46/// ///// 10155 40107 56046 91800=
0068994971999992018011219004+42350-071050FM-13+000099999V0209999C000019999999N999999999+01521+99999100961ADDMD1610391+9999REMSYN042BHBM3 46/// ///// 10152 40096 56039 91900=
0068994971999992018011220004+42350-071050FM-13+000099999V0209999C000019999999N999999999+01601+99999100881ADDMD1610301+9999REMSYN042BHBM3 46/// ///// 10160 40088 56030 92000=
0068994971999992018011221004+42350-071050FM-13+000099999V0209999C000019999999N999999999+01591+99999100831ADDMD1610241+9999REMSYN042BHBM3 46/// ///// 10159 40083 56024 92100=
0068994971999992018011222004+42350-071050FM-13+000099999V0209999C000019999999N999999999+01531+99999100801ADDMD1610161+9999REMSYN042BHBM3 46/// ///// 10153 40080 56016 92200=
0068994971999992018011223004+42350-071050FM-13+000099999V0209999C000019999999N999999999+01591+99999100721ADDMD1810161+9999REMSYN042BHBM3 46/// ///// 10159 40072 58016 92300=
0068994971999992018011300004+42350-071050FM-13+000099999V0209999C000019999999N999999999+01681+99999100621ADDMD1810211+9999REMSYN042BHBM3 46/// ///// 10168 40062 58021 90000=
0068994971999992018011301004+42350-071050FM-13+000099999V0209999C000019999999N999999999+01751+99999100531ADDMD1810271+9999REMSYN042BHBM3 46/// ///// 10175 40053 58027 90100=
0068994971999992018011302004+42350-071050FM-13+000099999V0209999C000019999999N999999999+01661+99999100481ADDMD1610241+9999REMSYN042BHBM3 46/// ///// 10166 40048 56024 90200=
0068994971999992018011303004+42350-071050FM-13+000099999V0209999C000019999999N999999999+01531+99999100371ADDMD1810251+9999REMSYN042BHBM3 46/// ///// 10153 40037 58025 90300=
0068994971999992018011304004+42350-071050FM-13+000099999V0209999C000019999999N999999999+01531+99999100301ADDMD1810231+9999REMSYN042BHBM3 46/// ///// 10153 40030 58023 90400=
0068994971999992018011305004+42350-071050FM-13+000099999V0209999C000019999999N999999999+01611+99999100161ADDMD1810321+9999REMSYN042BHBM3 46/// ///// 10161 40016 58032 90500=
0068994971999992018011306004+42350-071050FM-13+000099999V0209999C000019999999N999999999+01701+99999099951ADDMD1810421+9999REMSYN042BHBM3 46/// ///// 10170 49995 58042 90600=
0068994971999992018011307004+42350-071050FM-13+000099999V0209999C000019999999N999999999+01581+99999099911ADDMD1610391+9999REMSYN042BHBM3 46/// ///// 10158 49991 56039 90700=
0068994971999992018011308004+42350-071050FM-13+000099999V0209999C000019999999N999999999+01561+99999099841ADDMD1610321+9999REMSYN042BHBM3 46/// ///// 10156 49984 56032 90800=
0068994971999992018011309004+42350-071050FM-13+000099999V0209999C000019999999N999999999+01621+99999099701ADDMD1810251+9999REMSYN042BHBM3 46/// ///// 10162 49970 58025 90900=
0068994971999992018011310004+42350-071050FM-13+000099999V0209999C000019999999N999999999+01561+99999099521ADDMD1810391+9999REMSYN042BHBM3 46/// ///// 10156 49952 58039 91000=
0068994971999992018011311004+42350-071050FM-13+000099999V0209999C000019999999N999999999+01641+99999099451ADDMD1610391+9999REMSYN042BHBM3 46/// ///// 10164 49945 56039 91100=
0068994971999992018011312004+42350-071050FM-13+000099999V0209999C000019999999N999999999+01681+99999099351ADDMD1610351+9999REMSYN042BHBM3 46/// ///// 10168 49935 56035 91200=
0068994971999992018011313004+42350-071050FM-13+000099999V0209999C000019999999N999999999+01571+99999099461ADDMD1510061+9999REMSYN042BHBM3 46/// ///// 10157 49946 55006 91300=
0068994971999992018011314004+42350-071050FM-13+000099999V0209999C000019999999N999999999+01501+99999099591ADDMD1310141+9999REMSYN042BHBM3 46/// ///// 10150 49959 53014 91400=
0068994971999992018011315004+42350-071050FM-13+000099999V0209999C000019999999N999999999+01491+99999099781ADDMD1310431+9999REMSYN042BHBM3 46/// ///// 10149 49978 53043 91500=
0068994971999992018011316004+42350-071050FM-13+000099999V0209999C000019999999N999999999+00682+99999100191ADDMD1310731+9999REMSYN042BHBM3 46/// ///// 10068 40019 53073 91600=
0068994971999992018011317004+42350-071050FM-13+000099999V0209999C000019999999N999999999+00451+99999100401ADDMD1310811+9999REMSYN042BHBM3 46/// ///// 10045 40040 53081 91700=
0068994971999992018011318004+42350-071050FM-13+000099999V0209999C000019999999N999999999+00151+99999100601ADDMD1110821+9999REMSYN042BHBM3 46/// ///// 10015 40060 51082 91800=
0068994971999992018011319004+42350-071050FM-13+000099999V0209999C000019999999N999999999+00181+99999100791ADDMD1110601+9999REMSYN042BHBM3 46/// ///// 10018 40079 51060 91900=
0068994971999992018011320004+42350-071050FM-13+000099999V0209999C000019999999N999999999+00401+99999101021ADDMD1310621+9999REMSYN042BHBM3 46/// ///// 10040 40102 53062 92000=
0068994971999992018011321004+42350-071050FM-13+000099999V0209999C000019999999N999999999+00201+99999101251ADDMD1310651+9999REMSYN042BHBM3 46/// ///// 10020 40125 53065 92100=
0068994971999992018011322004+42350-071050FM-13+000099999V0209999C000019999999N999999999+00001+99999101461ADDMD1110671+9999REMSYN042BHBM3 46/// ///// 10000 40146 51067 92200=
0068994971999992018011323004+42350-071050FM-13+000099999V0209999C000019999999N999999999-00111+99999101711ADDMD1310691+9999REMSYN042BHBM3 46/// ///// 11011 40171 53069 92300=
0068994971999992018011400004+42350-071050FM-13+000099999V0209999C000019999999N999999999-00251+99999101891ADDMD1110641+9999REMSYN042BHBM3 46/// ///// 11025 40189 51064 90000=
0068994971999992018011401004+42350-071050FM-13+000099999V0209999C000019999999N999999999-00331+99999102011ADDMD1110551+9999REMSYN042BHBM3 46/// ///// 11033 40201 51055 90100=
0068994971999992018011402004+42350-071050FM-13+000099999V0209999C000019999999N999999999-00411+99999102171ADDMD1110461+9999REMSYN042BHBM3 46/// ///// 11041 40217 51046 90200=
0068994971999992018011403004+42350-071050FM-13+000099999V0209999C000019999999N999999999-00511+99999102301ADDMD1310411+9999REMSYN042BHBM3 46/// ///// 11051 40230 53041 90300=
0068994971999992018011404004+42350-071050FM-13+000099999V0209999C000019999999N999999999-00571+99999102421ADDMD1110411+9999REMSYN042BHBM3 46/// ///// 11057 40242 51041 90400=
0068994971999992018011405004+42350-071050FM-13+000099999V0209999C000019999999N999999999-00651+99999102511ADDMD1110341+9999REMSYN042BHBM3 46/// ///// 11065 40251 51034 90500=
0068994971999992018011406004+42350-071050FM-13+000099999V0209999C000019999999N999999999-00751+99999102621ADDMD1110321+9999REMSYN042BHBM3 46/// ///// 11075 40262 51032 90600=
0068994971999992018011407004+42350-071050FM-13+000099999V0209999C000019999999N999999999-00761+99999102741ADDMD1310321+9999REMSYN042BHBM3 46/// ///// 11076 40274 53032 90700=
0068994971999992018011408004+42350-071050FM-13+000099999V0209999C000019999999N999999999-00851+99999102811ADDMD1110301+9999REMSYN042BHBM3 46/// ///// 11085 40281 51030 90800=
0068994971999992018011409004+42350-071050FM-13+000099999V0209999C000019999999N999999999-00851+99999102881ADDMD1110261+9999REMSYN042BHBM3 46/// ///// 11085 40288 51026 90900=
0068994971999992018011410004+42350-071050FM-13+000099999V0209999C000019999999N999999999-00901+99999102951ADDMD1210211+9999REMSYN042BHBM3 46/// ///// 11090 40295 52021 91000=
0068994971999992018011411004+42350-071050FM-13+000099999V0209999C000019999999N999999999-00951+99999103071ADDMD1310261+9999REMSYN042BHBM3 46/// ///// 11095 40307 53026 91100=
0068994971999992018011412004+42350-071050FM-13+000099999V0209999C000019999999N999999999-00981+99999103211ADDMD1310331+9999REMSYN042BHBM3 46/// ///// 11098 40321 53033 91200=
0068994971999992018011413004+42350-071050FM-13+000099999V0209999C000019999999N999999999-00991+99999103291ADDMD1110341+9999REMSYN042BHBM3 46/// ///// 11099 40329 51034 91300=
0068994971999992018011414004+42350-071050FM-13+000099999V0209999C000019999999N999999999-00881+99999103421ADDMD1110351+9999REMSYN042BHBM3 46/// ///// 11088 40342 51035 91400=
0068994971999992018011415004+42350-071050FM-13+000099999V0209999C000019999999N999999999-00901+99999103501ADDMD1210291+9999REMSYN042BHBM3 46/// ///// 11090 40350 52029 91500=
0068994971999992018011416004+42350-071050FM-13+000099999V0209999C000019999999N999999999-00761+99999103491ADDMD1110201+9999REMSYN042BHBM3 46/// ///// 11076 40349 51020 91600=
0068994971999992018011417004+42350-071050FM-13+000099999V0209999C000019999999N999999999-00741+99999103481ADDMD1110061+9999REMSYN042BHBM3 46/// ///// 11074 40348 51006 91700=
0068994971999992018011418004+42350-071050FM-13+000099999V0209999C000019999999N999999999-00641+99999103441ADDMD1810061+9999REMSYN042BHBM3 46/// ///// 11064 40344 58006 91800=
0068994971999992018011419004+42350-071050FM-13+000099999V0209999C000019999999N999999999-00561+99999103471ADDMD1510001+9999REMSYN042BHBM3 46/// ///// 11056 40347 55000 91900=
0068994971999992018011420004+42350-071050FM-13+000099999V0209999C000019999999N999999999-00541+99999103521ADDMD1310041+9999REMSYN042BHBM3 46/// ///// 11054 40352 53004 92000=
0068994971999992018011421004+42350-071050FM-13+000099999V0209999C000019999999N999999999-00541+99999103601ADDMD1310161+9999REMSYN042BHBM3 46/// ///// 11054 40360 53016 92100=
0068994971999992018011422004+42350-071050FM-13+000099999V0209999C000019999999N999999999-00601+99999103691ADDMD1310221+9999REMSYN042BHBM3 46/// ///// 11060 40369 53022 92200=
0068994971999992018011423004+42350-071050FM-13+000099999V0209999C000019999999N999999999-00591+99999103761ADDMD1110241+9999REMSYN042BHBM3 46/// ///// 11059 40376 51024 92300=
0068994971999992018011500004+42350-071050FM-13+000099999V0209999C000019999999N999999999-00651+99999103851ADDMD1210251+9999REMSYN042BHBM3 46/// ///// 11065 40385 52025 90000=
0068994971999992018011501004+42350-071050FM-13+000099999V0209999C000019999999N999999999-00731+99999103881ADDMD1110191+9999REMSYN042BHBM3 46/// ///// 11073 40388 51019 90100=
0068994971999992018011502004+42350-071050FM-13+000099999V0209999C000019999999N999999999-00791+99999103911ADDMD1110151+9999REMSYN042BHBM3 46/// ///// 11079 40391 51015 90200=
0068994971999992018011503004+42350-071050FM-13+000099999V0209999C000019999999N999999999-00821+99999103891ADDMD1110041+9999REMSYN042BHBM3 46/// ///// 11082 40389 51004 90300=
0068994971999992018011504004+42350-071050FM-13+000099999V0209999C000019999999N999999999-00841+99999103891ADDMD1990001+9999REMSYN042BHBM3 46/// ///// 11084 40389 50000 90400=
0068994971999992018011505004+42350-071050FM-13+000099999V0209999C000019999999N999999999-00871+99999103891ADDMD1410001+9999REMSYN042BHBM3 46/// ///// 11087 40389 54000 90500=
0068994971999992018011506004+42350-071050FM-13+000099999V0209999C000019999999N999999999-00871+99999103861ADDMD1810031+9999REMSYN042BHBM3 46/// ///// 11087 40386 58003 90600=
0068994971999992018011507004+42350-071050FM-13+000099999V0209999C000019999999N999999999-00861+99999103921ADDMD1310031+9999REMSYN042BHBM3 46/// ///// 11086 40392 53003 90700=
0068994971999992018011508004+42350-071050FM-13+000099999V0209999C000019999999N999999999-00871+99999103931ADDMD1310041+9999REMSYN042BHBM3 46/// ///// 11087 40393 53004 90800=
0068994971999992018011509004+42350-071050FM-13+000099999V0209999C000019999999N999999999-00911+99999103921ADDMD1110061+9999REMSYN042BHBM3 46/// ///// 11091 40392 51006 90900=
0068994971999992018011510004+42350-071050FM-13+000099999V0209999C000019999999N999999999-00961+99999103931ADDMD1410001+9999REMSYN042BHBM3 46/// ///// 11096 40393 54000 91000=
0068994971999992018011511004+42350-071050FM-13+000099999V0209999C000019999999N999999999-00991+99999104021ADDMD1310091+9999REMSYN042BHBM3 46/// ///// 11099 40402 53009 91100=
0068994971999992018011512004+42350-071050FM-13+000099999V0209999C000019999999N999999999-01031+99999104011ADDMD1210091+9999REMSYN042BHBM3 46/// ///// 11103 40401 52009 91200=
0068994971999992018011513004+42350-071050FM-13+000099999V0209999C000019999999N999999999-01041+99999104051ADDMD1110121+9999REMSYN042BHBM3 46/// ///// 11104 40405 51012 91300=
0068994971999992018011514004+42350-071050FM-13+000099999V0209999C000019999999N999999999-01061+99999104071ADDMD1210051+9999REMSYN042BHBM3 46/// ///// 11106 40407 52005 91400=
0068994971999992018011515004+42350-071050FM-13+000099999V0209999C000019999999N999999999-01011+99999103991ADDMD1990001+9999REMSYN042BHBM3 46/// ///// 11101 40399 50000 91500=
0068994971999992018011516004+42350-071050FM-13+000099999V0209999C000019999999N999999999-00941+99999103931ADDMD1810121+9999REMSYN042BHBM3 46/// ///// 11094 40393 58012 91600=
0068994971999992018011517004+42350-071050FM-13+000099999V0209999C000019999999N999999999-00921+99999103781ADDMD1810291+9999REMSYN042BHBM3 46/// ///// 11092 40378 58029 91700=
0068994971999992018011518004+42350-071050FM-13+000099999V0209999C000019999999N999999999-00911+99999103631ADDMD1810361+9999REMSYN042BHBM3 46/// ///// 11091 40363 58036 91800=
0068994971999992018011519004+42350-071050FM-13+000099999V0209999C000019999999N999999999-00871+99999103541ADDMD1610391+9999REMSYN042BHBM3 46/// ///// 11087 40354 56039 91900=
0068994971999992018011520004+42350-071050FM-13+000099999V0209999C000019999999N999999999-00831+99999103601ADDMD1510181+9999REMSYN042BHBM3 46/// ///// 11083 40360 55018 92000=
0068994971999992018011521004+42350-071050FM-13+000099999V0209999C000019999999N999999999-00771+99999103581ADDMD1610051+9999REMSYN042BHBM3 46/// ///// 11077 40358 56005 92100=
0068994971999992018011522004+42350-071050FM-13+000099999V0209999C000019999999N999999999-00721+99999103531ADDMD1990001+9999REMSYN042BHBM3 46/// ///// 11072 40353 50000 92200=
0068994971999992018011523004+42350-071050FM-13+000099999V0209999C000019999999N999999999-00681+99999103441ADDMD1810161+9999REMSYN042BHBM3 46/// ///// 11068 40344 58016 92300=
0068994971999992018011600004+42350-071050FM-13+000099999V0209999C000019999999N999999999-00641+99999103471ADDMD1510111+9999REMSYN042BHBM3 46/// ///// 11064 40347 55011 90000=
0068994971999992018011601004+42350-071050FM-13+000099999V0209999C000019999999N999999999-00621+99999103491ADDMD1610041+9999REMSYN042BHBM3 46/// ///// 11062 40349 56004 90100=
0068994971999992018011602004+42350-071050FM-13+000099999V0209999C000019999999N999999999-00651+99999103391ADDMD1810051+9999REMSYN042BHBM3 46/// ///// 11065 40339 58005 90200=
0068994971999992018011603004+42350-071050FM-13+000099999V0209999C000019999999N999999999-00631+99999103401ADDMD1710071+9999REMSYN042BHBM3 46/// ///// 11063 40340 57007 90300=
0068994971999992018011604004+42350-071050FM-13+000099999V0209999C000019999999N999999999-00621+99999103331ADDMD1610161+9999REMSYN042BHBM3 46/// ///// 11062 40333 56016 90400=
0068994971999992018011605004+42350-071050FM-13+000099999V0209999C000019999999N999999999-00621+99999103291ADDMD1810101+9999REMSYN042BHBM3 46/// ///// 11062 40329 58010 90500=
0068994971999992018011606004+42350-071050FM-13+000099999V0209999C000019999999N999999999-00611+99999103221ADDMD1710181+9999REMSYN042BHBM3 46/// ///// 11061 40322 57018 90600=
0068994971999992018011607004+42350-071050FM-13+000099999V0209999C000019999999N999999999-00601+99999103221ADDMD1610111+9999REMSYN042BHBM3 46/// ///// 11060 40322 56011 90700=
0068994971999992018011608004+42350-071050FM-13+000099999V0209999C000019999999N999999999-00591+99999103281ADDMD1510001+9999REMSYN042BHBM3 46/// ///// 11059 40328 55000 90800=
0068994971999992018011609004+42350-071050FM-13+000099999V0209999C000019999999N999999999-00591+99999103261ADDMD1210041+9999REMSYN042BHBM3 46/// ///// 11059 40326 52004 90900=
0068994971999992018011610004+42350-071050FM-13+000099999V0209999C000019999999N999999999-00611+99999103261ADDMD1110041+9999REMSYN042BHBM3 46/// ///// 11061 40326 51004 91000=
0068994971999992018011611004+42350-071050FM-13+000099999V0209999C000019999999N999999999-00561+99999103291ADDMD1510001+9999REMSYN042BHBM3 46/// ///// 11056 40329 55000 91100=
0068994971999992018011612004+42350-071050FM-13+000099999V0209999C000019999999N999999999-00531+99999103301ADDMD1210041+9999REMSYN042BHBM3 46/// ///// 11053 40330 52004 91200=
0068994971999992018011613004+42350-071050FM-13+000099999V0209999C000019999999N999999999-00501+99999103251ADDMD1990001+9999REMSYN042BHBM3 46/// ///// 11050 40325 50000 91300=
0068994971999992018011614004+42350-071050FM-13+000099999V0209999C000019999999N999999999-00231+99999103321ADDMD1310031+9999REMSYN042BHBM3 46/// ///// 11023 40332 53003 91400=
0068994971999992018011615004+42350-071050FM-13+000099999V0209999C000019999999N999999999-00271+99999103331ADDMD1310031+9999REMSYN042BHBM3 46/// ///// 11027 40333 53003 91500=
0068994971999992018011616004+42350-071050FM-13+000099999V0209999C000019999999N999999999-00221+99999103261ADDMD1990001+9999REMSYN042BHBM3 46/// ///// 11022 40326 50000 91600=
0068994971999992018011617004+42350-071050FM-13+000099999V0209999C000019999999N999999999-00081+99999103161ADDMD1810161+9999REMSYN042BHBM3 46/// ///// 11008 40316 58016 91700=
0068994971999992018011618004+42350-071050FM-13+000099999V0209999C000019999999N999999999+00001+99999103071ADDMD1810261+9999REMSYN042BHBM3 46/// ///// 10000 40307 58026 91800=
0068994971999992018011619004+42350-071050FM-13+000099999V0209999C000019999999N999999999+00041+99999103051ADDMD1610211+9999REMSYN042BHBM3 46/// ///// 10004 40305 56021 91900=
0068994971999992018011620004+42350-071050FM-13+000099999V0209999C000019999999N999999999+00081+99999103051ADDMD1610111+9999REMSYN042BHBM3 46/// ///// 10008 40305 56011 92000=
0068994971999992018011621004+42350-071050FM-13+000099999V0209999C000019999999N999999999+00091+99999103041ADDMD1710031+9999REMSYN042BHBM3 46/// ///// 10009 40304 57003 92100=
0068994971999992018011622004+42350-071050FM-13+000099999V0209999C000019999999N999999999+00061+99999103041ADDMD1410001+9999REMSYN042BHBM3 46/// ///// 10006 40304 54000 92200=
0068994971999992018011623004+42350-071050FM-13+000099999V0209999C000019999999N999999999+00071+99999103051ADDMD1410001+9999REMSYN042BHBM3 46/// ///// 10007 40305 54000 92300=
0068994971999992018011700004+42350-071050FM-13+000099999V0209999C000019999999N999999999+00101+99999103061ADDMD1410001+9999REMSYN042BHBM3 46/// ///// 10010 40306 54000 90000=
0068994971999992018011701004+42350-071050FM-13+000099999V0209999C000019999999N999999999+00091+99999103051ADDMD1410001+9999REMSYN042BHBM3 46/// ///// 10009 40305 54000 90100=
0068994971999992018011702004+42350-071050FM-13+000099999V0209999C000019999999N999999999+00081+99999103011ADDMD1810041+9999REMSYN042BHBM3 46/// ///// 10008 40301 58004 90200=
0068994971999992018011703004+42350-071050FM-13+000099999V0209999C000019999999N999999999+00051+99999102981ADDMD1810081+9999REMSYN042BHBM3 46/// ///// 10005 40298 58008 90300=
0068994971999992018011704004+42350-071050FM-13+000099999V0209999C000019999999N999999999+00051+99999102901ADDMD1810151+9999REMSYN042BHBM3 46/// ///// 10005 40290 58015 90400=
0068994971999992018011705004+42350-071050FM-13+000099999V0209999C000019999999N999999999+00081+99999102851ADDMD1810161+9999REMSYN042BHBM3 46/// ///// 10008 40285 58016 90500=
0068994971999992018011706004+42350-071050FM-13+000099999V0209999C000019999999N999999999+00061+99999102801ADDMD1610181+9999REMSYN042BHBM3 46/// ///// 10006 40280 56018 90600=
0068994971999992018011707004+42350-071050FM-13+000099999V0209999C000019999999N999999999+00091+99999102811ADDMD1610091+9999REMSYN042BHBM3 46/// ///// 10009 40281 56009 90700=
0068994971999992018011708004+42350-071050FM-13+000099999V0209999C000019999999N999999999+00091+99999102761ADDMD1710091+9999REMSYN042BHBM3 46/// ///// 10009 40276 57009 90800=
0068994971999992018011709004+42350-071050FM-13+000099999V0209999C000019999999N999999999+00081+99999102691ADDMD1810111+9999REMSYN042BHBM3 46/// ///// 10008 40269 58011 90900=
0068994971999992018011710004+42350-071050FM-13+000099999V0209999C000019999999N999999999+00071+99999102681ADDMD1610131+9999REMSYN042BHBM3 46/// ///// 10007 40268 56013 91000=
0068994971999992018011711004+42350-071050FM-13+000099999V0209999C000019999999N999999999+00021+99999102611ADDMD1710151+9999REMSYN042BHBM3 46/// ///// 10002 40261 57015 91100=
0068994971999992018011712004+42350-071050FM-13+000099999V0209999C000019999999N999999999+00011+99999102561ADDMD1810131+9999REMSYN042BHBM3 46/// ///// 10001 40256 58013 91200=
0068994971999992018011713004+42350-071050FM-13+000099999V0209999C000019999999N999999999+00031+99999102491ADDMD1710191+9999REMSYN042BHBM3 46/// ///// 10003 40249 57019 91300=
0068994971999992018011714004+42350-071050FM-13+000099999V0209999C000019999999N999999999+00041+99999102481ADDMD1610131+9999REMSYN042BHBM3 46/// ///// 10004 40248 56013 91400=
0068994971999992018011715004+42350-071050FM-13+000099999V0209999C000019999999N999999999+00041+99999102441ADDMD1610121+9999REMSYN042BHBM3 46/// ///// 10004 40244 56012 91500=
0068994971999992018011716004+42350-071050FM-13+000099999V0209999C000019999999N999999999+00061+99999102331ADDMD1810161+9999REMSYN042BHBM3 46/// ///// 10006 40233 58016 91600=
0068994971999992018011717004+42350-071050FM-13+000099999V0209999C000019999999N999999999+00091+99999102161ADDMD1810321+9999REMSYN042BHBM3 46/// ///// 10009 40216 58032 91700=
0068994971999992018011718004+42350-071050FM-13+000099999V0209999C000019999999N999999999+00101+99999102041ADDMD1810401+9999REMSYN042BHBM3 46/// ///// 10010 40204 58040 91800=
0068994971999992018011719004+42350-071050FM-13+000099999V0209999C000019999999N999999999+00071+99999101951ADDMD1610381+9999REMSYN042BHBM3 46/// ///// 10007 40195 56038 91900=
0068994971999992018011720004+42350-071050FM-13+000099999V0209999C000019999999N999999999+00071+99999101921ADDMD1610241+9999REMSYN042BHBM3 46/// ///// 10007 40192 56024 92000=
0068994971999992018011721004+42350-071050FM-13+000099999V0209999C000019999999N999999999+00081+99999101931ADDMD1610111+9999REMSYN042BHBM3 46/// ///// 10008 40193 56011 92100=
0068994971999992018011722004+42350-071050FM-13+000099999V0209999C000019999999N999999999+00061+99999101871ADDMD1810081+9999REMSYN042BHBM3 46/// ///// 10006 40187 58008 92200=
0068994971999992018011723004+42350-071050FM-13+000099999V0209999C000019999999N999999999+00041+99999101841ADDMD1810081+9999REMSYN042BHBM3 46/// ///// 10004 40184 58008 92300=
0068994971999992018011800004+42350-071050FM-13+000099999V0209999C000019999999N999999999+00031+99999101821ADDMD1610111+9999REMSYN042BHBM3 46/// ///// 10003 40182 56011 90000=
0068994971999992018011801004+42350-071050FM-13+000099999V0209999C000019999999N999999999+00001+99999101761ADDMD1810111+9999REMSYN042BHBM3 46/// ///// 10000 40176 58011 90100=
0068994971999992018011802004+42350-071050FM-13+000099999V0209999C000019999999N999999999-00011+99999101751ADDMD1710091+9999REMSYN042BHBM3 46/// ///// 11001 40175 57009 90200=
0068994971999992018011803004+42350-071050FM-13+000099999V0209999C000019999999N999999999+00021+99999101721ADDMD1610101+9999REMSYN042BHBM3 46/// ///// 10002 40172 56010 90300=
0068994971999992018011804004+42350-071050FM-13+000099999V0209999C000019999999N999999999+00031+99999101721ADDMD1710041+9999REMSYN042BHBM3 46/// ///// 10003 40172 57004 90400=
0068994971999992018011805004+42350-071050FM-13+000099999V0209999C000019999999N999999999+00011+99999101661ADDMD1810091+9999REMSYN042BHBM3 46/// ///// 10001 40166 58009 90500=
0068994971999992018011806004+42350-071050FM-13+000099999V0209999C000019999999N999999999-00021+99999101551ADDMD1810171+9999REMSYN042BHBM3 46/// ///// 11002 40155 58017 90600=
0068994971999992018011807004+42350-071050FM-13+000099999V0209999C000019999999N999999999-00101+99999101561ADDMD1610161+9999REMSYN042BHBM3 46/// ///// 11010 40156 56016 90700=
0068994971999992018011808004+42350-071050FM-13+000099999V0209999C000019999999N999999999-00181+99999101481ADDMD1610181+9999REMSYN042BHBM3 46/// ///// 11018 40148 56018 90800=
0068994971999992018011809004+42350-071050FM-13+000099999V0209999C000019999999N999999999-00301+99999101451ADDMD1810101+9999REMSYN042BHBM3 46/// ///// 11030 40145 58010 90900=
0068994971999992018011810004+42350-071050FM-13+000099999V0209999C000019999999N999999999-00391+99999101411ADDMD1610151+9999REMSYN042BHBM3 46/// ///// 11039 40141 56015 91000=
0068994971999992018011811004+42350-071050FM-13+000099999V0209999C000019999999N999999999-00441+99999101431ADDMD1610051+9999REMSYN042BHBM3 46/// ///// 11044 40143 56005 91100=
0068994971999992018011812004+42350-071050FM-13+000099999V0209999C000019999999N999999999-00501+99999101411ADDMD1610041+9999REMSYN042BHBM3 46/// ///// 11050 40141 56004 91200=
0045994971999992018011813004+42350-071050FM-13+000099999V0209999C000019999999N999999999-00511+99999101381REMSYN036BHBM3 46/// ///// 11051 40138 91236=
0045994971999992018011814004+42350-071050FM-13+000099999V0209999C000019999999N999999999-00481+99999101381REMSYN036BHBM3 46/// ///// 11048 40138 91336=
0068994971999992018011815004+42350-071050FM-13+000099999V0209999C000019999999N999999999-00241+99999101401ADDMD1510001+9999REMSYN042BHBM3 46/// ///// 11024 40140 55000 91500=
0068994971999992018011816004+42350-071050FM-13+000099999V0209999C000019999999N999999999-00151+99999101301ADDMD1990001+9999REMSYN042BHBM3 46/// ///// 11015 40130 50000 91600=
0068994971999992018011817004+42350-071050FM-13+000099999V0209999C000019999999N999999999-00151+99999101201ADDMD1810201+9999REMSYN042BHBM3 46/// ///// 11015 40120 58020 91700=
0068994971999992018011818004+42350-071050FM-13+000099999V0209999C000019999999N999999999-00031+99999101051ADDMD1810351+9999REMSYN042BHBM3 46/// ///// 11003 40105 58035 91800=
0068994971999992018011819004+42350-071050FM-13+000099999V0209999C000019999999N999999999-00111+99999100991ADDMD1610311+9999REMSYN042BHBM3 46/// ///// 11011 40099 56031 91900=
0045994971999992018011820004+42350-071050FM-13+000099999V0209999C000019999999N999999999-00011+99999100971REMSYN036BHBM3 46/// ///// 11001 40097 91942=
0068994971999992018011821004+42350-071050FM-13+000099999V0209999C000019999999N999999999-00071+99999101041ADDMD1510001+9999REMSYN042BHBM3 46/// ///// 11007 40104 55000 92100=
0068994971999992018011822004+42350-071050FM-13+000099999V0209999C000019999999N999999999-00101+99999101101ADDMD1310111+9999REMSYN042BHBM3 46/// ///// 11010 40110 53011 92200=
0068994971999992018011823004+42350-071050FM-13+000099999V0209999C000019999999N999999999-00141+99999101161ADDMD1310171+9999REMSYN042BHBM3 46/// ///// 11014 40116 53017 92300=
0045994971999992018011900004+42350-071050FM-13+000099999V0209999C000019999999N999999999-00151+99999101201REMSYN036BHBM3 46/// ///// 11015 40120 92336=
0068994971999992018011901004+42350-071050FM-13+000099999V0209999C000019999999N999999999-00201+99999101251ADDMD1110151+9999REMSYN042BHBM3 46/// ///// 11020 40125 51015 90100=
0068994971999992018011902004+42350-071050FM-13+000099999V0209999C000019999999N999999999-00231+99999101281ADDMD1110121+9999REMSYN042BHBM3 46/// ///// 11023 40128 51012 90200=
0068994971999992018011903004+42350-071050FM-13+000099999V0209999C000019999999N999999999-00281+99999101331ADDMD1310121+9999REMSYN042BHBM3 46/// ///// 11028 40133 53012 90300=
0068994971999992018011904004+42350-071050FM-13+000099999V0209999C000019999999N999999999-00311+99999101321ADDMD1110071+9999REMSYN042BHBM3 46/// ///// 11031 40132 51007 90400=
0068994971999992018011905004+42350-071050FM-13+000099999V0209999C000019999999N999999999-00371+99999101321ADDMD1110041+9999REMSYN042BHBM3 46/// ///// 11037 40132 51004 90500=
0068994971999992018011906004+42350-071050FM-13+000099999V0209999C000019999999N999999999-00411+99999101261ADDMD1810071+9999REMSYN042BHBM3 46/// ///// 11041 40126 58007 90600=
0068994971999992018011907004+42350-071050FM-13+000099999V0209999C000019999999N999999999-00451+99999101321ADDMD1510001+9999REMSYN042BHBM3 46/// ///// 11045 40132 55000 90700=
0068994971999992018011908004+42350-071050FM-13+000099999V0209999C000019999999N999999999-00471+99999101291ADDMD1610031+9999REMSYN042BHBM3 46/// ///// 11047 40129 56003 90800=
0068994971999992018011909004+42350-071050FM-13+000099999V0209999C000019999999N999999999-00441+99999101311ADDMD1110051+9999REMSYN042BHBM3 46/// ///// 11044 40131 51005 90900=
0068994971999992018011910004+42350-071050FM-13+000099999V0209999C000019999999N999999999-00431+99999101321ADDMD1510001+9999REMSYN042BHBM3 46/// ///// 11043 40132 55000 91000=
0068994971999992018011911004+42350-071050FM-13+000099999V0209999C000019999999N999999999-00431+99999101371ADDMD1310081+9999REMSYN042BHBM3 46/// ///// 11043 40137 53008 91100=
0068994971999992018011912004+42350-071050FM-13+000099999V0209999C000019999999N999999999-00401+99999101391ADDMD1210081+9999REMSYN042BHBM3 46/// ///// 11040 40139 52008 91200=
0068994971999992018011913004+42350-071050FM-13+000099999V0209999C000019999999N999999999-00341+99999101391ADDMD1110071+9999REMSYN042BHBM3 46/// ///// 11034 40139 51007 91300=
0068994971999992018011914004+42350-071050FM-13+000099999V0209999C000019999999N999999999-00301+99999101461ADDMD1310091+9999REMSYN042BHBM3 46/// ///// 11030 40146 53009 91400=
0068994971999992018011915004+42350-071050FM-13+000099999V0209999C000019999999N999999999-00191+99999101451ADDMD1210061+9999REMSYN042BHBM3 46/// ///// 11019 40145 52006 91500=
0045994971999992018011916004+42350-071050FM-13+000099999V0209999C000019999999N999999999-00141+99999101451REMSYN036BHBM3 46/// ///// 11014 40145 91536=
0068994971999992018011917004+42350-071050FM-13+000099999V0209999C000019999999N999999999-00071+99999101311ADDMD1810151+9999REMSYN042BHBM3 46/// ///// 11007 40131 58015 91700=
0068994971999992018011918004+42350-071050FM-13+000099999V0209999C000019999999N999999999-00011+99999101231ADDMD1810221+9999REMSYN042BHBM3 46/// ///// 11001 40123 58022 91800=
0068994971999992018011919004+42350-071050FM-13+000099999V0209999C000019999999N999999999+00101+99999101201ADDMD1610201+9999REMSYN042BHBM3 46/// ///// 10010 40120 56020 91900=
0068994971999992018011920004+42350-071050FM-13+000099999V0209999C000019999999N999999999+00101+99999101261ADDMD1510051+9999REMSYN042BHBM3 46/// ///// 10010 40126 55005 92000=
0068994971999992018011921004+42350-071050FM-13+000099999V0209999C000019999999N999999999+00101+99999101271ADDMD1310041+9999REMSYN042BHBM3 46/// ///// 10010 40127 53004 92100=
0068994971999992018011922004+42350-071050FM-13+000099999V0209999C000019999999N999999999+00101+99999101311ADDMD1110111+9999REMSYN042BHBM3 46/// ///// 10010 40131 51011 92200=
0068994971999992018011923004+42350-071050FM-13+000099999V0209999C000019999999N999999999+00121+99999101261ADDMD1990001+9999REMSYN042BHBM3 46/// ///// 10012 40126 50000 92300=
0068994971999992018012000004+42350-071050FM-13+000099999V0209999C000019999999N999999999+00131+99999101251ADDMD1990001+9999REMSYN042BHBM3 46/// ///// 10013 40125 50000 90000=
0068994971999992018012001004+42350-071050FM-13+000099999V0209999C000019999999N999999999+00131+99999101321ADDMD1510001+9999REMSYN042BHBM3 46/// ///// 10013 40132 55000 90100=
0068994971999992018012002004+42350-071050FM-13+000099999V0209999C000019999999N999999999+00071+99999101301ADDMD1210041+9999REMSYN042BHBM3 46/// ///// 10007 40130 52004 90200=
0068994971999992018012003004+42350-071050FM-13+000099999V0209999C000019999999N999999999+00041+99999101251ADDMD1990001+9999REMSYN042BHBM3 46/// ///// 10004 40125 50000 90300=
0068994971999992018012004004+42350-071050FM-13+000099999V0209999C000019999999N999999999+00001+99999101221ADDMD1810101+9999REMSYN042BHBM3 46/// ///// 10000 40122 58010 90400=
0068994971999992018012005004+42350-071050FM-13+000099999V0209999C000019999999N999999999-00051+99999101081ADDMD1810221+9999REMSYN042BHBM3 46/// ///// 11005 40108 58022 90500=
0068994971999992018012006004+42350-071050FM-13+000099999V0209999C000019999999N999999999-00021+99999100961ADDMD1810291+9999REMSYN042BHBM3 46/// ///// 11002 40096 58029 90600=
0068994971999992018012007004+42350-071050FM-13+000099999V0209999C000019999999N999999999+00071+99999100901ADDMD1610321+9999REMSYN042BHBM3 46/// ///// 10007 40090 56032 90700=
0068994971999992018012008004+42350-071050FM-13+000099999V0209999C000019999999N999999999+00061+99999100831ADDMD1610251+9999REMSYN042BHBM3 46/// ///// 10006 40083 56025 90800=
0068994971999992018012009004+42350-071050FM-13+000099999V0209999C000019999999N999999999+00081+99999100821ADDMD1610141+9999REMSYN042BHBM3 46/// ///// 10008 40082 56014 90900=
0068994971999992018012010004+42350-071050FM-13+000099999V0209999C000019999999N999999999+00091+99999100651ADDMD1810251+9999REMSYN042BHBM3 46/// ///// 10009 40065 58025 91000=
0068994971999992018012011004+42350-071050FM-13+000099999V0209999C000019999999N999999999+00171+99999100531ADDMD1810301+9999REMSYN042BHBM3 46/// ///// 10017 40053 58030 91100=
0068994971999992018012012004+42350-071050FM-13+000099999V0209999C000019999999N999999999+00191+99999100491ADDMD1610331+9999REMSYN042BHBM3 46/// ///// 10019 40049 56033 91200=
0068994971999992018012013004+42350-071050FM-13+000099999V0209999C000019999999N999999999+00331+99999100461ADDMD1610191+9999REMSYN042BHBM3 46/// ///// 10033 40046 56019 91300=
0068994971999992018012014004+42350-071050FM-13+000099999V0209999C000019999999N999999999+00431+99999100471ADDMD1610061+9999REMSYN042BHBM3 46/// ///// 10043 40047 56006 91400=
0068994971999992018012015004+42350-071050FM-13+000099999V0209999C000019999999N999999999+00601+99999100431ADDMD1810061+9999REMSYN042BHBM3 46/// ///// 10060 40043 58006 91500=
0068994971999992018012016004+42350-071050FM-13+000099999V0209999C000019999999N999999999+00751+99999100431ADDMD1710031+9999REMSYN042BHBM3 46/// ///// 10075 40043 57003 91600=
0068994971999992018012017004+42350-071050FM-13+000099999V0209999C000019999999N999999999+00751+99999100401ADDMD1610071+9999REMSYN042BHBM3 46/// ///// 10075 40040 56007 91700=
0068994971999992018012018004+42350-071050FM-13+000099999V0209999C000019999999N999999999+00791+99999100371ADDMD1810061+9999REMSYN042BHBM3 46/// ///// 10079 40037 58006 91800=
0068994971999992018012019004+42350-071050FM-13+000099999V0209999C000019999999N999999999+00841+99999100441ADDMD1510001+9999REMSYN042BHBM3 46/// ///// 10084 40044 55000 91900=
0068994971999992018012020004+42350-071050FM-13+000099999V0209999C000019999999N999999999+00841+99999100541ADDMD1310141+9999REMSYN042BHBM3 46/// ///// 10084 40054 53014 92000=
0068994971999992018012021004+42350-071050FM-13+000099999V0209999C000019999999N999999999+00881+99999100631ADDMD1310261+9999REMSYN042BHBM3 46/// ///// 10088 40063 53026 92100=
0068994971999992018012022004+42350-071050FM-13+000099999V0209999C000019999999N999999999+00861+99999100741ADDMD1310301+9999REMSYN042BHBM3 46/// ///// 10086 40074 53030 92200=
0068994971999992018012023004+42350-071050FM-13+000099999V0209999C000019999999N999999999+00811+99999100891ADDMD1310351+9999REMSYN042BHBM3 46/// ///// 10081 40089 53035 92300=
0068994971999992018012100004+42350-071050FM-13+000099999V0209999C000019999999N999999999+00701+99999101021ADDMD1310391+9999REMSYN042BHBM3 46/// ///// 10070 40102 53039 90000=
0068994971999992018012101004+42350-071050FM-13+000099999V0209999C000019999999N999999999+00681+99999101151ADDMD1110411+9999REMSYN042BHBM3 46/// ///// 10068 40115 51041 90100=
0068994971999992018012102004+42350-071050FM-13+000099999V0209999C000019999999N999999999+00651+99999101241ADDMD1110351+9999REMSYN042BHBM3 46/// ///// 10065 40124 51035 90200=
0068994971999992018012103004+42350-071050FM-13+000099999V0209999C000019999999N999999999+00571+99999101311ADDMD1110291+9999REMSYN042BHBM3 46/// ///// 10057 40131 51029 90300=
0068994971999992018012104004+42350-071050FM-13+000099999V0209999C000019999999N999999999+00561+99999101321ADDMD1110171+9999REMSYN042BHBM3 46/// ///// 10056 40132 51017 90400=
0068994971999992018012105004+42350-071050FM-13+000099999V0209999C000019999999N999999999+00591+99999101331ADDMD1110091+9999REMSYN042BHBM3 46/// ///// 10059 40133 51009 90500=
0068994971999992018012106004+42350-071050FM-13+000099999V0209999C000019999999N999999999+00561+99999101321ADDMD1410001+9999REMSYN042BHBM3 46/// ///// 10056 40132 54000 90600=
0068994971999992018012107004+42350-071050FM-13+000099999V0209999C000019999999N999999999+00531+99999101411ADDMD1310091+9999REMSYN042BHBM3 46/// ///// 10053 40141 53009 90700=
0068994971999992018012108004+42350-071050FM-13+000099999V0209999C000019999999N999999999+00511+99999101491ADDMD1310161+9999REMSYN042BHBM3 46/// ///// 10051 40149 53016 90800=
0068994971999992018012109004+42350-071050FM-13+000099999V0209999C000019999999N999999999+00381+99999101541ADDMD1110221+9999REMSYN042BHBM3 46/// ///// 10038 40154 51022 90900=
0068994971999992018012110004+42350-071050FM-13+000099999V0209999C000019999999N999999999+00351+99999101631ADDMD1310221+9999REMSYN042BHBM3 46/// ///// 10035 40163 53022 91000=
0068994971999992018012111004+42350-071050FM-13+000099999V0209999C000019999999N999999999+00431+99999101731ADDMD1310241+9999REMSYN042BHBM3 46/// ///// 10043 40173 53024 91100=
0068994971999992018012112004+42350-071050FM-13+000099999V0209999C000019999999N999999999+00391+99999101761ADDMD1110221+9999REMSYN042BHBM3 46/// ///// 10039 40176 51022 91200=
0068994971999992018012113004+42350-071050FM-13+000099999V0209999C000019999999N999999999+00501+99999101831ADDMD1110201+9999REMSYN042BHBM3 46/// ///// 10050 40183 51020 91300=
0068994971999992018012114004+42350-071050FM-13+000099999V0209999C000019999999N999999999+00431+99999101921ADDMD1310191+9999REMSYN042BHBM3 46/// ///// 10043 40192 53019 91400=
0068994971999992018012115004+42350-071050FM-13+000099999V0209999C000019999999N999999999+00631+99999102001ADDMD1310241+9999REMSYN042BHBM3 46/// ///// 10063 40200 53024 91500=
0068994971999992018012116004+42350-071050FM-13+000099999V0209999C000019999999N999999999+00861+99999101981ADDMD1110151+9999REMSYN042BHBM3 46/// ///// 10086 40198 51015 91600=
0068994971999992018012117004+42350-071050FM-13+000099999V0209999C000019999999N999999999+00821+99999101911ADDMD1990001+9999REMSYN042BHBM3 46/// ///// 10082 40191 50000 91700=
0068994971999992018012118004+42350-071050FM-13+000099999V0209999C000019999999N999999999+00851+99999101851ADDMD1810151+9999REMSYN042BHBM3 46/// ///// 10085 40185 58015 91800=
0068994971999992018012119004+42350-071050FM-13+000099999V0209999C000019999999N999999999+00921+99999101851ADDMD1610131+9999REMSYN042BHBM3 46/// ///// 10092 40185 56013 91900=
0068994971999992018012120004+42350-071050FM-13+000099999V0209999C000019999999N999999999+00961+99999101861ADDMD1610051+9999REMSYN042BHBM3 46/// ///// 10096 40186 56005 92000=
0068994971999992018012121004+42350-071050FM-13+000099999V0209999C000019999999N999999999+00871+99999101931ADDMD1310081+9999REMSYN042BHBM3 46/// ///// 10087 40193 53008 92100=
0068994971999992018012122004+42350-071050FM-13+000099999V0209999C000019999999N999999999+00831+99999101981ADDMD1310131+9999REMSYN042BHBM3 46/// ///// 10083 40198 53013 92200=
0068994971999992018012123004+42350-071050FM-13+000099999V0209999C000019999999N999999999+00771+99999102041ADDMD1110181+9999REMSYN042BHBM3 46/// ///// 10077 40204 51018 92300=
0068994971999992018012200004+42350-071050FM-13+000099999V0209999C000019999999N999999999+00711+99999102091ADDMD1210161+9999REMSYN042BHBM3 46/// ///// 10071 40209 52016 90000=
0068994971999992018012201004+42350-071050FM-13+000099999V0209999C000019999999N999999999+00601+99999102101ADDMD1110121+9999REMSYN042BHBM3 46/// ///// 10060 40210 51012 90100=
0068994971999992018012202004+42350-071050FM-13+000099999V0209999C000019999999N999999999+00521+99999102121ADDMD1110081+9999REMSYN042BHBM3 46/// ///// 10052 40212 51008 90200=
0068994971999992018012203004+42350-071050FM-13+000099999V0209999C000019999999N999999999+00441+99999102141ADDMD1210051+9999REMSYN042BHBM3 46/// ///// 10044 40214 52005 90300=
0068994971999992018012204004+42350-071050FM-13+000099999V0209999C000019999999N999999999+00411+99999102151ADDMD1210051+9999REMSYN042BHBM3 46/// ///// 10041 40215 52005 90400=
0068994971999992018012205004+42350-071050FM-13+000099999V0209999C000019999999N999999999+00421+99999102161ADDMD1210041+9999REMSYN042BHBM3 46/// ///// 10042 40216 52004 90500=
0068994971999992018012206004+42350-071050FM-13+000099999V0209999C000019999999N999999999+00381+99999102131ADDMD1990001+9999REMSYN042BHBM3 46/// ///// 10038 40213 50000 90600=
0068994971999992018012207004+42350-071050FM-13+000099999V0209999C000019999999N999999999+00381+99999102131ADDMD1410001+9999REMSYN042BHBM3 46/// ///// 10038 40213 54000 90700=
0068994971999992018012208004+42350-071050FM-13+000099999V0209999C000019999999N999999999+00371+99999102131ADDMD1610031+9999REMSYN042BHBM3 46/// ///// 10037 40213 56003 90800=
0068994971999992018012209004+42350-071050FM-13+000099999V0209999C000019999999N999999999+00341+99999102181ADDMD1310051+9999REMSYN042BHBM3 46/// ///// 10034 40218 53005 90900=
0068994971999992018012210004+42350-071050FM-13+000099999V0209999C000019999999N999999999+00361+99999102181ADDMD1210051+9999REMSYN042BHBM3 46/// ///// 10036 40218 52005 91000=
0068994971999992018012211004+42350-071050FM-13+000099999V0209999C000019999999N999999999+00321+99999102161ADDMD1110031+9999REMSYN042BHBM3 46/// ///// 10032 40216 51003 91100=
0068994971999992018012212004+42350-071050FM-13+000099999V0209999C000019999999N999999999+00371+99999102251ADDMD1310071+9999REMSYN042BHBM3 46/// ///// 10037 40225 53007 91200=
0068994971999992018012213004+42350-071050FM-13+000099999V0209999C000019999999N999999999+00321+99999102341ADDMD1310161+9999REMSYN042BHBM3 46/// ///// 10032 40234 53016 91300=
0068994971999992018012214004+42350-071050FM-13+000099999V0209999C000019999999N999999999+00291+99999102421ADDMD1110261+9999REMSYN042BHBM3 46/// ///// 10029 40242 51026 91400=
0068994971999992018012215004+42350-071050FM-13+000099999V0209999C000019999999N999999999+00271+99999102521ADDMD1310271+9999REMSYN042BHBM3 46/// ///// 10027 40252 53027 91500=
0068994971999992018012216004+42350-071050FM-13+000099999V0209999C000019999999N999999999+00241+99999102491ADDMD1990151+9999REMSYN042BHBM3 46/// ///// 10024 40249 50015 91600=
0068994971999992018012217004+42350-071050FM-13+000099999V0209999C000019999999N999999999+00241+99999102411ADDMD1990001+9999REMSYN042BHBM3 46/// ///// 10024 40241 50000 91700=
0068994971999992018012218004+42350-071050FM-13+000099999V0209999C000019999999N999999999+00291+99999102391ADDMD1610131+9999REMSYN042BHBM3 46/// ///// 10029 40239 56013 91800=
0068994971999992018012219004+42350-071050FM-13+000099999V0209999C000019999999N999999999+00341+99999102441ADDMD1510051+9999REMSYN042BHBM3 46/// ///// 10034 40244 55005 91900=
0068994971999992018012220004+42350-071050FM-13+000099999V0209999C000019999999N999999999+00351+99999102371ADDMD1810041+9999REMSYN042BHBM3 46/// ///// 10035 40237 58004 92000=
0068994971999992018012221004+42350-071050FM-13+000099999V0209999C000019999999N999999999+00361+99999102391ADDMD1990001+9999REMSYN042BHBM3 46/// ///// 10036 40239 50000 92100=
0068994971999992018012222004+42350-071050FM-13+000099999V0209999C000019999999N999999999+00361+99999102391ADDMD1610051+9999REMSYN042BHBM3 46/// ///// 10036 40239 56005 92200=
0068994971999992018012223004+42350-071050FM-13+000099999V0209999C000019999999N999999999+00351+99999102391ADDMD1410001+9999REMSYN042BHBM3 46/// ///// 10035 40239 54000 92300=
0068994971999992018012300004+42350-071050FM-13+000099999V0209999C000019999999N999999999+00361+99999102361ADDMD1810031+9999REMSYN042BHBM3 46/// ///// 10036 40236 58003 90000=
0068994971999992018012301004+42350-071050FM-13+000099999V0209999C000019999999N999999999+00371+99999102341ADDMD1710051+9999REMSYN042BHBM3 46/// ///// 10037 40234 57005 90100=
0068994971999992018012302004+42350-071050FM-13+000099999V0209999C000019999999N999999999+00371+99999102241ADDMD1810151+9999REMSYN042BHBM3 46/// ///// 10037 40224 58015 90200=
0068994971999992018012303004+42350-071050FM-13+000099999V0209999C000019999999N999999999+00391+99999102171ADDMD1810191+9999REMSYN042BHBM3 46/// ///// 10039 40217 58019 90300=
0068994971999992018012304004+42350-071050FM-13+000099999V0209999C000019999999N999999999+00391+99999102081ADDMD1610261+9999REMSYN042BHBM3 46/// ///// 10039 40208 56026 90400=
0068994971999992018012305004+42350-071050FM-13+000099999V0209999C000019999999N999999999+00391+99999101961ADDMD1810281+9999REMSYN042BHBM3 46/// ///// 10039 40196 58028 90500=
0068994971999992018012306004+42350-071050FM-13+000099999V0209999C000019999999N999999999+00431+99999101941ADDMD1610231+9999REMSYN042BHBM3 46/// ///// 10043 40194 56023 90600=
0068994971999992018012307004+42350-071050FM-13+000099999V0209999C000019999999N999999999+00411+99999101851ADDMD1610231+9999REMSYN042BHBM3 46/// ///// 10041 40185 56023 90700=
0068994971999992018012308004+42350-071050FM-13+000099999V0209999C000019999999N999999999+00241+99999101741ADDMD1810221+9999REMSYN042BHBM3 46/// ///// 10024 40174 58022 90800=
0068994971999992018012309004+42350-071050FM-13+000099999V0209999C000019999999N999999999+00131+99999101651ADDMD1710291+9999REMSYN042BHBM3 46/// ///// 10013 40165 57029 90900=
0068994971999992018012310004+42350-071050FM-13+000099999V0209999C000019999999N999999999+00071+99999101521ADDMD1810331+9999REMSYN042BHBM3 46/// ///// 10007 40152 58033 91000=
0068994971999992018012311004+42350-071050FM-13+000099999V0209999C000019999999N999999999+00061+99999101411ADDMD1810331+9999REMSYN042BHBM3 46/// ///// 10006 40141 58033 91100=
0068994971999992018012312004+42350-071050FM-13+000099999V0209999C000019999999N999999999+00061+99999101371ADDMD1610281+9999REMSYN042BHBM3 46/// ///// 10006 40137 56028 91200=
0068994971999992018012313004+42350-071050FM-13+000099999V0209999C000019999999N999999999+00071+99999101241ADDMD1810281+9999REMSYN042BHBM3 46/// ///// 10007 40124 58028 91300=
0068994971999992018012314004+42350-071050FM-13+000099999V0209999C000019999999N999999999+00061+99999101101ADDMD1810311+9999REMSYN042BHBM3 46/// ///// 10006 40110 58031 91400=
0068994971999992018012315004+42350-071050FM-13+000099999V0209999C000019999999N999999999+00101+99999100931ADDMD1810441+9999REMSYN042BHBM3 46/// ///// 10010 40093 58044 91500=
0068994971999992018012316004+42350-071050FM-13+000099999V0209999C000019999999N999999999+00151+99999100701ADDMD1810541+9999REMSYN042BHBM3 46/// ///// 10015 40070 58054 91600=
0068994971999992018012317004+42350-071050FM-13+000099999V0209999C000019999999N999999999+00251+99999100491ADDMD1810611+9999REMSYN042BHBM3 46/// ///// 10025 40049 58061 91700=
0068994971999992018012318004+42350-071050FM-13+000099999V0209999C000019999999N999999999+00241+99999100251ADDMD1810681+9999REMSYN042BHBM3 46/// ///// 10024 40025 58068 91800=
0068994971999992018012319004+42350-071050FM-13+000099999V0209999C000019999999N999999999+00621+99999100021ADDMD1810681+9999REMSYN042BHBM3 46/// ///// 10062 40002 58068 91900=
0068994971999992018012320004+42350-071050FM-13+000099999V0209999C000019999999N999999999+01311+99999099701ADDMD1810791+9999REMSYN042BHBM3 46/// ///// 10131 49970 58079 92000=
0068994971999992018012321004+42350-071050FM-13+000099999V0209999C000019999999N999999999+01372+99999099682ADDMD1610571+9999REMSYN042BHBM3 46/// ///// 10137 49968 56057 92100=
0068994971999992018012322004+42350-071050FM-13+000099999V0209999C000019999999N999999999+99999+99999099771ADDMD1510251+9999REMSYN042BHBM3 46/// ///// 1//// 49977 55025 92200=
0068994971999992018012323004+42350-071050FM-13+000099999V0209999C000019999999N999999999+99999+99999099811ADDMD1310111+9999REMSYN042BHBM3 46/// ///// 1//// 49981 53011 92300=
0068994971999992018012400004+42350-071050FM-13+000099999V0209999C000019999999N999999999+00511+99999099851ADDMD1110171+9999REMSYN042BHBM3 46/// ///// 10051 49985 51017 90000=
0068994971999992018012401004+42350-071050FM-13+000099999V0209999C000019999999N999999999+00391+99999099931ADDMD1310161+9999REMSYN042BHBM3 46/// ///// 10039 49993 53016 90100=
0068994971999992018012402004+42350-071050FM-13+000099999V0209999C000019999999N999999999+00611+99999099931ADDMD1110121+9999REMSYN042BHBM3 46/// ///// 10061 49993 51012 90200=
0068994971999992018012403004+42350-071050FM-13+000099999V0209999C000019999999N999999999+00631+99999100031ADDMD1310181+9999REMSYN042BHBM3 46/// ///// 10063 40003 53018 90300=
0068994971999992018012404004+42350-071050FM-13+000099999V0209999C000019999999N999999999+00631+99999100061ADDMD1310131+9999REMSYN042BHBM3 46/// ///// 10063 40006 53013 90400=
0068994971999992018012405004+42350-071050FM-13+000099999V0209999C000019999999N999999999+00581+99999100121ADDMD1110191+9999REMSYN042BHBM3 46/// ///// 10058 40012 51019 90500=
0068994971999992018012406004+42350-071050FM-13+000099999V0209999C000019999999N999999999+00521+99999100141ADDMD1110111+9999REMSYN042BHBM3 46/// ///// 10052 40014 51011 90600=
0068994971999992018012407004+42350-071050FM-13+000099999V0209999C000019999999N999999999+00421+99999100191ADDMD1110131+9999REMSYN042BHBM3 46/// ///// 10042 40019 51013 90700=
0068994971999992018012408004+42350-071050FM-13+000099999V0209999C000019999999N999999999+00431+99999100191ADDMD1210071+9999REMSYN042BHBM3 46/// ///// 10043 40019 52007 90800=
0068994971999992018012409004+42350-071050FM-13+000099999V0209999C000019999999N999999999+00391+99999100211ADDMD1110071+9999REMSYN042BHBM3 46/// ///// 10039 40021 51007 90900=
0068994971999992018012410004+42350-071050FM-13+000099999V0209999C000019999999N999999999+00411+99999100281ADDMD1310091+9999REMSYN042BHBM3 46/// ///// 10041 40028 53009 91000=
0068994971999992018012411004+42350-071050FM-13+000099999V0209999C000019999999N999999999+00461+99999100361ADDMD1310171+9999REMSYN042BHBM3 46/// ///// 10046 40036 53017 91100=
0068994971999992018012412004+42350-071050FM-13+000099999V0209999C000019999999N999999999+00401+99999100461ADDMD1310251+9999REMSYN042BHBM3 46/// ///// 10040 40046 53025 91200=
0068994971999992018012413004+42350-071050FM-13+000099999V0209999C000019999999N999999999+00481+99999100571ADDMD1310291+9999REMSYN042BHBM3 46/// ///// 10048 40057 53029 91300=
0068994971999992018012414004+42350-071050FM-13+000099999V0209999C000019999999N999999999+00391+99999100721ADDMD1310361+9999REMSYN042BHBM3 46/// ///// 10039 40072 53036 91400=
0068994971999992018012415004+42350-071050FM-13+000099999V0209999C000019999999N999999999+00321+99999100851ADDMD1310391+9999REMSYN042BHBM3 46/// ///// 10032 40085 53039 91500=
0068994971999992018012416004+42350-071050FM-13+000099999V0209999C000019999999N999999999+00271+99999100881ADDMD1110311+9999REMSYN042BHBM3 46/// ///// 10027 40088 51031 91600=
0068994971999992018012417004+42350-071050FM-13+000099999V0209999C000019999999N999999999+00361+99999100851ADDMD1990131+9999REMSYN042BHBM3 46/// ///// 10036 40085 50013 91700=
0068994971999992018012418004+42350-071050FM-13+000099999V0209999C000019999999N999999999+00331+99999100841ADDMD1990001+9999REMSYN042BHBM3 46/// ///// 10033 40084 50000 91800=
0068994971999992018012419004+42350-071050FM-13+000099999V0209999C000019999999N999999999+00421+99999100891ADDMD1510001+9999REMSYN042BHBM3 46/// ///// 10042 40089 55000 91900=
0068994971999992018012420004+42350-071050FM-13+000099999V0209999C000019999999N999999999+00431+99999100941ADDMD1310091+9999REMSYN042BHBM3 46/// ///// 10043 40094 53009 92000=
0068994971999992018012421004+42350-071050FM-13+000099999V0209999C000019999999N999999999+00351+99999101101ADDMD1310261+9999REMSYN042BHBM3 46/// ///// 10035 40110 53026 92100=
0068994971999992018012422004+42350-071050FM-13+000099999V0209999C000019999999N999999999+00261+99999101241ADDMD1310351+9999REMSYN042BHBM3 46/// ///// 10026 40124 53035 92200=
0068994971999992018012423004+42350-071050FM-13+000099999V0209999C000019999999N999999999+00151+99999101391ADDMD1110451+9999REMSYN042BHBM3 46/// ///// 10015 40139 51045 92300=
0068994971999992018012500004+42350-071050FM-13+000099999V0209999C000019999999N999999999+00081+99999101481ADDMD1110381+9999REMSYN042BHBM3 46/// ///// 10008 40148 51038 90000=
0068994971999992018012501004+42350-071050FM-13+000099999V0209999C000019999999N999999999-00021+99999101491ADDMD1110251+9999REMSYN042BHBM3 46/// ///// 11002 40149 51025 90100=
0068994971999992018012502004+42350-071050FM-13+000099999V0209999C000019999999N999999999-00111+99999101571ADDMD1110181+9999REMSYN042BHBM3 46/// ///// 11011 40157 51018 90200=
0068994971999992018012503004+42350-071050FM-13+000099999V0209999C000019999999N999999999-00181+99999101621ADDMD1310141+9999REMSYN042BHBM3 46/// ///// 11018 40162 53014 90300=
0068994971999992018012504004+42350-071050FM-13+000099999V0209999C000019999999N999999999-00251+99999101691ADDMD1110201+9999REMSYN042BHBM3 46/// ///// 11025 40169 51020 90400=
0068994971999992018012505004+42350-071050FM-13+000099999V0209999C000019999999N999999999-00411+99999101761ADDMD1310191+9999REMSYN042BHBM3 46/// ///// 11041 40176 53019 90500=
0068994971999992018012506004+42350-071050FM-13+000099999V0209999C000019999999N999999999-00501+99999101811ADDMD1110191+9999REMSYN042BHBM3 46/// ///// 11050 40181 51019 90600=
0068994971999992018012507004+42350-071050FM-13+000099999V0209999C000019999999N999999999-00551+99999101831ADDMD1110141+9999REMSYN042BHBM3 46/// ///// 11055 40183 51014 90700=
