0088994971999992020010100004+42350-071050FM-13+000099999V0209999C000019999999N999999999+00331+99999099991ADDMD1110031+9999SA1+0411REMSYN054BHBM3 46/// ///// 10033 49999 51003 90000 222// 00041=
0088994971999992020010101004+42350-071050FM-13+000099999V0209999C000019999999N999999999+00351+99999100001ADDMD1410001+9999SA1+0411REMSYN054BHBM3 46/// ///// 10035 40000 54000 90100 222// 00041=
0088994971999992020010102004+42350-071050FM-13+000099999V0209999C000019999999N999999999+00371+99999099981ADDMD1710031+9999SA1+0411REMSYN054BHBM3 46/// ///// 10037 49998 57003 90200 222// 00041=
0088994971999992020010103004+42350-071050FM-13+000099999V0209999C000019999999N999999999+00401+99999099941ADDMD1810051+9999SA1+0411REMSYN054BHBM3 46/// ///// 10040 49994 58005 90300 222// 00041=
0088994971999992020010104004+42350-071050FM-13+000099999V0209999C000019999999N999999999+00361+99999099921ADDMD1710081+9999SA1+0401REMSYN054BHBM3 46/// ///// 10036 49992 57008 90400 222// 00040=
0088994971999992020010105004+42350-071050FM-13+000099999V0209999C000019999999N999999999+00431+99999099851ADDMD1810131+9999SA1+0401REMSYN054BHBM3 46/// ///// 10043 49985 58013 90500 222// 00040=
0088994971999992020010106004+42350-071050FM-13+000099999V0209999C000019999999N999999999+00411+99999099871ADDMD1710071+9999SA1+0411REMSYN054BHBM3 46/// ///// 10041 49987 57007 90600 222// 00041=
0088994971999992020010107004+42350-071050FM-13+000099999V0209999C000019999999N999999999+00391+99999099931ADDMD1510001+9999SA1+0411REMSYN054BHBM3 46/// ///// 10039 49993 55000 90700 222// 00041=
0088994971999992020010108004+42350-071050FM-13+000099999V0209999C000019999999N999999999+00351+99999099971ADDMD1310121+9999SA1+0411REMSYN054BHBM3 46/// ///// 10035 49997 53012 90800 222// 00041=
0088994971999992020010109004+42350-071050FM-13+000099999V0209999C000019999999N999999999+00291+99999100011ADDMD1110141+9999SA1+0411REMSYN054BHBM3 46/// ///// 10029 40001 51014 90900 222// 00041=
0088994971999992020010110004+42350-071050FM-13+000099999V0209999C000019999999N999999999+00231+99999099981ADDMD1990051+9999SA1+0411REMSYN054BHBM3 46/// ///// 10023 49998 50005 91000 222// 00041=
0088994971999992020010111004+42350-071050FM-13+000099999V0209999C000019999999N999999999+00241+99999099991ADDMD1990001+9999SA1+0411REMSYN054BHBM3 46/// ///// 10024 49999 50000 91100 222// 00041=
0088994971999992020010112004+42350-071050FM-13+000099999V0209999C000019999999N999999999+00221+99999100021ADDMD1510001+9999SA1+0411REMSYN054BHBM3 46/// ///// 10022 40002 55000 91200 222// 00041=
0088994971999992020010113004+42350-071050FM-13+000099999V0209999C000019999999N999999999+00231+99999100061ADDMD1310081+9999SA1+0411REMSYN054BHBM3 46/// ///// 10023 40006 53008 91300 222// 00041=
0088994971999992020010114004+42350-071050FM-13+000099999V0209999C000019999999N999999999+00311+99999100111ADDMD1310121+9999SA1+0421REMSYN054BHBM3 46/// ///// 10031 40011 53012 91400 222// 00042=
0088994971999992020010115004+42350-071050FM-13+000099999V0209999C000019999999N999999999+00441+99999100161ADDMD1310141+9999SA1+0411REMSYN054BHBM3 46/// ///// 10044 40016 53014 91500 222// 00041=
0088994971999992020010116004+42350-071050FM-13+000099999V0209999C000019999999N999999999+00491+99999100151ADDMD1110091+9999SA1+0421REMSYN054BHBM3 46/// ///// 10049 40015 51009 91600 222// 00042=
0088994971999992020010117004+42350-071050FM-13+000099999V0209999C000019999999N999999999+00501+99999100121ADDMD1990001+9999SA1+0411REMSYN054BHBM3 46/// ///// 10050 40012 50000 91700 222// 00041=
0088994971999992020010118004+42350-071050FM-13+000099999V0209999C000019999999N999999999+00461+99999100091ADDMD1810071+9999SA1+0411REMSYN054BHBM3 46/// ///// 10046 40009 58007 91800 222// 00041=
0088994971999992020010119004+42350-071050FM-13+000099999V0209999C000019999999N999999999+00431+99999100111ADDMD1610041+9999SA1+0411REMSYN054BHBM3 46/// ///// 10043 40011 56004 91900 222// 00041=
0088994971999992020010120004+42350-071050FM-13+000099999V0209999C000019999999N999999999+00431+99999100191ADDMD1310071+9999SA1+0411REMSYN054BHBM3 46/// ///// 10043 40019 53007 92000 222// 00041=
0088994971999992020010121004+42350-071050FM-13+000099999V0209999C000019999999N999999999+00401+99999100271ADDMD1310181+9999SA1+0411REMSYN054BHBM3 46/// ///// 10040 40027 53018 92100 222// 00041=
0088994971999992020010122004+42350-071050FM-13+000099999V0209999C000019999999N999999999+00371+99999100371ADDMD1310261+9999SA1+0411REMSYN054BHBM3 46/// ///// 10037 40037 53026 92200 222// 00041=
0088994971999992020010123004+42350-071050FM-13+000099999V0209999C000019999999N999999999+00331+99999100441ADDMD1110251+9999SA1+0421REMSYN054BHBM3 46/// ///// 10033 40044 51025 92300 222// 00042=
0088994971999992020010200004+42350-071050FM-13+000099999V0209999C000019999999N999999999+00281+99999100501ADDMD1110231+9999SA1+0421REMSYN054BHBM3 46/// ///// 10028 40050 51023 90000 222// 00042=
0088994971999992020010201004+42350-071050FM-13+000099999V0209999C000019999999N999999999+00261+99999100571ADDMD1210201+9999SA1+0431REMSYN054BHBM3 46/// ///// 10026 40057 52020 90100 222// 00043=
0088994971999992020010202004+42350-071050FM-13+000099999V0209999C000019999999N999999999+00261+99999100621ADDMD1110181+9999SA1+0431REMSYN054BHBM3 46/// ///// 10026 40062 51018 90200 222// 00043=
0088994971999992020010203004+42350-071050FM-13+000099999V0209999C000019999999N999999999+00221+99999100681ADDMD1110181+9999SA1+0441REMSYN054BHBM3 46/// ///// 10022 40068 51018 90300 222// 00044=
0088994971999992020010204004+42350-071050FM-13+000099999V0209999C000019999999N999999999+00191+99999100711ADDMD1110141+9999SA1+0391REMSYN054BHBM3 46/// ///// 10019 40071 51014 90400 222// 00039=
0088994971999992020010205004+42350-071050FM-13+000099999V0209999C000019999999N999999999+00191+99999100771ADDMD1210151+9999SA1+0411REMSYN054BHBM3 46/// ///// 10019 40077 52015 90500 222// 00041=
0088994971999992020010206004+42350-071050FM-13+000099999V0209999C000019999999N999999999+00191+99999100841ADDMD1310161+9999SA1+0421REMSYN054BHBM3 46/// ///// 10019 40084 53016 90600 222// 00042=
0088994971999992020010207004+42350-071050FM-13+000099999V0209999C000019999999N999999999+00221+99999100951ADDMD1310241+9999SA1+0421REMSYN054BHBM3 46/// ///// 10022 40095 53024 90700 222// 00042=
0088994971999992020010208004+42350-071050FM-13+000099999V0209999C000019999999N999999999+00191+99999100951ADDMD1110181+9999SA1+0411REMSYN054BHBM3 46/// ///// 10019 40095 51018 90800 222// 00041=
0088994971999992020010209004+42350-071050FM-13+000099999V0209999C000019999999N999999999+00131+99999100971ADDMD1110131+9999SA1+0421REMSYN054BHBM3 46/// ///// 10013 40097 51013 90900 222// 00042=
0088994971999992020010210004+42350-071050FM-13+000099999V0209999C000019999999N999999999+00151+99999100971ADDMD1410001+9999SA1+0411REMSYN054BHBM3 46/// ///// 10015 40097 54000 91000 222// 00041=
0088994971999992020010211004+42350-071050FM-13+000099999V0209999C000019999999N999999999+00131+99999101031ADDMD1310081+9999SA1+0421REMSYN054BHBM3 46/// ///// 10013 40103 53008 91100 222// 00042=
0088994971999992020010212004+42350-071050FM-13+000099999V0209999C000019999999N999999999+00151+99999101091ADDMD1310121+9999SA1+0441REMSYN054BHBM3 46/// ///// 10015 40109 53012 91200 222// 00044=
0088994971999992020010213004+42350-071050FM-13+000099999V0209999C000019999999N999999999+00171+99999101151ADDMD1210181+9999SA1+0431REMSYN054BHBM3 46/// ///// 10017 40115 52018 91300 222// 00043=
0088994971999992020010214004+42350-071050FM-13+000099999V0209999C000019999999N999999999+00231+99999101151ADDMD1110121+9999SA1+0421REMSYN054BHBM3 46/// ///// 10023 40115 51012 91400 222// 00042=
0088994971999992020010215004+42350-071050FM-13+000099999V0209999C000019999999N999999999+00291+99999101151ADDMD1110061+9999SA1+0411REMSYN054BHBM3 46/// ///// 10029 40115 51006 91500 222// 00041=
0088994971999992020010216004+42350-071050FM-13+000099999V0209999C000019999999N999999999+00431+99999101141ADDMD1410001+9999SA1+0411REMSYN054BHBM3 46/// ///// 10043 40114 54000 91600 222// 00041=
0088994971999992020010217004+42350-071050FM-13+000099999V0209999C000019999999N999999999+00571+99999101001ADDMD1810151+9999SA1+0381REMSYN054BHBM3 46/// ///// 10057 40100 58015 91700 222// 00038=
0088994971999992020010218004+42350-071050FM-13+000099999V0209999C000019999999N999999999+00761+99999100951ADDMD1810201+9999SA1+0401REMSYN054BHBM3 46/// ///// 10076 40095 58020 91800 222// 00040=
0088994971999992020010219004+42350-071050FM-13+000099999V0209999C000019999999N999999999+00761+99999100931ADDMD1610211+9999SA1+0421REMSYN054BHBM3 46/// ///// 10076 40093 56021 91900 222// 00042=
0088994971999992020010220004+42350-071050FM-13+000099999V0209999C000019999999N999999999+00781+99999100961ADDMD1510041+9999SA1+0411REMSYN054BHBM3 46/// ///// 10078 40096 55004 92000 222// 00041=
0088994971999992020010221004+42350-071050FM-13+000099999V0209999C000019999999N999999999+00801+99999100991ADDMD1310041+9999SA1+0421REMSYN054BHBM3 46/// ///// 10080 40099 53004 92100 222// 00042=
0088994971999992020010222004+42350-071050FM-13+000099999V0209999C000019999999N999999999+00731+99999100971ADDMD1110041+9999SA1+0411REMSYN054BHBM3 46/// ///// 10073 40097 51004 92200 222// 00041=
0088994971999992020010223004+42350-071050FM-13+000099999V0209999C000019999999N999999999+00701+99999100921ADDMD1810041+9999SA1+0411REMSYN054BHBM3 46/// ///// 10070 40092 58004 92300 222// 00041=
0088994971999992020010300004+42350-071050FM-13+000099999V0209999C000019999999N999999999+00691+99999100911ADDMD1710081+9999SA1+0411REMSYN054BHBM3 46/// ///// 10069 40091 57008 90000 222// 00041=
0088994971999992020010301004+42350-071050FM-13+000099999V0209999C000019999999N999999999+00701+99999100891ADDMD1610081+9999SA1+0411REMSYN054BHBM3 46/// ///// 10070 40089 56008 90100 222// 00041=
0088994971999992020010302004+42350-071050FM-13+000099999V0209999C000019999999N999999999+00681+99999100841ADDMD1810081+9999SA1+0421REMSYN054BHBM3 46/// ///// 10068 40084 58008 90200 222// 00042=
0088994971999992020010303004+42350-071050FM-13+000099999V0209999C000019999999N999999999+00661+99999100821ADDMD1710091+9999SA1+0421REMSYN054BHBM3 46/// ///// 10066 40082 57009 90300 222// 00042=
0088994971999992020010304004+42350-071050FM-13+000099999V0209999C000019999999N999999999+00701+99999100801ADDMD1610091+9999SA1+0421REMSYN054BHBM3 46/// ///// 10070 40080 56009 90400 222// 00042=
0088994971999992020010305004+42350-071050FM-13+000099999V0209999C000019999999N999999999+00721+99999100731ADDMD1810111+9999SA1+0411REMSYN054BHBM3 46/// ///// 10072 40073 58011 90500 222// 00041=
0088994971999992020010306004+42350-071050FM-13+000099999V0209999C000019999999N999999999+00701+99999100671ADDMD1810151+9999SA1+0401REMSYN054BHBM3 46/// ///// 10070 40067 58015 90600 222// 00040=
0088994971999992020010307004+42350-071050FM-13+000099999V0209999C000019999999N999999999+00721+99999100731ADDMD1510071+9999SA1+0411REMSYN054BHBM3 46/// ///// 10072 40073 55007 90700 222// 00041=
0088994971999992020010308004+42350-071050FM-13+000099999V0209999C000019999999N999999999+00701+99999100691ADDMD1610041+9999SA1+0421REMSYN054BHBM3 46/// ///// 10070 40069 56004 90800 222// 00042=
0088994971999992020010309004+42350-071050FM-13+000099999V0209999C000019999999N999999999+00711+99999100711ADDMD1110041+9999SA1+0421REMSYN054BHBM3 46/// ///// 10071 40071 51004 90900 222// 00042=
0088994971999992020010310004+42350-071050FM-13+000099999V0209999C000019999999N999999999+00691+99999100721ADDMD1510001+9999SA1+0421REMSYN054BHBM3 46/// ///// 10069 40072 55000 91000 222// 00042=
0088994971999992020010311004+42350-071050FM-13+000099999V0209999C000019999999N999999999+00701+99999100761ADDMD1310071+9999SA1+0421REMSYN054BHBM3 46/// ///// 10070 40076 53007 91100 222// 00042=
0088994971999992020010312004+42350-071050FM-13+000099999V0209999C000019999999N999999999+00701+99999100731ADDMD1990001+9999SA1+0421REMSYN054BHBM3 46/// ///// 10070 40073 50000 91200 222// 00042=
0088994971999992020010313004+42350-071050FM-13+000099999V0209999C000019999999N999999999+00741+99999100811ADDMD1310091+9999SA1+0421REMSYN054BHBM3 46/// ///// 10074 40081 53009 91300 222// 00042=
0088994971999992020010314004+42350-071050FM-13+000099999V0209999C000019999999N999999999+00761+99999100811ADDMD1310051+9999SA1+0431REMSYN054BHBM3 46/// ///// 10076 40081 53005 91400 222// 00043=
0088994971999992020010315004+42350-071050FM-13+000099999V0209999C000019999999N999999999+00801+99999100851ADDMD1110121+9999SA1+0431REMSYN054BHBM3 46/// ///// 10080 40085 51012 91500 222// 00043=
0088994971999992020010316004+42350-071050FM-13+000099999V0209999C000019999999N999999999+00851+99999100751ADDMD1810061+9999SA1+0431REMSYN054BHBM3 46/// ///// 10085 40075 58006 91600 222// 00043=
0088994971999992020010317004+42350-071050FM-13+000099999V0209999C000019999999N999999999+00891+99999100651ADDMD1810161+9999SA1+0431REMSYN054BHBM3 46/// ///// 10089 40065 58016 91700 222// 00043=
0088994971999992020010318004+42350-071050FM-13+000099999V0209999C000019999999N999999999+00921+99999100591ADDMD1610261+9999SA1+0421REMSYN054BHBM3 46/// ///// 10092 40059 56026 91800 222// 00042=
0088994971999992020010319004+42350-071050FM-13+000099999V0209999C000019999999N999999999+00961+99999100511ADDMD1610241+9999SA1+0431REMSYN054BHBM3 46/// ///// 10096 40051 56024 91900 222// 00043=
0088994971999992020010320004+42350-071050FM-13+000099999V0209999C000019999999N999999999+00981+99999100591ADDMD1510061+9999SA1+0431REMSYN054BHBM3 46/// ///// 10098 40059 55006 92000 222// 00043=
0088994971999992020010321004+42350-071050FM-13+000099999V0209999C000019999999N999999999+00931+99999100651ADDMD1310061+9999SA1+0421REMSYN054BHBM3 46/// ///// 10093 40065 53006 92100 222// 00042=
0088994971999992020010322004+42350-071050FM-13+000099999V0209999C000019999999N999999999+00941+99999100681ADDMD1110171+9999SA1+0421REMSYN054BHBM3 46/// ///// 10094 40068 51017 92200 222// 00042=
0088994971999992020010323004+42350-071050FM-13+000099999V0209999C000019999999N999999999+00931+99999100721ADDMD1110131+9999SA1+0421REMSYN054BHBM3 46/// ///// 10093 40072 51013 92300 222// 00042=
0088994971999992020010400004+42350-071050FM-13+000099999V0209999C000019999999N999999999+00931+99999100651ADDMD1990001+9999SA1+0421REMSYN054BHBM3 46/// ///// 10093 40065 50000 90000 222// 00042=
0088994971999992020010401004+42350-071050FM-13+000099999V0209999C000019999999N999999999+00931+99999100701ADDMD1510001+9999SA1+0431REMSYN054BHBM3 46/// ///// 10093 40070 55000 90100 222// 00043=
0088994971999992020010402004+42350-071050FM-13+000099999V0209999C000019999999N999999999+00911+99999100791ADDMD1310071+9999SA1+0441REMSYN054BHBM3 46/// ///// 10091 40079 53007 90200 222// 00044=
0088994971999992020010403004+42350-071050FM-13+000099999V0209999C000019999999N999999999+00891+99999100781ADDMD1110131+9999SA1+0441REMSYN054BHBM3 46/// ///// 10089 40078 51013 90300 222// 00044=
0088994971999992020010404004+42350-071050FM-13+000099999V0209999C000019999999N999999999+00891+99999100821ADDMD1110121+9999SA1+0451REMSYN054BHBM3 46/// ///// 10089 40082 51012 90400 222// 00045=
0088994971999992020010405004+42350-071050FM-13+000099999V0209999C000019999999N999999999+00881+99999100751ADDMD1810041+9999SA1+0451REMSYN054BHBM3 46/// ///// 10088 40075 58004 90500 222// 00045=
0088994971999992020010406004+42350-071050FM-13+000099999V0209999C000019999999N999999999+00861+99999100701ADDMD1810081+9999SA1+0431REMSYN054BHBM3 46/// ///// 10086 40070 58008 90600 222// 00043=
0088994971999992020010407004+42350-071050FM-13+000099999V0209999C000019999999N999999999+00861+99999100711ADDMD1610111+9999SA1+0471REMSYN054BHBM3 46/// ///// 10086 40071 56011 90700 222// 00047=
0088994971999992020010408004+42350-071050FM-13+000099999V0209999C000019999999N999999999+00821+99999100691ADDMD1610061+9999SA1+0431REMSYN054BHBM3 46/// ///// 10082 40069 56006 90800 222// 00043=
0088994971999992020010409004+42350-071050FM-13+000099999V0209999C000019999999N999999999+00821+99999100741ADDMD1310041+9999SA1+0421REMSYN054BHBM3 46/// ///// 10082 40074 53004 90900 222// 00042=
0088994971999992020010410004+42350-071050FM-13+000099999V0209999C000019999999N999999999+00751+99999100631ADDMD1810081+9999SA1+0421REMSYN054BHBM3 46/// ///// 10075 40063 58008 91000 222// 00042=
0088994971999992020010411004+42350-071050FM-13+000099999V0209999C000019999999N999999999+00801+99999100671ADDMD1990001+9999SA1+0431REMSYN054BHBM3 46/// ///// 10080 40067 50000 91100 222// 00043=
0088994971999992020010412004+42350-071050FM-13+000099999V0209999C000019999999N999999999+00751+99999100601ADDMD1610141+9999SA1+0431REMSYN054BHBM3 46/// ///// 10075 40060 56014 91200 222// 00043=
0088994971999992020010413004+42350-071050FM-13+000099999V0209999C000019999999N999999999+00671+99999100621ADDMD1990001+9999SA1+0431REMSYN054BHBM3 46/// ///// 10067 40062 50000 91300 222// 00043=
0088994971999992020010414004+42350-071050FM-13+000099999V0209999C000019999999N999999999+00651+99999100581ADDMD1610091+9999SA1+0431REMSYN054BHBM3 46/// ///// 10065 40058 56009 91400 222// 00043=
0088994971999992020010415004+42350-071050FM-13+000099999V0209999C000019999999N999999999+00661+99999100561ADDMD1710041+9999SA1+0441REMSYN054BHBM3 46/// ///// 10066 40056 57004 91500 222// 00044=
0088994971999992020010416004+42350-071050FM-13+000099999V0209999C000019999999N999999999+00651+99999100481ADDMD1810141+9999SA1+0471REMSYN054BHBM3 46/// ///// 10065 40048 58014 91600 222// 00047=
0088994971999992020010417004+42350-071050FM-13+000099999V0209999C000019999999N999999999+00541+99999100331ADDMD1810251+9999SA1+0461REMSYN054BHBM3 46/// ///// 10054 40033 58025 91700 222// 00046=
0088994971999992020010418004+42350-071050FM-13+000099999V0209999C000019999999N999999999+00531+99999100181ADDMD1810381+9999SA1+0481REMSYN054BHBM3 46/// ///// 10053 40018 58038 91800 222// 00048=
0088994971999992020010419004+42350-071050FM-13+000099999V0209999C000019999999N999999999+00551+99999100041ADDMD1610441+9999SA1+0471REMSYN054BHBM3 46/// ///// 10055 40004 56044 91900 222// 00047=
0088994971999992020010420004+42350-071050FM-13+000099999V0209999C000019999999N999999999+00571+99999100001ADDMD1610331+9999SA1+0451REMSYN054BHBM3 46/// ///// 10057 40000 56033 92000 222// 00045=
0088994971999992020010421004+42350-071050FM-13+000099999V0209999C000019999999N999999999+00591+99999099931ADDMD1610251+9999SA1+0441REMSYN054BHBM3 46/// ///// 10059 49993 56025 92100 222// 00044=
0088994971999992020010422004+42350-071050FM-13+000099999V0209999C000019999999N999999999+00631+99999099921ADDMD1610121+9999SA1+0421REMSYN054BHBM3 46/// ///// 10063 49992 56012 92200 222// 00042=
0088994971999992020010423004+42350-071050FM-13+000099999V0209999C000019999999N999999999+00621+99999099921ADDMD1610081+9999SA1+0421REMSYN054BHBM3 46/// ///// 10062 49992 56008 92300 222// 00042=
0088994971999992020010500004+42350-071050FM-13+000099999V0209999C000019999999N999999999+00621+99999099851ADDMD1810081+9999SA1+0421REMSYN054BHBM3 46/// ///// 10062 49985 58008 90000 222// 00042=
0088994971999992020010501004+42350-071050FM-13+000099999V0209999C000019999999N999999999+00571+99999099851ADDMD1710071+9999SA1+0421REMSYN054BHBM3 46/// ///// 10057 49985 57007 90100 222// 00042=
0088994971999992020010502004+42350-071050FM-13+000099999V0209999C000019999999N999999999+00481+99999099831ADDMD1610091+9999SA1+0461REMSYN054BHBM3 46/// ///// 10048 49983 56009 90200 222// 00046=
0088994971999992020010503004+42350-071050FM-13+000099999V0209999C000019999999N999999999+00431+99999099771ADDMD1810081+9999SA1+0481REMSYN054BHBM3 46/// ///// 10043 49977 58008 90300 222// 00048=
0088994971999992020010504004+42350-071050FM-13+000099999V0209999C000019999999N999999999+00381+99999099711ADDMD1810141+9999SA1+0471REMSYN054BHBM3 46/// ///// 10038 49971 58014 90400 222// 00047=
0088994971999992020010505004+42350-071050FM-13+000099999V0209999C000019999999N999999999+00341+99999099641ADDMD1810191+9999SA1+0471REMSYN054BHBM3 46/// ///// 10034 49964 58019 90500 222// 00047=
0088994971999992020010506004+42350-071050FM-13+000099999V0209999C000019999999N999999999+00291+99999099581ADDMD1710191+9999SA1+0471REMSYN054BHBM3 46/// ///// 10029 49958 57019 90600 222// 00047=
0088994971999992020010507004+42350-071050FM-13+000099999V0209999C000019999999N999999999+00241+99999099611ADDMD1510101+9999SA1+0451REMSYN054BHBM3 46/// ///// 10024 49961 55010 90700 222// 00045=
0088994971999992020010508004+42350-071050FM-13+000099999V0209999C000019999999N999999999+00211+99999099691ADDMD1310051+9999SA1+0431REMSYN054BHBM3 46/// ///// 10021 49969 53005 90800 222// 00043=
0088994971999992020010509004+42350-071050FM-13+000099999V0209999C000019999999N999999999+00211+99999099721ADDMD1210141+9999SA1+0431REMSYN054BHBM3 46/// ///// 10021 49972 52014 90900 222// 00043=
0088994971999992020010510004+42350-071050FM-13+000099999V0209999C000019999999N999999999+00221+99999099771ADDMD1110161+9999SA1+0421REMSYN054BHBM3 46/// ///// 10022 49977 51016 91000 222// 00042=
0088994971999992020010511004+42350-071050FM-13+000099999V0209999C000019999999N999999999+00211+99999099881ADDMD1310191+9999SA1+0421REMSYN054BHBM3 46/// ///// 10021 49988 53019 91100 222// 00042=
0088994971999992020010512004+42350-071050FM-13+000099999V0209999C000019999999N999999999+00231+99999099981ADDMD1310261+9999SA1+0421REMSYN054BHBM3 46/// ///// 10023 49998 53026 91200 222// 00042=
0088994971999992020010513004+42350-071050FM-13+000099999V0209999C000019999999N999999999+00211+99999100071ADDMD1110301+9999SA1+0431REMSYN054BHBM3 46/// ///// 10021 40007 51030 91300 222// 00043=
0088994971999992020010514004+42350-071050FM-13+000099999V0209999C000019999999N999999999+00261+99999100171ADDMD1210291+9999SA1+0431REMSYN054BHBM3 46/// ///// 10026 40017 52029 91400 222// 00043=
0088994971999992020010515004+42350-071050FM-13+000099999V0209999C000019999999N999999999+00321+99999100251ADDMD1110271+9999SA1+0441REMSYN054BHBM3 46/// ///// 10032 40025 51027 91500 222// 00044=
0088994971999992020010516004+42350-071050FM-13+000099999V0209999C000019999999N999999999+00301+99999100281ADDMD1110211+9999SA1+0451REMSYN054BHBM3 46/// ///// 10030 40028 51021 91600 222// 00045=
0088994971999992020010517004+42350-071050FM-13+000099999V0209999C000019999999N999999999+00291+99999100291ADDMD1110121+9999SA1+0461REMSYN054BHBM3 46/// ///// 10029 40029 51012 91700 222// 00046=
0088994971999992020010518004+42350-071050FM-13+000099999V0209999C000019999999N999999999+00301+99999100351ADDMD1310101+9999SA1+0441REMSYN054BHBM3 46/// ///// 10030 40035 53010 91800 222// 00044=
0088994971999992020010519004+42350-071050FM-13+000099999V0209999C000019999999N999999999+00271+99999100411ADDMD1310131+9999SA1+0441REMSYN054BHBM3 46/// ///// 10027 40041 53013 91900 222// 00044=
0088994971999992020010520004+42350-071050FM-13+000099999V0209999C000019999999N999999999+00251+99999100531ADDMD1310241+9999SA1+0431REMSYN054BHBM3 46/// ///// 10025 40053 53024 92000 222// 00043=
0088994971999992020010521004+42350-071050FM-13+000099999V0209999C000019999999N999999999+00231+99999100631ADDMD1310281+9999SA1+0431REMSYN054BHBM3 46/// ///// 10023 40063 53028 92100 222// 00043=
0088994971999992020010522004+42350-071050FM-13+000099999V0209999C000019999999N999999999+00181+99999100741ADDMD1110331+9999SA1+0421REMSYN054BHBM3 46/// ///// 10018 40074 51033 92200 222// 00042=
0088994971999992020010523004+42350-071050FM-13+000099999V0209999C000019999999N999999999+00161+99999100841ADDMD1210311+9999SA1+0421REMSYN054BHBM3 46/// ///// 10016 40084 52031 92300 222// 00042=
0088994971999992020010600004+42350-071050FM-13+000099999V0209999C000019999999N999999999+00111+99999100871ADDMD1110241+9999SA1+0421REMSYN054BHBM3 46/// ///// 10011 40087 51024 90000 222// 00042=
0088994971999992020010601004+42350-071050FM-13+000099999V0209999C000019999999N999999999+00091+99999100961ADDMD1110221+9999SA1+0421REMSYN054BHBM3 46/// ///// 10009 40096 51022 90100 222// 00042=
0088994971999992020010602004+42350-071050FM-13+000099999V0209999C000019999999N999999999+00081+99999101021ADDMD1310181+9999SA1+0421REMSYN054BHBM3 46/// ///// 10008 40102 53018 90200 222// 00042=
0088994971999992020010603004+42350-071050FM-13+000099999V0209999C000019999999N999999999+00041+99999101051ADDMD1110181+9999SA1+0431REMSYN054BHBM3 46/// ///// 10004 40105 51018 90300 222// 00043=
0088994971999992020010604004+42350-071050FM-13+000099999V0209999C000019999999N999999999+00001+99999101091ADDMD1110131+9999SA1+0441REMSYN054BHBM3 46/// ///// 10000 40109 51013 90400 222// 00044=
0088994971999992020010605004+42350-071050FM-13+000099999V0209999C000019999999N999999999-00041+99999101111ADDMD1110091+9999SA1+0431REMSYN054BHBM3 46/// ///// 11004 40111 51009 90500 222// 00043=
0088994971999992020010606004+42350-071050FM-13+000099999V0209999C000019999999N999999999-00101+99999101111ADDMD1110061+9999SA1+0431REMSYN054BHBM3 46/// ///// 11010 40111 51006 90600 222// 00043=
0088994971999992020010607004+42350-071050FM-13+000099999V0209999C000019999999N999999999-00131+99999101201ADDMD1310111+9999SA1+0441REMSYN054BHBM3 46/// ///// 11013 40120 53011 90700 222// 00044=
0088994971999992020010608004+42350-071050FM-13+000099999V0209999C000019999999N999999999-00171+99999101211ADDMD1210101+9999SA1+0421REMSYN054BHBM3 46/// ///// 11017 40121 52010 90800 222// 00042=
0088994971999992020010609004+42350-071050FM-13+000099999V0209999C000019999999N999999999-00181+99999101211ADDMD1110101+9999SA1+0421REMSYN054BHBM3 46/// ///// 11018 40121 51010 90900 222// 00042=
0088994971999992020010610004+42350-071050FM-13+000099999V0209999C000019999999N999999999-00201+99999101231ADDMD1210031+9999SA1+0431REMSYN054BHBM3 46/// ///// 11020 40123 52003 91000 222// 00043=
0088994971999992020010611004+42350-071050FM-13+000099999V0209999C000019999999N999999999-00211+99999101241ADDMD1210031+9999SA1+0431REMSYN054BHBM3 46/// ///// 11021 40124 52003 91100 222// 00043=
0088994971999992020010612004+42350-071050FM-13+000099999V0209999C000019999999N999999999-00201+99999101281ADDMD1310071+9999SA1+0421REMSYN054BHBM3 46/// ///// 11020 40128 53007 91200 222// 00042=
0088994971999992020010613004+42350-071050FM-13+000099999V0209999C000019999999N999999999-00121+99999101331ADDMD1310101+9999SA1+0431REMSYN054BHBM3 46/// ///// 11012 40133 53010 91300 222// 00043=
0088994971999992020010614004+42350-071050FM-13+000099999V0209999C000019999999N999999999-00081+99999101381ADDMD1310141+9999SA1+0431REMSYN054BHBM3 46/// ///// 11008 40138 53014 91400 222// 00043=
0088994971999992020010615004+42350-071050FM-13+000099999V0209999C000019999999N999999999-00021+99999101351ADDMD1990071+9999SA1+0431REMSYN054BHBM3 46/// ///// 11002 40135 50007 91500 222// 00043=
0088994971999992020010616004+42350-071050FM-13+000099999V0209999C000019999999N999999999+00061+99999101251ADDMD1810081+9999SA1+0441REMSYN054BHBM3 46/// ///// 10006 40125 58008 91600 222// 00044=
0088994971999992020010617004+42350-071050FM-13+000099999V0209999C000019999999N999999999+00071+99999101161ADDMD1810221+9999SA1+0441REMSYN054BHBM3 46/// ///// 10007 40116 58022 91700 222// 00044=
0088994971999992020010618004+42350-071050FM-13+000099999V0209999C000019999999N999999999+00091+99999101111ADDMD1610241+9999SA1+0441REMSYN054BHBM3 46/// ///// 10009 40111 56024 91800 222// 00044=
0088994971999992020010619004+42350-071050FM-13+000099999V0209999C000019999999N999999999+00121+99999101051ADDMD1610201+9999SA1+0441REMSYN054BHBM3 46/// ///// 10012 40105 56020 91900 222// 00044=
0088994971999992020010620004+42350-071050FM-13+000099999V0209999C000019999999N999999999+00231+99999101111ADDMD1510051+9999SA1+0441REMSYN054BHBM3 46/// ///// 10023 40111 55005 92000 222// 00044=
0088994971999992020010621004+42350-071050FM-13+000099999V0209999C000019999999N999999999+00241+99999101111ADDMD1510001+9999SA1+0431REMSYN054BHBM3 46/// ///// 10024 40111 55000 92100 222// 00043=
0088994971999992020010622004+42350-071050FM-13+000099999V0209999C000019999999N999999999+00221+99999101161ADDMD1110111+9999SA1+0431REMSYN054BHBM3 46/// ///// 10022 40116 51011 92200 222// 00043=
0088994971999992020010623004+42350-071050FM-13+000099999V0209999C000019999999N999999999+00221+99999101221ADDMD1310111+9999SA1+0431REMSYN054BHBM3 46/// ///// 10022 40122 53011 92300 222// 00043=
0088994971999992020010700004+42350-071050FM-13+000099999V0209999C000019999999N999999999+00201+99999101241ADDMD1110131+9999SA1+0431REMSYN054BHBM3 46/// ///// 10020 40124 51013 90000 222// 00043=
0088994971999992020010701004+42350-071050FM-13+000099999V0209999C000019999999N999999999+00271+99999101261ADDMD1110101+9999SA1+0431REMSYN054BHBM3 46/// ///// 10027 40126 51010 90100 222// 00043=
0088994971999992020010702004+42350-071050FM-13+000099999V0209999C000019999999N999999999+00281+99999101311ADDMD1310091+9999SA1+0431REMSYN054BHBM3 46/// ///// 10028 40131 53009 90200 222// 00043=
0088994971999992020010703004+42350-071050FM-13+000099999V0209999C000019999999N999999999+00331+99999101301ADDMD1210061+9999SA1+0431REMSYN054BHBM3 46/// ///// 10033 40130 52006 90300 222// 00043=
0088994971999992020010704004+42350-071050FM-13+000099999V0209999C000019999999N999999999+00231+99999101261ADDMD1990001+9999SA1+0441REMSYN054BHBM3 46/// ///// 10023 40126 50000 90400 222// 00044=
0088994971999992020010705004+42350-071050FM-13+000099999V0209999C000019999999N999999999+00261+99999101211ADDMD1810101+9999SA1+0431REMSYN054BHBM3 46/// ///// 10026 40121 58010 90500 222// 00043=
0088994971999992020010706004+42350-071050FM-13+000099999V0209999C000019999999N999999999+00251+99999101251ADDMD1510051+9999SA1+0441REMSYN054BHBM3 46/// ///// 10025 40125 55005 90600 222// 00044=
0088994971999992020010707004+42350-071050FM-13+000099999V0209999C000019999999N999999999+00211+99999101291ADDMD1310031+9999SA1+0441REMSYN054BHBM3 46/// ///// 10021 40129 53003 90700 222// 00044=
0088994971999992020010708004+42350-071050FM-13+000099999V0209999C000019999999N999999999+00221+99999101381ADDMD1310171+9999SA1+0441REMSYN054BHBM3 46/// ///// 10022 40138 53017 90800 222// 00044=
0088994971999992020010709004+42350-071050FM-13+000099999V0209999C000019999999N999999999+00251+99999101411ADDMD1110161+9999SA1+0431REMSYN054BHBM3 46/// ///// 10025 40141 51016 90900 222// 00043=
0088994971999992020010710004+42350-071050FM-13+000099999V0209999C000019999999N999999999+00231+99999101501ADDMD1210211+9999SA1+0431REMSYN054BHBM3 46/// ///// 10023 40150 52021 91000 222// 00043=
0088994971999992020010711004+42350-071050FM-13+000099999V0209999C000019999999N999999999+00231+99999101541ADDMD1310161+9999SA1+0431REMSYN054BHBM3 46/// ///// 10023 40154 53016 91100 222// 00043=
0088994971999992020010712004+42350-071050FM-13+000099999V0209999C000019999999N999999999+00151+99999101591ADDMD1110181+9999SA1+0431REMSYN054BHBM3 46/// ///// 10015 40159 51018 91200 222// 00043=
0088994971999992020010713004+42350-071050FM-13+000099999V0209999C000019999999N999999999+00121+99999101671ADDMD1310171+9999SA1+0431REMSYN054BHBM3 46/// ///// 10012 40167 53017 91300 222// 00043=
0088994971999992020010714004+42350-071050FM-13+000099999V0209999C000019999999N999999999+00161+99999101711ADDMD1110171+9999SA1+0431REMSYN054BHBM3 46/// ///// 10016 40171 51017 91400 222// 00043=
0088994971999992020010715004+42350-071050FM-13+000099999V0209999C000019999999N999999999+00251+99999101741ADDMD1110151+9999SA1+0431REMSYN054BHBM3 46/// ///// 10025 40174 51015 91500 222// 00043=
0088994971999992020010716004+42350-071050FM-13+000099999V0209999C000019999999N999999999+00441+99999101691ADDMD1990001+9999SA1+0431REMSYN054BHBM3 46/// ///// 10044 40169 50000 91600 222// 00043=
0088994971999992020010717004+42350-071050FM-13+000099999V0209999C000019999999N999999999+00481+99999101601ADDMD1810111+9999SA1+0441REMSYN054BHBM3 46/// ///// 10048 40160 58011 91700 222// 00044=
0088994971999992020010718004+42350-071050FM-13+000099999V0209999C000019999999N999999999+00461+99999101521ADDMD1810221+9999SA1+0441REMSYN054BHBM3 46/// ///// 10046 40152 58022 91800 222// 00044=
0088994971999992020010719004+42350-071050FM-13+000099999V0209999C000019999999N999999999+00441+99999101511ADDMD1610181+9999SA1+0461REMSYN054BHBM3 46/// ///// 10044 40151 56018 91900 222// 00046=
0088994971999992020010720004+42350-071050FM-13+000099999V0209999C000019999999N999999999+00451+99999101531ADDMD1610071+9999SA1+0471REMSYN054BHBM3 46/// ///// 10045 40153 56007 92000 222// 00047=
0088994971999992020010721004+42350-071050FM-13+000099999V0209999C000019999999N999999999+00441+99999101531ADDMD1410001+9999SA1+0431REMSYN054BHBM3 46/// ///// 10044 40153 54000 92100 222// 00043=
0088994971999992020010722004+42350-071050FM-13+000099999V0209999C000019999999N999999999+00371+99999101471ADDMD1810041+9999SA1+0411REMSYN054BHBM3 46/// ///// 10037 40147 58004 92200 222// 00041=
0088994971999992020010723004+42350-071050FM-13+000099999V0209999C000019999999N999999999+00371+99999101411ADDMD1810121+9999SA1+0421REMSYN054BHBM3 46/// ///// 10037 40141 58012 92300 222// 00042=
0088994971999992020010800004+42350-071050FM-13+000099999V0209999C000019999999N999999999+00371+99999101351ADDMD1710181+9999SA1+0431REMSYN054BHBM3 46/// ///// 10037 40135 57018 90000 222// 00043=
0088994971999992020010801004+42350-071050FM-13+000099999V0209999C000019999999N999999999+00371+99999101261ADDMD1810211+9999SA1+0431REMSYN054BHBM3 46/// ///// 10037 40126 58021 90100 222// 00043=
0088994971999992020010802004+42350-071050FM-13+000099999V0209999C000019999999N999999999+00371+99999101201ADDMD1710211+9999SA1+0431REMSYN054BHBM3 46/// ///// 10037 40120 57021 90200 222// 00043=
0088994971999992020010803004+42350-071050FM-13+000099999V0209999C000019999999N999999999+00371+99999101041ADDMD1810311+9999SA1+0431REMSYN054BHBM3 46/// ///// 10037 40104 58031 90300 222// 00043=
0088994971999992020010804004+42350-071050FM-13+000099999V0209999C000019999999N999999999+00391+99999100971ADDMD1810291+9999SA1+0441REMSYN054BHBM3 46/// ///// 10039 40097 58029 90400 222// 00044=
0088994971999992020010805004+42350-071050FM-13+000099999V0209999C000019999999N999999999+00191+99999100921ADDMD1610281+9999SA1+0451REMSYN054BHBM3 46/// ///// 10019 40092 56028 90500 222// 00045=
0088994971999992020010806004+42350-071050FM-13+000099999V0209999C000019999999N999999999+00121+99999100851ADDMD1710191+9999SA1+0441REMSYN054BHBM3 46/// ///// 10012 40085 57019 90600 222// 00044=
0088994971999992020010807004+42350-071050FM-13+000099999V0209999C000019999999N999999999+00161+99999100801ADDMD1710171+9999SA1+0451REMSYN054BHBM3 46/// ///// 10016 40080 57017 90700 222// 00045=
0088994971999992020010808004+42350-071050FM-13+000099999V0209999C000019999999N999999999+00161+99999100831ADDMD1510091+9999SA1+0441REMSYN054BHBM3 46/// ///// 10016 40083 55009 90800 222// 00044=
0088994971999992020010809004+42350-071050FM-13+000099999V0209999C000019999999N999999999+00171+99999100811ADDMD1610041+9999SA1+0421REMSYN054BHBM3 46/// ///// 10017 40081 56004 90900 222// 00042=
0088994971999992020010810004+42350-071050FM-13+000099999V0209999C000019999999N999999999+00161+99999100831ADDMD1110031+9999SA1+0451REMSYN054BHBM3 46/// ///// 10016 40083 51003 91000 222// 00045=
0088994971999992020010811004+42350-071050FM-13+000099999V0209999C000019999999N999999999+00121+99999100811ADDMD1410001+9999SA1+0431REMSYN054BHBM3 46/// ///// 10012 40081 54000 91100 222// 00043=
0088994971999992020010812004+42350-071050FM-13+000099999V0209999C000019999999N999999999+00091+99999100811ADDMD1410001+9999SA1+0431REMSYN054BHBM3 46/// ///// 10009 40081 54000 91200 222// 00043=
0088994971999992020010813004+42350-071050FM-13+000099999V0209999C000019999999N999999999+00131+99999100861ADDMD1310031+9999SA1+0431REMSYN054BHBM3 46/// ///// 10013 40086 53003 91300 222// 00043=
0088994971999992020010814004+42350-071050FM-13+000099999V0209999C000019999999N999999999+00221+99999100841ADDMD1210031+9999SA1+0421REMSYN054BHBM3 46/// ///// 10022 40084 52003 91400 222// 00042=
0088994971999992020010815004+42350-071050FM-13+000099999V0209999C000019999999N999999999+00291+99999100811ADDMD1990001+9999SA1+0421REMSYN054BHBM3 46/// ///// 10029 40081 50000 91500 222// 00042=
0088994971999992020010816004+42350-071050FM-13+000099999V0209999C000019999999N999999999+00401+99999100731ADDMD1810131+9999SA1+0421REMSYN054BHBM3 46/// ///// 10040 40073 58013 91600 222// 00042=
0088994971999992020010817004+42350-071050FM-13+000099999V0209999C000019999999N999999999+00491+99999100641ADDMD1810201+9999SA1+0431REMSYN054BHBM3 46/// ///// 10049 40064 58020 91700 222// 00043=
0088994971999992020010818004+42350-071050FM-13+000099999V0209999C000019999999N999999999+00641+99999100601ADDMD1610211+9999SA1+0441REMSYN054BHBM3 46/// ///// 10064 40060 56021 91800 222// 00044=
0088994971999992020010819004+42350-071050FM-13+000099999V0209999C000019999999N999999999+00591+99999100641ADDMD1510091+9999SA1+0451REMSYN054BHBM3 46/// ///// 10059 40064 55009 91900 222// 00045=
0088994971999992020010820004+42350-071050FM-13+000099999V0209999C000019999999N999999999+00571+99999100731ADDMD1310091+9999SA1+0461REMSYN054BHBM3 46/// ///// 10057 40073 53009 92000 222// 00046=
0088994971999992020010821004+42350-071050FM-13+000099999V0209999C000019999999N999999999+00261+99999100921ADDMD1310321+9999SA1+0471REMSYN054BHBM3 46/// ///// 10026 40092 53032 92100 222// 00047=
0088994971999992020010822004+42350-071050FM-13+000099999V0209999C000019999999N999999999+00301+99999101021ADDMD1310381+9999SA1+0441REMSYN054BHBM3 46/// ///// 10030 40102 53038 92200 222// 00044=
0088994971999992020010823004+42350-071050FM-13+000099999V0209999C000019999999N999999999+00271+99999101161ADDMD1110431+9999SA1+0441REMSYN054BHBM3 46/// ///// 10027 40116 51043 92300 222// 00044=
0088994971999992020010900004+42350-071050FM-13+000099999V0209999C000019999999N999999999+00211+99999101361ADDMD1310441+9999SA1+0431REMSYN054BHBM3 46/// ///// 10021 40136 53044 90000 222// 00043=
0088994971999992020010901004+42350-071050FM-13+000099999V0209999C000019999999N999999999+00181+99999101491ADDMD1110471+9999SA1+0421REMSYN054BHBM3 46/// ///// 10018 40149 51047 90100 222// 00042=
0088994971999992020010902004+42350-071050FM-13+000099999V0209999C000019999999N999999999+00071+99999101641ADDMD1110481+9999SA1+0421REMSYN054BHBM3 46/// ///// 10007 40164 51048 90200 222// 00042=
0088994971999992020010903004+42350-071050FM-13+000099999V0209999C000019999999N999999999-00051+99999101801ADDMD1310441+9999SA1+0421REMSYN054BHBM3 46/// ///// 11005 40180 53044 90300 222// 00042=
0088994971999992020010904004+42350-071050FM-13+000099999V0209999C000019999999N999999999-00111+99999101971ADDMD1310481+9999SA1+0371REMSYN054BHBM3 46/// ///// 11011 40197 53048 90400 222// 00037=
0088994971999992020010905004+42350-071050FM-13+000099999V0209999C000019999999N999999999-00201+99999102041ADDMD1110401+9999SA1+0381REMSYN054BHBM3 46/// ///// 11020 40204 51040 90500 222// 00038=
0088994971999992020010906004+42350-071050FM-13+000099999V0209999C000019999999N999999999-00251+99999102231ADDMD1310431+9999SA1+0381REMSYN054BHBM3 46/// ///// 11025 40223 53043 90600 222// 00038=
0088994971999992020010907004+42350-071050FM-13+000099999V0209999C000019999999N999999999-00281+99999102401ADDMD1310431+9999SA1+0401REMSYN054BHBM3 46/// ///// 11028 40240 53043 90700 222// 00040=
0088994971999992020010908004+42350-071050FM-13+000099999V0209999C000019999999N999999999-00311+99999102601ADDMD1310561+9999SA1+0371REMSYN054BHBM3 46/// ///// 11031 40260 53056 90800 222// 00037=
0088994971999992020010909004+42350-071050FM-13+000099999V0209999C000019999999N999999999-00401+99999102741ADDMD1110511+9999SA1+0441REMSYN054BHBM3 46/// ///// 11040 40274 51051 90900 222// 00044=
0088994971999992020010910004+42350-071050FM-13+000099999V0209999C000019999999N999999999-00451+99999102901ADDMD1110501+9999SA1+0421REMSYN054BHBM3 46/// ///// 11045 40290 51050 91000 222// 00042=
0088994971999992020010911004+42350-071050FM-13+000099999V0209999C000019999999N999999999-00461+99999103061ADDMD1310461+9999SA1+0411REMSYN054BHBM3 46/// ///// 11046 40306 53046 91100 222// 00041=
0088994971999992020010912004+42350-071050FM-13+000099999V0209999C000019999999N999999999-00521+99999103251ADDMD1310511+9999SA1+0411REMSYN054BHBM3 46/// ///// 11052 40325 53051 91200 222// 00041=
0088994971999992020010913004+42350-071050FM-13+000099999V0209999C000019999999N999999999-00541+99999103451ADDMD1310551+9999SA1+0401REMSYN054BHBM3 46/// ///// 11054 40345 53055 91300 222// 00040=
0088994971999992020010914004+42350-071050FM-13+000099999V0209999C000019999999N999999999-00381+99999103611ADDMD1110551+9999SA1+0391REMSYN054BHBM3 46/// ///// 11038 40361 51055 91400 222// 00039=
0088994971999992020010915004+42350-071050FM-13+000099999V0209999C000019999999N999999999-00481+99999103741ADDMD1110491+9999SA1+0381REMSYN054BHBM3 46/// ///// 11048 40374 51049 91500 222// 00038=
0088994971999992020010916004+42350-071050FM-13+000099999V0209999C000019999999N999999999-00321+99999103761ADDMD1110311+9999SA1+0371REMSYN054BHBM3 46/// ///// 11032 40376 51031 91600 222// 00037=
0088994971999992020010917004+42350-071050FM-13+000099999V0209999C000019999999N999999999-00331+99999103681ADDMD1990071+9999SA1+0371REMSYN054BHBM3 46/// ///// 11033 40368 50007 91700 222// 00037=
0088994971999992020010918004+42350-071050FM-13+000099999V0209999C000019999999N999999999-00161+99999103651ADDMD1810091+9999SA1+0371REMSYN054BHBM3 46/// ///// 11016 40365 58009 91800 222// 00037=
0088994971999992020010919004+42350-071050FM-13+000099999V0209999C000019999999N999999999-00121+99999103771ADDMD1510001+9999SA1+0371REMSYN054BHBM3 46/// ///// 11012 40377 55000 91900 222// 00037=
0088994971999992020010920004+42350-071050FM-13+000099999V0209999C000019999999N999999999-00131+99999103781ADDMD1310101+9999SA1+0341REMSYN054BHBM3 46/// ///// 11013 40378 53010 92000 222// 00034=
0088994971999992020010921004+42350-071050FM-13+000099999V0209999C000019999999N999999999-00131+99999103831ADDMD1110181+9999SA1+0351REMSYN054BHBM3 46/// ///// 11013 40383 51018 92100 222// 00035=
0088994971999992020010922004+42350-071050FM-13+000099999V0209999C000019999999N999999999-00141+99999103901ADDMD1310131+9999SA1+0381REMSYN054BHBM3 46/// ///// 11014 40390 53013 92200 222// 00038=
0088994971999992020010923004+42350-071050FM-13+000099999V0209999C000019999999N999999999-00161+99999103891ADDMD1110111+9999SA1+0371REMSYN054BHBM3 46/// ///// 11016 40389 51011 92300 222// 00037=
0088994971999992020011000004+42350-071050FM-13+000099999V0209999C000019999999N999999999-00181+99999104001ADDMD1310171+9999SA1+0361REMSYN054BHBM3 46/// ///// 11018 40400 53017 90000 222// 00036=
0088994971999992020011001004+42350-071050FM-13+000099999V0209999C000019999999N999999999-00201+99999104071ADDMD1310171+9999SA1+0391REMSYN054BHBM3 46/// ///// 11020 40407 53017 90100 222// 00039=
0088994971999992020011002004+42350-071050FM-13+000099999V0209999C000019999999N999999999-00181+99999104011ADDMD1990121+9999SA1+0391REMSYN054BHBM3 46/// ///// 11018 40401 50012 90200 222// 00039=
0088994971999992020011003004+42350-071050FM-13+000099999V0209999C000019999999N999999999-00171+99999104041ADDMD1110041+9999SA1+0391REMSYN054BHBM3 46/// ///// 11017 40404 51004 90300 222// 00039=
0088994971999992020011004004+42350-071050FM-13+000099999V0209999C000019999999N999999999-00201+99999103961ADDMD1810111+9999SA1+0391REMSYN054BHBM3 46/// ///// 11020 40396 58011 90400 222// 00039=
0088994971999992020011005004+42350-071050FM-13+000099999V0209999C000019999999N999999999-00211+99999103871ADDMD1810141+9999SA1+0391REMSYN054BHBM3 46/// ///// 11021 40387 58014 90500 222// 00039=
0088994971999992020011006004+42350-071050FM-13+000099999V0209999C000019999999N999999999-00201+99999103851ADDMD1610191+9999SA1+0391REMSYN054BHBM3 46/// ///// 11020 40385 56019 90600 222// 00039=
0088994971999992020011007004+42350-071050FM-13+000099999V0209999C000019999999N999999999-00231+99999103731ADDMD1810231+9999SA1+0391REMSYN054BHBM3 46/// ///// 11023 40373 58023 90700 222// 00039=
0088994971999992020011008004+42350-071050FM-13+000099999V0209999C000019999999N999999999-00231+99999103631ADDMD1810241+9999SA1+0401REMSYN054BHBM3 46/// ///// 11023 40363 58024 90800 222// 00040=
0088994971999992020011009004+42350-071050FM-13+000099999V0209999C000019999999N999999999-00131+99999103521ADDMD1610331+9999SA1+0381REMSYN054BHBM3 46/// ///// 11013 40352 56033 90900 222// 00038=
0088994971999992020011010004+42350-071050FM-13+000099999V0209999C000019999999N999999999-00101+99999103491ADDMD1610241+9999SA1+0401REMSYN054BHBM3 46/// ///// 11010 40349 56024 91000 222// 00040=
0088994971999992020011011004+42350-071050FM-13+000099999V0209999C000019999999N999999999-00051+99999103411ADDMD1610221+9999SA1+0401REMSYN054BHBM3 46/// ///// 11005 40341 56022 91100 222// 00040=
0088994971999992020011012004+42350-071050FM-13+000099999V0209999C000019999999N999999999+00051+99999103331ADDMD1810191+9999SA1+0391REMSYN054BHBM3 46/// ///// 10005 40333 58019 91200 222// 00039=
0068994971999992020011013004+42350-071050FM-13+000099999V0209999C000019999999N999999999+00191+99999103251ADDSA1+0371REMSYN048BHBM3 46/// ///// 10019 40325 91242 222// 00037=
0088994971999992020011014004+42350-071050FM-13+000099999V0209999C000019999999N999999999+00371+99999103241ADDMD1610171+9999SA1+0391REMSYN054BHBM3 46/// ///// 10037 40324 56017 91400 222// 00039=
0088994971999992020011015004+42350-071050FM-13+000099999V0209999C000019999999N999999999+00571+99999103181ADDMD1610151+9999SA1+0381REMSYN054BHBM3 46/// ///// 10057 40318 56015 91500 222// 00038=
0088994971999992020011016004+42350-071050FM-13+000099999V0209999C000019999999N999999999+00701+99999103121ADDMD1810121+9999SA1+0381REMSYN054BHBM3 46/// ///// 10070 40312 58012 91600 222// 00038=
0068994971999992020011017004+42350-071050FM-13+000099999V0209999C000019999999N999999999+00791+99999103041ADDSA1+0381REMSYN048BHBM3 46/// ///// 10079 40304 91642 222// 00038=
0088994971999992020011018004+42350-071050FM-13+000099999V0209999C000019999999N999999999+00841+99999102881ADDMD1810301+9999SA1+0391REMSYN054BHBM3 46/// ///// 10084 40288 58030 91800 222// 00039=
0088994971999992020011019004+42350-071050FM-13+000099999V0209999C000019999999N999999999+00821+99999102831ADDMD1610291+9999SA1+0401REMSYN054BHBM3 46/// ///// 10082 40283 56029 91900 222// 00040=
0088994971999992020011020004+42350-071050FM-13+000099999V0209999C000019999999N999999999+00841+99999102811ADDMD1610181+9999SA1+0411REMSYN054BHBM3 46/// ///// 10084 40281 56018 92000 222// 00041=
0088994971999992020011021004+42350-071050FM-13+000099999V0209999C000019999999N999999999+00921+99999102791ADDMD1610091+9999SA1+0411REMSYN054BHBM3 46/// ///// 10092 40279 56009 92100 222// 00041=
0068994971999992020011022004+42350-071050FM-13+000099999V0209999C000019999999N999999999+00961+99999102801ADDSA1+0421REMSYN048BHBM3 46/// ///// 10096 40280 92136 222// 00042=
0088994971999992020011023004+42350-071050FM-13+000099999V0209999C000019999999N999999999+01001+99999102801ADDMD1410001+9999SA1+0401REMSYN054BHBM3 46/// ///// 10100 40280 54000 92300 222// 00040=
0068994971999992020011100004+42350-071050FM-13+000099999V0209999C000019999999N999999999+01021+99999102821ADDSA1+0401REMSYN048BHBM3 46/// ///// 10102 40282 92336 222// 00040=
0088994971999992020011101004+42350-071050FM-13+000099999V0209999C000019999999N999999999+01021+99999102811ADDMD1410001+9999SA1+0391REMSYN054BHBM3 46/// ///// 10102 40281 54000 90100 222// 00039=
0088994971999992020011102004+42350-071050FM-13+000099999V0209999C000019999999N999999999+01041+99999102791ADDMD1410001+9999SA1+0391REMSYN054BHBM3 46/// ///// 10104 40279 54000 90200 222// 00039=
0068994971999992020011103004+42350-071050FM-13+000099999V0209999C000019999999N999999999+01101+99999102771ADDSA1+0391REMSYN048BHBM3 46/// ///// 10110 40277 90236 222// 00039=
0088994971999992020011104004+42350-071050FM-13+000099999V0209999C000019999999N999999999+01101+99999102801ADDMD1410001+9999SA1+0391REMSYN054BHBM3 46/// ///// 10110 40280 54000 90400 222// 00039=
0088994971999992020011105004+42350-071050FM-13+000099999V0209999C000019999999N999999999+01111+99999102791ADDMD1410001+9999SA1+0391REMSYN054BHBM3 46/// ///// 10111 40279 54000 90500 222// 00039=
0068994971999992020011106004+42350-071050FM-13+000099999V0209999C000019999999N999999999+99999+99999102721ADDSA1+0401REMSYN048BHBM3 46/// ///// 1//// 40272 90536 222// 00040=
0088994971999992020011107004+42350-071050FM-13+000099999V0209999C000019999999N999999999+01111+99999102731ADDMD1710071+9999SA1+0411REMSYN054BHBM3 46/// ///// 10111 40273 57007 90700 222// 00041=
0068994971999992020011108004+42350-071050FM-13+000099999V0209999C000019999999N999999999+00991+99999102701ADDSA1+0401REMSYN048BHBM3 46/// ///// 10099 40270 90748 222// 00040=
0088994971999992020011109004+42350-071050FM-13+000099999V0209999C000019999999N999999999+00981+99999102591ADDMD1810141+9999SA1+0421REMSYN054BHBM3 46/// ///// 10098 40259 58014 90900 222// 00042=
0088994971999992020011110004+42350-071050FM-13+000099999V0209999C000019999999N999999999+00981+99999102551ADDMD1610181+9999SA1+0401REMSYN054BHBM3 46/// ///// 10098 40255 56018 91000 222// 00040=
0068994971999992020011111004+42350-071050FM-13+000099999V0209999C000019999999N999999999+01101+99999102491ADDSA1+0401REMSYN048BHBM3 46/// ///// 10110 40249 91048 222// 00040=
0088994971999992020011112004+42350-071050FM-13+000099999V0209999C000019999999N999999999+01211+99999102461ADDMD1810131+9999SA1+0411REMSYN054BHBM3 46/// ///// 10121 40246 58013 91200 222// 00041=
0088994971999992020011114004+42350-071050FM-13+000099999V0209999C000019999999N999999999+01281+99999102291ADDMD1710221+9999SA1+0401REMSYN054BHBM3 46/// ///// 10128 40229 57022 91400 222// 00040=
0088994971999992020011115004+42350-071050FM-13+000099999V0209999C000019999999N999999999+01511+99999102221ADDMD1610241+9999SA1+0391REMSYN054BHBM3 46/// ///// 10151 40222 56024 91500 222// 00039=
0088994971999992020011117004+42350-071050FM-13+000099999V0209999C000019999999N999999999+01821+99999101831ADDMD1810461+9999SA1+0391REMSYN054BHBM3 46/// ///// 10182 40183 58046 91700 222// 00039=
0068994971999992020011118004+42350-071050FM-13+000099999V0209999C000019999999N999999999+01841+99999101731ADDSA1+0391REMSYN048BHBM3 46/// ///// 10184 40173 91742 222// 00039=
0088994971999992020011119004+42350-071050FM-13+000099999V0209999C000019999999N999999999+01921+99999101581ADDMD1610401+9999SA1+0431REMSYN054BHBM3 46/// ///// 10192 40158 56040 91900 222// 00043=
0068994971999992020011120004+42350-071050FM-13+000099999V0209999C000019999999N999999999+01861+99999101591ADDSA1+0441REMSYN048BHBM3 46/// ///// 10186 40159 91936 222// 00044=
0068994971999992020011121004+42350-071050FM-13+000099999V0209999C000019999999N999999999+01821+99999101581ADDSA1+0451REMSYN048BHBM3 46/// ///// 10182 40158 92048 222// 00045=
0088994971999992020011122004+42350-071050FM-13+000099999V0209999C000019999999N999999999+01681+99999101561ADDMD1410001+9999SA1+0461REMSYN054BHBM3 46/// ///// 10168 40156 54000 92200 222// 00046=
0068994971999992020011123004+42350-071050FM-13+000099999V0209999C000019999999N999999999+01661+99999101541ADDSA1+0481REMSYN048BHBM3 46/// ///// 10166 40154 92242 222// 00048=
0068994971999992020011200004+42350-071050FM-13+000099999V0209999C000019999999N999999999+01631+99999101531ADDSA1+0471REMSYN048BHBM3 46/// ///// 10163 40153 92348 222// 00047=
0068994971999992020011201004+42350-071050FM-13+000099999V0209999C000019999999N999999999+01661+99999101541ADDSA1+0481REMSYN048BHBM3 46/// ///// 10166 40154 90036 222// 00048=
0068994971999992020011202004+42350-071050FM-13+000099999V0209999C000019999999N999999999+01671+99999101441ADDSA1+0451REMSYN048BHBM3 46/// ///// 10167 40144 90148 222// 00045=
0068994971999992020011204004+42350-071050FM-13+000099999V0209999C000019999999N999999999+01731+99999101341ADDSA1+0431REMSYN048BHBM3 46/// ///// 10173 40134 90336 222// 00043=
0088994971999992020011205004+42350-071050FM-13+000099999V0209999C000019999999N999999999+01741+99999101251ADDMD1810181+9999SA1+0401REMSYN054BHBM3 46/// ///// 10174 40125 58018 90500 222// 00040=
0088994971999992020011206004+42350-071050FM-13+000099999V0209999C000019999999N999999999+01751+99999101221ADDMD1610161+9999SA1+0401REMSYN054BHBM3 46/// ///// 10175 40122 56016 90600 222// 00040=
0068994971999992020011207004+42350-071050FM-13+000099999V0209999C000019999999N999999999+01791+99999101191ADDSA1+0401REMSYN048BHBM3 46/// ///// 10179 40119 90648 222// 00040=
0068994971999992020011208004+42350-071050FM-13+000099999V0209999C000019999999N999999999+01831+99999101141ADDSA1+0421REMSYN048BHBM3 46/// ///// 10183 40114 90736 222// 00042=
0088994971999992020011209004+42350-071050FM-13+000099999V0209999C000019999999N999999999+01811+99999100971ADDMD1810251+9999SA1+0491REMSYN054BHBM3 46/// ///// 10181 40097 58025 90900 222// 00049=
0068994971999992020011210004+42350-071050FM-13+000099999V0209999C000019999999N999999999+01751+99999100861ADDSA1+0531REMSYN048BHBM3 46/// ///// 10175 40086 90936 222// 00053=
0088994971999992020011211004+42350-071050FM-13+000099999V0209999C000019999999N999999999+01731+99999100641ADDMD1810461+9999SA1+0511REMSYN054BHBM3 46/// ///// 10173 40064 58046 91100 222// 00051=
0068994971999992020011212004+42350-071050FM-13+000099999V0209999C000019999999N999999999+01771+99999100671ADDSA1+0461REMSYN048BHBM3 46/// ///// 10177 40067 91148 222// 00046=
0088994971999992020011213004+42350-071050FM-13+000099999V0209999C000019999999N999999999+01801+99999100601ADDMD1610201+9999SA1+0431REMSYN054BHBM3 46/// ///// 10180 40060 56020 91300 222// 00043=
0088994971999992020011214004+42350-071050FM-13+000099999V0209999C000019999999N999999999+01771+99999100671ADDMD1310031+9999SA1+0421REMSYN054BHBM3 46/// ///// 10177 40067 53003 91400 222// 00042=
0068994971999992020011215004+42350-071050FM-13+000099999V0209999C000019999999N999999999+01771+99999100681ADDSA1+0401REMSYN048BHBM3 46/// ///// 10177 40068 91442 222// 00040=
0088994971999992020011216004+42350-071050FM-13+000099999V0209999C000019999999N999999999+01971+99999100721ADDMD1110121+9999SA1+0421REMSYN054BHBM3 46/// ///// 10197 40072 51012 91600 222// 00042=
0068994971999992020011217004+42350-071050FM-13+000099999V0209999C000019999999N999999999+02031+99999100701ADDSA1+0411REMSYN048BHBM3 46/// ///// 10203 40070 91648 222// 00041=
0088994971999992020011218004+42350-071050FM-13+000099999V0209999C000019999999N999999999+02111+99999100831ADDMD1310141+9999SA1+0421REMSYN054BHBM3 46/// ///// 10211 40083 53014 91800 222// 00042=
0068994971999992020011219004+42350-071050FM-13+000099999V0209999C000019999999N999999999+02101+99999100921ADDSA1+0431REMSYN048BHBM3 46/// ///// 10210 40092 91842 222// 00043=
0088994971999992020011220004+42350-071050FM-13+000099999V0209999C000019999999N999999999+02031+99999101181ADDMD1310441+9999SA1+0491REMSYN054BHBM3 46/// ///// 10203 40118 53044 92000 222// 00049=
0088994971999992020011221004+42350-071050FM-13+000099999V0209999C000019999999N999999999+01691+99999101531ADDMD1310701+9999SA1+0531REMSYN054BHBM3 46/// ///// 10169 40153 53070 92100 222// 00053=
0088994971999992020011222004+42350-071050FM-13+000099999V0209999C000019999999N999999999+01381+99999101861ADDMD1310911+9999SA1+0581REMSYN054BHBM3 46/// ///// 10138 40186 53091 92200 222// 00058=
0068994971999992020011223004+42350-071050FM-13+000099999V0209999C000019999999N999999999+01201+99999102061ADDSA1+0551REMSYN048BHBM3 46/// ///// 10120 40206 92248 222// 00055=
0068994971999992020011300004+42350-071050FM-13+000099999V0209999C000019999999N999999999+01021+99999102251ADDSA1+0551REMSYN048BHBM3 46/// ///// 10102 40225 92342 222// 00055=
0068994971999992020011301004+42350-071050FM-13+000099999V0209999C000019999999N999999999+00891+99999102421ADDSA1+0531REMSYN048BHBM3 46/// ///// 10089 40242 90048 222// 00053=
0068994971999992020011302004+42350-071050FM-13+000099999V0209999C000019999999N999999999+00811+99999102601ADDSA1+0501REMSYN048BHBM3 46/// ///// 10081 40260 90148 222// 00050=
0088994971999992020011303004+42350-071050FM-13+000099999V0209999C000019999999N999999999+00691+99999102791ADDMD1110461+9999SA1+0481REMSYN054BHBM3 46/// ///// 10069 40279 51046 90300 222// 00048=
0068994971999992020011304004+42350-071050FM-13+000099999V0209999C000019999999N999999999+00601+99999102871ADDSA1+0461REMSYN048BHBM3 46/// ///// 10060 40287 90336 222// 00046=
0068994971999992020011305004+42350-071050FM-13+000099999V0209999C000019999999N999999999+00401+99999103001ADDSA1+0451REMSYN048BHBM3 46/// ///// 10040 40300 90436 222// 00045=
0068994971999992020011306004+42350-071050FM-13+000099999V0209999C000019999999N999999999+00361+99999103101ADDSA1+0481REMSYN048BHBM3 46/// ///// 10036 40310 90548 222// 00048=
0068994971999992020011307004+42350-071050FM-13+000099999V0209999C000019999999N999999999+00311+99999103131ADDSA1+0481REMSYN048BHBM3 46/// ///// 10031 40313 90642 222// 00048=
0068994971999992020011308004+42350-071050FM-13+000099999V0209999C000019999999N999999999+00241+99999103221ADDSA1+0511REMSYN048BHBM3 46/// ///// 10024 40322 90742 222// 00051=
0068994971999992020011309004+42350-071050FM-13+000099999V0209999C000019999999N999999999+00201+99999103151ADDSA1+0511REMSYN048BHBM3 46/// ///// 10020 40315 90842 222// 00051=
0088994971999992020011310004+42350-071050FM-13+000099999V0209999C000019999999N999999999+00171+99999103241ADDMD1510001+9999SA1+0481REMSYN054BHBM3 46/// ///// 10017 40324 55000 91000 222// 00048=
0068994971999992020011311004+42350-071050FM-13+000099999V0209999C000019999999N999999999+00161+99999103271ADDSA1+0461REMSYN048BHBM3 46/// ///// 10016 40327 91036 222// 00046=
0088994971999992020011312004+42350-071050FM-13+000099999V0209999C000019999999N999999999+00181+99999103241ADDMD1990091+9999SA1+0461REMSYN054BHBM3 46/// ///// 10018 40324 50009 91200 222// 00046=
0088994971999992020011313004+42350-071050FM-13+000099999V0209999C000019999999N999999999+00211+99999103231ADDMD1990001+9999SA1+0461REMSYN054BHBM3 46/// ///// 10021 40323 50000 91300 222// 00046=
0068994971999992020011314004+42350-071050FM-13+000099999V0209999C000019999999N999999999+00211+99999103281ADDSA1+0471REMSYN048BHBM3 46/// ///// 10021 40328 91336 222// 00047=
0068994971999992020011315004+42350-071050FM-13+000099999V0209999C000019999999N999999999+00281+99999103221ADDSA1+0461REMSYN048BHBM3 46/// ///// 10028 40322 91442 222// 00046=
0088994971999992020011316004+42350-071050FM-13+000099999V0209999C000019999999N999999999+00361+99999103071ADDMD1810161+9999SA1+0481REMSYN054BHBM3 46/// ///// 10036 40307 58016 91600 222// 00048=
0068994971999992020011317004+42350-071050FM-13+000099999V0209999C000019999999N999999999+00371+99999102991ADDSA1+0481REMSYN048BHBM3 46/// ///// 10037 40299 91636 222// 00048=
0088994971999992020011323004+42350-071050FM-13+000099999V0209999C000019999999N999999999+00231+99999102751ADDMD1510001+9999SA1+0491REMSYN054BHBM3 46/// ///// 10023 40275 55000 92300 222// 00049=
0088994971999992020011400004+42350-071050FM-13+000099999V0209999C000019999999N999999999+00221+99999102741ADDMD1410001+9999SA1+0481REMSYN054BHBM3 46/// ///// 10022 40274 54000 90000 222// 00048=
0088994971999992020011401004+42350-071050FM-13+000099999V0209999C000019999999N999999999+00191+99999102751ADDMD1410001+9999SA1+0491REMSYN054BHBM3 46/// ///// 10019 40275 54000 90100 222// 00049=
0088994971999992020011402004+42350-071050FM-13+000099999V0209999C000019999999N999999999+00191+99999102781ADDMD1310031+9999SA1+0451REMSYN054BHBM3 46/// ///// 10019 40278 53003 90200 222// 00045=
0088994971999992020011403004+42350-071050FM-13+000099999V0209999C000019999999N999999999+00171+99999102771ADDMD1210031+9999SA1+0481REMSYN054BHBM3 46/// ///// 10017 40277 52003 90300 222// 00048=
0088994971999992020011404004+42350-071050FM-13+000099999V0209999C000019999999N999999999+00261+99999102721ADDMD1810031+9999SA1+0481REMSYN054BHBM3 46/// ///// 10026 40272 58003 90400 222// 00048=
0088994971999992020011405004+42350-071050FM-13+000099999V0209999C000019999999N999999999+00271+99999102671ADDMD1810111+9999SA1+0471REMSYN054BHBM3 46/// ///// 10027 40267 58011 90500 222// 00047=
0088994971999992020011406004+42350-071050FM-13+000099999V0209999C000019999999N999999999+00301+99999102671ADDMD1610101+9999SA1+0471REMSYN054BHBM3 46/// ///// 10030 40267 56010 90600 222// 00047=
0088994971999992020011407004+42350-071050FM-13+000099999V0209999C000019999999N999999999+00261+99999102731ADDMD1510001+9999SA1+0471REMSYN054BHBM3 46/// ///// 10026 40273 55000 90700 222// 00047=
0088994971999992020011408004+42350-071050FM-13+000099999V0209999C000019999999N999999999+00271+99999102731ADDMD1210061+9999SA1+0471REMSYN054BHBM3 46/// ///// 10027 40273 52006 90800 222// 00047=
0088994971999992020011409004+42350-071050FM-13+000099999V0209999C000019999999N999999999+00241+99999102711ADDMD1110041+9999SA1+0481REMSYN054BHBM3 46/// ///// 10024 40271 51004 90900 222// 00048=
0088994971999992020011410004+42350-071050FM-13+000099999V0209999C000019999999N999999999+00261+99999102691ADDMD1710041+9999SA1+0481REMSYN054BHBM3 46/// ///// 10026 40269 57004 91000 222// 00048=
0088994971999992020011411004+42350-071050FM-13+000099999V0209999C000019999999N999999999+00321+99999102751ADDMD1510001+9999SA1+0491REMSYN054BHBM3 46/// ///// 10032 40275 55000 91100 222// 00049=
0088994971999992020011412004+42350-071050FM-13+000099999V0209999C000019999999N999999999+00331+99999102681ADDMD1810031+9999SA1+0491REMSYN054BHBM3 46/// ///// 10033 40268 58003 91200 222// 00049=
0088994971999992020011413004+42350-071050FM-13+000099999V0209999C000019999999N999999999+00321+99999102751ADDMD1310061+9999SA1+0491REMSYN054BHBM3 46/// ///// 10032 40275 53006 91300 222// 00049=
0088994971999992020011414004+42350-071050FM-13+000099999V0209999C000019999999N999999999+00321+99999102731ADDMD1510001+9999SA1+0481REMSYN054BHBM3 46/// ///// 10032 40273 55000 91400 222// 00048=
0088994971999992020011415004+42350-071050FM-13+000099999V0209999C000019999999N999999999+00331+99999102731ADDMD1110051+9999SA1+0471REMSYN054BHBM3 46/// ///// 10033 40273 51005 91500 222// 00047=
0088994971999992020011416004+42350-071050FM-13+000099999V0209999C000019999999N999999999+00301+99999102681ADDMD1810071+9999SA1+0481REMSYN054BHBM3 46/// ///// 10030 40268 58007 91600 222// 00048=
0088994971999992020011417004+42350-071050FM-13+000099999V0209999C000019999999N999999999+00371+99999102551ADDMD1810181+9999SA1+0481REMSYN054BHBM3 46/// ///// 10037 40255 58018 91700 222// 00048=
0088994971999992020011418004+42350-071050FM-13+000099999V0209999C000019999999N999999999+00401+99999102421ADDMD1810311+9999SA1+0481REMSYN054BHBM3 46/// ///// 10040 40242 58031 91800 222// 00048=
0088994971999992020011419004+42350-071050FM-13+000099999V0209999C000019999999N999999999+00401+99999102391ADDMD1610291+9999SA1+0471REMSYN054BHBM3 46/// ///// 10040 40239 56029 91900 222// 00047=
0088994971999992020011420004+42350-071050FM-13+000099999V0209999C000019999999N999999999+00411+99999102351ADDMD1610201+9999SA1+0471REMSYN054BHBM3 46/// ///// 10041 40235 56020 92000 222// 00047=
0088994971999992020011421004+42350-071050FM-13+000099999V0209999C000019999999N999999999+00421+99999102281ADDMD1810141+9999SA1+0471REMSYN054BHBM3 46/// ///// 10042 40228 58014 92100 222// 00047=
0088994971999992020011422004+42350-071050FM-13+000099999V0209999C000019999999N999999999+00421+99999102201ADDMD1810191+9999SA1+0481REMSYN054BHBM3 46/// ///// 10042 40220 58019 92200 222// 00048=
0088994971999992020011423004+42350-071050FM-13+000099999V0209999C000019999999N999999999+00431+99999102201ADDMD1610151+9999SA1+0491REMSYN054BHBM3 46/// ///// 10043 40220 56015 92300 222// 00049=
0088994971999992020011500004+42350-071050FM-13+000099999V0209999C000019999999N999999999+00431+99999102181ADDMD1610101+9999SA1+0501REMSYN054BHBM3 46/// ///// 10043 40218 56010 90000 222// 00050=
0088994971999992020011501004+42350-071050FM-13+000099999V0209999C000019999999N999999999+00431+99999102111ADDMD1810091+9999SA1+0501REMSYN054BHBM3 46/// ///// 10043 40211 58009 90100 222// 00050=
0088994971999992020011502004+42350-071050FM-13+000099999V0209999C000019999999N999999999+00451+99999102051ADDMD1810151+9999SA1+0501REMSYN054BHBM3 46/// ///// 10045 40205 58015 90200 222// 00050=
0088994971999992020011503004+42350-071050FM-13+000099999V0209999C000019999999N999999999+00421+99999102011ADDMD1610171+9999SA1+0491REMSYN054BHBM3 46/// ///// 10042 40201 56017 90300 222// 00049=
0088994971999992020011504004+42350-071050FM-13+000099999V0209999C000019999999N999999999+00421+99999101901ADDMD1810211+9999SA1+0481REMSYN054BHBM3 46/// ///// 10042 40190 58021 90400 222// 00048=
0088994971999992020011505004+42350-071050FM-13+000099999V0209999C000019999999N999999999+00431+99999101841ADDMD1810211+9999SA1+0481REMSYN054BHBM3 46/// ///// 10043 40184 58021 90500 222// 00048=
0088994971999992020011506004+42350-071050FM-13+000099999V0209999C000019999999N999999999+00411+99999101741ADDMD1610271+9999SA1+0481REMSYN054BHBM3 46/// ///// 10041 40174 56027 90600 222// 00048=
0088994971999992020011507004+42350-071050FM-13+000099999V0209999C000019999999N999999999+00461+99999101761ADDMD1610141+9999SA1+0481REMSYN054BHBM3 46/// ///// 10046 40176 56014 90700 222// 00048=
0088994971999992020011508004+42350-071050FM-13+000099999V0209999C000019999999N999999999+00441+99999101691ADDMD1610151+9999SA1+0491REMSYN054BHBM3 46/// ///// 10044 40169 56015 90800 222// 00049=
0088994971999992020011509004+42350-071050FM-13+000099999V0209999C000019999999N999999999+00481+99999101641ADDMD1810101+9999SA1+0491REMSYN054BHBM3 46/// ///// 10048 40164 58010 90900 222// 00049=
0088994971999992020011510004+42350-071050FM-13+000099999V0209999C000019999999N999999999+00461+99999101671ADDMD1510091+9999SA1+0491REMSYN054BHBM3 46/// ///// 10046 40167 55009 91000 222// 00049=
0088994971999992020011511004+42350-071050FM-13+000099999V0209999C000019999999N999999999+00531+99999101651ADDMD1610041+9999SA1+0491REMSYN054BHBM3 46/// ///// 10053 40165 56004 91100 222// 00049=
0088994971999992020011512004+42350-071050FM-13+000099999V0209999C000019999999N999999999+00541+99999101671ADDMD1110031+9999SA1+0501REMSYN054BHBM3 46/// ///// 10054 40167 51003 91200 222// 00050=
0088994971999992020011513004+42350-071050FM-13+000099999V0209999C000019999999N999999999+00561+99999101761ADDMD1310091+9999SA1+0511REMSYN054BHBM3 46/// ///// 10056 40176 53009 91300 222// 00051=
0088994971999992020011514004+42350-071050FM-13+000099999V0209999C000019999999N999999999+00711+99999101811ADDMD1310161+9999SA1+0511REMSYN054BHBM3 46/// ///// 10071 40181 53016 91400 222// 00051=
0088994971999992020011515004+42350-071050FM-13+000099999V0209999C000019999999N999999999+00901+99999101861ADDMD1110191+9999SA1+0501REMSYN054BHBM3 46/// ///// 10090 40186 51019 91500 222// 00050=
0068994971999992020011516004+42350-071050FM-13+000099999V0209999C000019999999N999999999+00831+99999101831ADDSA1+0491REMSYN048BHBM3 46/// ///// 10083 40183 91554 222// 00049=
0088994971999992020011517004+42350-071050FM-13+000099999V0209999C000019999999N999999999+00821+99999101791ADDMD1990001+9999SA1+0501REMSYN054BHBM3 46/// ///// 10082 40179 50000 91700 222// 00050=
0088994971999992020011518004+42350-071050FM-13+000099999V0209999C000019999999N999999999+00871+99999101751ADDMD1710111+9999SA1+0501REMSYN054BHBM3 46/// ///// 10087 40175 57011 91800 222// 00050=
0088994971999992020011519004+42350-071050FM-13+000099999V0209999C000019999999N999999999+00851+99999101741ADDMD1610081+9999SA1+0511REMSYN054BHBM3 46/// ///// 10085 40174 56008 91900 222// 00051=
0088994971999992020011520004+42350-071050FM-13+000099999V0209999C000019999999N999999999+00871+99999101791ADDMD1510001+9999SA1+0501REMSYN054BHBM3 46/// ///// 10087 40179 55000 92000 222// 00050=
0088994971999992020011521004+42350-071050FM-13+000099999V0209999C000019999999N999999999+00861+99999101811ADDMD1210061+9999SA1+0501REMSYN054BHBM3 46/// ///// 10086 40181 52006 92100 222// 00050=
0088994971999992020011522004+42350-071050FM-13+000099999V0209999C000019999999N999999999+00811+99999101861ADDMD1210121+9999SA1+0501REMSYN054BHBM3 46/// ///// 10081 40186 52012 92200 222// 00050=
0088994971999992020011523004+42350-071050FM-13+000099999V0209999C000019999999N999999999+00751+99999101871ADDMD1210081+9999SA1+0511REMSYN054BHBM3 46/// ///// 10075 40187 52008 92300 222// 00051=
0088994971999992020011600004+42350-071050FM-13+000099999V0209999C000019999999N999999999+00721+99999101911ADDMD1110101+9999SA1+0521REMSYN054BHBM3 46/// ///// 10072 40191 51010 90000 222// 00052=
0088994971999992020011601004+42350-071050FM-13+000099999V0209999C000019999999N999999999+00681+99999101891ADDMD1210031+9999SA1+0531REMSYN054BHBM3 46/// ///// 10068 40189 52003 90100 222// 00053=
0088994971999992020011602004+42350-071050FM-13+000099999V0209999C000019999999N999999999+00621+99999101841ADDMD1810031+9999SA1+0531REMSYN054BHBM3 46/// ///// 10062 40184 58003 90200 222// 00053=
0088994971999992020011603004+42350-071050FM-13+000099999V0209999C000019999999N999999999+00511+99999101801ADDMD1810111+9999SA1+0541REMSYN054BHBM3 46/// ///// 10051 40180 58011 90300 222// 00054=
0088994971999992020011604004+42350-071050FM-13+000099999V0209999C000019999999N999999999+00491+99999101801ADDMD1610091+9999SA1+0521REMSYN054BHBM3 46/// ///// 10049 40180 56009 90400 222// 00052=
0088994971999992020011605004+42350-071050FM-13+000099999V0209999C000019999999N999999999+00501+99999101661ADDMD1810181+9999SA1+0511REMSYN054BHBM3 46/// ///// 10050 40166 58018 90500 222// 00051=
0088994971999992020011606004+42350-071050FM-13+000099999V0209999C000019999999N999999999+00441+99999101641ADDMD1710161+9999SA1+0501REMSYN054BHBM3 46/// ///// 10044 40164 57016 90600 222// 00050=
0088994971999992020011607004+42350-071050FM-13+000099999V0209999C000019999999N999999999+00441+99999101671ADDMD1510131+9999SA1+0501REMSYN054BHBM3 46/// ///// 10044 40167 55013 90700 222// 00050=
0088994971999992020011608004+42350-071050FM-13+000099999V0209999C000019999999N999999999+00441+99999101481ADDMD1810181+9999SA1+0501REMSYN054BHBM3 46/// ///// 10044 40148 58018 90800 222// 00050=
0088994971999992020011609004+42350-071050FM-13+000099999V0209999C000019999999N999999999+00341+99999101311ADDMD1810331+9999SA1+0501REMSYN054BHBM3 46/// ///// 10034 40131 58033 90900 222// 00050=
0088994971999992020011610004+42350-071050FM-13+000099999V0209999C000019999999N999999999+00361+99999101151ADDMD1610521+9999SA1+0501REMSYN054BHBM3 46/// ///// 10036 40115 56052 91000 222// 00050=
0088994971999992020011611004+42350-071050FM-13+000099999V0209999C000019999999N999999999+00351+99999101041ADDMD1610441+9999SA1+0501REMSYN054BHBM3 46/// ///// 10035 40104 56044 91100 222// 00050=
0088994971999992020011612004+42350-071050FM-13+000099999V0209999C000019999999N999999999+00391+99999100851ADDMD1810461+9999SA1+0521REMSYN054BHBM3 46/// ///// 10039 40085 58046 91200 222// 00052=
0088994971999992020011613004+42350-071050FM-13+000099999V0209999C000019999999N999999999+00421+99999100711ADDMD1810441+9999SA1+0521REMSYN054BHBM3 46/// ///// 10042 40071 58044 91300 222// 00052=
0088994971999992020011614004+42350-071050FM-13+000099999V0209999C000019999999N999999999+00391+99999100551ADDMD1610491+9999SA1+0521REMSYN054BHBM3 46/// ///// 10039 40055 56049 91400 222// 00052=
0088994971999992020011615004+42350-071050FM-13+000099999V0209999C000019999999N999999999+00451+99999100471ADDMD1610381+9999SA1+0511REMSYN054BHBM3 46/// ///// 10045 40047 56038 91500 222// 00051=
0088994971999992020011616004+42350-071050FM-13+000099999V0209999C000019999999N999999999+00601+99999100331ADDMD1610381+9999SA1+0511REMSYN054BHBM3 46/// ///// 10060 40033 56038 91600 222// 00051=
0088994971999992020011617004+42350-071050FM-13+000099999V0209999C000019999999N999999999+00751+99999100261ADDMD1610291+9999SA1+0511REMSYN054BHBM3 46/// ///// 10075 40026 56029 91700 222// 00051=
0088994971999992020011618004+42350-071050FM-13+000099999V0209999C000019999999N999999999+00721+99999100211ADDMD1610261+9999SA1+0511REMSYN054BHBM3 46/// ///// 10072 40021 56026 91800 222// 00051=
0088994971999992020011619004+42350-071050FM-13+000099999V0209999C000019999999N999999999+00611+99999100351ADDMD1510001+9999SA1+0511REMSYN054BHBM3 46/// ///// 10061 40035 55000 91900 222// 00051=
0088994971999992020011620004+42350-071050FM-13+000099999V0209999C000019999999N999999999+00421+99999100491ADDMD1310231+9999SA1+0511REMSYN054BHBM3 46/// ///// 10042 40049 53023 92000 222// 00051=
0088994971999992020011621004+42350-071050FM-13+000099999V0209999C000019999999N999999999+00401+99999100671ADDMD1310461+9999SA1+0511REMSYN054BHBM3 46/// ///// 10040 40067 53046 92100 222// 00051=
0088994971999992020011622004+42350-071050FM-13+000099999V0209999C000019999999N999999999+00321+99999100851ADDMD1310501+9999SA1+0501REMSYN054BHBM3 46/// ///// 10032 40085 53050 92200 222// 00050=
0088994971999992020011623004+42350-071050FM-13+000099999V0209999C000019999999N999999999+00261+99999101041ADDMD1310551+9999SA1+0511REMSYN054BHBM3 46/// ///// 10026 40104 53055 92300 222// 00051=
0088994971999992020011700004+42350-071050FM-13+000099999V0209999C000019999999N999999999+00181+99999101171ADDMD1110501+9999SA1+0501REMSYN054BHBM3 46/// ///// 10018 40117 51050 90000 222// 00050=
0088994971999992020011701004+42350-071050FM-13+000099999V0209999C000019999999N999999999+00131+99999101291ADDMD1110441+9999SA1+0491REMSYN054BHBM3 46/// ///// 10013 40129 51044 90100 222// 00049=
0088994971999992020011702004+42350-071050FM-13+000099999V0209999C000019999999N999999999+00081+99999101351ADDMD1110311+9999SA1+0491REMSYN054BHBM3 46/// ///// 10008 40135 51031 90200 222// 00049=
0088994971999992020011703004+42350-071050FM-13+000099999V0209999C000019999999N999999999+00011+99999101471ADDMD1210301+9999SA1+0481REMSYN054BHBM3 46/// ///// 10001 40147 52030 90300 222// 00048=
0088994971999992020011704004+42350-071050FM-13+000099999V0209999C000019999999N999999999-00081+99999101571ADDMD1310281+9999SA1+0501REMSYN054BHBM3 46/// ///// 11008 40157 53028 90400 222// 00050=
0088994971999992020011705004+42350-071050FM-13+000099999V0209999C000019999999N999999999-00201+99999101671ADDMD1110321+9999SA1+0521REMSYN054BHBM3 46/// ///// 11020 40167 51032 90500 222// 00052=
0088994971999992020011706004+42350-071050FM-13+000099999V0209999C000019999999N999999999-00311+99999101831ADDMD1310361+9999SA1+0471REMSYN054BHBM3 46/// ///// 11031 40183 53036 90600 222// 00047=
0088994971999992020011707004+42350-071050FM-13+000099999V0209999C000019999999N999999999-00401+99999102011ADDMD1310441+9999SA1+0431REMSYN054BHBM3 46/// ///// 11040 40201 53044 90700 222// 00043=
0088994971999992020011708004+42350-071050FM-13+000099999V0209999C000019999999N999999999-00511+99999102151ADDMD1110481+9999SA1+0441REMSYN054BHBM3 46/// ///// 11051 40215 51048 90800 222// 00044=
0088994971999992020011709004+42350-071050FM-13+000099999V0209999C000019999999N999999999-00571+99999102251ADDMD1110421+9999SA1+0461REMSYN054BHBM3 46/// ///// 11057 40225 51042 90900 222// 00046=
0088994971999992020011710004+42350-071050FM-13+000099999V0209999C000019999999N999999999-00631+99999102391ADDMD1210381+9999SA1+0471REMSYN054BHBM3 46/// ///// 11063 40239 52038 91000 222// 00047=
0088994971999992020011711004+42350-071050FM-13+000099999V0209999C000019999999N999999999-00711+99999102611ADDMD1310461+9999SA1+0441REMSYN054BHBM3 46/// ///// 11071 40261 53046 91100 222// 00044=
0088994971999992020011712004+42350-071050FM-13+000099999V0209999C000019999999N999999999-00791+99999102771ADDMD1310521+9999SA1+0441REMSYN054BHBM3 46/// ///// 11079 40277 53052 91200 222// 00044=
0088994971999992020011713004+42350-071050FM-13+000099999V0209999C000019999999N999999999-00861+99999102951ADDMD1110561+9999SA1+0421REMSYN054BHBM3 46/// ///// 11086 40295 51056 91300 222// 00042=
0088994971999992020011714004+42350-071050FM-13+000099999V0209999C000019999999N999999999-00881+99999103101ADDMD1110491+9999SA1+0401REMSYN054BHBM3 46/// ///// 11088 40310 51049 91400 222// 00040=
0088994971999992020011715004+42350-071050FM-13+000099999V0209999C000019999999N999999999-00861+99999103211ADDMD1110441+9999SA1+0411REMSYN054BHBM3 46/// ///// 11086 40321 51044 91500 222// 00041=
0068994971999992020011716004+42350-071050FM-13+000099999V0209999C000019999999N999999999-00811+99999103241ADDSA1+0421REMSYN048BHBM3 46/// ///// 11081 40324 91536 222// 00042=
0088994971999992020011717004+42350-071050FM-13+000099999V0209999C000019999999N999999999-00701+99999103201ADDMD1990101+9999SA1+0421REMSYN054BHBM3 46/// ///// 11070 40320 50010 91700 222// 00042=
0088994971999992020011718004+42350-071050FM-13+000099999V0209999C000019999999N999999999-00661+99999103191ADDMD1410001+9999SA1+0451REMSYN054BHBM3 46/// ///// 11066 40319 54000 91800 222// 00045=
0088994971999992020011719004+42350-071050FM-13+000099999V0209999C000019999999N999999999-00561+99999103181ADDMD1610051+9999SA1+0421REMSYN054BHBM3 46/// ///// 11056 40318 56005 91900 222// 00042=
0088994971999992020011720004+42350-071050FM-13+000099999V0209999C000019999999N999999999-00561+99999103251ADDMD1310051+9999SA1+0421REMSYN054BHBM3 46/// ///// 11056 40325 53005 92000 222// 00042=
0088994971999992020011721004+42350-071050FM-13+000099999V0209999C000019999999N999999999-00581+99999103311ADDMD1310121+9999SA1+0411REMSYN054BHBM3 46/// ///// 11058 40331 53012 92100 222// 00041=
0088994971999992020011722004+42350-071050FM-13+000099999V0209999C000019999999N999999999-00591+99999103451ADDMD1310271+9999SA1+0411REMSYN054BHBM3 46/// ///// 11059 40345 53027 92200 222// 00041=
0088994971999992020011723004+42350-071050FM-13+000099999V0209999C000019999999N999999999-00631+99999103511ADDMD1210261+9999SA1+0421REMSYN054BHBM3 46/// ///// 11063 40351 52026 92300 222// 00042=
0088994971999992020011800004+42350-071050FM-13+000099999V0209999C000019999999N999999999-00691+99999103521ADDMD1110211+9999SA1+0431REMSYN054BHBM3 46/// ///// 11069 40352 51021 90000 222// 00043=
0088994971999992020011801004+42350-071050FM-13+000099999V0209999C000019999999N999999999-00801+99999103531ADDMD1110081+9999SA1+0431REMSYN054BHBM3 46/// ///// 11080 40353 51008 90100 222// 00043=
0088994971999992020011802004+42350-071050FM-13+000099999V0209999C000019999999N999999999-00841+99999103501ADDMD1990001+9999SA1+0431REMSYN054BHBM3 46/// ///// 11084 40350 50000 90200 222// 00043=
0088994971999992020011803004+42350-071050FM-13+000099999V0209999C000019999999N999999999-00871+99999103561ADDMD1310041+9999SA1+0421REMSYN054BHBM3 46/// ///// 11087 40356 53004 90300 222// 00042=
0088994971999992020011804004+42350-071050FM-13+000099999V0209999C000019999999N999999999-00901+99999103621ADDMD1310091+9999SA1+0411REMSYN054BHBM3 46/// ///// 11090 40362 53009 90400 222// 00041=
0088994971999992020011805004+42350-071050FM-13+000099999V0209999C000019999999N999999999-00941+99999103571ADDMD1990071+9999SA1+0411REMSYN054BHBM3 46/// ///// 11094 40357 50007 90500 222// 00041=
0088994971999992020011806004+42350-071050FM-13+000099999V0209999C000019999999N999999999-00981+99999103531ADDMD1810031+9999SA1+0451REMSYN054BHBM3 46/// ///// 11098 40353 58003 90600 222// 00045=
0088994971999992020011807004+42350-071050FM-13+000099999V0209999C000019999999N999999999-01021+99999103491ADDMD1610131+9999SA1+0371REMSYN054BHBM3 46/// ///// 11102 40349 56013 90700 222// 00037=
0088994971999992020011808004+42350-071050FM-13+000099999V0209999C000019999999N999999999-01021+99999103481ADDMD1610091+9999SA1+0441REMSYN054BHBM3 46/// ///// 11102 40348 56009 90800 222// 00044=
0088994971999992020011809004+42350-071050FM-13+000099999V0209999C000019999999N999999999-01021+99999103511ADDMD1510001+9999SA1+0431REMSYN054BHBM3 46/// ///// 11102 40351 55000 90900 222// 00043=
0088994971999992020011810004+42350-071050FM-13+000099999V0209999C000019999999N999999999-01041+99999103461ADDMD1810031+9999SA1+0431REMSYN054BHBM3 46/// ///// 11104 40346 58003 91000 222// 00043=
0088994971999992020011811004+42350-071050FM-13+000099999V0209999C000019999999N999999999-01021+99999103481ADDMD1990001+9999SA1+0421REMSYN054BHBM3 46/// ///// 11102 40348 50000 91100 222// 00042=
0088994971999992020011812004+42350-071050FM-13+000099999V0209999C000019999999N999999999-01011+99999103431ADDMD1710081+9999SA1+0431REMSYN054BHBM3 46/// ///// 11101 40343 57008 91200 222// 00043=
0088994971999992020011813004+42350-071050FM-13+000099999V0209999C000019999999N999999999-00971+99999103381ADDMD1810081+9999SA1+0431REMSYN054BHBM3 46/// ///// 11097 40338 58008 91300 222// 00043=
0088994971999992020011814004+42350-071050FM-13+000099999V0209999C000019999999N999999999-00931+99999103301ADDMD1810181+9999SA1+0421REMSYN054BHBM3 46/// ///// 11093 40330 58018 91400 222// 00042=
0088994971999992020011815004+42350-071050FM-13+000099999V0209999C000019999999N999999999-00861+99999103251ADDMD1710181+9999SA1+0421REMSYN054BHBM3 46/// ///// 11086 40325 57018 91500 222// 00042=
0088994971999992020011816004+42350-071050FM-13+000099999V0209999C000019999999N999999999-00791+99999103081ADDMD1810301+9999SA1+0421REMSYN054BHBM3 46/// ///// 11079 40308 58030 91600 222// 00042=
0088994971999992020011817004+42350-071050FM-13+000099999V0209999C000019999999N999999999-00761+99999102971ADDMD1810331+9999SA1+0391REMSYN054BHBM3 46/// ///// 11076 40297 58033 91700 222// 00039=
0088994971999992020011818004+42350-071050FM-13+000099999V0209999C000019999999N999999999-00691+99999102831ADDMD1610421+9999SA1+0411REMSYN054BHBM3 46/// ///// 11069 40283 56042 91800 222// 00041=
0088994971999992020011819004+42350-071050FM-13+000099999V0209999C000019999999N999999999-00701+99999102751ADDMD1610331+9999SA1+0431REMSYN054BHBM3 46/// ///// 11070 40275 56033 91900 222// 00043=
0088994971999992020011820004+42350-071050FM-13+000099999V0209999C000019999999N999999999-00591+99999102651ADDMD1610321+9999SA1+0411REMSYN054BHBM3 46/// ///// 11059 40265 56032 92000 222// 00041=
0088994971999992020011821004+42350-071050FM-13+000099999V0209999C000019999999N999999999-00571+99999102541ADDMD1810291+9999SA1+0411REMSYN054BHBM3 46/// ///// 11057 40254 58029 92100 222// 00041=
0088994971999992020011822004+42350-071050FM-13+000099999V0209999C000019999999N999999999-00591+99999102381ADDMD1810371+9999SA1+0411REMSYN054BHBM3 46/// ///// 11059 40238 58037 92200 222// 00041=
0088994971999992020011823004+42350-071050FM-13+000099999V0209999C000019999999N999999999-00541+99999102101ADDMD1810551+9999SA1+0411REMSYN054BHBM3 46/// ///// 11054 40210 58055 92300 222// 00041=
0088994971999992020011900004+42350-071050FM-13+000099999V0209999C000019999999N999999999-00631+99999101921ADDMD1810621+9999SA1+0411REMSYN054BHBM3 46/// ///// 11063 40192 58062 90000 222// 00041=
0088994971999992020011901004+42350-071050FM-13+000099999V0209999C000019999999N999999999-00551+99999101641ADDMD1710741+9999SA1+0411REMSYN054BHBM3 46/// ///// 11055 40164 57074 90100 222// 00041=
0088994971999992020011902004+42350-071050FM-13+000099999V0209999C000019999999N999999999-00411+99999101361ADDMD1810741+9999SA1+0431REMSYN054BHBM3 46/// ///// 11041 40136 58074 90200 222// 00043=
0088994971999992020011903004+42350-071050FM-13+000099999V0209999C000019999999N999999999-00311+99999101131ADDMD1610791+9999SA1+0441REMSYN054BHBM3 46/// ///// 11031 40113 56079 90300 222// 00044=
0088994971999992020011904004+42350-071050FM-13+000099999V0209999C000019999999N999999999-00211+99999100961ADDMD1610681+9999SA1+0441REMSYN054BHBM3 46/// ///// 11021 40096 56068 90400 222// 00044=
0088994971999992020011905004+42350-071050FM-13+000099999V0209999C000019999999N999999999-00191+99999100691ADDMD1810671+9999SA1+0451REMSYN054BHBM3 46/// ///// 11019 40069 58067 90500 222// 00045=
0088994971999992020011906004+42350-071050FM-13+000099999V0209999C000019999999N999999999-00111+99999100451ADDMD1810681+9999SA1+0431REMSYN054BHBM3 46/// ///// 11011 40045 58068 90600 222// 00043=
0088994971999992020011907004+42350-071050FM-13+000099999V0209999C000019999999N999999999-00301+99999100391ADDMD1610571+9999SA1+0431REMSYN054BHBM3 46/// ///// 11030 40039 56057 90700 222// 00043=
0088994971999992020011908004+42350-071050FM-13+000099999V0209999C000019999999N999999999-00331+99999100281ADDMD1610411+9999SA1+0381REMSYN054BHBM3 46/// ///// 11033 40028 56041 90800 222// 00038=
0088994971999992020011909004+42350-071050FM-13+000099999V0209999C000019999999N999999999-00371+99999100211ADDMD1810241+9999SA1+0411REMSYN054BHBM3 46/// ///// 11037 40021 58024 90900 222// 00041=
0088994971999992020011910004+42350-071050FM-13+000099999V0209999C000019999999N999999999-00451+99999100181ADDMD1610211+9999SA1+0411REMSYN054BHBM3 46/// ///// 11045 40018 56021 91000 222// 00041=
0088994971999992020011911004+42350-071050FM-13+000099999V0209999C000019999999N999999999-00411+99999100211ADDMD1510071+9999SA1+0411REMSYN054BHBM3 46/// ///// 11041 40021 55007 91100 222// 00041=
0088994971999992020011912004+42350-071050FM-13+000099999V0209999C000019999999N999999999-00371+99999100201ADDMD1510001+9999SA1+0411REMSYN054BHBM3 46/// ///// 11037 40020 55000 91200 222// 00041=
0088994971999992020011913004+42350-071050FM-13+000099999V0209999C000019999999N999999999-00401+99999100221ADDMD1110041+9999SA1+0411REMSYN054BHBM3 46/// ///// 11040 40022 51004 91300 222// 00041=
0088994971999992020011914004+42350-071050FM-13+000099999V0209999C000019999999N999999999-00151+99999100191ADDMD1990001+9999SA1+0421REMSYN054BHBM3 46/// ///// 11015 40019 50000 91400 222// 00042=
0088994971999992020011915004+42350-071050FM-13+000099999V0209999C000019999999N999999999+00141+99999100211ADDMD1410001+9999SA1+0421REMSYN054BHBM3 46/// ///// 10014 40021 54000 91500 222// 00042=
0088994971999992020011916004+42350-071050FM-13+000099999V0209999C000019999999N999999999+00381+99999100191ADDMD1610031+9999SA1+0401REMSYN054BHBM3 46/// ///// 10038 40019 56003 91600 222// 00040=
0088994971999992020011917004+42350-071050FM-13+000099999V0209999C000019999999N999999999+00551+99999100171ADDMD1410001+9999SA1+0441REMSYN054BHBM3 46/// ///// 10055 40017 54000 91700 222// 00044=
0088994971999992020011918004+42350-071050FM-13+000099999V0209999C000019999999N999999999+00611+99999100141ADDMD1810071+9999SA1+0441REMSYN054BHBM3 46/// ///// 10061 40014 58007 91800 222// 00044=
0088994971999992020011919004+42350-071050FM-13+000099999V0209999C000019999999N999999999+00571+99999100191ADDMD1510001+9999SA1+0431REMSYN054BHBM3 46/// ///// 10057 40019 55000 91900 222// 00043=
0088994971999992020011920004+42350-071050FM-13+000099999V0209999C000019999999N999999999+00511+99999100311ADDMD1310141+9999SA1+0421REMSYN054BHBM3 46/// ///// 10051 40031 53014 92000 222// 00042=
0088994971999992020011921004+42350-071050FM-13+000099999V0209999C000019999999N999999999+00461+99999100371ADDMD1310231+9999SA1+0421REMSYN054BHBM3 46/// ///// 10046 40037 53023 92100 222// 00042=
0088994971999992020011922004+42350-071050FM-13+000099999V0209999C000019999999N999999999+00411+99999100461ADDMD1110271+9999SA1+0411REMSYN054BHBM3 46/// ///// 10041 40046 51027 92200 222// 00041=
0088994971999992020011923004+42350-071050FM-13+000099999V0209999C000019999999N999999999+00321+99999100571ADDMD1310261+9999SA1+0411REMSYN054BHBM3 46/// ///// 10032 40057 53026 92300 222// 00041=
0088994971999992020012000004+42350-071050FM-13+000099999V0209999C000019999999N999999999+00251+99999100661ADDMD1210291+9999SA1+0401REMSYN054BHBM3 46/// ///// 10025 40066 52029 90000 222// 00040=
0088994971999992020012001004+42350-071050FM-13+000099999V0209999C000019999999N999999999+00151+99999100731ADDMD1110271+9999SA1+0401REMSYN054BHBM3 46/// ///// 10015 40073 51027 90100 222// 00040=
0088994971999992020012002004+42350-071050FM-13+000099999V0209999C000019999999N999999999+00101+99999100831ADDMD1310261+9999SA1+0411REMSYN054BHBM3 46/// ///// 10010 40083 53026 90200 222// 00041=
0088994971999992020012003004+42350-071050FM-13+000099999V0209999C000019999999N999999999-00131+99999100961ADDMD1310301+9999SA1+0431REMSYN054BHBM3 46/// ///// 11013 40096 53030 90300 222// 00043=
0088994971999992020012004004+42350-071050FM-13+000099999V0209999C000019999999N999999999-00311+99999101121ADDMD1310391+9999SA1+0411REMSYN054BHBM3 46/// ///// 11031 40112 53039 90400 222// 00041=
0088994971999992020012005004+42350-071050FM-13+000099999V0209999C000019999999N999999999-00531+99999101231ADDMD1110401+9999SA1+0371REMSYN054BHBM3 46/// ///// 11053 40123 51040 90500 222// 00037=
0088994971999992020012006004+42350-071050FM-13+000099999V0209999C000019999999N999999999-00591+99999101291ADDMD1110331+9999SA1+0411REMSYN054BHBM3 46/// ///// 11059 40129 51033 90600 222// 00041=
0088994971999992020012007004+42350-071050FM-13+000099999V0209999C000019999999N999999999-00601+99999101311ADDMD1110191+9999SA1+0401REMSYN054BHBM3 46/// ///// 11060 40131 51019 90700 222// 00040=
0088994971999992020012008004+42350-071050FM-13+000099999V0209999C000019999999N999999999-00651+99999101361ADDMD1110131+9999SA1+0391REMSYN054BHBM3 46/// ///// 11065 40136 51013 90800 222// 00039=
0088994971999992020012009004+42350-071050FM-13+000099999V0209999C000019999999N999999999-00701+99999101391ADDMD1310101+9999SA1+0341REMSYN054BHBM3 46/// ///// 11070 40139 53010 90900 222// 00034=
0088994971999992020012010004+42350-071050FM-13+000099999V0209999C000019999999N999999999-00731+99999101511ADDMD1310201+9999SA1+0301REMSYN054BHBM3 46/// ///// 11073 40151 53020 91000 222// 00030=
0088994971999992020012011004+42350-071050FM-13+000099999V0209999C000019999999N999999999-00761+99999101641ADDMD1310281+9999SA1+0361REMSYN054BHBM3 46/// ///// 11076 40164 53028 91100 222// 00036=
0088994971999992020012012004+42350-071050FM-13+000099999V0209999C000019999999N999999999-00771+99999101791ADDMD1310401+9999SA1+0351REMSYN054BHBM3 46/// ///// 11077 40179 53040 91200 222// 00035=
0088994971999992020012013004+42350-071050FM-13+000099999V0209999C000019999999N999999999-00781+99999101911ADDMD1110401+9999SA1+0351REMSYN054BHBM3 46/// ///// 11078 40191 51040 91300 222// 00035=
0088994971999992020012014004+42350-071050FM-13+000099999V0209999C000019999999N999999999-00791+99999102031ADDMD1110391+9999SA1+0361REMSYN054BHBM3 46/// ///// 11079 40203 51039 91400 222// 00036=
0088994971999992020012015004+42350-071050FM-13+000099999V0209999C000019999999N999999999-00701+99999102071ADDMD1110281+9999SA1+0361REMSYN054BHBM3 46/// ///// 11070 40207 51028 91500 222// 00036=
0088994971999992020012016004+42350-071050FM-13+000099999V0209999C000019999999N999999999-00611+99999102101ADDMD1110191+9999SA1+0351REMSYN054BHBM3 46/// ///// 11061 40210 51019 91600 222// 00035=
0088994971999992020012017004+42350-071050FM-13+000099999V0209999C000019999999N999999999-00471+99999102081ADDMD1110051+9999SA1+0341REMSYN054BHBM3 46/// ///// 11047 40208 51005 91700 222// 00034=
0088994971999992020012018004+42350-071050FM-13+000099999V0209999C000019999999N999999999-00371+99999102081ADDMD1990001+9999SA1+0371REMSYN054BHBM3 46/// ///// 11037 40208 50000 91800 222// 00037=
0088994971999992020012019004+42350-071050FM-13+000099999V0209999C000019999999N999999999-00311+99999102101ADDMD1410001+9999SA1+0361REMSYN054BHBM3 46/// ///// 11031 40210 54000 91900 222// 00036=
0088994971999992020012020004+42350-071050FM-13+000099999V0209999C000019999999N999999999-00261+99999102131ADDMD1310051+9999SA1+0351REMSYN054BHBM3 46/// ///// 11026 40213 53005 92000 222// 00035=
0088994971999992020012021004+42350-071050FM-13+000099999V0209999C000019999999N999999999-00241+99999102181ADDMD1310101+9999SA1+0351REMSYN054BHBM3 46/// ///// 11024 40218 53010 92100 222// 00035=
0088994971999992020012022004+42350-071050FM-13+000099999V0209999C000019999999N999999999-00261+99999102271ADDMD1310171+9999SA1+0321REMSYN054BHBM3 46/// ///// 11026 40227 53017 92200 222// 00032=
0088994971999992020012023004+42350-071050FM-13+000099999V0209999C000019999999N999999999-00301+99999102341ADDMD1310211+9999SA1+0341REMSYN054BHBM3 46/// ///// 11030 40234 53021 92300 222// 00034=
0088994971999992020012100004+42350-071050FM-13+000099999V0209999C000019999999N999999999-00331+99999102431ADDMD1210251+9999SA1+0341REMSYN054BHBM3 46/// ///// 11033 40243 52025 90000 222// 00034=
0088994971999992020012101004+42350-071050FM-13+000099999V0209999C000019999999N999999999-00381+99999102491ADDMD1110221+9999SA1+0331REMSYN054BHBM3 46/// ///// 11038 40249 51022 90100 222// 00033=
0088994971999992020012102004+42350-071050FM-13+000099999V0209999C000019999999N999999999-00431+99999102471ADDMD1110131+9999SA1+0341REMSYN054BHBM3 46/// ///// 11043 40247 51013 90200 222// 00034=
0088994971999992020012103004+42350-071050FM-13+000099999V0209999C000019999999N999999999-00471+99999102481ADDMD1110051+9999SA1+0341REMSYN054BHBM3 46/// ///// 11047 40248 51005 90300 222// 00034=
0088994971999992020012104004+42350-071050FM-13+000099999V0209999C000019999999N999999999-00511+99999102521ADDMD1310031+9999SA1+0351REMSYN054BHBM3 46/// ///// 11051 40252 53003 90400 222// 00035=
0088994971999992020012105004+42350-071050FM-13+000099999V0209999C000019999999N999999999-00561+99999102511ADDMD1210041+9999SA1+0351REMSYN054BHBM3 46/// ///// 11056 40251 52004 90500 222// 00035=
0088994971999992020012106004+42350-071050FM-13+000099999V0209999C000019999999N999999999-00621+99999102571ADDMD1310091+9999SA1+0371REMSYN054BHBM3 46/// ///// 11062 40257 53009 90600 222// 00037=
0088994971999992020012107004+42350-071050FM-13+000099999V0209999C000019999999N999999999-00621+99999102601ADDMD1310081+9999SA1+0371REMSYN054BHBM3 46/// ///// 11062 40260 53008 90700 222// 00037=
0088994971999992020012108004+42350-071050FM-13+000099999V0209999C000019999999N999999999-00661+99999102601ADDMD1110091+9999SA1+0361REMSYN054BHBM3 46/// ///// 11066 40260 51009 90800 222// 00036=
0088994971999992020012109004+42350-071050FM-13+000099999V0209999C000019999999N999999999-00711+99999102621ADDMD1110051+9999SA1+0341REMSYN054BHBM3 46/// ///// 11071 40262 51005 90900 222// 00034=
0088994971999992020012110004+42350-071050FM-13+000099999V0209999C000019999999N999999999-00721+99999102661ADDMD1310061+9999SA1+0331REMSYN054BHBM3 46/// ///// 11072 40266 53006 91000 222// 00033=
0088994971999992020012111004+42350-071050FM-13+000099999V0209999C000019999999N999999999-00761+99999102761ADDMD1310161+9999SA1+0331REMSYN054BHBM3 46/// ///// 11076 40276 53016 91100 222// 00033=
0088994971999992020012112004+42350-071050FM-13+000099999V0209999C000019999999N999999999-00801+99999102861ADDMD1310241+9999SA1+0331REMSYN054BHBM3 46/// ///// 11080 40286 53024 91200 222// 00033=
0088994971999992020012113004+42350-071050FM-13+000099999V0209999C000019999999N999999999-00811+99999102911ADDMD1110251+9999SA1+0321REMSYN054BHBM3 46/// ///// 11081 40291 51025 91300 222// 00032=
0088994971999992020012114004+42350-071050FM-13+000099999V0209999C000019999999N999999999-00761+99999102961ADDMD1110201+9999SA1+0311REMSYN054BHBM3 46/// ///// 11076 40296 51020 91400 222// 00031=
0088994971999992020012115004+42350-071050FM-13+000099999V0209999C000019999999N999999999-00671+99999102961ADDMD1110101+9999SA1+0311REMSYN054BHBM3 46/// ///// 11067 40296 51010 91500 222// 00031=
0088994971999992020012116004+42350-071050FM-13+000099999V0209999C000019999999N999999999-00611+99999102921ADDMD1990001+9999SA1+0311REMSYN054BHBM3 46/// ///// 11061 40292 50000 91600 222// 00031=
0088994971999992020012117004+42350-071050FM-13+000099999V0209999C000019999999N999999999-00571+99999102861ADDMD1810101+9999SA1+0311REMSYN054BHBM3 46/// ///// 11057 40286 58010 91700 222// 00031=
0088994971999992020012118004+42350-071050FM-13+000099999V0209999C000019999999N999999999-00501+99999102821ADDMD1710141+9999SA1+0301REMSYN054BHBM3 46/// ///// 11050 40282 57014 91800 222// 00030=
0088994971999992020012119004+42350-071050FM-13+000099999V0209999C000019999999N999999999-00441+99999102811ADDMD1610111+9999SA1+0331REMSYN054BHBM3 46/// ///// 11044 40281 56011 91900 222// 00033=
0088994971999992020012120004+42350-071050FM-13+000099999V0209999C000019999999N999999999-00401+99999102801ADDMD1610061+9999SA1+0311REMSYN054BHBM3 46/// ///// 11040 40280 56006 92000 222// 00031=
0088994971999992020012121004+42350-071050FM-13+000099999V0209999C000019999999N999999999-00381+99999102811ADDMD1410001+9999SA1+0301REMSYN054BHBM3 46/// ///// 11038 40281 54000 92100 222// 00030=
0088994971999992020012122004+42350-071050FM-13+000099999V0209999C000019999999N999999999-00351+99999102861ADDMD1310051+9999SA1+0331REMSYN054BHBM3 46/// ///// 11035 40286 53005 92200 222// 00033=
0088994971999992020012123004+42350-071050FM-13+000099999V0209999C000019999999N999999999-00361+99999102901ADDMD1310101+9999SA1+0311REMSYN054BHBM3 46/// ///// 11036 40290 53010 92300 222// 00031=
0088994971999992020012200004+42350-071050FM-13+000099999V0209999C000019999999N999999999-00341+99999102921ADDMD1110111+9999SA1+0321REMSYN054BHBM3 46/// ///// 11034 40292 51011 90000 222// 00032=
0088994971999992020012201004+42350-071050FM-13+000099999V0209999C000019999999N999999999-00361+99999102941ADDMD1110081+9999SA1+0311REMSYN054BHBM3 46/// ///// 11036 40294 51008 90100 222// 00031=
0088994971999992020012202004+42350-071050FM-13+000099999V0209999C000019999999N999999999-00391+99999102921ADDMD1410001+9999SA1+0311REMSYN054BHBM3 46/// ///// 11039 40292 54000 90200 222// 00031=
0088994971999992020012203004+42350-071050FM-13+000099999V0209999C000019999999N999999999-00391+99999102951ADDMD1310031+9999SA1+0311REMSYN054BHBM3 46/// ///// 11039 40295 53003 90300 222// 00031=
0088994971999992020012204004+42350-071050FM-13+000099999V0209999C000019999999N999999999-00391+99999102931ADDMD1410001+9999SA1+0321REMSYN054BHBM3 46/// ///// 11039 40293 54000 90400 222// 00032=
0088994971999992020012205004+42350-071050FM-13+000099999V0209999C000019999999N999999999-00401+99999102871ADDMD1810051+9999SA1+0321REMSYN054BHBM3 46/// ///// 11040 40287 58005 90500 222// 00032=
0088994971999992020012206004+42350-071050FM-13+000099999V0209999C000019999999N999999999-00421+99999102851ADDMD1710101+9999SA1+0311REMSYN054BHBM3 46/// ///// 11042 40285 57010 90600 222// 00031=
0088994971999992020012207004+42350-071050FM-13+000099999V0209999C000019999999N999999999-00431+99999102851ADDMD1610081+9999SA1+0321REMSYN054BHBM3 46/// ///// 11043 40285 56008 90700 222// 00032=
0088994971999992020012208004+42350-071050FM-13+000099999V0209999C000019999999N999999999-00451+99999102881ADDMD1510001+9999SA1+0321REMSYN054BHBM3 46/// ///// 11045 40288 55000 90800 222// 00032=
0088994971999992020012209004+42350-071050FM-13+000099999V0209999C000019999999N999999999-00451+99999102821ADDMD1810031+9999SA1+0331REMSYN054BHBM3 46/// ///// 11045 40282 58003 90900 222// 00033=
0088994971999992020012210004+42350-071050FM-13+000099999V0209999C000019999999N999999999-00461+99999102821ADDMD1810031+9999SA1+0321REMSYN054BHBM3 46/// ///// 11046 40282 58003 91000 222// 00032=
0088994971999992020012211004+42350-071050FM-13+000099999V0209999C000019999999N999999999-00461+99999102841ADDMD1610041+9999SA1+0321REMSYN054BHBM3 46/// ///// 11046 40284 56004 91100 222// 00032=
0088994971999992020012212004+42350-071050FM-13+000099999V0209999C000019999999N999999999-00481+99999102931ADDMD1310111+9999SA1+0321REMSYN054BHBM3 46/// ///// 11048 40293 53011 91200 222// 00032=
0088994971999992020012213004+42350-071050FM-13+000099999V0209999C000019999999N999999999-00431+99999102971ADDMD1310151+9999SA1+0321REMSYN054BHBM3 46/// ///// 11043 40297 53015 91300 222// 00032=
0088994971999992020012214004+42350-071050FM-13+000099999V0209999C000019999999N999999999-00191+99999103011ADDMD1110171+9999SA1+0321REMSYN054BHBM3 46/// ///// 11019 40301 51017 91400 222// 00032=
0088994971999992020012215004+42350-071050FM-13+000099999V0209999C000019999999N999999999-00121+99999103021ADDMD1110091+9999SA1+0321REMSYN054BHBM3 46/// ///// 11012 40302 51009 91500 222// 00032=
0088994971999992020012216004+42350-071050FM-13+000099999V0209999C000019999999N999999999+00011+99999102981ADDMD1990001+9999SA1+0321REMSYN054BHBM3 46/// ///// 10001 40298 50000 91600 222// 00032=
0088994971999992020012217004+42350-071050FM-13+000099999V0209999C000019999999N999999999+00041+99999102891ADDMD1810121+9999SA1+0321REMSYN054BHBM3 46/// ///// 10004 40289 58012 91700 222// 00032=
0088994971999992020012218004+42350-071050FM-13+000099999V0209999C000019999999N999999999+00141+99999102801ADDMD1810221+9999SA1+0321REMSYN054BHBM3 46/// ///// 10014 40280 58022 91800 222// 00032=
0088994971999992020012219004+42350-071050FM-13+000099999V0209999C000019999999N999999999+00151+99999102781ADDMD1610201+9999SA1+0341REMSYN054BHBM3 46/// ///// 10015 40278 56020 91900 222// 00034=
0088994971999992020012220004+42350-071050FM-13+000099999V0209999C000019999999N999999999+00211+99999102811ADDMD1510081+9999SA1+0341REMSYN054BHBM3 46/// ///// 10021 40281 55008 92000 222// 00034=
0088994971999992020012221004+42350-071050FM-13+000099999V0209999C000019999999N999999999+00221+99999102811ADDMD1410001+9999SA1+0351REMSYN054BHBM3 46/// ///// 10022 40281 54000 92100 222// 00035=
0088994971999992020012222004+42350-071050FM-13+000099999V0209999C000019999999N999999999+00201+99999102851ADDMD1310071+9999SA1+0341REMSYN054BHBM3 46/// ///// 10020 40285 53007 92200 222// 00034=
