0068994971999992019010100004+42350-071050FM-13+000099999V0209999C000019999999N999999999+00461+99999102481ADDMD1810041+9999REMSYN042BHBM3 46/// ///// 10046 40248 58004 90000=
0068994971999992019010101004+42350-071050FM-13+000099999V0209999C000019999999N999999999+00361+99999102311ADDMD1810181+9999REMSYN042BHBM3 46/// ///// 10036 40231 58018 90100=
0068994971999992019010102004+42350-071050FM-13+000099999V0209999C000019999999N999999999+00281+99999102061ADDMD1810471+9999REMSYN042BHBM3 46/// ///// 10028 40206 58047 90200=
0068994971999992019010103004+42350-071050FM-13+000099999V0209999C000019999999N999999999+00251+99999101881ADDMD1810601+9999REMSYN042BHBM3 46/// ///// 10025 40188 58060 90300=
0068994971999992019010104004+42350-071050FM-13+000099999V0209999C000019999999N999999999+00281+99999101721ADDMD1610591+9999REMSYN042BHBM3 46/// ///// 10028 40172 56059 90400=
0068994971999992019010105004+42350-071050FM-13+000099999V0209999C000019999999N999999999+00331+99999101411ADDMD1810651+9999REMSYN042BHBM3 46/// ///// 10033 40141 58065 90500=
0068994971999992019010106004+42350-071050FM-13+000099999V0209999C000019999999N999999999+00431+99999101201ADDMD1810681+9999REMSYN042BHBM3 46/// ///// 10043 40120 58068 90600=
0068994971999992019010107004+42350-071050FM-13+000099999V0209999C000019999999N999999999+00541+99999100901ADDMD1610821+9999REMSYN042BHBM3 46/// ///// 10054 40090 56082 90700=
0068994971999992019010108004+42350-071050FM-13+000099999V0209999C000019999999N999999999+00591+99999100431ADDMD1810981+9999REMSYN042BHBM3 46/// ///// 10059 40043 58098 90800=
0068994971999992019010109004+42350-071050FM-13+000099999V0209999C000019999999N999999999+00771+99999100131ADDMD1711071+9999REMSYN042BHBM3 46/// ///// 10077 40013 57107 90900=
0068994971999992019010110004+42350-071050FM-13+000099999V0209999C000019999999N999999999+00851+99999099901ADDMD1611001+9999REMSYN042BHBM3 46/// ///// 10085 49990 56100 91000=
0068994971999992019010111004+42350-071050FM-13+000099999V0209999C000019999999N999999999+01021+99999099761ADDMD1610671+9999REMSYN042BHBM3 46/// ///// 10102 49976 56067 91100=
0068994971999992019010112004+42350-071050FM-13+000099999V0209999C000019999999N999999999+01221+99999099742ADDMD1610391+9999REMSYN042BHBM3 46/// ///// 10122 49974 56039 91200=
0068994971999992019010113004+42350-071050FM-13+000099999V0209999C000019999999N999999999+01231+99999099812ADDMD1510091+9999REMSYN042BHBM3 46/// ///// 10123 49981 55009 91300=
0068994971999992019010114004+42350-071050FM-13+000099999V0209999C000019999999N999999999+01291+99999099822ADDMD1210061+9999REMSYN042BHBM3 46/// ///// 10129 49982 52006 91400=
0068994971999992019010115004+42350-071050FM-13+000099999V0209999C000019999999N999999999+01381+99999099921ADDMD1310181+9999REMSYN042BHBM3 46/// ///// 10138 49992 53018 91500=
0068994971999992019010116004+42350-071050FM-13+000099999V0209999C000019999999N999999999+01381+99999100011ADDMD1310201+9999REMSYN042BHBM3 46/// ///// 10138 40001 53020 91600=
0068994971999992019010117004+42350-071050FM-13+000099999V0209999C000019999999N999999999+01271+99999100151ADDMD1310331+9999REMSYN042BHBM3 46/// ///// 10127 40015 53033 91700=
0068994971999992019010118004+42350-071050FM-13+000099999V0209999C000019999999N999999999+01211+99999100321ADDMD1310401+9999REMSYN042BHBM3 46/// ///// 10121 40032 53040 91800=
0068994971999992019010119004+42350-071050FM-13+000099999V0209999C000019999999N999999999+01161+99999100461ADDMD1210451+9999REMSYN042BHBM3 46/// ///// 10116 40046 52045 91900=
0068994971999992019010120004+42350-071050FM-13+000099999V0209999C000019999999N999999999+01041+99999100681ADDMD1310531+9999REMSYN042BHBM3 46/// ///// 10104 40068 53053 92000=
0068994971999992019010121004+42350-071050FM-13+000099999V0209999C000019999999N999999999+00861+99999100861ADDMD1310541+9999REMSYN042BHBM3 46/// ///// 10086 40086 53054 92100=
0068994971999992019010122004+42350-071050FM-13+000099999V0209999C000019999999N999999999+00691+99999101091ADDMD1310631+9999REMSYN042BHBM3 46/// ///// 10069 40109 53063 92200=
0068994971999992019010123004+42350-071050FM-13+000099999V0209999C000019999999N999999999+00611+99999101291ADDMD1310611+9999REMSYN042BHBM3 46/// ///// 10061 40129 53061 92300=
0068994971999992019010200004+42350-071050FM-13+000099999V0209999C000019999999N999999999+00521+99999101441ADDMD1110581+9999REMSYN042BHBM3 46/// ///// 10052 40144 51058 90000=
0068994971999992019010201004+42350-071050FM-13+000099999V0209999C000019999999N999999999+00451+99999101591ADDMD1110501+9999REMSYN042BHBM3 46/// ///// 10045 40159 51050 90100=
0068994971999992019010202004+42350-071050FM-13+000099999V0209999C000019999999N999999999+00351+99999101711ADDMD1110421+9999REMSYN042BHBM3 46/// ///// 10035 40171 51042 90200=
0068994971999992019010203004+42350-071050FM-13+000099999V0209999C000019999999N999999999+00281+99999101821ADDMD1110381+9999REMSYN042BHBM3 46/// ///// 10028 40182 51038 90300=
0068994971999992019010204004+42350-071050FM-13+000099999V0209999C000019999999N999999999+00161+99999101891ADDMD1110301+9999REMSYN042BHBM3 46/// ///// 10016 40189 51030 90400=
0068994971999992019010205004+42350-071050FM-13+000099999V0209999C000019999999N999999999+00081+99999101971ADDMD1110261+9999REMSYN042BHBM3 46/// ///// 10008 40197 51026 90500=
0045994971999992019010206004+42350-071050FM-13+000099999V0209999C000019999999N999999999+00041+99999102061REMSYN036BHBM3 46/// ///// 10004 40206 90542=
0045994971999992019010207004+42350-071050FM-13+000099999V0209999C000019999999N999999999+00001+99999102161REMSYN036BHBM3 46/// ///// 10000 40216 90642=
0045994971999992019010208004+42350-071050FM-13+000099999V0209999C000019999999N999999999-00071+99999102231REMSYN036BHBM3 46/// ///// 11007 40223 90742=
0045994971999992019010209004+42350-071050FM-13+000099999V0209999C000019999999N999999999-00131+99999102321REMSYN036BHBM3 46/// ///// 11013 40232 90848=
0068994971999992019010210004+42350-071050FM-13+000099999V0209999C000019999999N999999999-00161+99999102361ADDMD1110181+9999REMSYN042BHBM3 46/// ///// 11016 40236 51018 91000=
0045994971999992019010211004+42350-071050FM-13+000099999V0209999C000019999999N999999999-00191+99999102491REMSYN036BHBM3 46/// ///// 11019 40249 91048=
0068994971999992019010212004+42350-071050FM-13+000099999V0209999C000019999999N999999999-00211+99999102671ADDMD1310331+9999REMSYN042BHBM3 46/// ///// 11021 40267 53033 91200=
0068994971999992019010213004+42350-071050FM-13+000099999V0209999C000019999999N999999999-00221+99999102741ADDMD1110381+9999REMSYN042BHBM3 46/// ///// 11022 40274 51038 91300=
0068994971999992019010214004+42350-071050FM-13+000099999V0209999C000019999999N999999999-00131+99999102771ADDMD1110251+9999REMSYN042BHBM3 46/// ///// 11013 40277 51025 91400=
0068994971999992019010215004+42350-071050FM-13+000099999V0209999C000019999999N999999999-00131+99999102801ADDMD1110131+9999REMSYN042BHBM3 46/// ///// 11013 40280 51013 91500=
0068994971999992019010216004+42350-071050FM-13+000099999V0209999C000019999999N999999999+00001+99999102731ADDMD1990001+9999REMSYN042BHBM3 46/// ///// 10000 40273 50000 91600=
0068994971999992019010217004+42350-071050FM-13+000099999V0209999C000019999999N999999999+00021+99999102651ADDMD1810121+9999REMSYN042BHBM3 46/// ///// 10002 40265 58012 91700=
0068994971999992019010218004+42350-071050FM-13+000099999V0209999C000019999999N999999999+00081+99999102661ADDMD1610141+9999REMSYN042BHBM3 46/// ///// 10008 40266 56014 91800=
0068994971999992019010219004+42350-071050FM-13+000099999V0209999C000019999999N999999999+00111+99999102621ADDMD1610111+9999REMSYN042BHBM3 46/// ///// 10011 40262 56011 91900=
0068994971999992019010220004+42350-071050FM-13+000099999V0209999C000019999999N999999999+00141+99999102601ADDMD1710051+9999REMSYN042BHBM3 46/// ///// 10014 40260 57005 92000=
0068994971999992019010221004+42350-071050FM-13+000099999V0209999C000019999999N999999999+00061+99999102601ADDMD1610061+9999REMSYN042BHBM3 46/// ///// 10006 40260 56006 92100=
0068994971999992019010222004+42350-071050FM-13+000099999V0209999C000019999999N999999999+00061+99999102581ADDMD1710041+9999REMSYN042BHBM3 46/// ///// 10006 40258 57004 92200=
0068994971999992019010223004+42350-071050FM-13+000099999V0209999C000019999999N999999999+00031+99999102511ADDMD1810091+9999REMSYN042BHBM3 46/// ///// 10003 40251 58009 92300=
0068994971999992019010300004+42350-071050FM-13+000099999V0209999C000019999999N999999999-00061+99999102571ADDMD1510031+9999REMSYN042BHBM3 46/// ///// 11006 40257 55003 90000=
0045994971999992019010301004+42350-071050FM-13+000099999V0209999C000019999999N999999999-00061+99999102511REMSYN036BHBM3 46/// ///// 11006 40251 90036=
0068994971999992019010302004+42350-071050FM-13+000099999V0209999C000019999999N999999999-00071+99999102401ADDMD1810111+9999REMSYN042BHBM3 46/// ///// 11007 40240 58011 90200=
0068994971999992019010303004+42350-071050FM-13+000099999V0209999C000019999999N999999999-00061+99999102281ADDMD1810291+9999REMSYN042BHBM3 46/// ///// 11006 40228 58029 90300=
0068994971999992019010304004+42350-071050FM-13+000099999V0209999C000019999999N999999999-00041+99999102261ADDMD1610261+9999REMSYN042BHBM3 46/// ///// 11004 40226 56026 90400=
0068994971999992019010305004+42350-071050FM-13+000099999V0209999C000019999999N999999999-00041+99999102201ADDMD1610201+9999REMSYN042BHBM3 46/// ///// 11004 40220 56020 90500=
0068994971999992019010306004+42350-071050FM-13+000099999V0209999C000019999999N999999999-00011+99999102031ADDMD1810251+9999REMSYN042BHBM3 46/// ///// 11001 40203 58025 90600=
0045994971999992019010307004+42350-071050FM-13+000099999V0209999C000019999999N999999999+00061+99999101891REMSYN036BHBM3 46/// ///// 10006 40189 90642=
0068994971999992019010308004+42350-071050FM-13+000099999V0209999C000019999999N999999999+00131+99999101741ADDMD1610461+9999REMSYN042BHBM3 46/// ///// 10013 40174 56046 90800=
0068994971999992019010309004+42350-071050FM-13+000099999V0209999C000019999999N999999999+00131+99999101471ADDMD1810561+9999REMSYN042BHBM3 46/// ///// 10013 40147 58056 90900=
0068994971999992019010310004+42350-071050FM-13+000099999V0209999C000019999999N999999999+00151+99999101321ADDMD1810491+9999REMSYN042BHBM3 46/// ///// 10015 40132 58049 91000=
0068994971999992019010311004+42350-071050FM-13+000099999V0209999C000019999999N999999999+00171+99999101181ADDMD1610561+9999REMSYN042BHBM3 46/// ///// 10017 40118 56056 91100=
0045994971999992019010312004+42350-071050FM-13+000099999V0209999C000019999999N999999999+00211+99999101171REMSYN036BHBM3 46/// ///// 10021 40117 91142=
0045994971999992019010313004+42350-071050FM-13+000099999V0209999C000019999999N999999999+00291+99999101161REMSYN036BHBM3 46/// ///// 10029 40116 91242=
0068994971999992019010314004+42350-071050FM-13+000099999V0209999C000019999999N999999999+00311+99999101151ADDMD1810031+9999REMSYN042BHBM3 46/// ///// 10031 40115 58003 91400=
0068994971999992019010315004+42350-071050FM-13+000099999V0209999C000019999999N999999999+00341+99999101151ADDMD1710031+9999REMSYN042BHBM3 46/// ///// 10034 40115 57003 91500=
0068994971999992019010316004+42350-071050FM-13+000099999V0209999C000019999999N999999999+00541+99999101021ADDMD1810161+9999REMSYN042BHBM3 46/// ///// 10054 40102 58016 91600=
0068994971999992019010317004+42350-071050FM-13+000099999V0209999C000019999999N999999999+00651+99999100931ADDMD1810221+9999REMSYN042BHBM3 46/// ///// 10065 40093 58022 91700=
0068994971999992019010318004+42350-071050FM-13+000099999V0209999C000019999999N999999999+00681+99999100951ADDMD1610201+9999REMSYN042BHBM3 46/// ///// 10068 40095 56020 91800=
0068994971999992019010319004+42350-071050FM-13+000099999V0209999C000019999999N999999999+00701+99999100971ADDMD1610051+9999REMSYN042BHBM3 46/// ///// 10070 40097 56005 91900=
0068994971999992019010320004+42350-071050FM-13+000099999V0209999C000019999999N999999999+00661+99999101061ADDMD1310131+9999REMSYN042BHBM3 46/// ///// 10066 40106 53013 92000=
0068994971999992019010321004+42350-071050FM-13+000099999V0209999C000019999999N999999999+00621+99999101131ADDMD1310181+9999REMSYN042BHBM3 46/// ///// 10062 40113 53018 92100=
0068994971999992019010322004+42350-071050FM-13+000099999V0209999C000019999999N999999999+00531+99999101221ADDMD1210251+9999REMSYN042BHBM3 46/// ///// 10053 40122 52025 92200=
0068994971999992019010323004+42350-071050FM-13+000099999V0209999C000019999999N999999999+00461+99999101301ADDMD1310241+9999REMSYN042BHBM3 46/// ///// 10046 40130 53024 92300=
0068994971999992019010400004+42350-071050FM-13+000099999V0209999C000019999999N999999999+00421+99999101371ADDMD1110241+9999REMSYN042BHBM3 46/// ///// 10042 40137 51024 90000=
0068994971999992019010401004+42350-071050FM-13+000099999V0209999C000019999999N999999999+00391+99999101431ADDMD1110211+9999REMSYN042BHBM3 46/// ///// 10039 40143 51021 90100=
0068994971999992019010402004+42350-071050FM-13+000099999V0209999C000019999999N999999999+00341+99999101471ADDMD1110171+9999REMSYN042BHBM3 46/// ///// 10034 40147 51017 90200=
0068994971999992019010403004+42350-071050FM-13+000099999V0209999C000019999999N999999999+00341+99999101441ADDMD1990071+9999REMSYN042BHBM3 46/// ///// 10034 40144 50007 90300=
0068994971999992019010404004+42350-071050FM-13+000099999V0209999C000019999999N999999999+00351+99999101431ADDMD1990001+9999REMSYN042BHBM3 46/// ///// 10035 40143 50000 90400=
0068994971999992019010405004+42350-071050FM-13+000099999V0209999C000019999999N999999999+00321+99999101461ADDMD1510001+9999REMSYN042BHBM3 46/// ///// 10032 40146 55000 90500=
0068994971999992019010406004+42350-071050FM-13+000099999V0209999C000019999999N999999999+00321+99999101491ADDMD1310051+9999REMSYN042BHBM3 46/// ///// 10032 40149 53005 90600=
0068994971999992019010407004+42350-071050FM-13+000099999V0209999C000019999999N999999999+00311+99999101531ADDMD1310101+9999REMSYN042BHBM3 46/// ///// 10031 40153 53010 90700=
0068994971999992019010408004+42350-071050FM-13+000099999V0209999C000019999999N999999999+00281+99999101501ADDMD1990041+9999REMSYN042BHBM3 46/// ///// 10028 40150 50004 90800=
0068994971999992019010409004+42350-071050FM-13+000099999V0209999C000019999999N999999999+00271+99999101421ADDMD1810071+9999REMSYN042BHBM3 46/// ///// 10027 40142 58007 90900=
0068994971999992019010410004+42350-071050FM-13+000099999V0209999C000019999999N999999999+00251+99999101401ADDMD1610131+9999REMSYN042BHBM3 46/// ///// 10025 40140 56013 91000=
0068994971999992019010411004+42350-071050FM-13+000099999V0209999C000019999999N999999999+00241+99999101441ADDMD1510061+9999REMSYN042BHBM3 46/// ///// 10024 40144 55006 91100=
0068994971999992019010412004+42350-071050FM-13+000099999V0209999C000019999999N999999999+00201+99999101451ADDMD1210031+9999REMSYN042BHBM3 46/// ///// 10020 40145 52003 91200=
0068994971999992019010413004+42350-071050FM-13+000099999V0209999C000019999999N999999999+00181+99999101441ADDMD1110041+9999REMSYN042BHBM3 46/// ///// 10018 40144 51004 91300=
0068994971999992019010414004+42350-071050FM-13+000099999V0209999C000019999999N999999999+00301+99999101451ADDMD1410001+9999REMSYN042BHBM3 46/// ///// 10030 40145 54000 91400=
0068994971999992019010415004+42350-071050FM-13+000099999V0209999C000019999999N999999999+00411+99999101321ADDMD1810131+9999REMSYN042BHBM3 46/// ///// 10041 40132 58013 91500=
0068994971999992019010416004+42350-071050FM-13+000099999V0209999C000019999999N999999999+00511+99999101181ADDMD1810261+9999REMSYN042BHBM3 46/// ///// 10051 40118 58026 91600=
0068994971999992019010417004+42350-071050FM-13+000099999V0209999C000019999999N999999999+00641+99999101091ADDMD1610361+9999REMSYN042BHBM3 46/// ///// 10064 40109 56036 91700=
0068994971999992019010418004+42350-071050FM-13+000099999V0209999C000019999999N999999999+00711+99999101041ADDMD1610281+9999REMSYN042BHBM3 46/// ///// 10071 40104 56028 91800=
0068994971999992019010419004+42350-071050FM-13+000099999V0209999C000019999999N999999999+00721+99999101001ADDMD1610181+9999REMSYN042BHBM3 46/// ///// 10072 40100 56018 91900=
0068994971999992019010420004+42350-071050FM-13+000099999V0209999C000019999999N999999999+00751+99999100981ADDMD1610111+9999REMSYN042BHBM3 46/// ///// 10075 40098 56011 92000=
0068994971999992019010421004+42350-071050FM-13+000099999V0209999C000019999999N999999999+00761+99999100991ADDMD1610051+9999REMSYN042BHBM3 46/// ///// 10076 40099 56005 92100=
0068994971999992019010422004+42350-071050FM-13+000099999V0209999C000019999999N999999999+00731+99999100961ADDMD1810041+9999REMSYN042BHBM3 46/// ///// 10073 40096 58004 92200=
0068994971999992019010423004+42350-071050FM-13+000099999V0209999C000019999999N999999999+00681+99999100991ADDMD1510001+9999REMSYN042BHBM3 46/// ///// 10068 40099 55000 92300=
0068994971999992019010500004+42350-071050FM-13+000099999V0209999C000019999999N999999999+00611+99999101031ADDMD1310041+9999REMSYN042BHBM3 46/// ///// 10061 40103 53004 90000=
0068994971999992019010501004+42350-071050FM-13+000099999V0209999C000019999999N999999999+00571+99999101021ADDMD1110061+9999REMSYN042BHBM3 46/// ///// 10057 40102 51006 90100=
0068994971999992019010502004+42350-071050FM-13+000099999V0209999C000019999999N999999999+00541+99999101001ADDMD1990001+9999REMSYN042BHBM3 46/// ///// 10054 40100 50000 90200=
0068994971999992019010503004+42350-071050FM-13+000099999V0209999C000019999999N999999999+00521+99999100951ADDMD1810081+9999REMSYN042BHBM3 46/// ///// 10052 40095 58008 90300=
0068994971999992019010504004+42350-071050FM-13+000099999V0209999C000019999999N999999999+00481+99999100881ADDMD1810141+9999REMSYN042BHBM3 46/// ///// 10048 40088 58014 90400=
0068994971999992019010505004+42350-071050FM-13+000099999V0209999C000019999999N999999999+00491+99999100801ADDMD1810201+9999REMSYN042BHBM3 46/// ///// 10049 40080 58020 90500=
0068994971999992019010506004+42350-071050FM-13+000099999V0209999C000019999999N999999999+00441+99999100771ADDMD1610181+9999REMSYN042BHBM3 46/// ///// 10044 40077 56018 90600=
0068994971999992019010507004+42350-071050FM-13+000099999V0209999C000019999999N999999999+00441+99999100731ADDMD1610151+9999REMSYN042BHBM3 46/// ///// 10044 40073 56015 90700=
0068994971999992019010508004+42350-071050FM-13+000099999V0209999C000019999999N999999999+00471+99999100711ADDMD1610091+9999REMSYN042BHBM3 46/// ///// 10047 40071 56009 90800=
0068994971999992019010509004+42350-071050FM-13+000099999V0209999C000019999999N999999999+00461+99999100641ADDMD1810131+9999REMSYN042BHBM3 46/// ///// 10046 40064 58013 90900=
0068994971999992019010510004+42350-071050FM-13+000099999V0209999C000019999999N999999999+00471+99999100501ADDMD1810231+9999REMSYN042BHBM3 46/// ///// 10047 40050 58023 91000=
0068994971999992019010511004+42350-071050FM-13+000099999V0209999C000019999999N999999999+00461+99999100501ADDMD1610211+9999REMSYN042BHBM3 46/// ///// 10046 40050 56021 91100=
0068994971999992019010512004+42350-071050FM-13+000099999V0209999C000019999999N999999999+00491+99999100461ADDMD1610181+9999REMSYN042BHBM3 46/// ///// 10049 40046 56018 91200=
0068994971999992019010513004+42350-071050FM-13+000099999V0209999C000019999999N999999999+00441+99999100481ADDMD1410001+9999REMSYN042BHBM3 46/// ///// 10044 40048 54000 91300=
0068994971999992019010514004+42350-071050FM-13+000099999V0209999C000019999999N999999999+00471+99999100501ADDMD1510001+9999REMSYN042BHBM3 46/// ///// 10047 40050 55000 91400=
0068994971999992019010515004+42350-071050FM-13+000099999V0209999C000019999999N999999999+00501+99999100411ADDMD1810051+9999REMSYN042BHBM3 46/// ///// 10050 40041 58005 91500=
0068994971999992019010516004+42350-071050FM-13+000099999V0209999C000019999999N999999999+00501+99999100241ADDMD1810241+9999REMSYN042BHBM3 46/// ///// 10050 40024 58024 91600=
0068994971999992019010517004+42350-071050FM-13+000099999V0209999C000019999999N999999999+00491+99999100091ADDMD1810411+9999REMSYN042BHBM3 46/// ///// 10049 40009 58041 91700=
0068994971999992019010518004+42350-071050FM-13+000099999V0209999C000019999999N999999999+00481+99999100001ADDMD1610411+9999REMSYN042BHBM3 46/// ///// 10048 40000 56041 91800=
0068994971999992019010519004+42350-071050FM-13+000099999V0209999C000019999999N999999999+00451+99999099861ADDMD1610381+9999REMSYN042BHBM3 46/// ///// 10045 49986 56038 91900=
0068994971999992019010520004+42350-071050FM-13+000099999V0209999C000019999999N999999999+00411+99999099831ADDMD1610261+9999REMSYN042BHBM3 46/// ///// 10041 49983 56026 92000=
0068994971999992019010521004+42350-071050FM-13+000099999V0209999C000019999999N999999999+00401+99999099861ADDMD1510141+9999REMSYN042BHBM3 46/// ///// 10040 49986 55014 92100=
0068994971999992019010522004+42350-071050FM-13+000099999V0209999C000019999999N999999999+00381+99999099871ADDMD1510001+9999REMSYN042BHBM3 46/// ///// 10038 49987 55000 92200=
0068994971999992019010523004+42350-071050FM-13+000099999V0209999C000019999999N999999999+00361+99999099951ADDMD1310121+9999REMSYN042BHBM3 46/// ///// 10036 49995 53012 92300=
0068994971999992019010600004+42350-071050FM-13+000099999V0209999C000019999999N999999999+00371+99999100021ADDMD1310161+9999REMSYN042BHBM3 46/// ///// 10037 40002 53016 90000=
0068994971999992019010601004+42350-071050FM-13+000099999V0209999C000019999999N999999999+00351+99999100071ADDMD1110201+9999REMSYN042BHBM3 46/// ///// 10035 40007 51020 90100=
0068994971999992019010602004+42350-071050FM-13+000099999V0209999C000019999999N999999999+00361+99999100091ADDMD1110141+9999REMSYN042BHBM3 46/// ///// 10036 40009 51014 90200=
0068994971999992019010603004+42350-071050FM-13+000099999V0209999C000019999999N999999999+00351+99999100061ADDMD1990041+9999REMSYN042BHBM3 46/// ///// 10035 40006 50004 90300=
0068994971999992019010604004+42350-071050FM-13+000099999V0209999C000019999999N999999999+00321+99999100151ADDMD1310081+9999REMSYN042BHBM3 46/// ///// 10032 40015 53008 90400=
0068994971999992019010605004+42350-071050FM-13+000099999V0209999C000019999999N999999999+00331+99999100221ADDMD1310131+9999REMSYN042BHBM3 46/// ///// 10033 40022 53013 90500=
0068994971999992019010606004+42350-071050FM-13+000099999V0209999C000019999999N999999999+00291+99999100291ADDMD1110231+9999REMSYN042BHBM3 46/// ///// 10029 40029 51023 90600=
0068994971999992019010607004+42350-071050FM-13+000099999V0209999C000019999999N999999999+00271+99999100401ADDMD1310251+9999REMSYN042BHBM3 46/// ///// 10027 40040 53025 90700=
0068994971999992019010608004+42350-071050FM-13+000099999V0209999C000019999999N999999999+00281+99999100471ADDMD1210251+9999REMSYN042BHBM3 46/// ///// 10028 40047 52025 90800=
0068994971999992019010609004+42350-071050FM-13+000099999V0209999C000019999999N999999999+00271+99999100481ADDMD1110191+9999REMSYN042BHBM3 46/// ///// 10027 40048 51019 90900=
0068994971999992019010610004+42350-071050FM-13+000099999V0209999C000019999999N999999999+00281+99999100521ADDMD1110121+9999REMSYN042BHBM3 46/// ///// 10028 40052 51012 91000=
0068994971999992019010611004+42350-071050FM-13+000099999V0209999C000019999999N999999999+00281+99999100571ADDMD1310101+9999REMSYN042BHBM3 46/// ///// 10028 40057 53010 91100=
0068994971999992019010612004+42350-071050FM-13+000099999V0209999C000019999999N999999999+00261+99999100631ADDMD1310151+9999REMSYN042BHBM3 46/// ///// 10026 40063 53015 91200=
0068994971999992019010613004+42350-071050FM-13+000099999V0209999C000019999999N999999999+00261+99999100741ADDMD1310221+9999REMSYN042BHBM3 46/// ///// 10026 40074 53022 91300=
0045994971999992019010614004+42350-071050FM-13+000099999V0209999C000019999999N999999999+00301+99999100821REMSYN036BHBM3 46/// ///// 10030 40082 91348=
0068994971999992019010615004+42350-071050FM-13+000099999V0209999C000019999999N999999999+00421+99999100861ADDMD1110231+9999REMSYN042BHBM3 46/// ///// 10042 40086 51023 91500=
0068994971999992019010616004+42350-071050FM-13+000099999V0209999C000019999999N999999999+00581+99999100821ADDMD1990081+9999REMSYN042BHBM3 46/// ///// 10058 40082 50008 91600=
0068994971999992019010617004+42350-071050FM-13+000099999V0209999C000019999999N999999999+00641+99999100791ADDMD1810041+9999REMSYN042BHBM3 46/// ///// 10064 40079 58004 91700=
0068994971999992019010618004+42350-071050FM-13+000099999V0209999C000019999999N999999999+00691+99999100801ADDMD1610061+9999REMSYN042BHBM3 46/// ///// 10069 40080 56006 91800=
0068994971999992019010619004+42350-071050FM-13+000099999V0209999C000019999999N999999999+00711+99999100851ADDMD1310031+9999REMSYN042BHBM3 46/// ///// 10071 40085 53003 91900=
0068994971999992019010620004+42350-071050FM-13+000099999V0209999C000019999999N999999999+00651+99999100971ADDMD1310181+9999REMSYN042BHBM3 46/// ///// 10065 40097 53018 92000=
0068994971999992019010621004+42350-071050FM-13+000099999V0209999C000019999999N999999999+00531+99999101131ADDMD1310331+9999REMSYN042BHBM3 46/// ///// 10053 40113 53033 92100=
0068994971999992019010622004+42350-071050FM-13+000099999V0209999C000019999999N999999999+00381+99999101301ADDMD1310451+9999REMSYN042BHBM3 46/// ///// 10038 40130 53045 92200=
0068994971999992019010623004+42350-071050FM-13+000099999V0209999C000019999999N999999999+00211+99999101501ADDMD1310531+9999REMSYN042BHBM3 46/// ///// 10021 40150 53053 92300=
0068994971999992019010700004+42350-071050FM-13+000099999V0209999C000019999999N999999999+00101+99999101671ADDMD1210541+9999REMSYN042BHBM3 46/// ///// 10010 40167 52054 90000=
0068994971999992019010701004+42350-071050FM-13+000099999V0209999C000019999999N999999999-00051+99999101841ADDMD1110541+9999REMSYN042BHBM3 46/// ///// 11005 40184 51054 90100=
0068994971999992019010702004+42350-071050FM-13+000099999V0209999C000019999999N999999999-00131+99999101921ADDMD1110421+9999REMSYN042BHBM3 46/// ///// 11013 40192 51042 90200=
0068994971999992019010703004+42350-071050FM-13+000099999V0209999C000019999999N999999999-00181+99999101991ADDMD1110321+9999REMSYN042BHBM3 46/// ///// 11018 40199 51032 90300=
0068994971999992019010704004+42350-071050FM-13+000099999V0209999C000019999999N999999999-00321+99999102111ADDMD1310271+9999REMSYN042BHBM3 46/// ///// 11032 40211 53027 90400=
0068994971999992019010705004+42350-071050FM-13+000099999V0209999C000019999999N999999999-00421+99999102241ADDMD1310321+9999REMSYN042BHBM3 46/// ///// 11042 40224 53032 90500=
0068994971999992019010706004+42350-071050FM-13+000099999V0209999C000019999999N999999999-00481+99999102301ADDMD1110311+9999REMSYN042BHBM3 46/// ///// 11048 40230 51031 90600=
0068994971999992019010707004+42350-071050FM-13+000099999V0209999C000019999999N999999999-00501+99999102371ADDMD1110261+9999REMSYN042BHBM3 46/// ///// 11050 40237 51026 90700=
0068994971999992019010708004+42350-071050FM-13+000099999V0209999C000019999999N999999999-00551+99999102461ADDMD1310221+9999REMSYN042BHBM3 46/// ///// 11055 40246 53022 90800=
0068994971999992019010709004+42350-071050FM-13+000099999V0209999C000019999999N999999999-00581+99999102601ADDMD1310301+9999REMSYN042BHBM3 46/// ///// 11058 40260 53030 90900=
0068994971999992019010710004+42350-071050FM-13+000099999V0209999C000019999999N999999999-00641+99999102671ADDMD1110301+9999REMSYN042BHBM3 46/// ///// 11064 40267 51030 91000=
0068994971999992019010711004+42350-071050FM-13+000099999V0209999C000019999999N999999999-00701+99999102771ADDMD1110311+9999REMSYN042BHBM3 46/// ///// 11070 40277 51031 91100=
0068994971999992019010712004+42350-071050FM-13+000099999V0209999C000019999999N999999999-00741+99999102871ADDMD1310271+9999REMSYN042BHBM3 46/// ///// 11074 40287 53027 91200=
0068994971999992019010713004+42350-071050FM-13+000099999V0209999C000019999999N999999999-00741+99999102991ADDMD1310321+9999REMSYN042BHBM3 46/// ///// 11074 40299 53032 91300=
0068994971999992019010714004+42350-071050FM-13+000099999V0209999C000019999999N999999999-00611+99999103061ADDMD1110291+9999REMSYN042BHBM3 46/// ///// 11061 40306 51029 91400=
0068994971999992019010715004+42350-071050FM-13+000099999V0209999C000019999999N999999999-00501+99999103101ADDMD1110231+9999REMSYN042BHBM3 46/// ///// 11050 40310 51023 91500=
0068994971999992019010716004+42350-071050FM-13+000099999V0209999C000019999999N999999999-00351+99999103081ADDMD1110091+9999REMSYN042BHBM3 46/// ///// 11035 40308 51009 91600=
0068994971999992019010717004+42350-071050FM-13+000099999V0209999C000019999999N999999999-00301+99999102951ADDMD1810111+9999REMSYN042BHBM3 46/// ///// 11030 40295 58011 91700=
0068994971999992019010718004+42350-071050FM-13+000099999V0209999C000019999999N999999999-00281+99999102951ADDMD1710151+9999REMSYN042BHBM3 46/// ///// 11028 40295 57015 91800=
0068994971999992019010719004+42350-071050FM-13+000099999V0209999C000019999999N999999999-00231+99999102971ADDMD1610111+9999REMSYN042BHBM3 46/// ///// 11023 40297 56011 91900=
0068994971999992019010720004+42350-071050FM-13+000099999V0209999C000019999999N999999999-00141+99999102981ADDMD1210031+9999REMSYN042BHBM3 46/// ///// 11014 40298 52003 92000=
0068994971999992019010721004+42350-071050FM-13+000099999V0209999C000019999999N999999999-00171+99999103041ADDMD1310091+9999REMSYN042BHBM3 46/// ///// 11017 40304 53009 92100=
0068994971999992019010722004+42350-071050FM-13+000099999V0209999C000019999999N999999999-00191+99999102981ADDMD1990001+9999REMSYN042BHBM3 46/// ///// 11019 40298 50000 92200=
0068994971999992019010723004+42350-071050FM-13+000099999V0209999C000019999999N999999999-00211+99999103011ADDMD1110031+9999REMSYN042BHBM3 46/// ///// 11021 40301 51003 92300=
0068994971999992019010800004+42350-071050FM-13+000099999V0209999C000019999999N999999999-00241+99999103011ADDMD1610031+9999REMSYN042BHBM3 46/// ///// 11024 40301 56003 90000=
0068994971999992019010801004+42350-071050FM-13+000099999V0209999C000019999999N999999999-00291+99999102911ADDMD1810071+9999REMSYN042BHBM3 46/// ///// 11029 40291 58007 90100=
0068994971999992019010802004+42350-071050FM-13+000099999V0209999C000019999999N999999999-00291+99999102981ADDMD1510031+9999REMSYN042BHBM3 46/// ///// 11029 40298 55003 90200=
0068994971999992019010803004+42350-071050FM-13+000099999V0209999C000019999999N999999999-00261+99999102811ADDMD1810201+9999REMSYN042BHBM3 46/// ///// 11026 40281 58020 90300=
0068994971999992019010804004+42350-071050FM-13+000099999V0209999C000019999999N999999999-00201+99999102791ADDMD1810121+9999REMSYN042BHBM3 46/// ///// 11020 40279 58012 90400=
0068994971999992019010805004+42350-071050FM-13+000099999V0209999C000019999999N999999999-00181+99999102791ADDMD1610191+9999REMSYN042BHBM3 46/// ///// 11018 40279 56019 90500=
0068994971999992019010806004+42350-071050FM-13+000099999V0209999C000019999999N999999999-00171+99999102801ADDMD1410001+9999REMSYN042BHBM3 46/// ///// 11017 40280 54000 90600=
0068994971999992019010807004+42350-071050FM-13+000099999V0209999C000019999999N999999999-00161+99999102821ADDMD1210031+9999REMSYN042BHBM3 46/// ///// 11016 40282 52003 90700=
0068994971999992019010808004+42350-071050FM-13+000099999V0209999C000019999999N999999999-00171+99999102661ADDMD1810131+9999REMSYN042BHBM3 46/// ///// 11017 40266 58013 90800=
0068994971999992019010809004+42350-071050FM-13+000099999V0209999C000019999999N999999999-00161+99999102511ADDMD1810291+9999REMSYN042BHBM3 46/// ///// 11016 40251 58029 90900=
0068994971999992019010810004+42350-071050FM-13+000099999V0209999C000019999999N999999999-00141+99999102321ADDMD1810501+9999REMSYN042BHBM3 46/// ///// 11014 40232 58050 91000=
0068994971999992019010811004+42350-071050FM-13+000099999V0209999C000019999999N999999999-00091+99999102301ADDMD1610361+9999REMSYN042BHBM3 46/// ///// 11009 40230 56036 91100=
0068994971999992019010812004+42350-071050FM-13+000099999V0209999C000019999999N999999999-00041+99999102201ADDMD1610311+9999REMSYN042BHBM3 46/// ///// 11004 40220 56031 91200=
0068994971999992019010813004+42350-071050FM-13+000099999V0209999C000019999999N999999999-00011+99999102131ADDMD1810191+9999REMSYN042BHBM3 46/// ///// 11001 40213 58019 91300=
0068994971999992019010814004+42350-071050FM-13+000099999V0209999C000019999999N999999999+00051+99999102071ADDMD1610231+9999REMSYN042BHBM3 46/// ///// 10005 40207 56023 91400=
0068994971999992019010815004+42350-071050FM-13+000099999V0209999C000019999999N999999999+00141+99999101981ADDMD1810221+9999REMSYN042BHBM3 46/// ///// 10014 40198 58022 91500=
0068994971999992019010816004+42350-071050FM-13+000099999V0209999C000019999999N999999999+00181+99999101801ADDMD1810331+9999REMSYN042BHBM3 46/// ///// 10018 40180 58033 91600=
0068994971999992019010817004+42350-071050FM-13+000099999V0209999C000019999999N999999999+00291+99999101631ADDMD1810441+9999REMSYN042BHBM3 46/// ///// 10029 40163 58044 91700=
0045994971999992019010818004+42350-071050FM-13+000099999V0209999C000019999999N999999999+00391+99999101521REMSYN036BHBM3 46/// ///// 10039 40152 91742=
0045994971999992019010819004+42350-071050FM-13+000099999V0209999C000019999999N999999999+00461+99999101351REMSYN036BHBM3 46/// ///// 10046 40135 91848=
0068994971999992019010820004+42350-071050FM-13+000099999V0209999C000019999999N999999999+00451+99999101221ADDMD1610411+9999REMSYN042BHBM3 46/// ///// 10045 40122 56041 92000=
0068994971999992019010821004+42350-071050FM-13+000099999V0209999C000019999999N999999999+00461+99999101091ADDMD1710371+9999REMSYN042BHBM3 46/// ///// 10046 40109 57037 92100=
0068994971999992019010822004+42350-071050FM-13+000099999V0209999C000019999999N999999999+00471+99999100941ADDMD1810391+9999REMSYN042BHBM3 46/// ///// 10047 40094 58039 92200=
0068994971999992019010823004+42350-071050FM-13+000099999V0209999C000019999999N999999999+00521+99999100881ADDMD1610341+9999REMSYN042BHBM3 46/// ///// 10052 40088 56034 92300=
0068994971999992019010900004+42350-071050FM-13+000099999V0209999C000019999999N999999999+00501+99999100761ADDMD1610331+9999REMSYN042BHBM3 46/// ///// 10050 40076 56033 90000=
0068994971999992019010901004+42350-071050FM-13+000099999V0209999C000019999999N999999999+00381+99999100621ADDMD1810321+9999REMSYN042BHBM3 46/// ///// 10038 40062 58032 90100=
0068994971999992019010902004+42350-071050FM-13+000099999V0209999C000019999999N999999999+00391+99999100591ADDMD1610291+9999REMSYN042BHBM3 46/// ///// 10039 40059 56029 90200=
0068994971999992019010903004+42350-071050FM-13+000099999V0209999C000019999999N999999999+00171+99999100421ADDMD1810341+9999REMSYN042BHBM3 46/// ///// 10017 40042 58034 90300=
0068994971999992019010904004+42350-071050FM-13+000099999V0209999C000019999999N999999999+00171+99999100221ADDMD1810401+9999REMSYN042BHBM3 46/// ///// 10017 40022 58040 90400=
0068994971999992019010905004+42350-071050FM-13+000099999V0209999C000019999999N999999999+00221+99999100121ADDMD1610471+9999REMSYN042BHBM3 46/// ///// 10022 40012 56047 90500=
0068994971999992019010906004+42350-071050FM-13+000099999V0209999C000019999999N999999999+00141+99999100031ADDMD1610391+9999REMSYN042BHBM3 46/// ///// 10014 40003 56039 90600=
0068994971999992019010907004+42350-071050FM-13+000099999V0209999C000019999999N999999999+00111+99999099921ADDMD1810301+9999REMSYN042BHBM3 46/// ///// 10011 49992 58030 90700=
0068994971999992019010908004+42350-071050FM-13+000099999V0209999C000019999999N999999999+00181+99999099821ADDMD1810301+9999REMSYN042BHBM3 46/// ///// 10018 49982 58030 90800=
0068994971999992019010909004+42350-071050FM-13+000099999V0209999C000019999999N999999999+00151+99999099641ADDMD1810391+9999REMSYN042BHBM3 46/// ///// 10015 49964 58039 90900=
0068994971999992019010910004+42350-071050FM-13+000099999V0209999C000019999999N999999999+00181+99999099491ADDMD1810431+9999REMSYN042BHBM3 46/// ///// 10018 49949 58043 91000=
0068994971999992019010911004+42350-071050FM-13+000099999V0209999C000019999999N999999999+00211+99999099391ADDMD1610431+9999REMSYN042BHBM3 46/// ///// 10021 49939 56043 91100=
0068994971999992019010912004+42350-071050FM-13+000099999V0209999C000019999999N999999999+00291+99999099321ADDMD1610321+9999REMSYN042BHBM3 46/// ///// 10029 49932 56032 91200=
0068994971999992019010913004+42350-071050FM-13+000099999V0209999C000019999999N999999999+00461+99999099261ADDMD1610231+9999REMSYN042BHBM3 46/// ///// 10046 49926 56023 91300=
0068994971999992019010914004+42350-071050FM-13+000099999V0209999C000019999999N999999999+00571+99999099231ADDMD1610161+9999REMSYN042BHBM3 46/// ///// 10057 49923 56016 91400=
0068994971999992019010915004+42350-071050FM-13+000099999V0209999C000019999999N999999999+00611+99999099201ADDMD1610121+9999REMSYN042BHBM3 46/// ///// 10061 49920 56012 91500=
0068994971999992019010916004+42350-071050FM-13+000099999V0209999C000019999999N999999999+00621+99999099101ADDMD1810161+9999REMSYN042BHBM3 46/// ///// 10062 49910 58016 91600=
0068994971999992019010917004+42350-071050FM-13+000099999V0209999C000019999999N999999999+00651+99999099071ADDMD1710161+9999REMSYN042BHBM3 46/// ///// 10065 49907 57016 91700=
0068994971999992019010918004+42350-071050FM-13+000099999V0209999C000019999999N999999999+00641+99999099131ADDMD1510071+9999REMSYN042BHBM3 46/// ///// 10064 49913 55007 91800=
0068994971999992019010919004+42350-071050FM-13+000099999V0209999C000019999999N999999999+00601+99999099211ADDMD1310111+9999REMSYN042BHBM3 46/// ///// 10060 49921 53011 91900=
0068994971999992019010920004+42350-071050FM-13+000099999V0209999C000019999999N999999999+00651+99999099281ADDMD1310211+9999REMSYN042BHBM3 46/// ///// 10065 49928 53021 92000=
0068994971999992019010921004+42350-071050FM-13+000099999V0209999C000019999999N999999999+00641+99999099351ADDMD1110221+9999REMSYN042BHBM3 46/// ///// 10064 49935 51022 92100=
0068994971999992019010922004+42350-071050FM-13+000099999V0209999C000019999999N999999999+00571+99999099411ADDMD1110201+9999REMSYN042BHBM3 46/// ///// 10057 49941 51020 92200=
0068994971999992019010923004+42350-071050FM-13+000099999V0209999C000019999999N999999999+00481+99999099521ADDMD1310241+9999REMSYN042BHBM3 46/// ///// 10048 49952 53024 92300=
0068994971999992019011000004+42350-071050FM-13+000099999V0209999C000019999999N999999999+00421+99999099581ADDMD1210231+9999REMSYN042BHBM3 46/// ///// 10042 49958 52023 90000=
0068994971999992019011001004+42350-071050FM-13+000099999V0209999C000019999999N999999999+00351+99999099591ADDMD1110181+9999REMSYN042BHBM3 46/// ///// 10035 49959 51018 90100=
0068994971999992019011002004+42350-071050FM-13+000099999V0209999C000019999999N999999999+00301+99999099581ADDMD1110061+9999REMSYN042BHBM3 46/// ///// 10030 49958 51006 90200=
0068994971999992019011003004+42350-071050FM-13+000099999V0209999C000019999999N999999999+00241+99999099581ADDMD1410001+9999REMSYN042BHBM3 46/// ///// 10024 49958 54000 90300=
0068994971999992019011004004+42350-071050FM-13+000099999V0209999C000019999999N999999999+00201+99999099561ADDMD1710031+9999REMSYN042BHBM3 46/// ///// 10020 49956 57003 90400=
0068994971999992019011005004+42350-071050FM-13+000099999V0209999C000019999999N999999999+00191+99999099561ADDMD1410001+9999REMSYN042BHBM3 46/// ///// 10019 49956 54000 90500=
0068994971999992019011006004+42350-071050FM-13+000099999V0209999C000019999999N999999999+00191+99999099601ADDMD1510001+9999REMSYN042BHBM3 46/// ///// 10019 49960 55000 90600=
0068994971999992019011007004+42350-071050FM-13+000099999V0209999C000019999999N999999999+00151+99999099621ADDMD1210061+9999REMSYN042BHBM3 46/// ///// 10015 49962 52006 90700=
0068994971999992019011008004+42350-071050FM-13+000099999V0209999C000019999999N999999999+00161+99999099621ADDMD1110061+9999REMSYN042BHBM3 46/// ///// 10016 49962 51006 90800=
0068994971999992019011009004+42350-071050FM-13+000099999V0209999C000019999999N999999999+00171+99999099601ADDMD1410001+9999REMSYN042BHBM3 46/// ///// 10017 49960 54000 90900=
0068994971999992019011010004+42350-071050FM-13+000099999V0209999C000019999999N999999999+00161+99999099621ADDMD1410001+9999REMSYN042BHBM3 46/// ///// 10016 49962 54000 91000=
0068994971999992019011011004+42350-071050FM-13+000099999V0209999C000019999999N999999999+99999+99999099661ADDMD1310041+9999REMSYN042BHBM3 46/// ///// 1//// 49966 53004 91100=
0068994971999992019011012004+42350-071050FM-13+000099999V0209999C000019999999N999999999+00121+99999099701ADDMD1310101+9999REMSYN042BHBM3 46/// ///// 10012 49970 53010 91200=
0068994971999992019011013004+42350-071050FM-13+000099999V0209999C000019999999N999999999+00121+99999099771ADDMD1310151+9999REMSYN042BHBM3 46/// ///// 10012 49977 53015 91300=
0068994971999992019011014004+42350-071050FM-13+000099999V0209999C000019999999N999999999+00221+99999099851ADDMD1310191+9999REMSYN042BHBM3 46/// ///// 10022 49985 53019 91400=
0068994971999992019011015004+42350-071050FM-13+000099999V0209999C000019999999N999999999+00121+99999099921ADDMD1210221+9999REMSYN042BHBM3 46/// ///// 10012 49992 52022 91500=
0068994971999992019011016004+42350-071050FM-13+000099999V0209999C000019999999N999999999+00161+99999099891ADDMD1990121+9999REMSYN042BHBM3 46/// ///// 10016 49989 50012 91600=
0068994971999992019011017004+42350-071050FM-13+000099999V0209999C000019999999N999999999+00121+99999099901ADDMD1110051+9999REMSYN042BHBM3 46/// ///// 10012 49990 51005 91700=
0068994971999992019011018004+42350-071050FM-13+000099999V0209999C000019999999N999999999+00081+99999099961ADDMD1310041+9999REMSYN042BHBM3 46/// ///// 10008 49996 53004 91800=
0068994971999992019011019004+42350-071050FM-13+000099999V0209999C000019999999N999999999+00111+99999100011ADDMD1310121+9999REMSYN042BHBM3 46/// ///// 10011 40001 53012 91900=
0068994971999992019011020004+42350-071050FM-13+000099999V0209999C000019999999N999999999+00121+99999100111ADDMD1310211+9999REMSYN042BHBM3 46/// ///// 10012 40011 53021 92000=
0068994971999992019011021004+42350-071050FM-13+000099999V0209999C000019999999N999999999+00111+99999100201ADDMD1310241+9999REMSYN042BHBM3 46/// ///// 10011 40020 53024 92100=
0068994971999992019011022004+42350-071050FM-13+000099999V0209999C000019999999N999999999+00121+99999100311ADDMD1310301+9999REMSYN042BHBM3 46/// ///// 10012 40031 53030 92200=
0068994971999992019011023004+42350-071050FM-13+000099999V0209999C000019999999N999999999+00021+99999100421ADDMD1310311+9999REMSYN042BHBM3 46/// ///// 10002 40042 53031 92300=
0068994971999992019011100004+42350-071050FM-13+000099999V0209999C000019999999N999999999-00061+99999100521ADDMD1110321+9999REMSYN042BHBM3 46/// ///// 11006 40052 51032 90000=
0068994971999992019011101004+42350-071050FM-13+000099999V0209999C000019999999N999999999-00121+99999100571ADDMD1110261+9999REMSYN042BHBM3 46/// ///// 11012 40057 51026 90100=
0068994971999992019011102004+42350-071050FM-13+000099999V0209999C000019999999N999999999-00181+99999100691ADDMD1310271+9999REMSYN042BHBM3 46/// ///// 11018 40069 53027 90200=
0068994971999992019011103004+42350-071050FM-13+000099999V0209999C000019999999N999999999-00231+99999100781ADDMD1310261+9999REMSYN042BHBM3 46/// ///// 11023 40078 53026 90300=
0068994971999992019011104004+42350-071050FM-13+000099999V0209999C000019999999N999999999-00311+99999100851ADDMD1110281+9999REMSYN042BHBM3 46/// ///// 11031 40085 51028 90400=
0068994971999992019011105004+42350-071050FM-13+000099999V0209999C000019999999N999999999-00371+99999100911ADDMD1110221+9999REMSYN042BHBM3 46/// ///// 11037 40091 51022 90500=
0068994971999992019011106004+42350-071050FM-13+000099999V0209999C000019999999N999999999-00361+99999100971ADDMD1110191+9999REMSYN042BHBM3 46/// ///// 11036 40097 51019 90600=
0068994971999992019011107004+42350-071050FM-13+000099999V0209999C000019999999N999999999-00401+99999101041ADDMD1310191+9999REMSYN042BHBM3 46/// ///// 11040 40104 53019 90700=
0068994971999992019011108004+42350-071050FM-13+000099999V0209999C000019999999N999999999-00391+99999101091ADDMD1110181+9999REMSYN042BHBM3 46/// ///// 11039 40109 51018 90800=
0045994971999992019011109004+42350-071050FM-13+000099999V0209999C000019999999N999999999-00371+99999101101REMSYN036BHBM3 46/// ///// 11037 40110 90842=
0068994971999992019011110004+42350-071050FM-13+000099999V0209999C000019999999N999999999-00351+99999101191ADDMD1310151+9999REMSYN042BHBM3 46/// ///// 11035 40119 53015 91000=
0068994971999992019011111004+42350-071050FM-13+000099999V0209999C000019999999N999999999-00371+99999101271ADDMD1310181+9999REMSYN042BHBM3 46/// ///// 11037 40127 53018 91100=
0068994971999992019011112004+42350-071050FM-13+000099999V0209999C000019999999N999999999-00411+99999101371ADDMD1310241+9999REMSYN042BHBM3 46/// ///// 11041 40137 53024 91200=
0045994971999992019011113004+42350-071050FM-13+000099999V0209999C000019999999N999999999-00451+99999101511REMSYN036BHBM3 46/// ///// 11045 40151 91242=
0045994971999992019011114004+42350-071050FM-13+000099999V0209999C000019999999N999999999-00381+99999101641REMSYN036BHBM3 46/// ///// 11038 40164 91336=
0068994971999992019011115004+42350-071050FM-13+000099999V0209999C000019999999N999999999-00301+99999101771ADDMD1110401+9999REMSYN042BHBM3 46/// ///// 11030 40177 51040 91500=
0068994971999992019011116004+42350-071050FM-13+000099999V0209999C000019999999N999999999-00191+99999101771ADDMD1110211+9999REMSYN042BHBM3 46/// ///// 11019 40177 51021 91600=
0045994971999992019011122004+42350-071050FM-13+000099999V0209999C000019999999N999999999-00421+99999102141REMSYN036BHBM3 46/// ///// 11042 40214 92212=
0045994971999992019011123004+42350-071050FM-13+000099999V0209999C000019999999N999999999-00461+99999102201REMSYN036BHBM3 46/// ///// 11046 40220 92242=
0045994971999992019011200004+42350-071050FM-13+000099999V0209999C000019999999N999999999-00531+99999102301REMSYN036BHBM3 46/// ///// 11053 40230 92342=
0045994971999992019011201004+42350-071050FM-13+000099999V0209999C000019999999N999999999-00611+99999102401REMSYN036BHBM3 46/// ///// 11061 40240 90042=
0068994971999992019011202004+42350-071050FM-13+000099999V0209999C000019999999N999999999-00771+99999102571ADDMD1310341+9999REMSYN042BHBM3 46/// ///// 11077 40257 53034 90200=
0068994971999992019011203004+42350-071050FM-13+000099999V0209999C000019999999N999999999-00841+99999102691ADDMD1210361+9999REMSYN042BHBM3 46/// ///// 11084 40269 52036 90300=
0068994971999992019011204004+42350-071050FM-13+000099999V0209999C000019999999N999999999-00861+99999102721ADDMD1110271+9999REMSYN042BHBM3 46/// ///// 11086 40272 51027 90400=
0068994971999992019011205004+42350-071050FM-13+000099999V0209999C000019999999N999999999-00891+99999102741ADDMD1110171+9999REMSYN042BHBM3 46/// ///// 11089 40274 51017 90500=
0068994971999992019011206004+42350-071050FM-13+000099999V0209999C000019999999N999999999-00901+99999102811ADDMD1310121+9999REMSYN042BHBM3 46/// ///// 11090 40281 53012 90600=
0068994971999992019011207004+42350-071050FM-13+000099999V0209999C000019999999N999999999-00931+99999102881ADDMD1310161+9999REMSYN042BHBM3 46/// ///// 11093 40288 53016 90700=
0068994971999992019011208004+42350-071050FM-13+000099999V0209999C000019999999N999999999-00951+99999102921ADDMD1110181+9999REMSYN042BHBM3 46/// ///// 11095 40292 51018 90800=
0068994971999992019011209004+42350-071050FM-13+000099999V0209999C000019999999N999999999-00961+99999102971ADDMD1110161+9999REMSYN042BHBM3 46/// ///// 11096 40297 51016 90900=
0068994971999992019011210004+42350-071050FM-13+000099999V0209999C000019999999N999999999-00961+99999103021ADDMD1310141+9999REMSYN042BHBM3 46/// ///// 11096 40302 53014 91000=
0068994971999992019011211004+42350-071050FM-13+000099999V0209999C000019999999N999999999-00971+99999103101ADDMD1310181+9999REMSYN042BHBM3 46/// ///// 11097 40310 53018 91100=
0068994971999992019011212004+42350-071050FM-13+000099999V0209999C000019999999N999999999-00971+99999103151ADDMD1210181+9999REMSYN042BHBM3 46/// ///// 11097 40315 52018 91200=
0068994971999992019011213004+42350-071050FM-13+000099999V0209999C000019999999N999999999-00931+99999103201ADDMD1110181+9999REMSYN042BHBM3 46/// ///// 11093 40320 51018 91300=
0068994971999992019011214004+42350-071050FM-13+000099999V0209999C000019999999N999999999-00741+99999103241ADDMD1110141+9999REMSYN042BHBM3 46/// ///// 11074 40324 51014 91400=
0068994971999992019011215004+42350-071050FM-13+000099999V0209999C000019999999N999999999+99999+99999103221ADDMD1110071+9999REMSYN042BHBM3 46/// ///// 1//// 40322 51007 91500=
0068994971999992019011216004+42350-071050FM-13+000099999V0209999C000019999999N999999999-00481+99999103131ADDMD1810071+9999REMSYN042BHBM3 46/// ///// 11048 40313 58007 91600=
0068994971999992019011217004+42350-071050FM-13+000099999V0209999C000019999999N999999999-00411+99999103051ADDMD1810191+9999REMSYN042BHBM3 46/// ///// 11041 40305 58019 91700=
0068994971999992019011218004+42350-071050FM-13+000099999V0209999C000019999999N999999999-00261+99999103001ADDMD1610221+9999REMSYN042BHBM3 46/// ///// 11026 40300 56022 91800=
0068994971999992019011219004+42350-071050FM-13+000099999V0209999C000019999999N999999999-00271+99999103031ADDMD1510101+9999REMSYN042BHBM3 46/// ///// 11027 40303 55010 91900=
0068994971999992019011220004+42350-071050FM-13+000099999V0209999C000019999999N999999999-00151+99999103051ADDMD1510001+9999REMSYN042BHBM3 46/// ///// 11015 40305 55000 92000=
0068994971999992019011221004+42350-071050FM-13+000099999V0209999C000019999999N999999999-00251+99999103071ADDMD1110071+9999REMSYN042BHBM3 46/// ///// 11025 40307 51007 92100=
0068994971999992019011222004+42350-071050FM-13+000099999V0209999C000019999999N999999999-00311+99999103111ADDMD1310081+9999REMSYN042BHBM3 46/// ///// 11031 40311 53008 92200=
0068994971999992019011223004+42350-071050FM-13+000099999V0209999C000019999999N999999999-00361+99999103141ADDMD1310091+9999REMSYN042BHBM3 46/// ///// 11036 40314 53009 92300=
0068994971999992019011300004+42350-071050FM-13+000099999V0209999C000019999999N999999999+99999+99999103221ADDMD1310151+9999REMSYN042BHBM3 46/// ///// 1//// 40322 53015 90000=
0068994971999992019011301004+42350-071050FM-13+000099999V0209999C000019999999N999999999-00491+99999103211ADDMD1110101+9999REMSYN042BHBM3 46/// ///// 11049 40321 51010 90100=
0068994971999992019011302004+42350-071050FM-13+000099999V0209999C000019999999N999999999-00521+99999103241ADDMD1110101+9999REMSYN042BHBM3 46/// ///// 11052 40324 51010 90200=
0068994971999992019011303004+42350-071050FM-13+000099999V0209999C000019999999N999999999-00591+99999103191ADDMD1810031+9999REMSYN042BHBM3 46/// ///// 11059 40319 58003 90300=
0068994971999992019011304004+42350-071050FM-13+000099999V0209999C000019999999N999999999-00641+99999103201ADDMD1990001+9999REMSYN042BHBM3 46/// ///// 11064 40320 50000 90400=
0068994971999992019011305004+42350-071050FM-13+000099999V0209999C000019999999N999999999-00691+99999103181ADDMD1610061+9999REMSYN042BHBM3 46/// ///// 11069 40318 56006 90500=
0068994971999992019011306004+42350-071050FM-13+000099999V0209999C000019999999N999999999-00751+99999103191ADDMD1410001+9999REMSYN042BHBM3 46/// ///// 11075 40319 54000 90600=
0068994971999992019011307004+42350-071050FM-13+000099999V0209999C000019999999N999999999-00781+99999103191ADDMD1410001+9999REMSYN042BHBM3 46/// ///// 11078 40319 54000 90700=
0068994971999992019011308004+42350-071050FM-13+000099999V0209999C000019999999N999999999-00831+99999103161ADDMD1990001+9999REMSYN042BHBM3 46/// ///// 11083 40316 50000 90800=
0068994971999992019011309004+42350-071050FM-13+000099999V0209999C000019999999N999999999-00871+99999103141ADDMD1710051+9999REMSYN042BHBM3 46/// ///// 11087 40314 57005 90900=
0068994971999992019011310004+42350-071050FM-13+000099999V0209999C000019999999N999999999-00911+99999103191ADDMD1510001+9999REMSYN042BHBM3 46/// ///// 11091 40319 55000 91000=
0068994971999992019011311004+42350-071050FM-13+000099999V0209999C000019999999N999999999-00921+99999103221ADDMD1310061+9999REMSYN042BHBM3 46/// ///// 11092 40322 53006 91100=
0068994971999992019011312004+42350-071050FM-13+000099999V0209999C000019999999N999999999-00931+99999103181ADDMD1990041+9999REMSYN042BHBM3 46/// ///// 11093 40318 50004 91200=
0068994971999992019011313004+42350-071050FM-13+000099999V0209999C000019999999N999999999-00901+99999103201ADDMD1990001+9999REMSYN042BHBM3 46/// ///// 11090 40320 50000 91300=
0068994971999992019011314004+42350-071050FM-13+000099999V0209999C000019999999N999999999-00881+99999103251ADDMD1310031+9999REMSYN042BHBM3 46/// ///// 11088 40325 53003 91400=
0068994971999992019011315004+42350-071050FM-13+000099999V0209999C000019999999N999999999-00721+99999103271ADDMD1210091+9999REMSYN042BHBM3 46/// ///// 11072 40327 52009 91500=
0068994971999992019011316004+42350-071050FM-13+000099999V0209999C000019999999N999999999-00591+99999103191ADDMD1990001+9999REMSYN042BHBM3 46/// ///// 11059 40319 50000 91600=
0068994971999992019011317004+42350-071050FM-13+000099999V0209999C000019999999N999999999-00491+99999103071ADDMD1810181+9999REMSYN042BHBM3 46/// ///// 11049 40307 58018 91700=
0068994971999992019011318004+42350-071050FM-13+000099999V0209999C000019999999N999999999-00361+99999103011ADDMD1610261+9999REMSYN042BHBM3 46/// ///// 11036 40301 56026 91800=
0068994971999992019011319004+42350-071050FM-13+000099999V0209999C000019999999N999999999-00311+99999103001ADDMD1610191+9999REMSYN042BHBM3 46/// ///// 11031 40300 56019 91900=
0068994971999992019011320004+42350-071050FM-13+000099999V0209999C000019999999N999999999-00231+99999102971ADDMD1610101+9999REMSYN042BHBM3 46/// ///// 11023 40297 56010 92000=
0068994971999992019011321004+42350-071050FM-13+000099999V0209999C000019999999N999999999-00331+99999102921ADDMD1810091+9999REMSYN042BHBM3 46/// ///// 11033 40292 58009 92100=
0068994971999992019011322004+42350-071050FM-13+000099999V0209999C000019999999N999999999-00331+99999102901ADDMD1610101+9999REMSYN042BHBM3 46/// ///// 11033 40290 56010 92200=
0068994971999992019011323004+42350-071050FM-13+000099999V0209999C000019999999N999999999-00381+99999102941ADDMD1510031+9999REMSYN042BHBM3 46/// ///// 11038 40294 55003 92300=
0068994971999992019011400004+42350-071050FM-13+000099999V0209999C000019999999N999999999+99999+99999102951ADDMD1210031+9999REMSYN042BHBM3 46/// ///// 1//// 40295 52003 90000=
0068994971999992019011401004+42350-071050FM-13+000099999V0209999C000019999999N999999999-00381+99999102891ADDMD1990001+9999REMSYN042BHBM3 46/// ///// 11038 40289 50000 90100=
0068994971999992019011402004+42350-071050FM-13+000099999V0209999C000019999999N999999999-00371+99999102891ADDMD1710051+9999REMSYN042BHBM3 46/// ///// 11037 40289 57005 90200=
0068994971999992019011403004+42350-071050FM-13+000099999V0209999C000019999999N999999999-00341+99999102861ADDMD1610091+9999REMSYN042BHBM3 46/// ///// 11034 40286 56009 90300=
0068994971999992019011404004+42350-071050FM-13+000099999V0209999C000019999999N999999999-00341+99999102821ADDMD1810071+9999REMSYN042BHBM3 46/// ///// 11034 40282 58007 90400=
0068994971999992019011405004+42350-071050FM-13+000099999V0209999C000019999999N999999999-00361+99999102731ADDMD1810161+9999REMSYN042BHBM3 46/// ///// 11036 40273 58016 90500=
0068994971999992019011406004+42350-071050FM-13+000099999V0209999C000019999999N999999999-00421+99999102691ADDMD1710171+9999REMSYN042BHBM3 46/// ///// 11042 40269 57017 90600=
0068994971999992019011407004+42350-071050FM-13+000099999V0209999C000019999999N999999999-00451+99999102721ADDMD1510101+9999REMSYN042BHBM3 46/// ///// 11045 40272 55010 90700=
0068994971999992019011408004+42350-071050FM-13+000099999V0209999C000019999999N999999999-00471+99999102661ADDMD1810071+9999REMSYN042BHBM3 46/// ///// 11047 40266 58007 90800=
0068994971999992019011409004+42350-071050FM-13+000099999V0209999C000019999999N999999999-00491+99999102581ADDMD1810111+9999REMSYN042BHBM3 46/// ///// 11049 40258 58011 90900=
0068994971999992019011410004+42350-071050FM-13+000099999V0209999C000019999999N999999999-00481+99999102511ADDMD1810211+9999REMSYN042BHBM3 46/// ///// 11048 40251 58021 91000=
0068994971999992019011411004+42350-071050FM-13+000099999V0209999C000019999999N999999999-00471+99999102501ADDMD1610161+9999REMSYN042BHBM3 46/// ///// 11047 40250 56016 91100=
0068994971999992019011412004+42350-071050FM-13+000099999V0209999C000019999999N999999999-00511+99999102521ADDMD1610061+9999REMSYN042BHBM3 46/// ///// 11051 40252 56006 91200=
0068994971999992019011413004+42350-071050FM-13+000099999V0209999C000019999999N999999999-00491+99999102531ADDMD1410001+9999REMSYN042BHBM3 46/// ///// 11049 40253 54000 91300=
0068994971999992019011414004+42350-071050FM-13+000099999V0209999C000019999999N999999999-00451+99999102561ADDMD1310061+9999REMSYN042BHBM3 46/// ///// 11045 40256 53006 91400=
0068994971999992019011415004+42350-071050FM-13+000099999V0209999C000019999999N999999999+99999+99999102561ADDMD1210041+9999REMSYN042BHBM3 46/// ///// 1//// 40256 52004 91500=
0068994971999992019011416004+42350-071050FM-13+000099999V0209999C000019999999N999999999-00321+99999102451ADDMD1810081+9999REMSYN042BHBM3 46/// ///// 11032 40245 58008 91600=
0068994971999992019011417004+42350-071050FM-13+000099999V0209999C000019999999N999999999+99999+99999102321ADDMD1810241+9999REMSYN042BHBM3 46/// ///// 1//// 40232 58024 91700=
0068994971999992019011418004+42350-071050FM-13+000099999V0209999C000019999999N999999999-00211+99999102231ADDMD1610331+9999REMSYN042BHBM3 46/// ///// 11021 40223 56033 91800=
0068994971999992019011419004+42350-071050FM-13+000099999V0209999C000019999999N999999999-00211+99999102211ADDMD1610241+9999REMSYN042BHBM3 46/// ///// 11021 40221 56024 91900=
0068994971999992019011420004+42350-071050FM-13+000099999V0209999C000019999999N999999999+99999+99999102131ADDMD1610191+9999REMSYN042BHBM3 46/// ///// 1//// 40213 56019 92000=
0068994971999992019011421004+42350-071050FM-13+000099999V0209999C000019999999N999999999-00161+99999102061ADDMD1810171+9999REMSYN042BHBM3 46/// ///// 11016 40206 58017 92100=
0068994971999992019011422004+42350-071050FM-13+000099999V0209999C000019999999N999999999-00181+99999102021ADDMD1610191+9999REMSYN042BHBM3 46/// ///// 11018 40202 56019 92200=
0045994971999992019011423004+42350-071050FM-13+000099999V0209999C000019999999N999999999-00161+99999102021REMSYN036BHBM3 46/// ///// 11016 40202 92236=
0068994971999992019011500004+42350-071050FM-13+000099999V0209999C000019999999N999999999-00121+99999101981ADDMD1710081+9999REMSYN042BHBM3 46/// ///// 11012 40198 57008 90000=
0068994971999992019011501004+42350-071050FM-13+000099999V0209999C000019999999N999999999-00141+99999101921ADDMD1710101+9999REMSYN042BHBM3 46/// ///// 11014 40192 57010 90100=
0045994971999992019011502004+42350-071050FM-13+000099999V0209999C000019999999N999999999-00141+99999101911REMSYN036BHBM3 46/// ///// 11014 40191 90136=
0068994971999992019011503004+42350-071050FM-13+000099999V0209999C000019999999N999999999-00251+99999101911ADDMD1610071+9999REMSYN042BHBM3 46/// ///// 11025 40191 56007 90300=
0068994971999992019011504004+42350-071050FM-13+000099999V0209999C000019999999N999999999-00281+99999101881ADDMD1810041+9999REMSYN042BHBM3 46/// ///// 11028 40188 58004 90400=
0068994971999992019011505004+42350-071050FM-13+000099999V0209999C000019999999N999999999-00311+99999101811ADDMD1810111+9999REMSYN042BHBM3 46/// ///// 11031 40181 58011 90500=
0068994971999992019011506004+42350-071050FM-13+000099999V0209999C000019999999N999999999-00291+99999101791ADDMD1610121+9999REMSYN042BHBM3 46/// ///// 11029 40179 56012 90600=
0068994971999992019011507004+42350-071050FM-13+000099999V0209999C000019999999N999999999-00321+99999101761ADDMD1610121+9999REMSYN042BHBM3 46/// ///// 11032 40176 56012 90700=
0068994971999992019011508004+42350-071050FM-13+000099999V0209999C000019999999N999999999-00331+99999101741ADDMD1710071+9999REMSYN042BHBM3 46/// ///// 11033 40174 57007 90800=
0068994971999992019011509004+42350-071050FM-13+000099999V0209999C000019999999N999999999-00361+99999101711ADDMD1710081+9999REMSYN042BHBM3 46/// ///// 11036 40171 57008 90900=
0068994971999992019011510004+42350-071050FM-13+000099999V0209999C000019999999N999999999-00361+99999101721ADDMD1710041+9999REMSYN042BHBM3 46/// ///// 11036 40172 57004 91000=
0068994971999992019011511004+42350-071050FM-13+000099999V0209999C000019999999N999999999-00341+99999101771ADDMD1310031+9999REMSYN042BHBM3 46/// ///// 11034 40177 53003 91100=
0068994971999992019011512004+42350-071050FM-13+000099999V0209999C000019999999N999999999-00401+99999101801ADDMD1310091+9999REMSYN042BHBM3 46/// ///// 11040 40180 53009 91200=
0068994971999992019011513004+42350-071050FM-13+000099999V0209999C000019999999N999999999-00361+99999101831ADDMD1110111+9999REMSYN042BHBM3 46/// ///// 11036 40183 51011 91300=
0068994971999992019011514004+42350-071050FM-13+000099999V0209999C000019999999N999999999-00251+99999101901ADDMD1310131+9999REMSYN042BHBM3 46/// ///// 11025 40190 53013 91400=
0068994971999992019011515004+42350-071050FM-13+000099999V0209999C000019999999N999999999-00201+99999101941ADDMD1310141+9999REMSYN042BHBM3 46/// ///// 11020 40194 53014 91500=
0068994971999992019011516004+42350-071050FM-13+000099999V0209999C000019999999N999999999-00121+99999101901ADDMD1990071+9999REMSYN042BHBM3 46/// ///// 11012 40190 50007 91600=
0068994971999992019011517004+42350-071050FM-13+000099999V0209999C000019999999N999999999+99999+99999101821ADDMD1810081+9999REMSYN042BHBM3 46/// ///// 1//// 40182 58008 91700=
0068994971999992019011518004+42350-071050FM-13+000099999V0209999C000019999999N999999999+99999+99999101751ADDMD1810191+9999REMSYN042BHBM3 46/// ///// 1//// 40175 58019 91800=
0068994971999992019011519004+42350-071050FM-13+000099999V0209999C000019999999N999999999+00181+99999101751ADDMD1610151+9999REMSYN042BHBM3 46/// ///// 10018 40175 56015 91900=
0068994971999992019011520004+42350-071050FM-13+000099999V0209999C000019999999N999999999+00221+99999101771ADDMD1610051+9999REMSYN042BHBM3 46/// ///// 10022 40177 56005 92000=
0068994971999992019011521004+42350-071050FM-13+000099999V0209999C000019999999N999999999+00221+99999101781ADDMD1210031+9999REMSYN042BHBM3 46/// ///// 10022 40178 52003 92100=
0068994971999992019011522004+42350-071050FM-13+000099999V0209999C000019999999N999999999+00151+99999101811ADDMD1310061+9999REMSYN042BHBM3 46/// ///// 10015 40181 53006 92200=
0068994971999992019011523004+42350-071050FM-13+000099999V0209999C000019999999N999999999+00101+99999101881ADDMD1310111+9999REMSYN042BHBM3 46/// ///// 10010 40188 53011 92300=
0068994971999992019011600004+42350-071050FM-13+000099999V0209999C000019999999N999999999-00011+99999101921ADDMD1310141+9999REMSYN042BHBM3 46/// ///// 11001 40192 53014 90000=
0068994971999992019011601004+42350-071050FM-13+000099999V0209999C000019999999N999999999-00031+99999101931ADDMD1110121+9999REMSYN042BHBM3 46/// ///// 11003 40193 51012 90100=
0068994971999992019011602004+42350-071050FM-13+000099999V0209999C000019999999N999999999-00061+99999101921ADDMD1110041+9999REMSYN042BHBM3 46/// ///// 11006 40192 51004 90200=
0068994971999992019011603004+42350-071050FM-13+000099999V0209999C000019999999N999999999-00091+99999101911ADDMD1410001+9999REMSYN042BHBM3 46/// ///// 11009 40191 54000 90300=
0068994971999992019011604004+42350-071050FM-13+000099999V0209999C000019999999N999999999-00101+99999101901ADDMD1710031+9999REMSYN042BHBM3 46/// ///// 11010 40190 57003 90400=
0068994971999992019011605004+42350-071050FM-13+000099999V0209999C000019999999N999999999-00131+99999101821ADDMD1810101+9999REMSYN042BHBM3 46/// ///// 11013 40182 58010 90500=
0068994971999992019011606004+42350-071050FM-13+000099999V0209999C000019999999N999999999-00141+99999101761ADDMD1810151+9999REMSYN042BHBM3 46/// ///// 11014 40176 58015 90600=
0068994971999992019011607004+42350-071050FM-13+000099999V0209999C000019999999N999999999-00221+99999101721ADDMD1610181+9999REMSYN042BHBM3 46/// ///// 11022 40172 56018 90700=
0068994971999992019011608004+42350-071050FM-13+000099999V0209999C000019999999N999999999+99999+99999101691ADDMD1610131+9999REMSYN042BHBM3 46/// ///// 1//// 40169 56013 90800=
0068994971999992019011609004+42350-071050FM-13+000099999V0209999C000019999999N999999999-00251+99999101661ADDMD1610101+9999REMSYN042BHBM3 46/// ///// 11025 40166 56010 90900=
0068994971999992019011610004+42350-071050FM-13+000099999V0209999C000019999999N999999999-00281+99999101591ADDMD1810131+9999REMSYN042BHBM3 46/// ///// 11028 40159 58013 91000=
0068994971999992019011611004+42350-071050FM-13+000099999V0209999C000019999999N999999999-00351+99999101601ADDMD1610091+9999REMSYN042BHBM3 46/// ///// 11035 40160 56009 91100=
0068994971999992019011612004+42350-071050FM-13+000099999V0209999C000019999999N999999999-00261+99999101621ADDMD1610041+9999REMSYN042BHBM3 46/// ///// 11026 40162 56004 91200=
0068994971999992019011613004+42350-071050FM-13+000099999V0209999C000019999999N999999999-00271+99999101561ADDMD1810031+9999REMSYN042BHBM3 46/// ///// 11027 40156 58003 91300=
0068994971999992019011614004+42350-071050FM-13+000099999V0209999C000019999999N999999999-00081+99999101551ADDMD1710051+9999REMSYN042BHBM3 46/// ///// 11008 40155 57005 91400=
0068994971999992019011615004+42350-071050FM-13+000099999V0209999C000019999999N999999999+00041+99999101541ADDMD1610081+9999REMSYN042BHBM3 46/// ///// 10004 40154 56008 91500=
0068994971999992019011616004+42350-071050FM-13+000099999V0209999C000019999999N999999999+00111+99999101481ADDMD1810081+9999REMSYN042BHBM3 46/// ///// 10011 40148 58008 91600=
0068994971999992019011617004+42350-071050FM-13+000099999V0209999C000019999999N999999999+00161+99999101361ADDMD1810191+9999REMSYN042BHBM3 46/// ///// 10016 40136 58019 91700=
0068994971999992019011618004+42350-071050FM-13+000099999V0209999C000019999999N999999999+00231+99999101301ADDMD1710241+9999REMSYN042BHBM3 46/// ///// 10023 40130 57024 91800=
0068994971999992019011619004+42350-071050FM-13+000099999V0209999C000019999999N999999999+00261+99999101331ADDMD1510151+9999REMSYN042BHBM3 46/// ///// 10026 40133 55015 91900=
0068994971999992019011620004+42350-071050FM-13+000099999V0209999C000019999999N999999999+00281+99999101341ADDMD1510001+9999REMSYN042BHBM3 46/// ///// 10028 40134 55000 92000=
0068994971999992019011621004+42350-071050FM-13+000099999V0209999C000019999999N999999999+00291+99999101371ADDMD1210071+9999REMSYN042BHBM3 46/// ///// 10029 40137 52007 92100=
0068994971999992019011622004+42350-071050FM-13+000099999V0209999C000019999999N999999999+99999+99999101431ADDMD1310101+9999REMSYN042BHBM3 46/// ///// 1//// 40143 53010 92200=
0068994971999992019011623004+42350-071050FM-13+000099999V0209999C000019999999N999999999+99999+99999101511ADDMD1310171+9999REMSYN042BHBM3 46/// ///// 1//// 40151 53017 92300=
0068994971999992019011700004+42350-071050FM-13+000099999V0209999C000019999999N999999999+00281+99999101571ADDMD1210201+9999REMSYN042BHBM3 46/// ///// 10028 40157 52020 90000=
0068994971999992019011701004+42350-071050FM-13+000099999V0209999C000019999999N999999999+00281+99999101621ADDMD1110191+9999REMSYN042BHBM3 46/// ///// 10028 40162 51019 90100=
0068994971999992019011702004+42350-071050FM-13+000099999V0209999C000019999999N999999999+00291+99999101711ADDMD1310201+9999REMSYN042BHBM3 46/// ///// 10029 40171 53020 90200=
0068994971999992019011703004+42350-071050FM-13+000099999V0209999C000019999999N999999999+00201+99999101841ADDMD1310271+9999REMSYN042BHBM3 46/// ///// 10020 40184 53027 90300=
0068994971999992019011704004+42350-071050FM-13+000099999V0209999C000019999999N999999999+00111+99999101961ADDMD1310341+9999REMSYN042BHBM3 46/// ///// 10011 40196 53034 90400=
0068994971999992019011705004+42350-071050FM-13+000099999V0209999C000019999999N999999999+00011+99999102051ADDMD1110341+9999REMSYN042BHBM3 46/// ///// 10001 40205 51034 90500=
0068994971999992019011706004+42350-071050FM-13+000099999V0209999C000019999999N999999999-00111+99999102201ADDMD1310361+9999REMSYN042BHBM3 46/// ///// 11011 40220 53036 90600=
0068994971999992019011707004+42350-071050FM-13+000099999V0209999C000019999999N999999999-00241+99999102321ADDMD1310361+9999REMSYN042BHBM3 46/// ///// 11024 40232 53036 90700=
0068994971999992019011708004+42350-071050FM-13+000099999V0209999C000019999999N999999999-00391+99999102451ADDMD1110401+9999REMSYN042BHBM3 46/// ///// 11039 40245 51040 90800=
0068994971999992019011709004+42350-071050FM-13+000099999V0209999C000019999999N999999999-00551+99999102561ADDMD1110361+9999REMSYN042BHBM3 46/// ///// 11055 40256 51036 90900=
0068994971999992019011710004+42350-071050FM-13+000099999V0209999C000019999999N999999999-00661+99999102641ADDMD1110321+9999REMSYN042BHBM3 46/// ///// 11066 40264 51032 91000=
0068994971999992019011711004+42350-071050FM-13+000099999V0209999C000019999999N999999999-00711+99999102671ADDMD1110221+9999REMSYN042BHBM3 46/// ///// 11071 40267 51022 91100=
0068994971999992019011712004+42350-071050FM-13+000099999V0209999C000019999999N999999999-00781+99999102791ADDMD1310231+9999REMSYN042BHBM3 46/// ///// 11078 40279 53023 91200=
0068994971999992019011713004+42350-071050FM-13+000099999V0209999C000019999999N999999999-00821+99999102841ADDMD1310201+9999REMSYN042BHBM3 46/// ///// 11082 40284 53020 91300=
0068994971999992019011714004+42350-071050FM-13+000099999V0209999C000019999999N999999999-00621+99999102951ADDMD1110281+9999REMSYN042BHBM3 46/// ///// 11062 40295 51028 91400=
0068994971999992019011715004+42350-071050FM-13+000099999V0209999C000019999999N999999999-00681+99999103001ADDMD1210211+9999REMSYN042BHBM3 46/// ///// 11068 40300 52021 91500=
0068994971999992019011716004+42350-071050FM-13+000099999V0209999C000019999999N999999999-00571+99999102961ADDMD1990121+9999REMSYN042BHBM3 46/// ///// 11057 40296 50012 91600=
0068994971999992019011717004+42350-071050FM-13+000099999V0209999C000019999999N999999999-00481+99999102881ADDMD1810071+9999REMSYN042BHBM3 46/// ///// 11048 40288 58007 91700=
0068994971999992019011718004+42350-071050FM-13+000099999V0209999C000019999999N999999999-00361+99999102811ADDMD1810191+9999REMSYN042BHBM3 46/// ///// 11036 40281 58019 91800=
0068994971999992019011719004+42350-071050FM-13+000099999V0209999C000019999999N999999999-00311+99999102801ADDMD1610161+9999REMSYN042BHBM3 46/// ///// 11031 40280 56016 91900=
0068994971999992019011720004+42350-071050FM-13+000099999V0209999C000019999999N999999999-00261+99999102761ADDMD1610121+9999REMSYN042BHBM3 46/// ///// 11026 40276 56012 92000=
0068994971999992019011721004+42350-071050FM-13+000099999V0209999C000019999999N999999999-00311+99999102751ADDMD1710061+9999REMSYN042BHBM3 46/// ///// 11031 40275 57006 92100=
0068994971999992019011722004+42350-071050FM-13+000099999V0209999C000019999999N999999999-00331+99999102761ADDMD1610041+9999REMSYN042BHBM3 46/// ///// 11033 40276 56004 92200=
0068994971999992019011723004+42350-071050FM-13+000099999V0209999C000019999999N999999999-00301+99999102781ADDMD1410001+9999REMSYN042BHBM3 46/// ///// 11030 40278 54000 92300=
0068994971999992019011800004+42350-071050FM-13+000099999V0209999C000019999999N999999999-00321+99999102791ADDMD1210041+9999REMSYN042BHBM3 46/// ///// 11032 40279 52004 90000=
0068994971999992019011801004+42350-071050FM-13+000099999V0209999C000019999999N999999999-00331+99999102781ADDMD1410001+9999REMSYN042BHBM3 46/// ///// 11033 40278 54000 90100=
0068994971999992019011802004+42350-071050FM-13+000099999V0209999C000019999999N999999999-00351+99999102771ADDMD1410001+9999REMSYN042BHBM3 46/// ///// 11035 40277 54000 90200=
0068994971999992019011803004+42350-071050FM-13+000099999V0209999C000019999999N999999999-00341+99999102731ADDMD1810061+9999REMSYN042BHBM3 46/// ///// 11034 40273 58006 90300=
0068994971999992019011804004+42350-071050FM-13+000099999V0209999C000019999999N999999999-00331+99999102721ADDMD1710061+9999REMSYN042BHBM3 46/// ///// 11033 40272 57006 90400=
0068994971999992019011805004+42350-071050FM-13+000099999V0209999C000019999999N999999999-00331+99999102651ADDMD1810121+9999REMSYN042BHBM3 46/// ///// 11033 40265 58012 90500=
0068994971999992019011806004+42350-071050FM-13+000099999V0209999C000019999999N999999999-00321+99999102541ADDMD1810191+9999REMSYN042BHBM3 46/// ///// 11032 40254 58019 90600=
0068994971999992019011807004+42350-071050FM-13+000099999V0209999C000019999999N999999999-00261+99999102521ADDMD1610201+9999REMSYN042BHBM3 46/// ///// 11026 40252 56020 90700=
0068994971999992019011808004+42350-071050FM-13+000099999V0209999C000019999999N999999999-00251+99999102471ADDMD1610181+9999REMSYN042BHBM3 46/// ///// 11025 40247 56018 90800=
0068994971999992019011809004+42350-071050FM-13+000099999V0209999C000019999999N999999999-00221+99999102331ADDMD1810211+9999REMSYN042BHBM3 46/// ///// 11022 40233 58021 90900=
0068994971999992019011810004+42350-071050FM-13+000099999V0209999C000019999999N999999999-00221+99999102211ADDMD1810311+9999REMSYN042BHBM3 46/// ///// 11022 40221 58031 91000=
0068994971999992019011811004+42350-071050FM-13+000099999V0209999C000019999999N999999999-00191+99999102161ADDMD1610311+9999REMSYN042BHBM3 46/// ///// 11019 40216 56031 91100=
0068994971999992019011812004+42350-071050FM-13+000099999V0209999C000019999999N999999999-00171+99999102171ADDMD1610161+9999REMSYN042BHBM3 46/// ///// 11017 40217 56016 91200=
0068994971999992019011813004+42350-071050FM-13+000099999V0209999C000019999999N999999999-00121+99999102141ADDMD1610071+9999REMSYN042BHBM3 46/// ///// 11012 40214 56007 91300=
0068994971999992019011814004+42350-071050FM-13+000099999V0209999C000019999999N999999999-00021+99999102101ADDMD1810061+9999REMSYN042BHBM3 46/// ///// 11002 40210 58006 91400=
0068994971999992019011815004+42350-071050FM-13+000099999V0209999C000019999999N999999999+00061+99999102091ADDMD1610081+9999REMSYN042BHBM3 46/// ///// 10006 40209 56008 91500=
0068994971999992019011816004+42350-071050FM-13+000099999V0209999C000019999999N999999999+00131+99999102031ADDMD1810111+9999REMSYN042BHBM3 46/// ///// 10013 40203 58011 91600=
0068994971999992019011817004+42350-071050FM-13+000099999V0209999C000019999999N999999999+00271+99999101861ADDMD1810241+9999REMSYN042BHBM3 46/// ///// 10027 40186 58024 91700=
0068994971999992019011818004+42350-071050FM-13+000099999V0209999C000019999999N999999999+00291+99999101721ADDMD1810371+9999REMSYN042BHBM3 46/// ///// 10029 40172 58037 91800=
0068994971999992019011819004+42350-071050FM-13+000099999V0209999C000019999999N999999999+00401+99999101671ADDMD1610361+9999REMSYN042BHBM3 46/// ///// 10040 40167 56036 91900=
0068994971999992019011820004+42350-071050FM-13+000099999V0209999C000019999999N999999999+00451+99999101631ADDMD1610231+9999REMSYN042BHBM3 46/// ///// 10045 40163 56023 92000=
0068994971999992019011821004+42350-071050FM-13+000099999V0209999C000019999999N999999999+00441+99999101621ADDMD1610101+9999REMSYN042BHBM3 46/// ///// 10044 40162 56010 92100=
0068994971999992019011822004+42350-071050FM-13+000099999V0209999C000019999999N999999999+00421+99999101671ADDMD1510001+9999REMSYN042BHBM3 46/// ///// 10042 40167 55000 92200=
0068994971999992019011823004+42350-071050FM-13+000099999V0209999C000019999999N999999999+00391+99999101681ADDMD1210051+9999REMSYN042BHBM3 46/// ///// 10039 40168 52005 92300=
0068994971999992019011900004+42350-071050FM-13+000099999V0209999C000019999999N999999999+00351+99999101701ADDMD1110081+9999REMSYN042BHBM3 46/// ///// 10035 40170 51008 90000=
0068994971999992019011901004+42350-071050FM-13+000099999V0209999C000019999999N999999999+00371+99999101751ADDMD1310081+9999REMSYN042BHBM3 46/// ///// 10037 40175 53008 90100=
0068994971999992019011902004+42350-071050FM-13+000099999V0209999C000019999999N999999999+00341+99999101791ADDMD1310111+9999REMSYN042BHBM3 46/// ///// 10034 40179 53011 90200=
0068994971999992019011903004+42350-071050FM-13+000099999V0209999C000019999999N999999999+00311+99999101851ADDMD1310151+9999REMSYN042BHBM3 46/// ///// 10031 40185 53015 90300=
0068994971999992019011904004+42350-071050FM-13+000099999V0209999C000019999999N999999999+00271+99999101911ADDMD1310161+9999REMSYN042BHBM3 46/// ///// 10027 40191 53016 90400=
0068994971999992019011905004+42350-071050FM-13+000099999V0209999C000019999999N999999999+00241+99999101961ADDMD1110171+9999REMSYN042BHBM3 46/// ///// 10024 40196 51017 90500=
0068994971999992019011906004+42350-071050FM-13+000099999V0209999C000019999999N999999999+00171+99999102051ADDMD1310201+9999REMSYN042BHBM3 46/// ///// 10017 40205 53020 90600=
0068994971999992019011907004+42350-071050FM-13+000099999V0209999C000019999999N999999999+00131+99999102101ADDMD1210191+9999REMSYN042BHBM3 46/// ///// 10013 40210 52019 90700=
0068994971999992019011908004+42350-071050FM-13+000099999V0209999C000019999999N999999999+00061+99999102131ADDMD1110171+9999REMSYN042BHBM3 46/// ///// 10006 40213 51017 90800=
0068994971999992019011909004+42350-071050FM-13+000099999V0209999C000019999999N999999999+00031+99999102221ADDMD1310171+9999REMSYN042BHBM3 46/// ///// 10003 40222 53017 90900=
0068994971999992019011910004+42350-071050FM-13+000099999V0209999C000019999999N999999999+00001+99999102281ADDMD1310181+9999REMSYN042BHBM3 46/// ///// 10000 40228 53018 91000=
0068994971999992019011911004+42350-071050FM-13+000099999V0209999C000019999999N999999999-00091+99999102351ADDMD1110221+9999REMSYN042BHBM3 46/// ///// 11009 40235 51022 91100=
0068994971999992019011912004+42350-071050FM-13+000099999V0209999C000019999999N999999999-00221+99999102481ADDMD1310261+9999REMSYN042BHBM3 46/// ///// 11022 40248 53026 91200=
0068994971999992019011913004+42350-071050FM-13+000099999V0209999C000019999999N999999999-00261+99999102551ADDMD1210271+9999REMSYN042BHBM3 46/// ///// 11026 40255 52027 91300=
0068994971999992019011914004+42350-071050FM-13+000099999V0209999C000019999999N999999999-00141+99999102641ADDMD1110291+9999REMSYN042BHBM3 46/// ///// 11014 40264 51029 91400=
0068994971999992019011915004+42350-071050FM-13+000099999V0209999C000019999999N999999999-00151+99999102691ADDMD1110211+9999REMSYN042BHBM3 46/// ///// 11015 40269 51021 91500=
0068994971999992019011916004+42350-071050FM-13+000099999V0209999C000019999999N999999999-00161+99999102691ADDMD1110141+9999REMSYN042BHBM3 46/// ///// 11016 40269 51014 91600=
0068994971999992019011917004+42350-071050FM-13+000099999V0209999C000019999999N999999999-00141+99999102631ADDMD1990001+9999REMSYN042BHBM3 46/// ///// 11014 40263 50000 91700=
0068994971999992019011918004+42350-071050FM-13+000099999V0209999C000019999999N999999999-00131+99999102531ADDMD1810161+9999REMSYN042BHBM3 46/// ///// 11013 40253 58016 91800=
0068994971999992019011919004+42350-071050FM-13+000099999V0209999C000019999999N999999999-00151+99999102471ADDMD1710221+9999REMSYN042BHBM3 46/// ///// 11015 40247 57022 91900=
0068994971999992019011920004+42350-071050FM-13+000099999V0209999C000019999999N999999999-00161+99999102411ADDMD1610221+9999REMSYN042BHBM3 46/// ///// 11016 40241 56022 92000=
0068994971999992019011921004+42350-071050FM-13+000099999V0209999C000019999999N999999999-00131+99999102501ADDMD1510031+9999REMSYN042BHBM3 46/// ///// 11013 40250 55003 92100=
0068994971999992019011922004+42350-071050FM-13+000099999V0209999C000019999999N999999999-00131+99999102521ADDMD1310051+9999REMSYN042BHBM3 46/// ///// 11013 40252 53005 92200=
0068994971999992019011923004+42350-071050FM-13+000099999V0209999C000019999999N999999999-00181+99999102441ADDMD1990031+9999REMSYN042BHBM3 46/// ///// 11018 40244 50003 92300=
0068994971999992019012000004+42350-071050FM-13+000099999V0209999C000019999999N999999999-00181+99999102381ADDMD1810121+9999REMSYN042BHBM3 46/// ///// 11018 40238 58012 90000=
0068994971999992019012001004+42350-071050FM-13+000099999V0209999C000019999999N999999999-00151+99999102321ADDMD1610201+9999REMSYN042BHBM3 46/// ///// 11015 40232 56020 90100=
0068994971999992019012002004+42350-071050FM-13+000099999V0209999C000019999999N999999999-00151+99999102261ADDMD1710181+9999REMSYN042BHBM3 46/// ///// 11015 40226 57018 90200=
0068994971999992019012003004+42350-071050FM-13+000099999V0209999C000019999999N999999999-00131+99999102081ADDMD1810301+9999REMSYN042BHBM3 46/// ///// 11013 40208 58030 90300=
0068994971999992019012004004+42350-071050FM-13+000099999V0209999C000019999999N999999999-00081+99999102051ADDMD1610271+9999REMSYN042BHBM3 46/// ///// 11008 40205 56027 90400=
0068994971999992019012005004+42350-071050FM-13+000099999V0209999C000019999999N999999999-00061+99999101891ADDMD1610371+9999REMSYN042BHBM3 46/// ///// 11006 40189 56037 90500=
0068994971999992019012006004+42350-071050FM-13+000099999V0209999C000019999999N999999999-00031+99999101651ADDMD1810431+9999REMSYN042BHBM3 46/// ///// 11003 40165 58043 90600=
0068994971999992019012007004+42350-071050FM-13+000099999V0209999C000019999999N999999999-00051+99999101521ADDMD1610531+9999REMSYN042BHBM3 46/// ///// 11005 40152 56053 90700=
0068994971999992019012008004+42350-071050FM-13+000099999V0209999C000019999999N999999999-00051+99999101371ADDMD1610521+9999REMSYN042BHBM3 46/// ///// 11005 40137 56052 90800=
0068994971999992019012009004+42350-071050FM-13+000099999V0209999C000019999999N999999999-00051+99999101101ADDMD1810551+9999REMSYN042BHBM3 46/// ///// 11005 40110 58055 90900=
0068994971999992019012010004+42350-071050FM-13+000099999V0209999C000019999999N999999999-00031+99999100731ADDMD1810791+9999REMSYN042BHBM3 46/// ///// 11003 40073 58079 91000=
0068994971999992019012011004+42350-071050FM-13+000099999V0209999C000019999999N999999999+00101+99999100491ADDMD1610881+9999REMSYN042BHBM3 46/// ///// 10010 40049 56088 91100=
0068994971999992019012012004+42350-071050FM-13+000099999V0209999C000019999999N999999999+00121+99999100351ADDMD1610751+9999REMSYN042BHBM3 46/// ///// 10012 40035 56075 91200=
0068994971999992019012013004+42350-071050FM-13+000099999V0209999C000019999999N999999999+00121+99999100141ADDMD1610591+9999REMSYN042BHBM3 46/// ///// 10012 40014 56059 91300=
0068994971999992019012014004+42350-071050FM-13+000099999V0209999C000019999999N999999999-00281+99999099951ADDMD1810541+9999REMSYN042BHBM3 46/// ///// 11028 49995 58054 91400=
0068994971999992019012015004+42350-071050FM-13+000099999V0209999C000019999999N999999999-00431+99999099861ADDMD1610491+9999REMSYN042BHBM3 46/// ///// 11043 49986 56049 91500=
0068994971999992019012016004+42350-071050FM-13+000099999V0209999C000019999999N999999999-00581+99999099661ADDMD1810481+9999REMSYN042BHBM3 46/// ///// 11058 49966 58048 91600=
0068994971999992019012017004+42350-071050FM-13+000099999V0209999C000019999999N999999999-00531+99999099491ADDMD1810461+9999REMSYN042BHBM3 46/// ///// 11053 49949 58046 91700=
0068994971999992019012018004+42350-071050FM-13+000099999V0209999C000019999999N999999999-00331+99999099071ADDMD1810791+9999REMSYN042BHBM3 46/// ///// 11033 49907 58079 91800=
0068994971999992019012019004+42350-071050FM-13+000099999V0209999C000019999999N999999999-00351+99999099062ADDMD1610601+9999REMSYN042BHBM3 46/// ///// 11035 49906 56060 91900=
0068994971999992019012020004+42350-071050FM-13+000099999V0209999C000019999999N999999999-00631+99999099221ADDMD1510271+9999REMSYN042BHBM3 46/// ///// 11063 49922 55027 92000=
0068994971999992019012021004+42350-071050FM-13+000099999V0209999C000019999999N999999999-00601+99999099161ADDMD1990091+9999REMSYN042BHBM3 46/// ///// 11060 49916 50009 92100=
0068994971999992019012022004+42350-071050FM-13+000099999V0209999C000019999999N999999999-00511+99999099211ADDMD1110151+9999REMSYN042BHBM3 46/// ///// 11051 49921 51015 92200=
0068994971999992019012023004+42350-071050FM-13+000099999V0209999C000019999999N999999999-00441+99999099251ADDMD1310031+9999REMSYN042BHBM3 46/// ///// 11044 49925 53003 92300=
0068994971999992019012100004+42350-071050FM-13+000099999V0209999C000019999999N999999999-00371+99999099361ADDMD1310201+9999REMSYN042BHBM3 46/// ///// 11037 49936 53020 90000=
0068994971999992019012101004+42350-071050FM-13+000099999V0209999C000019999999N999999999-00481+99999099461ADDMD1310251+9999REMSYN042BHBM3 46/// ///// 11048 49946 53025 90100=
0068994971999992019012102004+42350-071050FM-13+000099999V0209999C000019999999N999999999-00711+99999099571ADDMD1210321+9999REMSYN042BHBM3 46/// ///// 11071 49957 52032 90200=
0068994971999992019012103004+42350-071050FM-13+000099999V0209999C000019999999N999999999-00941+99999099751ADDMD1310391+9999REMSYN042BHBM3 46/// ///// 11094 49975 53039 90300=
0068994971999992019012104004+42350-071050FM-13+000099999V0209999C000019999999N999999999-01081+99999099891ADDMD1310431+9999REMSYN042BHBM3 46/// ///// 11108 49989 53043 90400=
0068994971999992019012105004+42350-071050FM-13+000099999V0209999C000019999999N999999999-01241+99999099991ADDMD1110421+9999REMSYN042BHBM3 46/// ///// 11124 49999 51042 90500=
0068994971999992019012106004+42350-071050FM-13+000099999V0209999C000019999999N999999999-01321+99999100031ADDMD1110281+9999REMSYN042BHBM3 46/// ///// 11132 40003 51028 90600=
0068994971999992019012107004+42350-071050FM-13+000099999V0209999C000019999999N999999999-01341+99999100111ADDMD1110221+9999REMSYN042BHBM3 46/// ///// 11134 40011 51022 90700=
0068994971999992019012108004+42350-071050FM-13+000099999V0209999C000019999999N999999999-01391+99999100171ADDMD1310181+9999REMSYN042BHBM3 46/// ///// 11139 40017 53018 90800=
0068994971999992019012109004+42350-071050FM-13+000099999V0209999C000019999999N999999999-01391+99999100251ADDMD1210221+9999REMSYN042BHBM3 46/// ///// 11139 40025 52022 90900=
0068994971999992019012110004+42350-071050FM-13+000099999V0209999C000019999999N999999999-01431+99999100331ADDMD1310221+9999REMSYN042BHBM3 46/// ///// 11143 40033 53022 91000=
0068994971999992019012111004+42350-071050FM-13+000099999V0209999C000019999999N999999999-01471+99999100421ADDMD1310251+9999REMSYN042BHBM3 46/// ///// 11147 40042 53025 91100=
0068994971999992019012112004+42350-071050FM-13+000099999V0209999C000019999999N999999999-01541+99999100531ADDMD1310281+9999REMSYN042BHBM3 46/// ///// 11154 40053 53028 91200=
0068994971999992019012113004+42350-071050FM-13+000099999V0209999C000019999999N999999999-01491+99999100631ADDMD1310301+9999REMSYN042BHBM3 46/// ///// 11149 40063 53030 91300=
0068994971999992019012114004+42350-071050FM-13+000099999V0209999C000019999999N999999999-01471+99999100741ADDMD1210321+9999REMSYN042BHBM3 46/// ///// 11147 40074 52032 91400=
0068994971999992019012115004+42350-071050FM-13+000099999V0209999C000019999999N999999999-01441+99999100861ADDMD1310331+9999REMSYN042BHBM3 46/// ///// 11144 40086 53033 91500=
0068994971999992019012116004+42350-071050FM-13+000099999V0209999C000019999999N999999999-01461+99999100901ADDMD1110271+9999REMSYN042BHBM3 46/// ///// 11146 40090 51027 91600=
0068994971999992019012117004+42350-071050FM-13+000099999V0209999C000019999999N999999999-01411+99999100871ADDMD1990131+9999REMSYN042BHBM3 46/// ///// 11141 40087 50013 91700=
0068994971999992019012118004+42350-071050FM-13+000099999V0209999C000019999999N999999999-01401+99999100871ADDMD1990001+9999REMSYN042BHBM3 46/// ///// 11140 40087 50000 91800=
0068994971999992019012119004+42350-071050FM-13+000099999V0209999C000019999999N999999999-01441+99999100891ADDMD1510001+9999REMSYN042BHBM3 46/// ///// 11144 40089 55000 91900=
0068994971999992019012120004+42350-071050FM-13+000099999V0209999C000019999999N999999999-01381+99999101011ADDMD1310141+9999REMSYN042BHBM3 46/// ///// 11138 40101 53014 92000=
0068994971999992019012121004+42350-071050FM-13+000099999V0209999C000019999999N999999999-01361+99999101141ADDMD1310271+9999REMSYN042BHBM3 46/// ///// 11136 40114 53027 92100=
0068994971999992019012122004+42350-071050FM-13+000099999V0209999C000019999999N999999999-01441+99999101271ADDMD1310381+9999REMSYN042BHBM3 46/// ///// 11144 40127 53038 92200=
0068994971999992019012123004+42350-071050FM-13+000099999V0209999C000019999999N999999999-01471+99999101411ADDMD1310401+9999REMSYN042BHBM3 46/// ///// 11147 40141 53040 92300=
0068994971999992019012200004+42350-071050FM-13+000099999V0209999C000019999999N999999999-01451+99999101541ADDMD1210401+9999REMSYN042BHBM3 46/// ///// 11145 40154 52040 90000=
0068994971999992019012201004+42350-071050FM-13+000099999V0209999C000019999999N999999999-01461+99999101671ADDMD1110401+9999REMSYN042BHBM3 46/// ///// 11146 40167 51040 90100=
0068994971999992019012202004+42350-071050FM-13+000099999V0209999C000019999999N999999999-01411+99999101791ADDMD1110381+9999REMSYN042BHBM3 46/// ///// 11141 40179 51038 90200=
0068994971999992019012203004+42350-071050FM-13+000099999V0209999C000019999999N999999999-01421+99999101891ADDMD1110351+9999REMSYN042BHBM3 46/// ///// 11142 40189 51035 90300=
0068994971999992019012204004+42350-071050FM-13+000099999V0209999C000019999999N999999999-01401+99999102001ADDMD1110331+9999REMSYN042BHBM3 46/// ///// 11140 40200 51033 90400=
0068994971999992019012205004+42350-071050FM-13+000099999V0209999C000019999999N999999999-01401+99999102091ADDMD1110301+9999REMSYN042BHBM3 46/// ///// 11140 40209 51030 90500=
0068994971999992019012206004+42350-071050FM-13+000099999V0209999C000019999999N999999999-01401+99999102131ADDMD1110241+9999REMSYN042BHBM3 46/// ///// 11140 40213 51024 90600=
0068994971999992019012207004+42350-071050FM-13+000099999V0209999C000019999999N999999999-01371+99999102221ADDMD1210221+9999REMSYN042BHBM3 46/// ///// 11137 40222 52022 90700=
0068994971999992019012208004+42350-071050FM-13+000099999V0209999C000019999999N999999999-01341+99999102341ADDMD1310251+9999REMSYN042BHBM3 46/// ///// 11134 40234 53025 90800=
0068994971999992019012209004+42350-071050FM-13+000099999V0209999C000019999999N999999999-01331+99999102461ADDMD1310331+9999REMSYN042BHBM3 46/// ///// 11133 40246 53033 90900=
0068994971999992019012210004+42350-071050FM-13+000099999V0209999C000019999999N999999999-01341+99999102671ADDMD1310451+9999REMSYN042BHBM3 46/// ///// 11134 40267 53045 91000=
0068994971999992019012211004+42350-071050FM-13+000099999V0209999C000019999999N999999999-01241+99999102831ADDMD1310491+9999REMSYN042BHBM3 46/// ///// 11124 40283 53049 91100=
0068994971999992019012212004+42350-071050FM-13+000099999V0209999C000019999999N999999999-01281+99999102981ADDMD1110521+9999REMSYN042BHBM3 46/// ///// 11128 40298 51052 91200=
0068994971999992019012213004+42350-071050FM-13+000099999V0209999C000019999999N999999999-01281+99999103131ADDMD1110461+9999REMSYN042BHBM3 46/// ///// 11128 40313 51046 91300=
0068994971999992019012214004+42350-071050FM-13+000099999V0209999C000019999999N999999999-01031+99999103191ADDMD1110361+9999REMSYN042BHBM3 46/// ///// 11103 40319 51036 91400=
0068994971999992019012215004+42350-071050FM-13+000099999V0209999C000019999999N999999999-00791+99999103271ADDMD1110291+9999REMSYN042BHBM3 46/// ///// 11079 40327 51029 91500=
0068994971999992019012216004+42350-071050FM-13+000099999V0209999C000019999999N999999999-00701+99999103311ADDMD1110181+9999REMSYN042BHBM3 46/// ///// 11070 40331 51018 91600=
0068994971999992019012217004+42350-071050FM-13+000099999V0209999C000019999999N999999999-00531+99999103261ADDMD1990071+9999REMSYN042BHBM3 46/// ///// 11053 40326 50007 91700=
0068994971999992019012218004+42350-071050FM-13+000099999V0209999C000019999999N999999999-00431+99999103221ADDMD1810051+9999REMSYN042BHBM3 46/// ///// 11043 40322 58005 91800=
0068994971999992019012219004+42350-071050FM-13+000099999V0209999C000019999999N999999999-00291+99999103281ADDMD1510031+9999REMSYN042BHBM3 46/// ///// 11029 40328 55003 91900=
0068994971999992019012220004+42350-071050FM-13+000099999V0209999C000019999999N999999999-00161+99999103311ADDMD1310051+9999REMSYN042BHBM3 46/// ///// 11016 40331 53005 92000=
0068994971999992019012221004+42350-071050FM-13+000099999V0209999C000019999999N999999999-00191+99999103401ADDMD1310181+9999REMSYN042BHBM3 46/// ///// 11019 40340 53018 92100=
0068994971999992019012222004+42350-071050FM-13+000099999V0209999C000019999999N999999999-00281+99999103411ADDMD1110131+9999REMSYN042BHBM3 46/// ///// 11028 40341 51013 92200=
0068994971999992019012223004+42350-071050FM-13+000099999V0209999C000019999999N999999999-00291+99999103471ADDMD1110161+9999REMSYN042BHBM3 46/// ///// 11029 40347 51016 92300=
0068994971999992019012300004+42350-071050FM-13+000099999V0209999C000019999999N999999999-00291+99999103521ADDMD1310121+9999REMSYN042BHBM3 46/// ///// 11029 40352 53012 90000=
0068994971999992019012301004+42350-071050FM-13+000099999V0209999C000019999999N999999999-00331+99999103511ADDMD1110101+9999REMSYN042BHBM3 46/// ///// 11033 40351 51010 90100=
0068994971999992019012302004+42350-071050FM-13+000099999V0209999C000019999999N999999999-00381+99999103491ADDMD1990001+9999REMSYN042BHBM3 46/// ///// 11038 40349 50000 90200=
0068994971999992019012303004+42350-071050FM-13+000099999V0209999C000019999999N999999999-00431+99999103511ADDMD1410001+9999REMSYN042BHBM3 46/// ///// 11043 40351 54000 90300=
0068994971999992019012304004+42350-071050FM-13+000099999V0209999C000019999999N999999999-00481+99999103481ADDMD1810031+9999REMSYN042BHBM3 46/// ///// 11048 40348 58003 90400=
0068994971999992019012305004+42350-071050FM-13+000099999V0209999C000019999999N999999999-00541+99999103461ADDMD1710031+9999REMSYN042BHBM3 46/// ///// 11054 40346 57003 90500=
0068994971999992019012306004+42350-071050FM-13+000099999V0209999C000019999999N999999999-00571+99999103381ADDMD1810131+9999REMSYN042BHBM3 46/// ///// 11057 40338 58013 90600=
0068994971999992019012307004+42350-071050FM-13+000099999V0209999C000019999999N999999999-00661+99999103301ADDMD1810181+9999REMSYN042BHBM3 46/// ///// 11066 40330 58018 90700=
0068994971999992019012308004+42350-071050FM-13+000099999V0209999C000019999999N999999999-00671+99999103171ADDMD1810291+9999REMSYN042BHBM3 46/// ///// 11067 40317 58029 90800=
0068994971999992019012309004+42350-071050FM-13+000099999V0209999C000019999999N999999999-00641+99999103131ADDMD1610251+9999REMSYN042BHBM3 46/// ///// 11064 40313 56025 90900=
0068994971999992019012310004+42350-071050FM-13+000099999V0209999C000019999999N999999999-00611+99999103051ADDMD1610251+9999REMSYN042BHBM3 46/// ///// 11061 40305 56025 91000=
0068994971999992019012311004+42350-071050FM-13+000099999V0209999C000019999999N999999999-00571+99999102951ADDMD1810221+9999REMSYN042BHBM3 46/// ///// 11057 40295 58022 91100=
0068994971999992019012312004+42350-071050FM-13+000099999V0209999C000019999999N999999999-00481+99999102861ADDMD1810271+9999REMSYN042BHBM3 46/// ///// 11048 40286 58027 91200=
0068994971999992019012313004+42350-071050FM-13+000099999V0209999C000019999999N999999999-00301+99999102841ADDMD1610211+9999REMSYN042BHBM3 46/// ///// 11030 40284 56021 91300=
0068994971999992019012314004+42350-071050FM-13+000099999V0209999C000019999999N999999999-00111+99999102741ADDMD1810211+9999REMSYN042BHBM3 46/// ///// 11011 40274 58021 91400=
0068994971999992019012315004+42350-071050FM-13+000099999V0209999C000019999999N999999999+00011+99999102681ADDMD1810181+9999REMSYN042BHBM3 46/// ///// 10001 40268 58018 91500=
0068994971999992019012316004+42350-071050FM-13+000099999V0209999C000019999999N999999999+00051+99999102521ADDMD1810321+9999REMSYN042BHBM3 46/// ///// 10005 40252 58032 91600=
0068994971999992019012317004+42350-071050FM-13+000099999V0209999C000019999999N999999999+00211+99999102331ADDMD1810411+9999REMSYN042BHBM3 46/// ///// 10021 40233 58041 91700=
0068994971999992019012318004+42350-071050FM-13+000099999V0209999C000019999999N999999999+00361+99999102151ADDMD1810531+9999REMSYN042BHBM3 46/// ///// 10036 40215 58053 91800=
0068994971999992019012319004+42350-071050FM-13+000099999V0209999C000019999999N999999999+00451+99999102081ADDMD1610441+9999REMSYN042BHBM3 46/// ///// 10045 40208 56044 91900=
0068994971999992019012320004+42350-071050FM-13+000099999V0209999C000019999999N999999999+00481+99999102041ADDMD1610291+9999REMSYN042BHBM3 46/// ///// 10048 40204 56029 92000=
0068994971999992019012321004+42350-071050FM-13+000099999V0209999C000019999999N999999999+00471+99999101961ADDMD1810191+9999REMSYN042BHBM3 46/// ///// 10047 40196 58019 92100=
0068994971999992019012322004+42350-071050FM-13+000099999V0209999C000019999999N999999999+00481+99999101891ADDMD1810191+9999REMSYN042BHBM3 46/// ///// 10048 40189 58019 92200=
0068994971999992019012323004+42350-071050FM-13+000099999V0209999C000019999999N999999999+00521+99999101831ADDMD1610211+9999REMSYN042BHBM3 46/// ///// 10052 40183 56021 92300=
0068994971999992019012400004+42350-071050FM-13+000099999V0209999C000019999999N999999999+00531+99999101731ADDMD1810231+9999REMSYN042BHBM3 46/// ///// 10053 40173 58023 90000=
0068994971999992019012401004+42350-071050FM-13+000099999V0209999C000019999999N999999999+00591+99999101641ADDMD1810251+9999REMSYN042BHBM3 46/// ///// 10059 40164 58025 90100=
0068994971999992019012402004+42350-071050FM-13+000099999V0209999C000019999999N999999999+00661+99999101581ADDMD1610251+9999REMSYN042BHBM3 46/// ///// 10066 40158 56025 90200=
0068994971999992019012403004+42350-071050FM-13+000099999V0209999C000019999999N999999999+00741+99999101481ADDMD1810251+9999REMSYN042BHBM3 46/// ///// 10074 40148 58025 90300=
0068994971999992019012404004+42350-071050FM-13+000099999V0209999C000019999999N999999999+00791+99999101401ADDMD1810241+9999REMSYN042BHBM3 46/// ///// 10079 40140 58024 90400=
0068994971999992019012405004+42350-071050FM-13+000099999V0209999C000019999999N999999999+00881+99999101351ADDMD1610231+9999REMSYN042BHBM3 46/// ///// 10088 40135 56023 90500=
0068994971999992019012406004+42350-071050FM-13+000099999V0209999C000019999999N999999999+01031+99999101281ADDMD1610201+9999REMSYN042BHBM3 46/// ///// 10103 40128 56020 90600=
0068994971999992019012407004+42350-071050FM-13+000099999V0209999C000019999999N999999999+01061+99999101171ADDMD1810231+9999REMSYN042BHBM3 46/// ///// 10106 40117 58023 90700=
0068994971999992019012408004+42350-071050FM-13+000099999V0209999C000019999999N999999999+01031+99999101061ADDMD1810291+9999REMSYN042BHBM3 46/// ///// 10103 40106 58029 90800=
0068994971999992019012409004+42350-071050FM-13+000099999V0209999C000019999999N999999999+01081+99999100941ADDMD1810341+9999REMSYN042BHBM3 46/// ///// 10108 40094 58034 90900=
0068994971999992019012410004+42350-071050FM-13+000099999V0209999C000019999999N999999999+01071+99999100881ADDMD1610291+9999REMSYN042BHBM3 46/// ///// 10107 40088 56029 91000=
0068994971999992019012411004+42350-071050FM-13+000099999V0209999C000019999999N999999999+01121+99999100761ADDMD1710301+9999REMSYN042BHBM3 46/// ///// 10112 40076 57030 91100=
0068994971999992019012412004+42350-071050FM-13+000099999V0209999C000019999999N999999999+01151+99999100681ADDMD1810261+9999REMSYN042BHBM3 46/// ///// 10115 40068 58026 91200=
0068994971999992019012413004+42350-071050FM-13+000099999V0209999C000019999999N999999999+01231+99999100511ADDMD1810371+9999REMSYN042BHBM3 46/// ///// 10123 40051 58037 91300=
0068994971999992019012414004+42350-071050FM-13+000099999V0209999C000019999999N999999999+01261+99999100421ADDMD1810341+9999REMSYN042BHBM3 46/// ///// 10126 40042 58034 91400=
0068994971999992019012415004+42350-071050FM-13+000099999V0209999C000019999999N999999999+01321+99999100261ADDMD1610421+9999REMSYN042BHBM3 46/// ///// 10132 40026 56042 91500=
0068994971999992019012416004+42350-071050FM-13+000099999V0209999C000019999999N999999999+01371+99999100041ADDMD1810471+9999REMSYN042BHBM3 46/// ///// 10137 40004 58047 91600=
0068994971999992019012417004+42350-071050FM-13+000099999V0209999C000019999999N999999999+01361+99999099811ADDMD1810611+9999REMSYN042BHBM3 46/// ///// 10136 49981 58061 91700=
0068994971999992019012418004+42350-071050FM-13+000099999V0209999C000019999999N999999999+01331+99999099581ADDMD1810681+9999REMSYN042BHBM3 46/// ///// 10133 49958 58068 91800=
0068994971999992019012419004+42350-071050FM-13+000099999V0209999C000019999999N999999999+01401+99999099311ADDMD1810731+9999REMSYN042BHBM3 46/// ///// 10140 49931 58073 91900=
0068994971999992019012420004+42350-071050FM-13+000099999V0209999C000019999999N999999999+01401+99999099071ADDMD1810741+9999REMSYN042BHBM3 46/// ///// 10140 49907 58074 92000=
0068994971999992019012421004+42350-071050FM-13+000099999V0209999C000019999999N999999999+01401+99999098971ADDMD1610611+9999REMSYN042BHBM3 46/// ///// 10140 49897 56061 92100=
0087994971999992019012422004+42350-071050FM-13+000099999V0209999C000019999999N999999999+01361+99999999999ADDMD1610561+9999REMSYN042BHBM3 46/// ///// 10136 49875 56056 92200=EQDQ01 098753APOSLP
0068994971999992019012423004+42350-071050FM-13+000099999V0209999C000019999999N999999999+01331+99999098811ADDMD1510261+9999REMSYN042BHBM3 46/// ///// 10133 49881 55026 92300=
0068994971999992019012500004+42350-071050FM-13+000099999V0209999C000019999999N999999999+01131+99999098911ADDMD1510061+9999REMSYN042BHBM3 46/// ///// 10113 49891 55006 90000=
0068994971999992019012501004+42350-071050FM-13+000099999V0209999C000019999999N999999999+01051+99999099181ADDMD1310431+9999REMSYN042BHBM3 46/// ///// 10105 49918 53043 90100=
0068994971999992019012502004+42350-071050FM-13+000099999V0209999C000019999999N999999999+00851+99999099541ADDMD1310731+9999REMSYN042BHBM3 46/// ///// 10085 49954 53073 90200=
0068994971999992019012503004+42350-071050FM-13+000099999V0209999C000019999999N999999999+00551+99999099751ADDMD1110841+9999REMSYN042BHBM3 46/// ///// 10055 49975 51084 90300=
0068994971999992019012504004+42350-071050FM-13+000099999V0209999C000019999999N999999999+00371+99999099971ADDMD1110791+9999REMSYN042BHBM3 46/// ///// 10037 49997 51079 90400=
0068994971999992019012505004+42350-071050FM-13+000099999V0209999C000019999999N999999999+00251+99999100191ADDMD1310651+9999REMSYN042BHBM3 46/// ///// 10025 40019 53065 90500=
